:100000000C94F4000C941C010C941C010C941C0125
:100010000C941C010C941C010C941C010C941C01EC
:100020000C941C010C941C010C94DD070C944C08DE
:100030000C941C010C941C010C941C010C941C01CC
:100040000C941C010C941C010C941C010C941C01BC
:100050000C941C010C941C010C941C010C9493072F
:100060000C941C010C941C010C941C010C941C019C
:100070000C941C010C941C010C941C010C941C018C
:100080000C941C010C941C010C941C010C941C017C
:100090000C941C010C941C010C941C010C941C016C
:1000A0000C941C010C941C010C941C01080B000204
:1000B0000202000009040000010202000005240001
:1000C0001001052401010104240206052406000193
:1000D0000705810310004009040100020A00000026
:1000E00007050202400000070583024000000403E8
:1000F000090412010002EF0201404F1B06920001A9
:1001000001020301537061726B46756E005370619A
:10011000726B46756E2050726F204D6963726F006E
:1001200010101010101010001818181818181800B7
:100130001C1C1C1C1C1C1C001E1E1E1E1E1E1E0029
:100140001F1F1F1F1F1F1F0000000E1F1F0E00007C
:100150000000000E0E000000000102140800000064
:1001600000000000240027002A002D0030000000BD
:100170000000250028002B002E00310000000000A8
:100180002300260029002C002F000404040404038B
:100190000405020202020403020202020606060627
:1001A000060604040202020404040802011040804E
:1001B000401020408040800802040180402010024E
:1001C00001108010204040200000000200090F00B4
:1001D00000030401000C000000000000000000000B
:1001E0000000000000007E0A11241FBECFEFDAE0FD
:1001F000DEBFCDBF12E0A0E0B1E0E2EBF9E202C069
:1002000005900D92A831B107D9F723E0A8E1B2E03B
:1002100001C01D92A934B207E1F710E0C4EFD0E0AD
:1002200004C02197FE010E949511C33FD107C9F771
:100230000E94D40A0C94D7140C940000FC01809105
:10024000D102882311F13FB7F89482E08093E9004E
:100250002091F200822F90E01816190614F481E024
:1002600090E0882339F0289844E64093D0024091EA
:10027000F1004083222339F02091F200211103C0C4
:100280002BE62093E8003FBF08958FEF9FEF08957E
:100290002FB7F89483E08093E9009091E800892FCC
:1002A000807295FF04C09091F20080E4891B2FBFFB
:1002B00008958091C80281110DC082E08093C4022C
:1002C00084E08093C5021092C7021092C60281E0BA
:1002D0008093C80284EC92E0089581508F3008F03A
:1002E00047C0E82FF0E0E958FE4F0C9495119401B7
:1002F000980186018C019001B801B801B8019B01F9
:10030000A101A501A901AF01B801B301809180004D
:100310008F77809380000895809180008F7DF9CF42
:1003200080918000877FF5CF84B58F7784BD089555
:1003300084B58F7DFBCF809190008F778093900064
:100340000895809190008F7DF9CF80919000877FF4
:10035000F5CF8091C0008F778093C0000895809181
:10036000C0008F7DF9CF8091C200877F8093C2004B
:100370000895CF93DF93282F30E0F901E853FE4F23
:100380008491F901E755FE4FD491F901E657FE4FEC
:10039000C491CC23A1F081110E946D01EC2FF0E0FB
:1003A000EE0FFF1FE458FE4FA591B491EC91ED23A1
:1003B00081E090E009F480E0DF91CF91089580E042
:1003C00090E0FACF1F93CF93DF93282F30E0F9010D
:1003D000E853FE4F8491F901E755FE4FD491F9019E
:1003E000E657FE4FC491CC23A9F0162F81110E942D
:1003F0006D01EC2FF0E0EE0FFF1FE259FE4FA591CB
:10040000B4918FB7F894EC91111108C0D095DE2308
:10041000DC938FBFDF91CF911F910895DE2BF8CF32
:10042000CF93DF9390E0FC01E755FE4F2491865770
:100430009E4FFC0184918823D1F090E0880F991F92
:10044000FC01E05AFE4FA591B491FC01E259FE4F28
:10045000C591D49161110EC09FB7F8948C91E22F91
:10046000E0958E238C932881E223E8839FBFDF9160
:10047000CF9108958FB7F894EC91E22BEC938FBF56
:10048000F6CF3FB7F8948091C0029091C102A0913D
:10049000C202B091C30226B5A89B05C02F3F19F038
:1004A0000196A11DB11D3FBFBA2FA92F982F8827F4
:1004B000BC01CD01620F711D811D911D42E0660FCF
:1004C000771F881F991F4A95D1F708958F929F92A1
:1004D000AF92BF92CF92DF92EF92FF924B015C01FD
:1004E0000E9441026B017C010E9441026C197D094E
:1004F0008E099F09683E734081059105A8F321E0AC
:10050000821A9108A108B10888EEC80E83E0D81EAF
:10051000E11CF11C81149104A104B10429F7FF909E
:10052000EF90DF90CF90BF90AF909F908F90089505
:100530002FB7F8946091BC027091BD028091BE0209
:100540009091BF022FBF089540911A0250911B0253
:10055000209118023091190242175307B4F4909178
:10056000E8009570E1F39091E80092FD19C0809346
:10057000F10080911A0290911B0201968F739927C6
:10058000892B19F48EEF8093E80080911A029091E4
:100590001B02019690931B0280931A0281E008953A
:1005A00080E00895EF92FF920F931F93CF93DF9314
:1005B000F82E192FE62E042F81E0860F880F0E9457
:1005C000A40283E00E94A402CF2DD12FEC0EFD2EB9
:1005D000F11CCE15DF05B9F007FF13C0FE018491B1
:1005E0000E94A402182F80E00E94A4028123219679
:1005F0008111EFCFDF91CF911F910F91FF90EF907D
:1006000008958881EDCF81E0F5CFDF92EF92FF92E0
:100610000F931F93CF93DF93D82E8A01EB017B01B9
:10062000E40EF51ECE15DF0559F0D7FE12C0FE010F
:1006300084910E94A40221968111F4CF0FEF1FEF45
:10064000C801DF91CF911F910F91FF90EF90DF9044
:1006500008958881EECF0F931F93CF93DF931F925E
:10066000CDB7DEB782E0898342E450E06CEA70E007
:1006700080E80E9405030E945901DC0112960D9149
:100680001C910115110589F0D801ED91FC910280B2
:10069000F381E02DBE016F5F7F4FC801099597FD83
:1006A00004C0F80100851185ECCF89810F90DF919E
:1006B000CF911F910F910895615030F02091F1007A
:1006C000FC0120830196F8CF289884E68093D0021D
:1006D0000895AF92BF92CF92DF92EF92FF920F9365
:1006E0001F93CF93DF936C017B018B01040F151FC8
:1006F000EB015E01AE18BF08C017D10759F0699130
:10070000D601ED91FC910190F081E02DC601099593
:10071000892B79F7C501DF91CF911F910F91FF9040
:10072000EF90DF90CF90BF90AF9008958F929F92FF
:10073000AF92BF92CF92DF92EF92FF920F931F93EF
:10074000CF93DF936C017B018A0180910B01882399
:1007500009F45CC08091D102882309F457C08091CC
:100760001E0280FF05C08091E00082608093E0005F
:10077000E801B12C8AEFA82E93E0892E2AE3922E6D
:10078000209711F4BB20D9F10E94480181110AC0C1
:10079000AA94AA20D9F161E070E080E090E00E9484
:1007A0006602EECF8C171D0611F00CF08C2F9FB750
:1007B000F8948092E9002091E80025FD02C09FBFD7
:1007C000DFCF282F30E0C21BD30BF701815020F080
:1007D00041914093F100FACFE20EF31EBB2021F0CD
:1007E0009092E800B12CEBCF8091E80085FDE7CF37
:1007F0009092E800BB24B394209709F3F3CF5D985F
:1008000084E680931D02101611063CF081E090E012
:10081000F6019383828310E000E0C801DF91CF915D
:100820001F910F91FF90EF90DF90CF90BF90AF900E
:100830009F908F900895CF93DF931F92CDB7DEB72F
:100840006983DC01ED91FC910280F381E02D41E0B0
:1008500050E0BE016F5F7F4F09950F90DF91CF9100
:10086000089583E08093E9008091F200882319F0D5
:100870008AE38093E80008950E94480190E008957B
:10088000CF93DF931F92CDB7DEB7FC0184859585AA
:1008900097FD08C02FEF3FEF358724870F90DF913A
:1008A000CF910895CE0101960E941E01019719F47F
:1008B000898190E0F3CF8FEF9FEFF0CF0F931F93DD
:1008C000CF93DF931F92CDB7DEB78C01FC018485F7
:1008D000958597FF0BC0CE0101960E941E010197DE
:1008E00071F4898190E0F80195878487F801848507
:1008F00095850F90DF91CF911F910F9108958FEF04
:100900009FEFF1CFFC018485958597FD0BC09FB7C4
:10091000F89482E08093E9008091F2009FBF90E01C
:10092000019608959FB7F89482E08093E900809142
:10093000F2009FBF90E00895CF92DF92EF92FF9276
:100940000F931F93CF93DF93EC01462FE881F9813A
:100950000484F585E02D61E070E009958C01CC8878
:10096000DD88EE88FF880E944102688F798F8A8F28
:100970009B8FCC8EDD8EEE8EFF8E81E090E0012B82
:1009800011F090E080E0DF91CF911F910F91FF90E7
:10099000EF90DF90CF9008958F929F92AF92BF9289
:1009A000EF92FF921F93CF93DF93EC01162FE88114
:1009B000F9810484F585E02D462F70E060E009950B
:1009C0007C0111501230D8F419861A8688889988CB
:1009D000AA88BB880E944102688F798F8A8F9B8F7B
:1009E0008C8E9D8EAE8EBF8EC701DF91CF911F91F1
:1009F000FF90EF90BF90AF909F908F9008958C885C
:100A00009D88AE88BF88E6CF61E082E293E00C94D7
:100A1000CC04DC0118968C911897481710F04FEF12
:100A2000480F1B969C911B97992389F017969C91D0
:100A30001797691730F0691B4F5F4817D0F340E0F4
:100A4000F8CF19966C9319971A964C931A97FD0143
:100A5000E40FF11D8485680F6068CD010C94CC040F
:100A60000F931F93CF93DF93EC010E949C048C01A2
:100A70008B85882399F089858F5F89879F81891766
:100A800068F019868A858F5F8A879885891708F0AC
:100A90001A864A8560E0CE010E940905C801DF91EF
:100AA000CF911F910F910895682F82E293E00C94EB
:100AB00030058DEF9FEF08958DEF9FEF089590E043
:100AC00080E008951F93CF93DF93EC01162F6C8184
:100AD00060620E94CC04129516951695137063E01F
:100AE00070E0611B7109CE010E949C046D81862F0C
:100AF00084608D836C60CE01DF91CF911F910C9447
:100B0000CC040F931F93CF93DF93D62FC72F482F7B
:100B100060E082E293E00E9409050D2F1C2FC0E0E7
:100B2000F80181918F01882369F0082E000C990B40
:100B30000E945405CF5FC43199F7DF91CF911F9187
:100B40000F91089580E290E00E945405CF5FC43178
:100B5000C9F7F3CF90917002981761F080937002FB
:100B60000E949802609368027093690280936A02FF
:100B700090936B0208959091700290935A02809323
:100B8000670285E00C94AA050F931F93CF938C0105
:100B9000C62FFC0183A161E0C0FF60E00E94E2017A
:100BA000F80184A161E0C1FF60E00E94E201F80168
:100BB00085A161E0C2FF60E00E94E201F80186A128
:100BC00061E0C3FF60E0CF911F910F910C94E201AF
:100BD000662329F00E94620590E080E00895FC0100
:100BE00065816B7F658368600E94CC04F5CFCF93ED
:100BF000DF93EC0161E088A10E94100289A18F3F80
:100C000039F061E00E94100260E089A10E94E201D7
:100C100061E08AA10E94100260E08AA10E94E201C4
:100C200061E08BA10E94100261E08CA10E94100281
:100C300061E08DA10E94100261E08EA10E9410026D
:100C400090E080E0DF91CF91089508950F931F9376
:100C5000CF93DF93CDB7DEB765970FB6F894DEBFBD
:100C60000FBECDBF0E94040561E271E080E00E94EA
:100C700081058CE091E09F938F9382E191E09F93B7
:100C80008F931F9285E18F938E010F5F1F4F1F93EC
:100C90000F930E94FD11B80181E00E9481050FB6FB
:100CA000F894DEBF0FBECDBF65960FB6F894DEBFD9
:100CB0000FBECDBFDF91CF911F910F9108954F923D
:100CC0005F926F927F928F929F92AF92BF92EF92BC
:100CD000FF921F93CF93DF93EC017B01142F88A128
:100CE00061E091E0E916F10409F060E00E94E201A0
:100CF000612F70E084E0759567958A95E1F7CE01E4
:100D00000E94C4058C8C9D8CAE8CBF8C488C598CF9
:100D10006A8C7B8C0E9441026419750986099709C7
:100D2000681579058A059B05A8F361E08AA10E94F0
:100D3000E20160E08AA10E94E20182E0E816F1048B
:100D400069F0612F6F70CE010E94C40561E08AA135
:100D50000E94E20160E08AA10E94E20190E080E04E
:100D6000DF91CF911F91FF90EF90BF90AF909F9038
:100D70008F907F906F905F904F900895CF92DF9209
:100D8000EF92FF920F931F93CF93DF93482F62E070
:100D900070E082E293E00E945F068C01C2E2D3E041
:100DA000CC88DD88EE88FF880E944102688F798FA9
:100DB0008A8F9B8FCC8EDD8EEE8EFF8EC801DF91E9
:100DC000CF911F910F91FF90EF90DF90CF900895FA
:100DD0008F929F92AF92BF92CF92DF92EF92FF924B
:100DE0000F931F93CF93DF93FC0121A12F3F09F4B1
:100DF00095C08B01EC01C48CD58CE68CF78C808C73
:100E0000918CA28CB38C0E944102681979098A09DD
:100E10009B096C157D058E059F05A8F360E08BA1ED
:100E20000E94100260E08CA10E94100260E08DA17F
:100E30000E94100260E08EA10E94100261E0013069
:100E4000110509F060E088A10E94E20161E089A13A
:100E50000E94E20161E08AA10E94E2018BA10E944E
:100E6000B90110E1019709F010E08CA10E94B901CD
:100E7000019709F410628DA10E94B901019709F44C
:100E800010648EA10E94B901019709F4106860E016
:100E90008AA10E94E20161E08AA10E94E2018BA185
:100EA0000E94B901019709F411608CA10E94B90157
:100EB000019709F412608DA10E94B901019709F40C
:100EC00014608EA10E94B901019709F4186060E0D6
:100ED0008AA10E94E20161E08BA10E94100261E000
:100EE0008CA10E94100261E08DA10E94100261E0BD
:100EF0008EA10E94100260E089A10E94E201812F70
:100F000090E0DF91CF911F910F91FF90EF90DF90D4
:100F1000CF90BF90AF909F908F9008958DEF9FEFEF
:100F2000F0CF0E94C9111F920F920FB60F92112499
:100F30002F933F938F939F93AF93BF938091BC0266
:100F40009091BD02A091BE02B091BF023091BB0250
:100F500023E0230F2D3758F50196A11DB11D2093D5
:100F6000BB028093BC029093BD02A093BE02B093DB
:100F7000BF028091C0029091C102A091C202B091C3
:100F8000C3020196A11DB11D8093C0029093C102BE
:100F9000A093C202B093C302BF91AF919F918F9172
:100FA0003F912F910F900FBE0F901F90189526E83C
:100FB000230F0296A11DB11DD2CF1F920F920FB623
:100FC0000F9211248F939F938091E1009091E10003
:100FD000937F9093E10083FF0FC01092E90091E0AE
:100FE0009093EB001092EC0092E39093ED0010923E
:100FF000D10298E09093F00082FF22C093E090939A
:10100000E9009091F200992319F09AE39093E80097
:1010100090911D02992341F090911D02915090935F
:101020001D02911101C05D9A9091D002992341F067
:101030009091D00291509093D002911101C0289AC2
:1010400084FF18C08091E2008E7E81608093E20070
:101050008091E1008F7E8093E10080911E028E7E60
:10106000806180931E029F918F910F900FBE0F9011
:101070001F90189580FFF7CF8091E2008E7E8061EF
:101080008093E2008091E1008E7E8093E100809168
:101090001E028E7E8160E5CF1F920F920FB60F92D7
:1010A0001124CF92DF92EF92FF920F931F932F9311
:1010B0003F934F935F936F937F938F939F93AF93E0
:1010C000BF93EF93FF93CF93DF93CDB7DEB76C97CA
:1010D000DEBFCDBF1092E9008091E80083FF25C0FC
:1010E00068E0CE0145960E945C0382EF8093E800A1
:1010F0008D8987FF39C09091E80090FFFCCF982F31
:10110000907609F034C19E894F89588D2F89F88CCB
:10111000911131C0803861F580911F028093F100F8
:101120001092F1008EEF8093E8006C960FB6F89461
:10113000DEBF0FBECDBFDF91CF91FF91EF91BF9189
:10114000AF919F918F917F916F915F914F913F915F
:101150002F911F910F91FF90EF90DF90CF900F9004
:101160000FBE0F901F9018959EEF9093E800C7CF89
:101170001092F100D5CF913059F48111D3CF413085
:10118000510581F680911F028D7F80931F02CACF87
:10119000933049F48111C6CF4130510519F6809141
:1011A0001F028260F2CF953041F48091E80080FF09
:1011B000FCCF20682093E300B5CF963009F0A9C09A
:1011C0000B8D1C8D22E01092E90010921B021092F0
:1011D0001A02F2122EC010921902109218020E94E6
:1011E0002B031F8299E09983FA8291E09E8390EA13
:1011F00098879AEF998720911A0230911B02275FF6
:101200003F4F3C832B838D831092E90010921B0289
:1012100010921A02109319020093180249E050E04C
:10122000BE016F5F7F4F80E00E9405030E942B0389
:1012300079CF10931902009318020E945901DC0122
:1012400012960D911C910115110509F451C1D80197
:10125000ED91FC910480F581E02DBE016B5E7F4F26
:10126000C8010995009709F03EC1F8010085118574
:10127000EACFF3E0FF120EC08F89882309F440C043
:10128000823061F440E862E18DE091E00E94D20298
:10129000811148CF81E28093EB0047CF813029F460
:1012A00040E868E084E091E0F1CF833099F70E9454
:1012B0005901DC011296ED90FC908E010F5F1F4FDB
:1012C0006801E114F10479F0D701ED91FC910680F9
:1012D000F781E02DB801C7010995080F111DF7012D
:1012E000E084F184EECFD8011C92F6010190002039
:1012F000E9F73197BF016C197D0940E0C601C6CFFF
:101300006EEE70E0FB01449150E080E80E9405031E
:1013100009CF973009F4BECF983021F481E0809353
:10132000F10000CF993009F0FDCE837009F0B2CF03
:10133000E7E3F1E081E031E096E32191222371F0CF
:101340008093E9003093EB00DF0111972C912093FB
:10135000EC009093ED008F5F873079F78EE78093F4
:10136000EA001092EA008F898093D102DBCE8B8D48
:101370009C8D1092E90010921B0210921A02909319
:10138000190280931802898D811192C08E899D89DE
:10139000913A49F4813209F07DCF47E050E064E0B2
:1013A00071E080E0B3CF913209F074CF833269F4F9
:1013B0008F89988DB0E0A0E08093000190930101A7
:1013C000A0930201B0930301ADCE803269F4809105
:1013D000E80082FFFCCF67E084E091E00E945C03BC
:1013E0008BEF8093E8009ECE823209F09BCE8F89EE
:1013F00080930B01EEEFFFE7859194918B3F9C4D1D
:1014000051F1E0E0F8E08091040190910501A09194
:101410000601B0910701803B9440A105B105F1F4AC
:1014200080910B0180FD1AC0EE3F8AE0F80789F534
:1014300087E797E7918380838091600080931C0207
:1014400088E19BE00FB6F894A895809360000FBEEA
:101450009093600067CEEEEFFAE0D5CF8081918166
:101460008737974709F05ECEA89580916000886124
:101470008093600080911C0280936000EE3F2AE020
:10148000F20789F08091FE0A9091FF0A9183808390
:1014900049CE808191818737980751F29093FF0A56
:1014A0008093FE0AC5CF1092FF0A1092FE0A3ACE30
:1014B0000E945901DC0112960D911C910115110534
:1014C00009F4E8CED801ED91FC910190F081E02D76
:1014D000BE016B5E7F4FC8010995811123CEF801D3
:1014E00000851185EBCF181619060CF41BCED2CE51
:1014F000F1E0FF12BECE62EF70E004CFCF93DF9336
:10150000E2EDF2E01382128288EE93E0A0E0B0E018
:1015100084839583A683B78381E491E0918380835C
:101520008FEF9FEF95878487C2E2D3E01B821A82F8
:1015300083E591E09983888384E18F8382E08887C3
:101540001C861D861E861F861B8680ED97E0A0E008
:10155000B0E0888B998BAA8BBB8B86E290E0A0E0F1
:10156000B0E08C8B9D8BAE8BBF8B0E944102688F4D
:10157000798F8A8F9B8F1C8E1D8E1E8E1F8E89E603
:1015800091E09983888384E088A38FEF89A385E025
:101590008AA386E08BA387E08CA388E08DA389E0F3
:1015A0008EA3DF91CF910895CF93DF93CDB7DEB7B0
:1015B000AB970FB6F894DEBF0FBECDBF789484B55D
:1015C000826084BD84B5816084BD85B5826085BD3F
:1015D00085B5816085BD80916E00816080936E00CD
:1015E00010928100809181008260809381008091BF
:1015F0008100816080938100809180008160809370
:101600008000809191008260809391008091910090
:101610008160809391008091900081608093900020
:101620008091C10084608093C1008091C10082607C
:101630008093C1008091C10081608093C10080913E
:10164000C30081608093C3008091C000826080935A
:10165000C0008091C20081608093C20080917A00B6
:10166000846080937A0080917A00826080937A000F
:1016700080917A00816080937A0080917A008068FE
:1016800080937A001092D10210921F0210921E02D3
:101690008091D70081608093D70080EA8093D80042
:1016A00089B5806189BD89B5826089BD09B400FEB4
:1016B000FDCF61E070E080E090E00E9466028091E2
:1016C000D8008F7C80618093D8008091E000807F7B
:1016D0008093E0008091E1008E7E8093E1008DE0B8
:1016E0008093E200559A209A8FEF9FEF9093DF024C
:1016F0008093DE0280912E0381110CC080912F0314
:10170000811108C080913003811104C080913103A0
:10171000882331F080912903882369F0843159F0BE
:1017200010922E0380E480932F0384E18093300392
:1017300084E58093310382E080932A0384E18093DF
:10174000290364E670E080E090E00E946602109257
:10175000260382E293E00E94F705892BC9F061E03D
:101760008DE00E94100261E08DE00E94E20164E6DB
:1017700070E080E090E00E94660260E08DE00E94F0
:10178000E20164E670E080E090E00E946602EBCF48
:1017900080912A03823028F080912603886080930C
:1017A000260380E30E94BE0665E070E080E090E0E2
:1017B0000E94660280E30E94BE0661E070E080E065
:1017C00090E00E94660280E30E94BE0661E070E045
:1017D00080E090E00E9466028091260384FD03C0B1
:1017E00080E20E94BE0660912603606282E293E07E
:1017F0000E94CC0484E0809327036CE082E293E0B3
:101800000E94CC040E94040582E08093280366E0D5
:1018100082E293E00E94CC048C016FEF82E293E0BD
:101820000E946205D12CC12C012B09F098CF9E019A
:101830002F5F3F4F7901D90190E080E08901960147
:10184000205E3E4FF901E80FF91FE491ED930196F8
:1018500088309105B9F770E060E082E293E00E9481
:10186000E8065C01E894A7F8BB2497FDA12C6C2D39
:10187000606482E293E00E94CC04892BB1F44701BA
:1018800038E0830E911CF70161917F0182E293E0C1
:101890000E949C04019749F4E814F904A1F740E080
:1018A0006A2D82E293E00E940905F8E0CF0ED11C78
:1018B00020E4C216D10409F0BACF6BE282E293E0D1
:1018C0000E94CC040E9426060E949802609368023F
:1018D0007093690280936A0290936B020E9498024F
:1018E00060936C0270936D0280936E0290936F020E
:1018F00060E2262E63E0362E412C512C54EC652EEE
:1019000051E0752ECC24C39482ED92E00E948204B3
:10191000181619060CF04EC182ED92E00E944004A8
:1019200097FD48C18D30910579F32091B90230912E
:10193000BA028A30910509F02DC1F901E758FD4F2F
:1019400010822115310551F080917902853409F416
:101950004DC04CF48234A9F1833479F11092BA026B
:101960001092B902D1CF8C3441F08635B9F70E947C
:10197000260680E00E94AA05F1CF2430310570F3DD
:1019800080917A0280538A3048F790917B0290329E
:1019900029F7823020F46CE772E00E94810584E030
:1019A0000E94AA050E94980260936C0270936D02D7
:1019B00080936E0290936F02D1CF0E94040582E063
:1019C000D9CF2330310550F280917A02803231F63E
:1019D00080917B028053843008F083E063E0681BD1
:1019E000686282E293E00E94CC04B8CF23303105D4
:1019F00008F4B4CF8BE792E07C01FC01D080019623
:101A0000DD2031F0F0E2DF12F7CFF70110827C0128
:101A10000E94980260936C0270936D0280936E0234
:101A200090936F026BE771E08BE792E00E94DE110A
:101A3000892B11F520E2D2121CC0C7010E942E1181
:101A400018161906B4F42091550230915602820FEF
:101A5000931F9093560280935502809170028230BA
:101A600008F07CCF80915902882309F4A8CF83E045
:101A700081CF81E090E0E7CF60E871E08BE792E012
:101A80000E94DE11892BB9F430E2D31214C02091E8
:101A90005902F701908181E0913309F080E0809351
:101AA0005902281709F45ACF81E0913309F082E0F6
:101AB0000E94BB0553CF64E871E08BE792E00E947F
:101AC000DE11892B71F4F0E2DF120BC04BE050E025
:101AD000B7018BE592E00E94EE111092660283E05E
:101AE000E7CF69E871E08BE792E00E94DE11892B75
:101AF00091F420E2D2120FC0C7010E942E11853648
:101B0000910514F084E690E097FD80E08093570201
:101B1000C092580223CF6CE871E08BE792E00E94FC
:101B2000DE11892B69F430E2D3120AC047E050E09D
:101B3000B7018BE492E00E94EE11109252020ECF98
:101B400061E971E08BE792E00E94DE11892B11F4CC
:101B500084E0AECF66E971E08BE792E00E94DE118F
:101B6000892B11F485E0A4CF6FE971E08BE792E057
:101B70000E94DE11892B11F486E09ACF68EA71E0A9
:101B80008BE792E00E94DE11892B09F0E7CE1092DC
:101B9000590215CFA9014F5F5F4F4034510508F03E
:101BA000DDCE5093BA024093B90227583D4FF90158
:101BB0008083AACE0E949802C0907502D0907602CF
:101BC000E0907702F09078029B01AC012C193D095E
:101BD0004E095F0969017A0131E2C316D104E104BB
:101BE000F10408F442C0609375027093760280930A
:101BF000770290937802C0907102D0907202E090C8
:101C00007302F09074024FEFC41AD40AE40AF40A83
:101C1000C0927102D0927202E0927302F09274024A
:101C20002091700222502230A0F480906C0290909B
:101C30006D02A0906E02B0906F02681979098A094E
:101C40009B09613777418105910518F081E00E9479
:101C5000AA0580917002823009F4B0C070F4882324
:101C600009F447C0813009F468C080E090E0892B16
:101C700009F448CE0E94000041CE843009F4FEC130
:101C800008F439C1853089F70E949802C090680233
:101C9000D0906902E0906A02F0906B024B015C0107
:101CA0008C189D08AE08BF0880916702833009F444
:101CB0007BC208F0FFC1813009F420C2823009F4F0
:101CC00054C230E2831633E09306A104B10468F2F3
:101CD00080915A02809370020E9498026093680279
:101CE0007093690280936A0290936B02109267026C
:101CF000BCCF0E949802C0906802D0906902E09028
:101D00006A02F0906B026C197D098E099F09603799
:101D100077418105910508F4A8CF0E94040581E070
:101D2000809370020E949802609368027093690227
:101D300080936A0290936B0298CF44E150E060E296
:101D400070E081E292E00E94D7111092350244E1E6
:101D500050E060E270E086E392E00E94D7111092BA
:101D60004A0220912002822F90E068E270E00E94F7
:101D70005F118431E0F48F5D9D4F36E0FC013083CC
:101D8000F7E0CF22DD24EE24FF24CD28CE28CF2873
:101D900019F42F5F2093200261E272E080E00E943C
:101DA000810566E372E081E00E9481055ECFE8E490
:101DB000F2E0E81BF90B86E0858BE2CF8BE592E041
:101DC00020915B02222309F478C02091580222233B
:101DD00009F465C0209157021F922F939F938F9310
:101DE00081EB91E09F938F931F9285E18F931F93D7
:101DF0000F930E94FD110FB6F894DEBF0FBECDBF4A
:101E0000B80180E00E948105209155023091560270
:101E10001092560210925502409153025091540272
:101E2000A6E0B0E00E949B11DC01CB01840F951F5E
:101E3000A11DB11D452B59F00097A105B10521F455
:101E400081E090E0A0E0B0E00197A109B1098536FA
:101E50009105A105B10520F084E690E0A0E0B0E096
:101E6000909354028093530241E060E082E293E059
:101E70000E940905F12CE12C6091530270915402EB
:101E8000E616F70658F180E290E00E94540595E0CE
:101E9000E90EF11CE4E6EE16F10471F7E6CE9F932D
:101EA0008F938EEB91E09F938F931F9285E18F9399
:101EB0001F930F930E94FD119ECF8BE492E020911F
:101EC0004B02222329F09F938F937F926F92EDCF45
:101ED00064ED71E0C8010E94E71192CF6E197F098D
:101EE0006530710530F064E082E293E00E943005D5
:101EF000CECF6150F9CFC701B60129E030E040E014
:101F000050E00E947311BA01A9014170552766275C
:101F1000772780915B02882309F48FC08091580253
:101F2000882309F472C0909157028AE2452B462B10
:101F3000472B09F480E21F929F932BE532E03F93F9
:101F40002F931F928F9388EE91E09F938F931F9210
:101F500085E18F931F930F930E94FD110FB6F894A4
:101F6000DEBF0FBECDBFB80180E00E948105809129
:101F700055029091560210925602109255022091ED
:101F8000530230915402B0E0A0E043E0880F991F63
:101F9000AA1FBB1F4A95D1F7820F931FA11DB11D28
:101FA000232B59F00097A105B10521F481E090E0C1
:101FB000A0E0B0E00197A109B10985369105A1051E
:101FC000B10520F084E690E0A0E0B0E090935402E8
:101FD0008093530241E060E082E293E00E940905B1
:101FE000F12CE12C6091530270915402E616F70631
:101FF000C0F180E290E00E94540595E0E90EF11CEA
:10200000E4E6EE16F10471F730CE8AE2452B462B5A
:10201000472B09F480E22BE532E03F932F931F9288
:102020008F9388EF91E09F938F931F9285E18F9319
:102030001F930F930E94FD1191CF8AE2452B462BEF
:10204000472B09F480E21F928F9381E092E09F93E7
:102050008F931F9285E18F931F930F930E94FD1121
:102060007DCF6E197F096530710530F064E082E242
:1020700093E00E943005C1CF6150F9CF0E949802D1
:10208000C0906802D0906902E0906A02F0906B0202
:102090006C197D098E099F09603D77408105910586
:1020A00008F4E3CD80915902882311F083E038CE03
:1020B00082E036CE873008F004CE28EC30E040E0F5
:1020C00050E0843051F028E730E040E050E08530C7
:1020D00021F020E530E040E050E0C501B4010E946D
:1020E000731144E150E064E070E020FF02C060E260
:1020F00070E0C8010E94D7111D8A32C0A4E1B0E08F
:10210000A50194010E94AA11A20191010E947311DC
:10211000F22EE22E44E150E060E270E0C8010E943D
:10212000D7111D8A8F2D23E12F1508F483E190E04C
:10213000F801E80FF91F24E02083EE2089F023E066
:10214000FE01E80FF91F208331E0E31649F04FEF5D
:102150005FEF4C0F5D1F840F951F21E0FC01208372
:10216000B80180E00E94810571C0A4E1B0E0A50142
:1021700094010E94AA11A20191010E947311F22EF2
:1021800044E150E060E270E0C8010E94D7111D8A6E
:102190008F2D843108F083E1E3E1E81BE00FF12F9C
:1021A000F11D82E08083DCCF6CE070E08BE592E093
:1021B0000E944C11813108F080E1E82EF12C80E181
:1021C000C82ED12CCE18DF08D594C79444E150E036
:1021D00060E270E0CE0146960E94D7111AA6C501B2
:1021E000B40124E630E040E050E00E94731120FF8B
:1021F00032C0F7E0FBA7E6E1F0E0EC0FFD1FEC0DCD
:10220000FD1D3BA5308342E0C40ED11CA7016BE548
:1022100072E086E190E08C0F9D1F8C0D9D1D0E9449
:10222000CE11E00EF11ECE0CDF1C2BA5F601268B85
:10223000BE016A5E7F4F80E00E94810544E150E06C
:1022400060E270E0C8010E94D7111D8AB80181E0E8
:102250000E94810536CD20E22BA7CDCFFC01882737
:102260009927E89421912032E9F3293010F02E309B
:10227000C8F32B3241F02D3239F4689404C00E9427
:102280005711820F911D219120532A30C0F31EF463
:10229000909581959F4F0895FC0161507040019089
:1022A0000110D8F7809590958E0F9F1F08957AE0C2
:1022B000979F902D879F802D910D1124089597FB56
:1022C000072E16F4009407D077FD09D00E94B511AF
:1022D00007FC05D03EF4909581959F4F0895709529
:1022E00061957F4F0895A1E21A2EAA1BBB1BFD0129
:1022F0000DC0AA1FBB1FEE1FFF1FA217B307E407E5
:10230000F50720F0A21BB30BE40BF50B661F771F3C
:10231000881F991F1A9469F760957095809590951C
:102320009B01AC01BD01CF010895EE0FFF1F059089
:10233000F491E02D0994A29FB001B39FC001A39F27
:10234000700D811D1124911DB29F700D811D1124EE
:10235000911D08950E949B11A59F900DB49F900D13
:10236000A49F800D911D11240895AA1BBB1B51E150
:1023700007C0AA1FBB1FA617B70710F0A61BB70BF5
:10238000881F991F5A95A9F780959095BC01CD019A
:10239000089581E090E0F8940C94D714FB01DC01DF
:1023A00002C001900D9241505040D8F70895DC01D1
:1023B00001C06D9341505040E0F70895FB01DC01EE
:1023C0008D91019080190110D9F3990B0895FB01AB
:1023D000DC0101900D920020E1F70895FB01DC0182
:1023E0004150504048F001900D920020C9F701C0C3
:1023F0001D9241505040E0F70895AEE0B0E0E3E0B8
:10240000F2E10C94AE140D891E898F89988D26E017
:102410002C831A83098397FF02C080E090E801971C
:102420009E838D83AE01455E5F4F698D7A8DCE01AF
:1024300001960E942D124D815E8157FD0AC02F81A9
:102440003885421753070CF49A01020F131FF80145
:1024500010822E96E4E00C94CA14ABE0B0E0E3E303
:10246000F2E10C94A0147C013B018A01FC0117826B
:102470001682838181FFC8C1CE0101965C01F701FC
:102480009381F30193FD859193FF81913F0188230F
:1024900009F453C1853239F493FD859193FF8191FD
:1024A0003F01853229F4B70190E00E941214E7CF72
:1024B000912C212C312CFFE1F31538F08B3211F1E6
:1024C00090F4803209F1833229F137FC3CC020EDD1
:1024D000280F2A3050F536FE20C08AE0989E200D45
:1024E0001124922E06C08D3291F0803371F76894DA
:1024F00030F8F30193FD859193FF81913F018111A4
:10250000DACF21C0689431F8689432F8F2CF689439
:1025100033F8EFCF689434F8ECCFEAE02E9E200D2C
:102520001124222E689435F8E4CF8E3229F436FC3B
:1025300004C1689436F8DDCF8C3619F4689437F806
:10254000D8CF8836B1F2982F9F7D95549330E0F024
:102550008336A1F18337C1F1833509F063C02801C7
:10256000F2E04F0E511CF801C080D180692D70E05F
:1025700036FC02C06FEF7FEFC6010E9407144C01CA
:10258000689437F882010AC00C5F1F4FFFE3F9839C
:1025900088248394912C6501E89437F833FE2DC08C
:1025A000522C8114910471F5552009F468CFB701BC
:1025B00080E290E00E9412145A94F6CFF8018081D4
:1025C00089830E5F1F4FE4CF2801F2E04F0E511CAC
:1025D000F801C080D180692D70E036FC02C06FEF39
:1025E0007FEFC6010E944C114C018201D5CFB7018B
:1025F00080E290E00E9412142A942814190409F031
:10260000B0F7CECFF60137FC859137FE81916F018F
:10261000B70190E00E94121451105A94F1E08F1A01
:102620009108BFCF843619F0893609F077C0F801D8
:1026300037FE6BC060817181828193810C5F1F4F77
:10264000F32DFF763F2E97FF09C0909580957095EA
:1026500061957F4F8F4F9F4F689437F82AE030E0A5
:10266000A5010E944214C82ECA188C2C432C36FE99
:102670000CC0E89440F8C91440F434FE05C032FCA4
:1026800003C0F32DFE7E4F2E892C44FE95C0FE0123
:10269000EC0DF11D8081803309F087C0242D297E47
:1026A000422E842D8870582E43FC95C040FE8FC06A
:1026B0009C2C821418F42C0C922C981844FE91C077
:1026C000B70180E390E00E94121442FE09C088E73F
:1026D00090E041FE02C088E590E0B7010E9412142C
:1026E000C91408F48AC0CA94D12C9FEFC91AD90A18
:1026F000CA0CDB1CF60182916F01B70190E00E94C9
:102700001214AC14BD04B1F74FCF60817181072E54
:10271000000C880B990B0E5F1F4F92CFD32CE894BF
:10272000D4F82AE030E0853739F1232D297FD22EE5
:102730008F3601F148F48835A9F0F7018681978139
:102740002B96E2E10C94BC14803749F08837A9F746
:10275000D4FE02C06894D2F820E130E00DC0689445
:10276000D4F8F6CF34FE03C0822F8660D82E20E145
:1027700032E002C028E030E0F801D7FE0FC06081EF
:102780007181828193810C5F1F4FA5010E944214C9
:10279000C82ECA183D2CE89437F867CF6081718144
:1027A00090E080E00E5F1F4FF0CF42FC02C08394A8
:1027B00078CF8394839475CF842D867809F471CF74
:1027C000F6CFB70180E290E00E9412148394821445
:1027D000C0F3512C73CF522C5818821408F46ECFCA
:1027E000F8CF842D867809F47BCF8BE241FE80E21E
:1027F00047FC8DE2B70190E071CFB70180E390E034
:102800000E9412149A946CCF8FEF9FEF99CFFC0126
:102810000590615070400110D8F7809590958E0F0B
:102820009F1F08950F931F93CF93DF93182F092FA6
:10283000EB018B8181FD09C01FEF0FEF812F902FDE
:10284000DF91CF911F910F91089582FF14C02E81C7
:102850003F818C819D81281739073CF4E881F981FB
:10286000CF0101969983888310838E819F81019681
:102870009F838E83E3CFE885F985812F0995892B86
:10288000A1F3DACFFA01AA27283051F1203181F1E2
:10289000E8946F936E7F6E5F7F4F8F4F9F4FAF4F68
:1028A000B1E03ED0B4E03CD0670F781F891F9A1F7B
:1028B000A11D680F791F8A1F911DA11D6A0F711D2F
:1028C000811D911DA11D20D009F468943F912AE03B
:1028D000269F11243019305D3193DEF6CF01089523
:1028E000462F4770405D4193B3E00FD0C9F7F6CF54
:1028F000462F4F70405D4A3318F0495D31FD40521C
:10290000419302D0A9F7EACFB4E0A69597958795B1
:1029100077956795BA95C9F7009761057105089590
:102920009B01AC010A2E069457954795379527953C
:10293000BA95C9F7620F731F841F951FA01D0895D4
:102940002F923F924F925F926F927F928F929F92BF
:10295000AF92BF92CF92DF92EF92FF920F931F93AD
:10296000CF93DF93CDB7DEB7CA1BDB0B0FB6F8945E
:10297000DEBF0FBECDBF09942A88398848885F849E
:102980006E847D848C849B84AA84B984C884DF800F
:10299000EE80FD800C811B81AA81B981CE0FD11DF3
:1029A0000FB6F894DEBF0FBECDBFED010895F894C9
:0229B000FFCF57
:1029B200FFFFFFFF00E1000000000000302E322E7A
:1029C20030006677202573206177616974696E67CC
:1029D200005A45524F545820564644202020202069
:1029E20020202020200000C1808100000000000083
:1029F200001B0496033C043104820440045E04007C
:102A0200000000300569035F0525065F055C05913E
:102A1200075905590500000000300569035F0525C7
:102A220006F705E8065F06E80559057469636B0059
:102A320061726D006D6F6465006C71006261747427
:102A4200007761726E00637269746963616C00661B
:102A520061696C736166650064697361726D656456
:102A620000252D313273204C513A25337500252D26
:102A7200323073005A45524F5458202020202025CE
:102A82002D3773005A45524F5458202020202020C1
:102A92002020202020202000256320252D31307386
:102AA200204C513A25337500256320252D3138738A
:102AB2000025632041524D45442020202020202023
:082AC20020202020202020002C
:00000001FF
