:100000000C94D4000C94FC000C94FC000C94FC00A8
:100010000C94FC000C94FC000C94FC000C94FC0070
:100020000C94FC000C94FC000C948E070C94FD07BF
:100030000C94FC000C94FC000C94FC000C94FC0050
:100040000C94FC000C94FC000C94FC000C94FC0040
:100050000C94FC000C94FC000C94FC000C944407E1
:100060000C94FC000C94FC000C94FC000C94FC0020
:100070000C94FC000C94FC000C94FC000C94FC0010
:100080000C94FC000C94FC000C94FC000C94FC0000
:100090000C94FC000C94FC000C94FC000C94FC00F0
:1000A0000C94FC000C94FC000C94FC00080B000267
:1000B0000202000009040000010202000005240001
:1000C0001001052401010104240206052406000193
:1000D0000705810310004009040100020A00000026
:1000E00007050202400000070583024000000403E8
:1000F000090412010002EF0201404F1B06920001A9
:1001000001020301537061726B46756E005370619A
:10011000726B46756E2050726F204D6963726F006E
:1001200000000000240027002A002D0030000000FD
:100130000000250028002B002E00310000000000E8
:100140002300260029002C002F00040404040403CB
:100150000405020202020403020202020606060667
:10016000060604040202020404040802011040808E
:10017000401020408040800802040180402010028E
:1001800001108010204040200000000200090F00F4
:1001900000030401000C000000000000000000004B
:1001A0000000000000002F0A11241FBECFEFDAE08C
:1001B000DEBFCDBF11E0A0E0B1E0E6E5FEE102C0A8
:1001C00005900D92AC37B107D9F722E0ACE7B1E06A
:1001D00001C01D92A435B207E1F710E0C4EDD0E0F4
:1001E00004C02197FE010E94390CC33DD107C9F715
:1001F0000E94850A0C94290F0C940000FC01809148
:10020000DC01882311F13FB7F89482E08093E90084
:100210002091F200822F90E01816190614F481E064
:1002200090E0882339F0289844E64093DB01409120
:10023000F1004083222339F02091F200211103C004
:100240002BE62093E8003FBF08958FEF9FEF0895BE
:100250002FB7F89483E08093E9009091E800892F0C
:10026000807295FF04C09091F20080E4891B2FBF3B
:1002700008958091D30181110DC082E08093CF0158
:1002800084E08093D0011092D2011092D10181E0DC
:100290008093D3018FEC91E0089581508F3008F066
:1002A00047C0E82FF0E0E95AFE4F0C94390C740176
:1002B000780166016C0170019801980198017B0139
:1002C0008101850189018F0198019301809180004E
:1002D0008F77809380000895809180008F7DF9CF83
:1002E00080918000877FF5CF84B58F7784BD089596
:1002F00084B58F7DFBCF809190008F7780939000A5
:100300000895809190008F7DF9CF80919000877F34
:10031000F5CF8091C0008F778093C00008958091C1
:10032000C0008F7DF9CF8091C200877F8093C2008B
:100330000895CF93DF93282F30E0F901E857FE4F5F
:100340008491F901E759FE4FD491F901E65BFE4F24
:10035000C491CC23A1F081110E944D01EC2FF0E05B
:10036000EE0FFF1FE45CFE4FA591B491EC91ED23DD
:1003700081E090E009F480E0DF91CF91089580E082
:1003800090E0FACF1F93CF93DF93282F30E0F9014D
:10039000E857FE4F8491F901E759FE4FD491F901D6
:1003A000E65BFE4FC491CC23A9F0162F81110E9469
:1003B0004D01EC2FF0E0EE0FFF1FE25DFE4FA59127
:1003C000B4918FB7F894EC91111108C0D095DE2349
:1003D000DC938FBFDF91CF911F910895DE2BF8CF73
:1003E000CF93DF9390E0FC01E759FE4F2491865BA9
:1003F0009E4FFC0184918823D1F090E0880F991FD3
:10040000FC01E05EFE4FA591B491FC01E25DFE4F60
:10041000C591D49161110EC09FB7F8948C91E22FD1
:10042000E0958E238C932881E223E8839FBFDF91A0
:10043000CF9108958FB7F894EC91E22BEC938FBF96
:10044000F6CF3FB7F8948091CB019091CC01A09169
:10045000CD01B091CE0126B5A89B05C02F3F19F064
:100460000196A11DB11D3FBFBA2FA92F982F882734
:10047000BC01CD01620F711D811D911D42E0660F0F
:10048000771F881F991F4A95D1F708958F929F92E1
:10049000AF92BF92CF92DF92EF92FF924B015C013D
:1004A0000E9421026B017C010E9421026C197D09CE
:1004B0008E099F09683E734081059105A8F321E0EC
:1004C000821A9108A108B10888EEC80E83E0D81EF0
:1004D000E11CF11C81149104A104B10429F7FF90DF
:1004E000EF90DF90CF90BF90AF909F908F90089546
:1004F00040917E0150917F0120917C0130917D01DE
:1005000042175307B4F49091E8009570E1F390918D
:10051000E80092FD19C08093F10080917E019091D6
:100520007F0101968F739927892B19F48EEF8093A1
:10053000E80080917E0190917F01019690937F0168
:1005400080937E0181E0089580E00895EF92FF920C
:100550000F931F93CF93DF93F82E192FE62E042FBE
:1005600081E0860F880F0E94780283E00E94780263
:10057000CF2DD12FEC0EFD2EF11CCE15DF05B9F0DD
:1005800007FF13C0FE0184910E947802182F80E0BB
:100590000E947802812321968111EFCFDF91CF91C4
:1005A0001F910F91FF90EF9008958881EDCF81E02A
:1005B000F5CFDF92EF92FF920F931F93CF93DF93CC
:1005C000D82E8A01EB017B01E40EF51ECE15DF0566
:1005D00059F0D7FE12C0FE0184910E947802219644
:1005E0008111F4CF0FEF1FEFC801DF91CF911F9161
:1005F0000F91FF90EF90DF9008958881EECF0F93D9
:100600001F93CF93DF931F92CDB7DEB782E089832C
:1006100042E450E06CEA70E080E80E94D9020E9457
:100620003901DC0112960D911C910115110589F01B
:10063000D801ED91FC910280F381E02DBE016F5F46
:100640007F4FC801099597FD04C0F8010085118509
:10065000ECCF89810F90DF91CF911F910F91089579
:10066000615030F02091F100FC0120830196F8CF19
:10067000289884E68093DB010895AF92BF92CF92D1
:10068000DF92EF92FF920F931F93CF93DF936C0152
:100690007B018B01040F151FEB015E01AE18BF0833
:1006A000C017D10759F06991D601ED91FC910190E5
:1006B000F081E02DC6010995892B79F7C501DF91FD
:1006C000CF911F910F91FF90EF90DF90CF90BF904F
:1006D000AF9008958F929F92AF92BF92CF92DF9288
:1006E000EF92FF920F931F93CF93DF936C017B01E7
:1006F0008A0180910B01882309F45CC08091DC01A0
:10070000882309F457C08091820180FF05C0809141
:10071000E00082608093E000E801B12C8AEFA82E0F
:1007200093E0892E2AE3922E209711F4BB20D9F171
:100730000E94280181110AC0AA94AA20D9F161E07F
:1007400070E080E090E00E944602EECF8C171D061C
:1007500011F00CF08C2F9FB7F8948092E900209153
:10076000E80025FD02C09FBFDFCF282F30E0C21B6D
:10077000D30BF701815020F041914093F100FACF63
:10078000E20EF31EBB2021F09092E800B12CEBCFDB
:100790008091E80085FDE7CF9092E800BB24B394F8
:1007A000209709F3F3CF5D9884E6809381011016BA
:1007B00011063CF081E090E0F6019383828310E023
:1007C00000E0C801DF91CF911F910F91FF90EF9052
:1007D000DF90CF90BF90AF909F908F900895CF9370
:1007E000DF931F92CDB7DEB76983DC01ED91FC91F9
:1007F0000280F381E02D41E050E0BE016F5F7F4F4A
:1008000009950F90DF91CF91089583E08093E900DF
:100810008091F200882319F08AE38093E80008951C
:100820000E94280190E00895CF93DF931F92CDB7E7
:10083000DEB7FC018485958597FD08C02FEF3FEF5B
:10084000358724870F90DF91CF910895CE010196CF
:100850000E94FE00019719F4898190E0F3CF8FEF99
:100860009FEFF0CF0F931F93CF93DF931F92CDB7DE
:10087000DEB78C01FC018485958597FF0BC0CE0106
:1008800001960E94FE00019771F4898190E0F801C1
:1008900095878487F801848595850F90DF91CF91A6
:1008A0001F910F9108958FEF9FEFF1CFFC01848589
:1008B000958597FD0BC09FB7F89482E08093E9007F
:1008C0008091F2009FBF90E0019608959FB7F89441
:1008D00082E08093E9008091F2009FBF90E008954C
:1008E000CF92DF92EF92FF920F931F93CF93DF93FC
:1008F000EC01462FE881F9810484F585E02D61E063
:1009000070E009958C01CC88DD88EE88FF880E9414
:100910002102688F798F8A8F9B8FCC8EDD8EEE8E31
:10092000FF8E81E090E0012B11F090E080E0DF91FC
:10093000CF911F910F91FF90EF90DF90CF9008958E
:100940008F929F92AF92BF92EF92FF921F93CF939D
:10095000DF93EC01162FE881F9810484F585E02D01
:10096000462F70E060E009957C0111501230D8F4F8
:1009700019861A8688889988AA88BB880E942102CD
:10098000688F798F8A8F9B8F8C8E9D8EAE8EBF8E57
:10099000C701DF91CF911F91FF90EF90BF90AF9073
:1009A0009F908F9008958C889D88AE88BF88E6CFF1
:1009B000DC0118968C911897681710F06FEF680F8C
:1009C0001B969C911B97992391F017962C91179742
:1009D000962F211106C061E0690F90E06817D8F7E3
:1009E000F7CF19961C9219971A966C931A97FD01D6
:1009F000E60FF11D64856068CD010C94A0040F938F
:100A00001F93CF93DF93EC010E9470048C018B85C0
:100A1000882391F089858F5F89879F81891760F08E
:100A200019868A858F5F8A879885891708F01A86C4
:100A30006A85CE010E94D804C801DF91CF911F9131
:100A40000F9108958DEF9FEF08958DEF9FEF08951B
:100A500090E080E008951F93CF93DF93EC01162F71
:100A60006C8160620E94A004129516951695137011
:100A700063E070E0611B7109CE010E9470046D811A
:100A8000862F84608D836C60CE01DF91CF911F91A2
:100A90000C94A0040F931F93CF93DF93D62FC72FEF
:100AA000682F8DE292E00E94D8040D2F1C2FC0E029
:100AB000F80161918F01662361F08DE292E00E945E
:100AC000FF04CF5FC431A1F7DF91CF911F910F9148
:100AD000089560E28DE292E00E94FF04CF5FC4318E
:100AE000C1F7F2CF0F931F93CF938C01C62FFC0158
:100AF00083A161E0C0FF60E00E94C201F80184A10F
:100B000061E0C1FF60E00E94C201F80185A161E0DF
:100B1000C2FF60E00E94C201F80186A161E0C3FF4C
:100B200060E0CF911F910F910C94C201662329F0D0
:100B30000E942B0590E080E00895FC0165816B7FA9
:100B4000658368600E94A004F5CFCF93DF93EC012A
:100B500061E088A10E94F00189A18F3F39F061E036
:100B60000E94F00160E089A10E94C20161E08AA1B7
:100B70000E94F00160E08AA10E94C20161E08BA1A5
:100B80000E94F00161E08CA10E94F00161E08DA162
:100B90000E94F00161E08EA10E94F00190E080E0EF
:100BA000DF91CF91089508954F925F926F927F9257
:100BB0008F929F92AF92BF92EF92FF921F93CF932B
:100BC000DF93EC017B01142F88A161E091E0E9162D
:100BD000F10409F060E00E94C201612F70E084E03E
:100BE000759567958A95E1F7CE010E9472058C8C08
:100BF0009D8CAE8CBF8C488C598C6A8C7B8C0E94EF
:100C000021026419750986099709681579058A050D
:100C10009B05A8F361E08AA10E94C20160E08AA15D
:100C20000E94C20182E0E816F10469F0612F6F7042
:100C3000CE010E94720561E08AA10E94C20160E0BB
:100C40008AA10E94C20190E080E0DF91CF911F91C4
:100C5000FF90EF90BF90AF909F908F907F906F909C
:100C60005F904F900895CF92DF92EF92FF920F9393
:100C70001F93CF93DF93482F62E070E08DE292E004
:100C80000E94D4058C01CDE2D2E0CC88DD88EE88CC
:100C9000FF880E942102688F798F8A8F9B8FCC8E6C
:100CA000DD8EEE8EFF8EC801DF91CF911F910F91E7
:100CB000FF90EF90DF90CF9008958F929F92AF9228
:100CC000BF92CF92DF92EF92FF920F931F93CF9339
:100CD000DF93FC0121A12F3F09F495C08B01EC01AA
:100CE000C48CD58CE68CF78C808C918CA28CB38CC8
:100CF0000E942102681979098A099B096C157D05F2
:100D00008E059F05A8F360E08BA10E94F00160E0D2
:100D10008CA10E94F00160E08DA10E94F00160E0D2
:100D20008EA10E94F00161E00130110509F060E040
:100D300088A10E94C20161E089A10E94C20161E014
:100D40008AA10E94C2018BA10E94990110E1019722
:100D500009F010E08CA10E949901019709F410623A
:100D60008DA10E949901019709F410648EA10E943F
:100D70009901019709F4106860E08AA10E94C201FC
:100D800061E08AA10E94C2018BA10E949901019792
:100D900009F411608CA10E949901019709F4126075
:100DA0008DA10E949901019709F414608EA10E94FF
:100DB0009901019709F4186060E08AA10E94C201BC
:100DC00061E08BA10E94F00161E08CA10E94F00122
:100DD00061E08DA10E94F00161E08EA10E94F0010E
:100DE00060E089A10E94C201812F90E0DF91CF9144
:100DF0001F910F91FF90EF90DF90CF90BF90AF9039
:100E00009F908F9008958DEF9FEFF0CF0E943F0C41
:100E10000F931F93CF93DF93CDB7DEB765970FB6D0
:100E2000F894DEBF0FBECDBF61E08DE292E00E947C
:100E3000A00461E271E080E00E944A058CE091E04C
:100E40009F938F9382E191E09F938F931F9285E10F
:100E50008F938E010F5F1F4F1F930F930E94440CBF
:100E6000B80181E00E944A050FB6F894DEBF0FBEBC
:100E7000CDBF65960FB6F894DEBF0FBECDBFDF9134
:100E8000CF911F910F9108951F920F920FB60F925D
:100E900011242F933F938F939F93AF93BF93809190
:100EA000C7019091C801A091C901B091CA013091C8
:100EB000C60123E0230F2D3758F50196A11DB11D62
:100EC0002093C6018093C7019093C801A093C901E4
:100ED000B093CA018091CB019091CC01A091CD013A
:100EE000B091CE010196A11DB11D8093CB019093CD
:100EF000CC01A093CD01B093CE01BF91AF919F9152
:100F00008F913F912F910F900FBE0F901F901895CA
:100F100026E8230F0296A11DB11DD2CF1F920F927A
:100F20000FB60F9211248F939F938091E1009091BF
:100F3000E100937F9093E10083FF0FC01092E900DE
:100F400091E09093EB001092EC0092E39093ED000F
:100F50001092DC0198E09093F00082FF22C093E0B1
:100F60009093E9009091F200992319F09AE39093FD
:100F7000E80090918101992341F090918101915075
:100F800090938101911101C05D9A9091DB019923A9
:100F900041F09091DB0191509093DB01911101C0E0
:100FA000289A84FF18C08091E2008E7E8160809331
:100FB000E2008091E1008F7E8093E10080918201C8
:100FC0008E7E8061809382019F918F910F900FBEE2
:100FD0000F901F90189580FFF7CF8091E2008E7ED2
:100FE00080618093E2008091E1008E7E8093E10039
:100FF000809182018E7E8160E5CF1F920F920FB6A5
:101000000F921124CF92DF92EF92FF920F931F93D2
:101010002F933F934F935F936F937F938F939F9300
:10102000AF93BF93EF93FF93CF93DF93CDB7DEB72B
:101030006C97DEBFCDBF1092E9008091E80083FF7E
:1010400025C068E0CE0145960E94300382EF809370
:10105000E8008D8987FF39C09091E80090FFFCCFB0
:10106000982F907609F034C19E894F89588D2F8929
:10107000F88C911131C0803861F5809183018093A3
:10108000F1001092F1008EEF8093E8006C960FB69D
:10109000F894DEBF0FBECDBFDF91CF91FF91EF91EE
:1010A000BF91AF919F918F917F916F915F914F9180
:1010B0003F912F911F910F91FF90EF90DF90CF9074
:1010C0000F900FBE0F901F9018959EEF9093E80021
:1010D000C7CF1092F100D5CF913059F48111D3CF01
:1010E0004130510581F6809183018D7F809383018A
:1010F000CACF933049F48111C6CF4130510519F65A
:10110000809183018260F2CF953041F48091E800B4
:1011100080FFFCCF20682093E300B5CF963009F024
:10112000A9C00B8D1C8D22E01092E90010927F0166
:1011300010927E01F2122EC010927D0110927C015D
:101140000E94FF021F8299E09983FA8291E09E83B8
:1011500090EA98879AEF998720917E0130917F01DC
:10116000275F3F4F3C832B838D831092E9001092C1
:101170007F0110927E0110937D0100937C0149E074
:1011800050E0BE016F5F7F4F80E00E94D9020E9455
:10119000FF0279CF10937D0100937C010E943901F9
:1011A000DC0112960D911C910115110509F451C134
:1011B000D801ED91FC910480F581E02DBE016B5EBC
:1011C0007F4FC8010995009709F03EC1F8010085DD
:1011D0001185EACFF3E0FF120EC08F89882309F44E
:1011E00040C0823061F440E862E18DE091E00E940D
:1011F000A602811148CF81E28093EB0047CF813076
:1012000029F440E868E084E091E0F1CF833099F779
:101210000E943901DC011296ED90FC908E010F5F67
:101220001F4F6801E114F10479F0D701ED91FC91B1
:101230000680F781E02DB801C7010995080F111D3F
:10124000F701E084F184EECFD8011C92F601019001
:101250000020E9F73197BF016C197D0940E0C60114
:10126000C6CF6EEE70E0FB01449150E080E80E9432
:10127000D90209CF973009F4BECF983021F481E02C
:101280008093F10000CF993009F0FDCE837009F012
:10129000B2CFE7E3F1E081E031E096E32191222350
:1012A00071F08093E9003093EB00DF0111972C91EE
:1012B0002093EC009093ED008F5F873079F78EE7F5
:1012C0008093EA001092EA008F898093DC01DBCEE4
:1012D0008B8D9C8D1092E90010927F0110927E01FF
:1012E00090937D0180937C01898D811192C08E89BC
:1012F0009D89913A49F4813209F07DCF47E050E071
:1013000064E071E080E0B3CF913209F074CF8332B2
:1013100069F48F89988DB0E0A0E0809300019093EC
:101320000101A0930201B0930301ADCE803269F4B4
:101330008091E80082FFFCCF67E084E091E00E94AA
:1013400030038BEF8093E8009ECE823209F09BCE73
:101350008F8980930B01EEEFFFE7859194918B3F8E
:101360009C4D51F1E0E0F8E080910401909105017D
:10137000A0910601B0910701803B9440A105B10501
:10138000F1F480910B0180FD1AC0EE3F8AE0F8076E
:1013900089F587E797E79183808380916000809348
:1013A000800188E19BE00FB6F894A89580936000D7
:1013B0000FBE9093600067CEEEEFFAE0D5CF80814C
:1013C00091818737974709F05ECEA895809160009C
:1013D0008861809360008091800180936000EE3F7F
:1013E0002AE0F20789F08091FE0A9091FF0A91832A
:1013F000808349CE808191818737980751F29093FD
:10140000FF0A8093FE0AC5CF1092FF0A1092FE0ACF
:101410003ACE0E943901DC0112960D911C91011502
:10142000110509F4E8CED801ED91FC910190F0810D
:10143000E02DBE016B5E7F4FC8010995811123CE5F
:10144000F80100851185EBCF181619060CF41BCE98
:10145000D2CEF1E0FF12BECE62EF70E004CFCF93A8
:10146000DF93EDEDF1E01382128288EE93E0A0E0CD
:10147000B0E084839583A683B78381E491E0918370
:1014800080838FEF9FEF95878487CDE2D2E01B8228
:101490001A8283E591E09983888384E18F8382E0D7
:1014A00088871C861D861E861F861B8680ED97E01A
:1014B000A0E0B0E0888B998BAA8BBB8B86E290E092
:1014C000A0E0B0E08C8B9D8BAE8BBF8B0E94210285
:1014D000688F798F8A8F9B8F1C8E1D8E1E8E1F8E1C
:1014E00089E691E09983888387E088A38FEF89A3B9
:1014F00088E08AA389E08BA38AE08CA38BE08DA38C
:101500008CE08EA3DF91CF910895789484B58260AA
:1015100084BD84B5816084BD85B5826085BD85B597
:10152000816085BD80916E00816080936E00109215
:101530008100809181008260809381008091810090
:101540008160809381008091800081608093800021
:1015500080919100826080939100809191008160E0
:1015600080939100809190008160809390008091A1
:10157000C10084608093C1008091C100826080932B
:10158000C1008091C10081608093C1008091C3003F
:1015900081608093C3008091C00082608093C0000E
:1015A0008091C20081608093C20080917A00846043
:1015B00080937A0080917A00826080937A00809193
:1015C0007A00816080937A0080917A0080688093AD
:1015D0007A001092DC0110928301109282018091B6
:1015E000D70081608093D70080EA8093D80089B5C6
:1015F000806189BD89B5826089BD09B400FEFDCFD7
:1016000061E070E080E090E00E9446028091D800A6
:101610008F7C80618093D8008091E000807F8093F0
:10162000E0008091E1008E7E8093E1008DE0809368
:10163000E200559A209A8FEF9FEF9093EA018093F2
:10164000E9018091390281110CC080913A02811127
:1016500008C080913B02811104C080913C02882324
:1016600031F080913402882369F0843159F010926E
:10167000390280E480933A0284E180933B0284E55E
:1016800080933C0282E08093350284E180933402AF
:1016900064E670E080E090E00E9446021092310221
:1016A0008DE292E00E94A505892BC9F061E08DE0F2
:1016B0000E94F00161E08DE00E94C20164E670E0EA
:1016C00080E090E00E94460260E08DE00E94C2014E
:1016D00064E670E080E090E00E944602EBCF8091EB
:1016E0003502823028F08091310288608093310287
:1016F00080E30E94330665E070E080E090E00E94A5
:10170000460280E30E94330661E070E080E090E0F2
:101710000E94460280E30E94330661E070E080E0B0
:1017200090E00E9446028091310284FD03C080E275
:101730000E9433066091310260628DE292E00E9465
:10174000A00484E0809332026CE08DE292E00E947B
:10175000A00461E08DE292E00E94A00482E0809308
:10176000330266E08DE292E00E94A004EC016FEF8C
:101770008DE292E00E942B05CD2B09F097CF6BE212
:101780008DE292E00E94A0040E94080713E0C0E0EE
:10179000D0E08DED91E00E945604181619060CF069
:1017A00062C08DED91E00E94140497FD5CC08D3005
:1017B000910579F32091C4013091C5018A309105DA
:1017C00009F042C0F901EC57FE4F10822115310596
:1017D00039F080918401833401F13CF4823419F1B1
:1017E0001092C5011092C401D4CF8C3429F08635F3
:1017F000B9F70E940807F4CF2430310588F38091AF
:101800008601803269F7809185018053823040F7EC
:1018100067E871E00E944A05E3CF61E08DE292E063
:101820000E94A004DDCF23303105D0F280918501E4
:101830008032B1F6809186018053843008F083E0D5
:10184000612F681B6862EACFA9014F5F5F4F403488
:10185000510530F65093C5014093C4012C573E4FBB
:10186000F901808396CF209709F493CF0E9400005E
:1018700090CFEE0FFF1F0590F491E02D099481E0C9
:1018800090E0F8940C94290FAEE0B0E0EAE4FCE0BC
:101890000C94000F0D891E898F89988D26E02C836A
:1018A0001A83098397FF02C080E090E801979E8326
:1018B0008D83AE01455E5F4F698D7A8DCE010196B5
:1018C0000E94740C4D815E8157FD0AC02F813885BE
:1018D000421753070CF49A01020F131FF8011082EC
:1018E0002E96E4E00C941C0FABE0B0E0EAE7FCE0DD
:1018F0000C94F20E7C013B018A01FC0117821682D6
:10190000838181FFC8C1CE0101965C01F7019381FB
:10191000F30193FD859193FF81913F01882309F4A1
:1019200053C1853239F493FD859193FF81913F0135
:10193000853229F4B70190E00E94640EE7CF912C24
:10194000212C312CFFE1F31538F08B3211F190F49A
:10195000803209F1833229F137FC3CC020ED280F99
:101960002A3050F536FE20C08AE0989E200D1124C2
:10197000922E06C08D3291F0803371F7689430F862
:10198000F30193FD859193FF81913F018111DACF9E
:1019900021C0689431F8689432F8F2CF689433F833
:1019A000EFCF689434F8ECCFEAE02E9E200D11249E
:1019B000222E689435F8E4CF8E3229F436FC04C127
:1019C000689436F8DDCF8C3619F4689437F8D8CFA0
:1019D0008836B1F2982F9F7D95549330E0F083368E
:1019E000A1F18337C1F1833509F063C02801F2E02A
:1019F0004F0E511CF801C080D180692D70E036FC7B
:101A000002C06FEF7FEFC6010E944E0E4C0168943A
:101A100037F882010AC00C5F1F4FFFE3F983882467
:101A20008394912C6501E89437F833FE2DC0522C35
:101A30008114910471F5552009F468CFB70180E253
:101A400090E00E94640E5A94F6CFF8018081898359
:101A50000E5F1F4FE4CF2801F2E04F0E511CF8013A
:101A6000C080D180692D70E036FC02C06FEF7FEF3F
:101A7000C6010E94590E4C018201D5CFB70180E208
:101A800090E00E94640E2A942814190409F0B0F71B
:101A9000CECFF60137FC859137FE81916F01B701FA
:101AA00090E00E94640E51105A94F1E08F1A910850
:101AB000BFCF843619F0893609F077C0F80137FEB8
:101AC0006BC060817181828193810C5F1F4FF32D08
:101AD000FF763F2E97FF09C0909580957095619590
:101AE0007F4F8F4F9F4F689437F82AE030E0A50171
:101AF0000E94940EC82ECA188C2C432C36FE0CC0A3
:101B0000E89440F8C91440F434FE05C032FC03C028
:101B1000F32DFE7E4F2E892C44FE95C0FE01EC0D68
:101B2000F11D8081803309F087C0242D297E422E4B
:101B3000842D8870582E43FC95C040FE8FC09C2C8D
:101B4000821418F42C0C922C981844FE91C0B70102
:101B500080E390E00E94640E42FE09C088E790E0B6
:101B600041FE02C088E590E0B7010E94640EC914EE
:101B700008F48AC0CA94D12C9FEFC91AD90ACA0C9A
:101B8000DB1CF60182916F01B70190E00E94640EA8
:101B9000AC14BD04B1F74FCF60817181072E000CEA
:101BA000880B990B0E5F1F4F92CFD32CE894D4F87B
:101BB0002AE030E0853739F1232D297FD22E8F3668
:101BC00001F148F48835A9F0F701868197812B96B9
:101BD000E2E10C940E0F803749F08837A9F7D4FE64
:101BE00002C06894D2F820E130E00DC06894D4F8C7
:101BF000F6CF34FE03C0822F8660D82E20E132E07B
:101C000002C028E030E0F801D7FE0FC0608171818A
:101C1000828193810C5F1F4FA5010E94940EC82EF4
:101C2000CA183D2CE89437F867CF6081718190E045
:101C300080E00E5F1F4FF0CF42FC02C0839478CF4C
:101C40008394839475CF842D867809F471CFF6CF71
:101C5000B70180E290E00E94640E83948214C0F386
:101C6000512C73CF522C5818821408F46ECFF8CF31
:101C7000842D867809F47BCF8BE241FE80E247FC1D
:101C80008DE2B70190E071CFB70180E390E00E9450
:101C9000640E9A946CCF8FEF9FEF99CFFC01059063
:101CA000615070400110D8F7809590958E0F9F1F5E
:101CB0000895FC016150704001900110D8F78095A3
:101CC00090958E0F9F1F08950F931F93CF93DF93CF
:101CD000182F092FEB018B8181FD09C01FEF0FEF3A
:101CE000812F902FDF91CF911F910F91089582FF47
:101CF00014C02E813F818C819D81281739073CF4C7
:101D0000E881F981CF0101969983888310838E81C0
:101D10009F8101969F838E83E3CFE885F985812F8C
:101D20000995892BA1F3DACFFA01AA27283051F1BE
:101D3000203181F1E8946F936E7F6E5F7F4F8F4FFC
:101D40009F4FAF4FB1E03ED0B4E03CD0670F781F5B
:101D5000891F9A1FA11D680F791F8A1F911DA11D40
:101D60006A0F711D811D911DA11D20D009F4689479
:101D70003F912AE0269F11243019305D3193DEF621
:101D8000CF010895462F4770405D4193B3E00FD0D7
:101D9000C9F7F6CF462F4F70405D4A3318F0495DC2
:101DA00031FD4052419302D0A9F7EACFB4E0A695A5
:101DB0009795879577956795BA95C9F700976105C7
:101DC000710508959B01AC010A2E0694579547951D
:101DD00037952795BA95C9F7620F731F841F951F12
:101DE000A01D08952F923F924F925F926F927F9223
:101DF0008F929F92AF92BF92CF92DF92EF92FF921B
:101E00000F931F93CF93DF93CDB7DEB7CA1BDB0BC6
:101E10000FB6F894DEBF0FBECDBF09942A8839886B
:101E200048885F846E847D848C849B84AA84B98472
:101E3000C884DF80EE80FD800C811B81AA81B9817E
:101E4000CE0FD11D0FB6F894DEBF0FBECDBFED0192
:061E50000895F894FFCF95
:101E5600FFFFFFFF00E1000000000000302E312EE2
:101E660030006677202573206177616974696E6733
:101E7600005A45524F5458205646442020202020D0
:101E860020202020200000C18081000000000000EA
:101E960000EF036A03100405045604140432040018
:101EA600000000FF043D032805D305280525050687
:101EB600072205220500000000FF043D032805D384
:0C1EC60005A5055D06D405960522050063
:00000001FF
