:100000000C94E0010C9411020C9411020C94110256
:100010000C9411020C9411020C9411020C94110214
:100020000C9411020C9411020C9411020C94110204
:100030000C9411020C9480210C9411020C94110266
:100040000C9411020C9411020C9411020C941102E4
:100050000C9411020C9411020C9411020C94362190
:100060000C9411020C940A220C94E0210C941102BD
:100070000C9411020C9411020C9411020C941102B4
:100080000C9411020C9411020C9411020C941102A4
:100090000C9411020C9411020C9411020C94110294
:1000A0000C9411020C9411020C9411020C94110284
:1000B0000C9411020C9411020C9411020C94110274
:1000C0000C9411020C9411020C9411020C94110264
:1000D0000C9411020C9411020C9411020C94110254
:1000E0000C9411020C9447100C94010A0C94B51452
:1000F0000C9470070C9464020C9449020C94E0096F
:100100000C945D220C943B0B0C9457170C948E02AC
:100110000C9402110C941E040C9418070C946E029B
:100120000C94DD090C94F9090C94F3090C94A807BC
:100130000C946A070C946D070C94D1070C94EB1A7D
:100140000C946B0A0C94ED090C94F6090C94C714EA
:100150000C94EA090C94D8090C94BD140C94DB0E91
:100160000C94340C0C94040A0C945B020C948002E2
:100170000C941B130C94B0090C94C5140C94231408
:100180000C94DE090C94F51E0C94BB140C94B51160
:100190000C94C1140C94C3140C94E8090C94ED0B4A
:1001A0000C94BF140C9489020C949A0A0C94DC09E8
:1001B0000C9453020C9487040C94FF090C9476025F
:1001C0000C94D7090C9457020C94040D0C94530C06
:1001D0000C947A130C94050A0C9454110C94D908BD
:1001E0000C94D9090C94F1030C94EE110C94960F15
:1001F0000C944F020C94A9080C9498090C94840256
:100200000C9497090C9468020C94DB090C947C0202
:100210000C942B1A0C9441040C94E2090C942D04B8
:100220000C9466090C94B7140C94F0090C947202A7
:100230000C94B9140C948A020C94E5090C94FC09F2
:100240000C94D4040C94DA090C944F040C94640BB1
:100250000C945E020C94DF090C94B314101010106F
:100260001010100018181818181818001C1C1C1C46
:100270001C1C1C001E1E1E1E1E1E1E001F1F1F1FDC
:100280001F1F1F0000000E1F1F0E00000000000EA9
:100290000E0000000001021408000000020000210E
:1002A00000240027002A002D003000330001010047
:1002B00000040107010A0100002200250028002B8C
:1002C000002E003100340002010000050108010B7E
:1002D00001000020002300260029002C002F0032FE
:1002E00000000100000301060109010505050507DD
:1002F0000508080808020202020A0A0808040404A1
:1003000004010101010101010103030303030303CC
:1003100003040707070C0C0C0C0C0C0C0C0202025B
:100320000206060606060606060B0B0B0B0B0B0B4E
:100330000B010210202008081020401020408002ED
:10034000010201080402010102040810204080801B
:10035000402010080402018004020180402010089F
:100360000402010804020101020408102040800177
:100370000204081020408000000A0B02090C0D0E38
:100380000807030401000000000000000000000056
:10039000000000000000000000000000000000005D
:1003A000000000121110000000000000000000001A
:1003B00000000000000000000000000000005D22BE
:1003C00011241FBECFEFD1E2DEBFCDBF00E00CBFD6
:1003D0002EE0A2EEBBE001C01D92A031B207E1F712
:1003E0001BE0A0E0B2E0E4E0FDE500E00BBF02C0EE
:1003F00007900D92A23EB107D9F711E0C0EED1E00F
:1004000000E006C021970109802FFE010E94392AD1
:10041000CF3DD10780E00807A9F70E94F8220C948D
:10042000802E0C940000FC01AC01445C5F4F8FEF08
:100430009FEF2191922728E0BC01880F991F77FF39
:1004400004C031E2832730E193272150A9F7E41754
:10045000F50779F708958150823108F05AC0E82FE6
:10046000F0E08827E95CFD4F8F4F0C94392A570242
:100470005B0249024F02530289025E026402680273
:100480006E02720276027C028002890284028A0273
:100490008E02809180008F778093800008958091F4
:1004A00080008F7DF9CF80918000877FF5CF84B564
:1004B0008F7784BD089584B58F7DFBCF8091B00088
:1004C0008F778093B00008958091B0008F7DF9CF31
:1004D000809190008F778093900008958091900094
:1004E0008F7DF9CF80919000877FF5CF8091A0001C
:1004F0008F778093A00008958091A0008F7DF9CF21
:100500008091A000877FF5CF809120018F77809325
:1005100020010895809120018F7DF9CF80912001E5
:10052000877FF5CFCF93DF93282F30E0F901E9588B
:10053000FC4F8491F901EF5CFC4FD491F901E55136
:10054000FD4FC491CC23A1F081110E942B02EC2F0E
:10055000F0E0EE0FFF1FEF52FD4FA591B491EC912B
:10056000ED2381E090E009F480E0DF91CF910895E0
:1005700080E090E0FACF1F93CF93DF93282F30E0F5
:10058000F901E958FC4F8491F901EF5CFC4FD491DB
:10059000F901E551FD4FC491CC23A9F0162F81112B
:1005A0000E942B02EC2FF0E0EE0FFF1FE954FD4FED
:1005B000A591B4918FB7F894EC91111108C0D09522
:1005C000DE23DC938FBFDF91CF911F910895DE2B47
:1005D000F8CFCF93DF9390E0FC01EF5CFC4F2491C8
:1005E00085519D4FFC0184918823C9F090E0880FCC
:1005F000991FFC01E356FD4FA591B491FC01E9540C
:10060000FD4FC591D49161110DC09FB7F8948C91A5
:10061000209582238C938881282328839FBFDF9194
:10062000CF910895623051F49FB7F8943C91822F96
:10063000809583238C93E8812E2BEFCF8FB7F8948E
:10064000EC912E2B2C938FBFEACF863308F0865384
:1006500020917B00982F9870277F922B90937B009E
:100660008770806480937C0080917A00806480939E
:100670007A0080917A0086FDFCCF8091780090917D
:10068000790008953FB7F8948091680C9091690CB7
:10069000A0916A0CB0916B0C26B5A89B05C02F3FAA
:1006A00019F00196A11DB11D3FBFBA2FA92F982F98
:1006B0008827BC01CD01620F711D811D911D42E093
:1006C000660F771F881F991F4A95D1F708958F925B
:1006D0009F92AF92BF92CF92DF92EF92FF924B0127
:1006E0005C010E9442036B017C010E9442036C1971
:1006F0007D098E099F09683E734081059105A8F325
:1007000021E0821A9108A108B10888EEC80E83E0A2
:10071000D81EE11CF11C81149104A104B10429F735
:10072000FF90EF90DF90CF90BF90AF909F908F9011
:1007300008952FB7F8946091640C7091650C8091C6
:10074000660C9091670C2FBF089590916D028913EC
:100750000DC0ECE9F2E0E4919FEF90936D02E2307E
:10076000E1F038F4EE2381F0E13089F060E00C94A0
:10077000BB02E43049F110F1E530C1F7909173000C
:100780009D7F90937300F2CF10926E00EFCF909107
:100790006F009D7F90936F00E9CF909170009D7FD7
:1007A0009093700091E09093B0009091B100987F89
:1007B00094609093B1001092B300D8CF90917100E3
:1007C0009D7F90937100D2CF909172009D7F909306
:1007D0007200CCCFDC01ED91FC910190F081E02D15
:1007E0001994AF92BF92CF92DF92EF92FF920F9344
:1007F0001F93CF93DF936C017B018B01040F151FB7
:10080000EB015E01AE18BF08C017D10759F069911E
:10081000D601ED91FC910190F081E02DC601199572
:10082000892B79F7C501DF91CF911F910F91FF902F
:10083000EF90DF90CF90BF90AF900895FC01538D63
:10084000448D252F30E0842F90E0821B930B5417AA
:1008500010F0CF96089501970895FC01918D828D37
:10086000981761F0A28DAE0FBF2FB11D5D968C91D0
:10087000928D9F5F9F73928F90E008958FEF9FEF0F
:100880000895FC01918D828D981731F0828DE80FCB
:10089000F11D858D90E008958FEF9FEF0895FC0185
:1008A000918D228D892F90E0805C9F4F821B910952
:1008B0008F73992708958CE69CE00E944F0421E0F5
:1008C000892B09F420E0822F0895FC01A48DA80F44
:1008D000B92FB11DA35ABF4F2C91848D90E0019682
:1008E0008F739927848FA689B7892C93A089B189A2
:1008F0008C91837080648C93938D848D981306C043
:100900000288F389E02D80818F7D80830895EF92A6
:10091000FF920F931F93CF93DF93EC0181E0888FB9
:100920009B8D8C8D98131AC0E889F989808185FF89
:1009300015C09FB7F894EE89FF896083E889F9892B
:1009400080818370806480839FBF81E090E0DF912D
:10095000CF911F910F91FF90EF900895F62E0B8D80
:1009600010E00F5F1F4F0F731127E02E8C8D8E113B
:100970000CC00FB607FCFACFE889F989808185FFA2
:10098000F5CFCE010E946504F1CFEB8DEC0FFD2F6A
:10099000F11DE35AFF4FF0829FB7F8940B8FEA895D
:1009A000FB8980818062CFCFCF93DF93EC01888D6C
:1009B0008823B9F0AA89BB89E889F9898C9185FDDA
:1009C00003C0808186FD0DC00FB607FCF7CF8C9168
:1009D00085FFF2CF808185FFEDCFCE010E946504B7
:1009E000E9CFDF91CF91089580E090E0892B29F045
:1009F0000E945B0481110E94000080E090E0892B3E
:100A000049F080E090E0892B29F00E9400008111DC
:100A10000E94000080E090E0892B49F080E090E0A7
:100A2000892B29F00E94000081110E94000080E0C3
:100A300090E0892B49F080E090E0892B29F00E941A
:100A4000000081110C9400000895FF920F931F93F2
:100A5000CF93DF93EC01FF24F394F60E28852F1536
:100A600081F109851A85215041F16F3FE1F430E0B1
:100A700050E040E06FEF7FEF80E090E00E941A2AA4
:100A8000B901F8014C815D81CF01801B910B841766
:100A90009507B0F44081469FC001479F900D1124F7
:100AA00090833196EFCF8F2D90E0982F8827019774
:100AB000622F70E00E94F229E4CF70E060E0E1CFA5
:100AC000F886DF91CF911F910F91FF9008950F93BA
:100AD0001F93DC0112968D919C91139768177907EB
:100AE000C0F518968C911897882361F0489FA00153
:100AF0001124452F829F90011124232F809F800174
:100B00001124012F1E968C911E971996ED91FC9140
:100B10001A971B969C911B9789131EC0CB01880FB7
:100B2000991F680F791F6E0F7F1F1B96EC911B9703
:100B3000E60FF72FF11D40831C96EC911C97E60FF2
:100B4000F72FF11D20831D968C91680F711DFB01FD
:100B500000831F910F910895660F771F660F771F0F
:100B60006E0F7F1FFB01E80FF11D1082DECFCF92C9
:100B7000DF92EF92FF920F931F93CF93DF9300D0FA
:100B800000D000D0CDB7DEB78C01DC0119968D9175
:100B90009C91892B09F473C00E944203F801C78419
:100BA000D088E188F2886C157D058E059F0520F4BC
:100BB0006787708B818B928BF801C784D088E1881E
:100BC000F2886C197D098E099F096C32714081058C
:100BD000910510F3F894D80114968D919C91159776
:100BE0009A8389831996ED91FC917F01BFEFEB1AEF
:100BF000FB0A80818987F80190810388F489E02DC0
:100C0000D80155968C91992309F448C09081982B6E
:100C100098879081809589238F838F818C8388E04A
:100C20008B8358856F8149853B812C8189819A818D
:100C3000D701508347FD252F3A952083262F39F081
:100C4000441F00C000006083000000C0F2CF38E005
:100C50004D9160830000019761F7D8015496FC9391
:100C6000EE93539749873B832C839A8389837894A7
:100C70000E944203F8016787708B818B928B2996C3
:100C80000FB6F894DEBF0FBECDBFDF91CF911F919D
:100C90000F91FF90EF90DF90CF9008959081982B67
:100CA00098879081809589238F838F818E8388E0B8
:100CB0008D8358856F8149853D812E8189819A81F7
:100CC000D701508347FD252F00C000C0208300C0FE
:100CD00000C000C000C000C060830000262F3A950D
:100CE00041F0441F000000C000C000C000C000C0B0
:100CF000E8CF38E04D9100C0608300C0019709F74C
:100D0000D8015496FC93EE93539749873D832E83E5
:100D1000ACCFCF92DF92EF92FF920F931F93CF93BE
:100D2000DF93EC01462FE881F9810484F585E02DFD
:100D300061E070E019958C01CC88DD88EE88FF8831
:100D40000E944203688F798F8A8F9B8FCC8EDD8EB5
:100D5000EE8EFF8E81E090E0012B11F090E080E0BC
:100D6000DF91CF911F910F91FF90EF90DF90CF9087
:100D700008958F929F92AF92BF92EF92FF921F932E
:100D8000CF93DF93EC01162FE881F9810484F58578
:100D9000E02D462F70E060E019957C011150123073
:100DA000D8F419861A8688889988AA88BB880E94F0
:100DB0004203688F798F8A8F9B8F8C8E9D8EAE8E2B
:100DC000BF8EC701DF91CF911F91FF90EF90BF9031
:100DD000AF909F908F9008958C889D88AE88BF8833
:100DE000E6CFDC0118968C911897481710F04FEF5A
:100DF000480F1B969C911B97992389F017969C91FD
:100E00001797691730F0691B4F5F4817D0F340E020
:100E1000F8CF19966C9319971A964C931A97FD016F
:100E2000E40FF11D8485680F6068CD010C94B9064C
:100E30000F931F93CF93DF93EC010E9489068C01DF
:100E40008B85882399F089858F5F89879F81891792
:100E500068F019868A858F5F8A879885891708F0D8
:100E60001A864A8560E0CE010E94F106C801DF9132
:100E7000CF911F910F91089561E00C94B906CF9224
:100E8000DF92EF92FF920F931F93CF93DF93EC01CA
:100E9000462FE881F9810484F585E02D62E070E059
:100EA00019958C01CC88DD88EE88FF880E9442036A
:100EB000688F798F8A8F9B8FCC8EDD8EEE8EFF8E22
:100EC000C801DF91CF911F910F91FF90EF90DF90BC
:100ED000CF9008958DEF9FEF08958DEF9FEF0895C8
:100EE00090E080E00895CF93DF93FC01258D2617D5
:100EF00041F0EC01658F0E94990368A379A38AA34E
:100F00009BA3DF91CF9108950F931F93CF938C01F3
:100F1000C62FFC0183A161E0C0FF60E00E94BB021C
:100F2000F80184A161E0C1FF60E00E94BB02F8010A
:100F300085A161E0C2FF60E00E94BB02F80186A1CA
:100F400061E0C3FF60E0CF911F910F910C94BB0251
:100F50001F93CF93DF93EC01162F6623E9F06C818A
:100F600060620E94B906129516951695137063E09B
:100F700070E0611B7109CE010E9489066D81862F88
:100F800084608D836C60CE010E94B90690E080E0A1
:100F9000DF91CF911F9108956D816B7F6D836860A4
:100FA000F2CFCF93DF93EC0161E088A10E94E902C8
:100FB00089A18F3F39F061E00E94E90260E089A1D8
:100FC0000E94BB0261E08AA10E94E90260E08AA15E
:100FD0000E94BB0261E08BA10E94E90261E08CA14A
:100FE0000E94E90261E08DA10E94E90261E08EA108
:100FF0000E94E90290E080E0DF91CF910895DC014A
:10100000ED91FC910190F081E02D1994EF92FF9207
:101010000F931F93CF93DF937C01D42FC52F462FBF
:1010200060E0FC0181A992A90E94F1060D2F1C2FFE
:10103000C0E0F80161918F01662391F0062E000C4B
:10104000770BF70181A992A90E94FF07CF5FC431F6
:1010500081F7DF91CF911F910F91FF90EF9008954D
:1010600060E270E0F70181A992A90E94FF07CF5FBB
:10107000C431B1F7EECFCF93DF93EC0189A99AA9E0
:101080000E943C0744E853E060E0CE010E9406085D
:101090004EE653E061E0CE01DF91CF910C9406085B
:1010A0000F931F93CF93DF93EC012A813B811B8227
:1010B0001A824C815D81DB010E94E329DC01CB01B6
:1010C000840F951FA11DB11D452B59F00097A10557
:1010D000B10521F481E090E0A0E0B0E00197A10922
:1010E000B10985369105A105B10520F084E690E0AF
:1010F000A0E0B0E09D838C8341E060E089A99AA9DB
:101100000E94F10610E000E06C817D8189A99AA916
:101110000617170770F060E270E00E94FF070B5F90
:101120001F4F0436110581F7DF91CF911F910F9169
:101130000895601B710BDC01ED91FC910190F08131
:10114000E02D6530710518F064E01995E8CF615025
:10115000FCCFCF92DF92EF92FF920F931F93CF932A
:10116000DF9329E5C22E2CE0D22EEC010EE31CE029
:101170007C0184E0E80EF11CF60181916F018A8305
:10118000F80161918F0161706E830E94BB0261E082
:101190008A810E94E9021A862196CE15DF0561F741
:1011A000DF91CF911F910F91FF90EF90DF90CF9043
:1011B0000895CF92DF92EF92FF920F931F93CF93F8
:1011C000DF93EC016A017B016E816230B1F168F45A
:1011D000662301F1613071F1DF91CF911F910F9181
:1011E000FF90EF90DF90CF900895633009F466C0D0
:1011F000643091F76C818A810E94BB02C701B601FD
:1012000026E930E040E050E00E94B6296D8120FDE3
:1012100006C059C06C818A810E94BB026D818B819E
:10122000DF91CF911F910F91FF90EF90DF90CF90C2
:101230000C94BB028C816827EECFC701BA0120ED68
:1012400037E040E050E00E94B6299B01AC01283E07
:1012500063E0360730F5AFEFB0E00E94D82928EE02
:1012600033E040E050E00E94B629122F0C81C70104
:10127000B60124E130E040E050E00E94B6292FEFB3
:10128000269FA001279F500D1124CA0164E170E040
:101290000E94F2291617170679F070F061E06027B6
:1012A000BACF80ED97E0BC01621B730B9B01AFEFDF
:1012B000B0E00E94E329D3CF602FADCF6C818A814B
:1012C0000E94BB026D8181E06827A9CFCF92DF9297
:1012D000EF92FF920F931F93CF93DF9324E5C22EDB
:1012E0002CE0D22EEC0109E31CE07C0184E0E80E46
:1012F000F11CF60181916F018A83F80191918F01B0
:1013000091709E8361E00E94E9026E818A810E9451
:10131000BB021A862196CE15DF0559F7DF91CF91D2
:101320001F910F91FF90EF90DF90CF900895089557
:101330000F931F93FC0103811481258136810115D0
:1013400011052105310549F0401751076207730760
:1013500020F013821482158216821F910F91089536
:101360000F931F93CF93DF930FE41CE0EC01F80180
:1013700081918F018A8362E00E94E9028A810E9442
:10138000920221E0019709F020E02B832C830E9438
:1013900099036D837E838F8398872796FCE00435BD
:1013A0001F0729F7DF91CF911F910F91089508959D
:1013B0000895089508950895089508950895089545
:1013C00081E0089587E394E008958AE394E0089526
:1013D00084E008958EE394E0089584E494E0089511
:1013E00086E799E0089582E594E0089586E594E023
:1013F00008958AE594E008958EE594E0089585E0E7
:10140000089585E694E0089508950895CF92DF92B7
:10141000EF92FF920F931F93CF930097F1F07B0110
:101420008C0182E0C82E83E0D82EC0E0F6016191E5
:1014300071916F01C8010E947B2B892B59F4F70130
:10144000C08381E0CF911F910F91FF90EF90DF90CB
:10145000CF900895CF5FCB3149F780E0F3CF61158E
:10146000710579F0FB0101900020E9F73197AF0198
:10147000461B570BDC01ED91FC910280F381E02DBE
:10148000199490E080E00895EF92FF920F931F93DC
:10149000CF93DF93EC017B018A016CE674E00E943C
:1014A0002F0AB701CE010E942F0AF80180818823FC
:1014B00041F060E2CE010E94EA03B801CE010E9431
:1014C0002F0A6AE0CE01DF91CF911F910F91FF901B
:1014D000EF900C94EA030F931F93CF93DF93EC01EB
:1014E0008B01E7E4FCE080818A8391819B83ECE2BD
:1014F000FCE0908191709C83918191709D8361E06B
:101500000E94E90261E08B810E94E9026C818A817C
:101510000E94BB026D818B810E94BB021E8243E749
:1015200054E064E474E0C801DF91CF911F910F9102
:101530000C94440A4F925F926F927F928F929F9287
:10154000AF92BF92CF92DF92EF92FF920F931F93D1
:10155000CF93DF93CDB7DEB768970FB6F894DEBFB1
:101560000FBECDBFFC01C780D084E184F2844A0164
:101570005B018C189D08AE08BF0875016401E4E6A4
:10158000CE16D104E104F10408F45BC069012A011C
:101590003B018C01FC014782508661867286828104
:1015A0000E9425037C01F8019483838385819681C1
:1015B0008E159F0508F05CC04701881A990AC4017E
:1015C000F80125892223C1F027853089281739079A
:1015D00098F083859485A585B685B301A201481B43
:1015E000590B6A0B7B0B81899289A389B4894817AF
:1015F00059076A077B0728F1FF92EF928DEC97E07D
:101600009F938F931F9288E18F939E012F5F3F4F8F
:1016100059013F932F930E94A82BA50169E774E01D
:10162000C6010E94440AF801F682E5824386548688
:101630006586768681E0858B0FB6F894DEBF0FBE97
:10164000CDBF68960FB6F894DEBF0FBECDBFDF9159
:10165000CF911F910F91FF90EF90DF90CF90BF90AF
:10166000AF909F908F907F906F905F904F90089574
:101670008E199F09A5CF0F931F93CF93DF93EC0192
:101680008B0180915D0C8A8360E00E94E9028A816F
:101690000E9425039C838B839E838D830E949903E4
:1016A0006F83788789879A876B877C878D879E87EA
:1016B0001D8A43E754E069E774E0C801DF91CF91E8
:1016C0001F910F910C94440A9F92AF92BF92CF92B8
:1016D000DF92EF92FF920F931F93CF93DF93EC0172
:1016E0006A017B0189019B808A810E9492025C01D0
:1016F000892D0E949202AA0CBB1CA82AED81EA1532
:1017000041F184E0E89FF0011124EA29EE50FD4FF9
:101710008E819081890F8E83AD828E8184305CF0C2
:1017200044E954E06DE874E0C8010E94440A8E81E7
:1017300084508E83F2CF8E818D3F5CF443E954E078
:101740006DE874E0C8010E94440A8E818C5F8E832C
:10175000F2CF8C810E94920221E0019709F020E0F3
:101760008F81821729F02F83C986DA86EB86FC8663
:101770008F819885891729F149855A856B857C85E4
:10178000C41AD50AE60AF70A94E1C916D104E1049D
:10179000F104B8F0888747E854E0882311F04FE758
:1017A00054E06DE874E0C801DF91CF911F910F9173
:1017B000FF90EF90DF90CF90BF90AF909F900C94F0
:1017C000440ADF91CF911F910F91FF90EF90DF902E
:1017D000CF90BF90AF909F900895DF92EF92FF92CD
:1017E0000F931F93CF93DF93EC017B0180915F0CEC
:1017F0008A839091600C9B839091610C9C8362E042
:101800000E94E90262E08B810E94E90262E08C8121
:101810000E94E902DB808A810E9492028C018D2D58
:101820000E949202000F111F082B0D831E828C81D3
:101830000E94920221E0019709F020E02F8328877F
:101840000E94990369877A878B879C8743E754E0D6
:101850006DE874E0C701DF91CF911F910F91FF9068
:10186000EF90DF900C94440A0F931F93CF93DF9374
:10187000EC018B0180915E0C8A8361E00E94E90299
:1018800060E08A810E94BB021B821C821D821E8234
:1018900043E754E06EE574E0C801DF91CF911F91FA
:1018A0000F910C94440A3F924F925F926F927F92F5
:1018B0008F929F92AF92BF92CF92DF92EF92FF9260
:1018C0000F931F93CF93DF93CDB7DEB72C970FB64F
:1018D000F894DEBF0FBECDBF2A013B0149018C0148
:1018E000F12CE12C8FE9C82E84E0D82E9CE0392E13
:1018F000CE0101965C01D80112968C910E94920251
:1019000021E0019709F020E0F8018381821729F096
:1019100023834582568267827086F80123819481F1
:10192000291769F14581568167817085D301C2010C
:10193000841B950BA60BB70BAC01BD0144315105BF
:1019400061057105E0F02483FF92EF92DF92CF9260
:101950001F923F92BF92AF920E94A82B0FB6F894AD
:10196000DEBF0FBECDBFF80184814AE954E0882371
:1019700011F047E954E0B501C4010E94440AFFEFA9
:10198000EF1AFF0A095F1F4F85E0E816F10409F01E
:10199000B2CF2C960FB6F894DEBF0FBECDBFDF914D
:1019A000CF911F910F91FF90EF90DF90CF90BF905C
:1019B000AF909F908F907F906F905F904F903F90EF
:1019C0000895EF92FF920F931F93CF93DF93EC0153
:1019D0007B018A0169EA74E00E942F0AB701CE01F7
:1019E0000E942F0A60E2CE010E94EA03B801CE01F4
:1019F0000E942F0A6AE0CE01DF91CF911F910F91D3
:101A0000FF90EF900C94EA032F923F924F925F92D7
:101A10006F927F928F929F92AF92BF92CF92DF92FE
:101A2000EF92FF920F931F93CF93DF93CDB7DEB763
:101A3000A8970FB6F894DEBF0FBECDBF8C014B0147
:101A40007C0183E3E80EF11CE114F10409F462C0A7
:101A50006090490C70904A0CA0904B0CB0904C0CCC
:101A6000C0904D0CD0904E0CD801D6961C921E9270
:101A7000D59786E493E0D4969C938E93D39784E194
:101A8000DA968C93DA9782E0DB968C93DB97DF967D
:101A90001C92F801E05CFF4F108231961082319663
:101AA0001082F80116AE80ED97E0A0E0B0E0ED5BAB
:101AB000FF4F80839183A283B38386E290E0A0E00E
:101AC000B0E0349680839183A283B3830E94420363
:101AD000F801E55BFF4F60837183828393833496C3
:101AE00010821182128213828CE593E0D801D49681
:101AF0009C938E93D397349660828FEF3196808338
:101B0000319670823196A0823196B0823196C08231
:101B10003196D082F801F2AAE1AA87AD81110DC0F9
:101B2000E05CFF4F8081811108C031968081811176
:101B300004C031968081882339F0D801DA968C91DF
:101B4000882371F0843161F0F80117AE80E4E05C25
:101B5000FF4F808384E13196808384E531968083D2
:101B600082E0D801DB968C93DB9784E1DA968C9344
:101B700064E670E080E090E00E946703F80117AA35
:101B800003A8F4A9E02D0084F185E02DC701199583
:101B90005C01CE0101966C01A114B10409F059C099
:101BA000D801DB968C91DB97823030F0D7968C9100
:101BB000D7978860D7968C9360E3C7010E943F0750
:101BC00065E070E080E090E00E94670360E3C70199
:101BD0000E943F0761E070E080E090E00E946703B0
:101BE00060E3C7010E943F0761E070E080E090E0A1
:101BF0000E946703F80187A984FD04C060E2C70161
:101C00000E943F07D801D7966C916062C7010E947D
:101C1000B90684E0F80180AF6CE0C7010E94B90604
:101C2000C7010E943C0782E0D801D9968C9366E0F8
:101C3000C7010E94B9065C01D801D396ED91FC91D1
:101C40000684F785E02D6FEFC7011995A114B10443
:101C500089F1BF92AF928CEA94E09F938F931F9289
:101C600088E28F93DF92CF920E94A82BA6016EEBA1
:101C700074E0C4010E94E10C0FB6F894DEBF0FBE01
:101C8000CDBFA8960FB6F894DEBF0FBECDBFDF91D3
:101C9000CF911F910F91FF90EF90DF90CF90BF9069
:101CA000AF909F908F907F906F905F904F903F90FC
:101CB0002F900895F12CE12C1601F8E02F0E311C25
:101CC0003601D60190E080E09701245A3D4FF9019A
:101CD000E80FF91FE491ED93019688309105B9F76B
:101CE000D801D196AD90BC90D501ED91FC910284C4
:101CF000F385E02D70E060E0C50119952C01E894B2
:101D000047F8552497FD412C6E2D6064C5010E9453
:101D1000B906892B81F4F30161913F01C5010E944D
:101D20008906019741F426143704A9F740E0642D91
:101D3000C5010E94F106F8E0EF0EF11C80E4E81600
:101D4000F10409F0BDCF6BE2D801D1968D919C9141
:101D50000E94B906C8010E943B080E949903F8013D
:101D600060A371A382A393A364A375A386A397A37F
:101D700060A771A782A793A7158E43E754E06EEB87
:101D800074E0C4010E94440A7CCF0F931F93CF9349
:101D9000DF93EC018B0164EC74E00E942F0AB80120
:101DA000CE010E942F0A6AE0CE01DF91CF911F91F0
:101DB0000F910C94EA038F929F92AF92BF92CF92B1
:101DC000DF92EF92FF920F931F93CF93DF93CDB7E4
:101DD000DEB768970FB6F894DEBF0FBECDBF643094
:101DE00008F0A2C0FA010081002309F49DC081809F
:101DF00092808114910409F497C069015A01162F49
:101E00007C016BEC74E0C4010E947B2B892B09F0F0
:101E10005DC0033030F0F501A580B680A114B10497
:101E2000D9F44FEC54E06EE374E0C6010E94E10C7B
:101E300081E068960FB6F894DEBF0FBECDBFDF918C
:101E4000CF911F910F91FF90EF90DF90CF90BF90B7
:101E5000AF909F908F9008956CE57AE0C5010E9445
:101E60007B2B892B39F164E87BE0C5010E947B2B39
:101E7000892B01F167EC74E0C5010E947B2B892B53
:101E800051F061E974E0C5010E947B2B892B19F0A8
:101E90004DED54E0C8CFF701E10FF11D1286F701B7
:101EA000E10FF11D6681F701E10FF11D82810E94B2
:101EB000BB02BECF81E0F701E10FF11D8287F70180
:101EC000E10FF11D668181E06827EDCF6BEE74E0D4
:101ED000C4010E947B2B892B39F5F701E10FF11D1D
:101EE000828581111EC087EC94E09F938F931F928F
:101EF0001F938FEE94E09F938F931F9288E18F93AF
:101F00008E010F5F1F4F1F930F930E94A82BB801E4
:101F1000C6010E94C50E0FB6F894DEBF0FBECDBF3E
:101F200087CF8CE59AE0E1CF80E083CF9F92AF929C
:101F3000BF92CF92DF92EF92FF920F931F93CF93B6
:101F4000DF93CDB7DEB7A8970FB6F894DEBF0FBE0C
:101F5000CDBFDA019C90992009F497C01196AD90FD
:101F6000BC90A114B10409F490C089017A016C01FC
:101F70006BEC74E0C5010E947B2B892B09F056C0E5
:101F8000B2E0B91530F4F701E580F680E114F10410
:101F9000D1F44FEC54E064E474E0C8010E94E10C19
:101FA00081E0A8960FB6F894DEBF0FBECDBFDF91DB
:101FB000CF911F910F91FF90EF90DF90CF90BF9046
:101FC000AF909F90089567EC74E0C7010E947B2B4F
:101FD000892BF9F063E075E0C7010E947B2B892B08
:101FE000E9F06FE075E0C7010E947B2B892BC1F0FF
:101FF0006BE175E0C7010E947B2B892B99F065E2AC
:1020000075E0C7010E947B2B892B71F04DED54E0E8
:10201000C2CF90E0D60116969C93C2CF91E0FACF42
:1020200092E0F8CF93E0F6CF94E0F4CF6BEE74E05B
:10203000C5010E947B2B892B41F5D6011696EC91A8
:102040008BEF94E0E53038F4F0E0EE0FFF1FE85C32
:10205000FC4F808191819F938F938FE295E09F93B6
:102060008F931F9288E28F93FE0131967F01FF9339
:10207000EF930E94A82BB701C8010E94C50E0FB6AE
:10208000F894DEBF0FBECDBF8BCF80E08ACF8F929A
:102090009F92AF92BF92CF92DF92EF92FF920F93F7
:1020A0001F93CF93DF93CDB7DEB764970FB6F89445
:1020B000DEBF0FBECDBF643008F0A2C0FA010081C0
:1020C000002309F49DC0818092808114910409F459
:1020D00097C069015A01162F7C016BEC74E0C401B2
:1020E0000E947B2B892B09F05DC0033030F0F50195
:1020F000A580B680A114B104D9F44FEC54E066E792
:1021000079E0C6010E94E10C81E064960FB6F89474
:10211000DEBF0FBECDBFDF91CF911F910F91FF901A
:10212000EF90DF90CF90BF90AF909F908F900895E9
:102130006CE57AE0C5010E947B2B892B39F164E8BC
:102140007BE0C5010E947B2B892B01F167EC74E0D9
:10215000C5010E947B2B892B51F061E974E0C50118
:102160000E947B2B892B19F04DED54E0C8CFF7016D
:10217000E10FF11D1286F701E10FF11D6681F701F4
:10218000E10FF11D82810E94BB02BECF81E0F70109
:10219000E10FF11D8287F701E10FF11D668181E0FA
:1021A0006827EDCF6BEE74E0C4010E947B2B892B76
:1021B00039F5F701E10FF11D828581111EC087EC11
:1021C00094E09F938F931F921F9380E495E09F93D9
:1021D0008F931F9284E18F938E010F5F1F4F1F9388
:1021E0000F930E94A82BB801C6010E94C50E0FB61E
:1021F000F894DEBF0FBECDBF87CF8CE59AE0E1CF6C
:1022000080E083CFEF92FF920F931F93CF93DF93E2
:10221000CDB7DEB7A0970FB6F894DEBF0FBECDBF27
:102220007C0161113FC0FA0180818823D9F181814D
:1022300092810097B9F189016BEE74E00E947B2BCB
:10224000892B81F5F7018085811129C083E595E00F
:102250009F938F938BE595E09F938F931F9280E2DE
:102260008F93CE0101967C019F938F930E94A82BA0
:10227000B701C8010E94C50E0FB6F894DEBF0FBEAD
:10228000CDBF81E0A0960FB6F894DEBF0FBECDBFE4
:10229000DF91CF911F910F91FF90EF9008958AE405
:1022A00095E0D6CF80E0EECFCF92DF92EF92FF9213
:1022B0000F931F93CF93DF93CDB7DEB768970FB619
:1022C000F894DEBF0FBECDBF7C01653008F04BC077
:1022D000FA018081882309F446C0818192810097A8
:1022E00009F441C06901162F6BEE74E00E947B2B4C
:1022F000892BC9F5F70187E0189FE00DF11D112426
:10230000848181112DC083E595E09F938F931F9267
:102310001F938BE695E09F938F931F9288E18F9395
:102320008E010F5F1F4F1F930F930E94A82BB801C0
:10233000C6010E94C50E0FB6F894DEBF0FBECDBF1A
:1023400081E068960FB6F894DEBF0FBECDBFDF9177
:10235000CF911F910F91FF90EF90DF90CF90089554
:102360008AE495E0D2CF80E0ECCF0E94662BEF921A
:10237000FF920F931F93CF93DF93E901009761F1D1
:10238000FC0101900020E9F73797E817F90721F5DC
:10239000FC01DC011696319120ED230F2A3020F04C
:1023A0003F7D31543630C0F4EA17FB07A1F78A01AC
:1023B0007B0140E150E070E060E00E941428F701EA
:1023C0008083F8017083688381E0DF91CF911F9152
:1023D0000F91FF90EF90089580E0F7CF7F928F925A
:1023E0009F92AF92BF92CF92DF92EF92FF920F93A4
:1023F0001F93CF93DF93CDB7DEB7AA970FB6F894AC
:10240000DEBF0FBECDBF611114C189016A017C011D
:10241000FC018280938048E755E08114910409F41F
:1024200058C0F6017080772009F403C1A180B28002
:10243000A114B10409F4FDC06BEE74E0C5010E9463
:102440007B2B892B99F5F701828D1F928F931F9219
:1024500080E18F938DE895E09F938F931F9288E2A0
:102460008F93CE0101967C019F938F930E94A82B9E
:10247000B701C8010E94C50E0FB6F894DEBF0FBEAB
:10248000CDBF81E0AA960FB6F894DEBF0FBECDBFD8
:10249000DF91CF911F910F91FF90EF90DF90CF9040
:1024A000BF90AF909F908F907F9008956BEC74E0F9
:1024B000C5010E947B2B892B09F0BBC0F2E0F71508
:1024C00030F4F601A580B680A114B10441F449EAC4
:1024D00055E068E875E0C8010E94E10CD2CF67EBD7
:1024E00075E0C5010E947B2B892BD9F5F3E07F169F
:1024F00071F0F60187819085F4E07F1641F0F601D6
:10250000A184B284009719F0A114B10419F44DEB21
:1025100055E0DFCF0E9417296C014FED55E0409741
:10252000C0F69E012F5F3F4FAE01475D5F4FBE017A
:10253000665D7F4FC5010E94B711811103C042EF54
:1025400055E0C7CF098129A54AA5B601F7018281C7
:1025500093810E946705F701828193810E94B705EC
:1025600090CF6EE474E0C5010E947B2B892B59F556
:10257000F3E07F1629F0F60187819085009719F422
:1025800040E056E0A6CF9E012F5F3F4FAE01475D72
:102590005F4FBE01665D7F4F0E94B711D12CC12CE9
:1025A000882369F2098129A54AA5B601F70182812C
:1025B00093810E946705FFEFCF1ADF0A20E1C21660
:1025C000D10481F7C8CF66E176E0C5010E947B2B7C
:1025D000892BD9F4F3E07F1629F0F60187819085E5
:1025E000009719F44EE056E074CF0E94172941E29B
:1025F00056E08F3F910511F008F06BCFF701828F05
:10260000682FC4010E942505A6CF69E376E0C501C5
:102610000E947B2B4FE356E0892B09F05ACFF4013F
:102620004481558170E060E0818592850E94742B21
:1026300092CF80E027CF4F925F926F927F928F92DE
:102640009F92AF92BF92EF92FF921F93CF93DF932F
:10265000EC017B01142F88A161E091E0E916F104FF
:1026600009F060E00E94BB02612F70E084E0759584
:1026700067958A95E1F7CE010E9484078C8C9D8C2A
:10268000AE8CBF8C488C598C6A8C7B8C0E94420328
:102690006419750986099709681579058A059B05E6
:1026A000A8F361E08AA10E94BB0260E08AA10E94B7
:1026B000BB0282E0E816F10469F0612F6F70CE0171
:1026C0000E94840761E08AA10E94BB0260E08AA1A7
:1026D0000E94BB0290E080E0DF91CF911F91FF90BC
:1026E000EF90BF90AF909F908F907F906F905F9092
:1026F0004F9008958F929F92AF92BF92CF92DF92A8
:10270000EF92FF920F931F93CF93DF93FC0121A1D0
:102710002F3F09F495C08B01EC01C48CD58CE68C5D
:10272000F78C808C918CA28CB38C0E944203681928
:1027300079098A099B096C157D058E059F05A8F30B
:1027400060E08BA10E94E90260E08CA10E94E90296
:1027500060E08DA10E94E90260E08EA10E94E90282
:1027600061E00130110509F060E088A10E94BB0220
:1027700061E089A10E94BB0261E08AA10E94BB02C4
:102780008BA10E94920210E1019709F010E08CA148
:102790000E949202019709F410628DA10E94920298
:1027A000019709F410648EA10E949202019709F426
:1027B000106860E08AA10E94BB0261E08AA10E94C9
:1027C000BB028BA10E949202019709F411608CA1B7
:1027D0000E949202019709F412608DA10E94920258
:1027E000019709F414608EA10E949202019709F4E6
:1027F000186060E08AA10E94BB0261E08BA10E9488
:10280000E90261E08CA10E94E90261E08DA10E94D1
:10281000E90261E08EA10E94E90260E089A10E94C4
:10282000BB02812F90E0DF91CF911F910F91FF901C
:10283000EF90DF90CF90BF90AF909F908F900895D2
:102840008DEF9FEFF0CFBF92CF92DF92EF92FF928A
:102850000F931F93CF93DF93EC016B017C0184E016
:10286000E80EF11CE114F10409F444C0B090580CD6
:102870001D821C861B8A1C8A1D8A1E8A81E08A8B07
:102880008F87188A92E0998B8C8380E390E09987F8
:1028900088870E94412A9E878D87009709F45CC033
:1028A00020E3FC0111922A95E9F780E190E09F83F3
:1028B0008E830B2D10E01B870A878D81882341F0C2
:1028C00061E08B2D0E94E90260E08B2D0E94BB022B
:1028D000F801E551FD4FE491F0E0EE0FFF1FE954E0
:1028E000FD4F85919491988F8F8BF801EF5CFC4F91
:1028F000E491E98FFB82EA828A859B8597FD31C04E
:1029000061E00E94E90260E08A850E94BB0281E0EA
:102910008D836A8D8A819B810E942505EA81FB81D6
:102920004481558170E060E0818592850E94742B1E
:102930008A819B810E94B70543E754E068E875E00F
:10294000C601DF91CF911F910F91FF90EF90DF9023
:10295000CF90BF900C94440A198618861F821E825D
:10296000A8CF1D82D6CF0C94DD2A0C94DD2A0C94BE
:10297000DD2A0C94DD2A0C94DD2A0C94DD2A0C94BB
:10298000DD2A0C94DD2A0C94DD2A0C94DD2A9F921A
:10299000AF92BF92CF92DF92EF92FF920F931F936D
:1029A000CF93DF93CDB7DEB7C055D1090FB6F894FA
:1029B000DEBF0FBECDBF611178C269017A018C0103
:1029C000DC01D1968D919C9148E755E0892BF9F077
:1029D000F7019080992009F468C2A180B280A11407
:1029E000B10409F462C26BEC74E0C5010E947B2B58
:1029F000892B09F0FFC1F2E0F91538F4D7011596DB
:102A0000AD90BC90A114B10441F449EA55E06EEBDD
:102A100074E0C6010E94E10C75C00E949903F801A0
:102A200064A375A386A397A368E776E0C5010E9417
:102A30007B2B892B09F043C0D7018C91843030F077
:102A40001796ED90FC90E114F10419F44FE456E070
:102A5000DECF6CE576E0C7010E947B2B892B41F429
:102A6000C8010E943B0860E0C8010E9473074AC089
:102A700063E676E0C7010E947B2B892B39F4F801CD
:102A800081A992A90E943C0761E0EECF68E676E05A
:102A9000C7010E947B2B892B11F462E0E5CF69E22C
:102AA00077E0C7010E947B2B892B31F481E0D801AC
:102AB0005C968C9363E0D8CF40E756E0A8CF66E100
:102AC00076E0C5010E947B2B892BF1F4F701808110
:102AD000843020F087819085009719F44DE756E007
:102AE00096CF0E9417294BE856E08430910508F0F4
:102AF0008ECF63E0681B6862D801D1968D919C915E
:102B00000E94B90681E007C169E376E0C5010E9431
:102B10007B2B892B31F4F80181A992A90E943C07F3
:102B2000BCCF69E976E0C5010E947B2B892B09F0B7
:102B30005FC0D701BC90B3E0BB1528F4F7018781D3
:102B40009085009719F44EE956E061CF0E9417294D
:102B500082309105B0F5D701199664E070E030E05D
:102B600020E0CB2CD12C90E2E92E6C157D0578F578
:102B7000AD90BD90A114B10451F1A901415051098A
:102B80004331510550F441E050E04C0F5D1F420FBE
:102B9000531FFA01E0822F5F3F4F41E050E04C0F9E
:102BA0005D1F420F531FF501F1905F01FF2061F09F
:102BB0002431310548F42F5F3F4FFA01F192AF0104
:102BC000F2CF4AEA56E023CF6F5F7F4FCECF41E08E
:102BD00050E04C0F5D1F240F351FD9011C92AE0130
:102BE0004F5F5F4F682FC8010E94060864E03CCF2A
:102BF00066EB76E0C5010E947B2B892B31F5F7014E
:102C000080818430F8F0878190850097D9F00E9408
:102C1000172918161906B4F4D80112962D913C9173
:102C20001397820F931F13969C938E9312975D9622
:102C30008C91823008F066CFF801848D882309F4E6
:102C40002CCF38CF81E090E0E7CF62E277E0C5019A
:102C50000E947B2B892B09F5D7018C91843028F0B9
:102C60001796ED91FC91309719F44BEB56E0CFCECF
:102C7000D8015C962C91908181E0913309F080E03D
:102C8000F801848F281709F43DCF62E0913309F4ED
:102C900061E0C8010E94402235CF65ED76E0C501B4
:102CA0000E947B2B892BB9F4D7018C91843030F0B2
:102CB00017966D917C916115710519F44DEC56E0F4
:102CC000A6CE4BE050E0C80106960E94992BF80171
:102CD000118A63E0DECF64EE76E0C5010E947B2BB3
:102CE000892B61F5D7018C91843028F017968D914E
:102CF0009C91009719F44CED56E089CE0E9417295B
:102D00008536910514F084E690E097FD80E0F801A7
:102D1000828B81E0838BC05BDF4F0FB6F894DEBF00
:102D20000FBECDBFDF91CF911F910F91FF90EF901C
:102D3000DF90CF90BF90AF909F9008956FEE76E0B8
:102D4000C5010E947B2B892BB1F4D7018C91843073
:102D500030F017966D917C916115710519F447EE6D
:102D600056E055CE47E050E0C80144960E94992BAA
:102D7000F801138EC7CE60E277E0C5010E947B2B7D
:102D8000892B59F5D7018C91843030F01796ED904E
:102D9000FC90E114F10419F444EF56E038CE61E000
:102DA00077E0C7010E947B2B64E0892B09F471CF87
:102DB00066E077E0C7010E947B2B65E0892B09F470
:102DC00068CF6FE077E0C7010E947B2B892B11F45D
:102DD00066E05FCF48E157E01ACE66E277E0C501D2
:102DE0000E947B2B4FE356E0892B09F010CEF801AF
:102DF000148E53CE6BEE74E0C5010E947B2B0097BE
:102E000009F053C0D80154962C91B8016C5E7F4FE5
:102E1000211102C06DE476E0F80123894DE456E00B
:102E2000222321F0828990E046EC57E0D8011696E3
:102E30002C912223A1F198012A5F3F4FF801F48CD5
:102E4000E58DE63078F5F0E0EE0FFF1FE756FC4F1A
:102E50000190F081E02D7F936F939F938F935F9309
:102E60004F933F932F931F92FF92FF93EF938FE225
:102E700097E09F938F931F9280E58F938E010F5F52
:102E80001F4F1F930F930E94A82BB801C6010E94E9
:102E9000C50E0FB6F894DEBF0FBECDBF33CE2DE406
:102EA00036E0CCCFEBEFF4E0D6CF80E034CF2F92FA
:102EB0003F924F925F926F927F928F929F92AF92CA
:102EC000BF92CF92DF92EF92FF920F931F93CF9317
:102ED000DF93CDB7DEB7AB970FB6F894DEBF0FBE6A
:102EE000CDBFFC0121A932A9232B09F448C000A5BC
:102EF00011A522A533A56A017B01C01AD10AE20AF5
:102F0000F30A970186010132110521053105B8F157
:102F10006A017B018C01C0A6D1A6E2A6F3A684A516
:102F200095A5A6A5B7A50196A11DB11D84A795A736
:102F3000A6A7B7A7858D82508230A8F484A195A159
:102F4000A6A1B7A1AB019601281B390B4A0B5B0B5D
:102F5000DA01C90181379741A105B10520F061E08F
:102F6000CF010E947307F801858D823009F4ADC04E
:102F7000F8F4882309F449C0813009F460C0AB96A5
:102F80000FB6F894DEBF0FBECDBFDF91CF911F917A
:102F90000F91FF90EF90DF90CF90BF90AF909F90F8
:102FA0008F907F906F905F904F903F902F900895FB
:102FB000843009F442C108F4D2C0853001F780A101
:102FC00091A1A2A1B3A126013701481A590A6A0AA0
:102FD0007B0A878D833009F4D9C108F04DC1813057
:102FE00009F46FC1823009F4ACC130E2431633E01A
:102FF00053066104710418F2F801868D858FC0A212
:10300000D1A2E2A2F3A2178EBACF80A191A1A2A170
:10301000B3A1C81AD90AEA0AFB0AF0E7CF16F7E10A
:10302000DF06E104F10408F4AACFF80181A992A90E
:103030000E943C0761E0C8010E947307A0CF44E1F1
:1030400050E060E270E08BEF9BE00E94742B1092E6
:103050000F0C44E150E060E270E080E19CE00E94EF
:10306000742B1092240CF80120A9822F90E068E2C2
:1030700070E00E94062A843108F58550944F36E0AE
:10308000FC013083F80184A595A5A6A5B7A5877096
:103090009927AA27BB27892B8A2B8B2B11F42F5F0B
:1030A00020AB4BEF5BE060E0C8010E94060840E106
:1030B0005CE061E0C8010E94060861CFE2E2FCE04A
:1030C000E81BF90B86E0858BDDCF86819E012F5FA3
:1030D0003F4F7901882399F1C8010696238922235D
:1030E00001F122891F922F939F938F9380E697E09F
:1030F0009F938F931F9285E18F93FF92EF920E948F
:10310000A82B0FB6F894DEBF0FBECDBFA70160E0BD
:10311000C8010E94060866E070E0C8010E945008DD
:103120002ECF9F938F938DE697E09F938F931F925F
:1031300085E18F93FF92EF920E94A82BE2CF8489C2
:10314000882339F0C80144969F938F9383E797E0D3
:10315000ECCF63E877E0C9010E94842BD7CF64A548
:1031600075A586A597A529E030E040E050E00E94D3
:10317000B62949015A01F1E08F229924AA24BB24DF
:10318000F80186819E012F5F3F4F7901882309F462
:1031900040C0C80106966389662329F162892AE244
:1031A00089288A288B2809F420E21F926F939F9325
:1031B0008F931F922F9387E997E09F938F931F928E
:1031C00085E18F93FF92EF920E94A82B0FB6F8949F
:1031D000DEBF0FBECDBFA70160E0C8010E94060898
:1031E00068E070E09ACF2AE289288A288B2809F4BF
:1031F00020E29F938F931F922F9387EA97E09F93EC
:103200008F931F9285E18F93FF92EF920E94A82BDC
:10321000DDCF8AE289288A288B2809F480E21F9270
:103220008F9380EB97E09F938F931F9285E18F930D
:10323000FF92EF920E94A82BC9CF80A191A1A2A1D9
:10324000B3A1A7019601281B390B4A0B5B0BDA01CE
:10325000C901803D9740A105B10508F490CE848D49
:10326000882341F083E0F801858FC0A2D1A2E2A2B9
:10327000F3A285CE82E0F7CF873008F0B6CE28ECF7
:1032800030E040E050E0843051F028E730E040E0AA
:1032900050E0853021F020E530E040E050E0C3010F
:1032A000B2010E94B62944E150E064E070E020FFE2
:1032B00002C060E270E0CE0101960E94742B1D8A6C
:1032C00038C0A4E1B0E0A30192010E94D82920E215
:1032D00033E040E050E00E94B629B22EA22E44E135
:1032E00050E060E270E0CE0101960E94742B1D8ACE
:1032F0002B2DF3E1FB1508F423E130E0E1E0F0E0F1
:10330000EC0FFD1FE20FF31F84E08083AA2089F0F9
:1033100083E0FE01E20FF31F808341E0A41649F031
:103320008FEF9FEF8C0F9D1F280F391F81E0F90150
:103330008083AE014F5F5F4F60E0C8010E940608C6
:103340007FC0A4E1B0E0A30192010E94D82920E24D
:1033500033E040E050E00E94B629B22E44E150E054
:1033600060E270E0CE0101960E94742B1D8A2B2D25
:10337000243108F023E1E3E1E21B21E030E02C0FEF
:103380003D1F2E0F311DF90182E0D2CF480136E0FA
:10339000830E911C6CE070E0C4010E9465298131AC
:1033A00008F080E1A82EB12C80E1282E312C2A18BB
:1033B0003B083594279444E150E060E270E0CE0190
:1033C00046960E94742B1AA6C301B20124E630E08F
:1033D00040E050E00E94B62920FF3AC047E04BA7EA
:1033E000E6E1F0E0EC0FFD1FE20DF31D8BA58083FD
:1033F00092E0290E311CA501B40186E190E08C0F0A
:103400009D1F820D931D0E946B2BE1E0F0E0EC0FFD
:10341000FD1FAE0EBF1E2A0C3B1C2BA5F101268BF7
:10342000AE014A5E5F4F60E0C8010E94060844E1B9
:1034300050E060E270E0CE0101960E94742B1D8A7C
:10344000AE014F5F5F4F61E0C8010E940608CDCD1D
:1034500050E25BA7C5CF8F929F92AF92BF92CF925F
:10346000DF92EF92FF920F931F93CF93DF93CDB72D
:10347000DEB7A0970FB6F894DEBF0FBECDBF6111C7
:10348000A8C0FA01B080BB2009F4A3C0818092805B
:103490008114910409F49DC089017A016C016BEEDD
:1034A00074E0C4010E947B2B892B81F5F601848195
:1034B0008F9383818F9387EC97E09F938F931F92D5
:1034C00080E28F93CE0101967C019F938F930E949F
:1034D000A82BB701C8010E94C50E0FB6F894DEBF35
:1034E0000FBECDBF81E0A0960FB6F894DEBF0FBE31
:1034F000CDBFDF91CF911F910F91FF90EF90DF90A3
:10350000CF90BF90AF909F908F9008956BEC74E038
:10351000C4010E947B2B892B09F05BC0F2E0FB15F4
:1035200030F4F701858096808114910441F449EAD2
:1035300055E069E774E0C8010E94E10CD3CF64ED67
:1035400077E0C4010E947B2B892BB9F4F3E0BF160E
:1035500029F0F70187819085009719F44DED57E028
:10356000E8CF0E9417294BEE57E08115F4E09F0742
:1035700000F7F601908B8787B5CF61E078E0C40152
:103580000E947B2B892B11F5F3E0BF1639F3F7016D
:1035900087819085009711F30E9435294B015C01CA
:1035A000F4E68F1A9108A108B1084EE058E02DE525
:1035B000821627E2920629E0A206B10408F0B9CFEC
:1035C000F601618B728B838B948B8CCF4FE356E02B
:1035D000B0CF80E088CF2F923F924F925F926F9250
:1035E0007F928F929F92AF92BF92CF92DF92EF9293
:1035F000FF920F931F93CF93DF93CDB7DEB76C97F6
:103600000FB6F894DEBF0FBECDBFFA0110811123B3
:1036100009F47EC3A180B280A114B10409F478C377
:1036200079016A011C016BEE74E0C5010E947B2BDD
:10363000892B09F049C00E949903F101038114818B
:10364000258136810115110521053105D1F160175C
:10365000710782079307A8F585E298E09F938F93FF
:103660008EE298E09F938F931F9288E18F938E0153
:103670000F5F1F4F1F930F930E94A82BB801C70124
:103680000E94C50E0FB6F894DEBF0FBECDBF81E01D
:103690006C960FB6F894DEBF0FBECDBFDF91CF9111
:1036A0001F910F91FF90EF90DF90CF90BF90AF9060
:1036B0009F908F907F906F905F904F903F902F9052
:1036C000089583E696E0CACF6BEC74E0C5010E94D2
:1036D0007B2B892B09F01CC3133030F0F601A58039
:1036E000B680A114B10441F449EA55E06EE574E0F6
:1036F000C7010E94E10CCBCF68E378E0C5010E94CE
:103700007B2B892B09F0EBC2133061F0F601878126
:103710009085143039F0C184D284009719F0C11417
:10372000D10419F44DE358E0E1CF0E9435294B0153
:103730005C01C6010E9435292B013C01D501C40161
:103740004F97A109B10943E658E082309E44A10594
:10375000B10560F6D301C2010197A109B10945E79E
:1037600058E080369A4EA105B10508F0BFCFF101AF
:10377000828190916D02891779F09F3F09F4B1C061
:103780000E949903460E571E681E791EF10143825E
:103790005482658276827BCFECE9F2E0149117FDCA
:1037A000EFCF61E00E94E902112319F0123009F015
:1037B00008C260E072E18AE790E0A50194010E94EE
:1037C0001A2A298F3A8F4B8F5C8F60E472E48FE066
:1037D00090E0A50194010E941A2A69017A01F1E0A2
:1037E000CF1AD108E108F108123009F066C12FEFB5
:1037F000C216D104E104F10409F00CF4DAC160E965
:1038000070ED83E090E0A50194010E941A2A6901FD
:103810007A0181E0C81AD108E108F10883E09FEF3E
:10382000C916D104E104F10409F00CF4C3C168E441
:1038300078EE81E090E0A50194010E941A2A6901C6
:103840007A0181E0C81AD108E108F10884E09FEF0D
:10385000C916D104E104F10409F00CF4ABC164E22F
:1038600074EF80E090E0A50194010E941A2A69019A
:103870007A0181E0C81AD108E108F10885E09FEFDC
:10388000C916D104E104F10409F008F493C162E11E
:103890007AE780E090E0A50194010E941A2A69016C
:1038A0007A01F1E0CF1AD108E108F10886E02FEFA4
:1038B000C216D104E104F10409F00CF47BC1C98CF7
:1038C000DA8CEB8CFC8C2AE0F594E794D794C794BF
:1038D0002A95D1F7F1E0CF1AD108E108F10887E085
:1038E00069C180936D02ECE9F2E01491912F1F3FC2
:1038F00009F446CF123009F475C058F4112399F138
:10390000113009F44CC097FD3BCF61E00E94E90201
:103910004DCF143009F4AFC008F48AC0153099F7C0
:1039200010922001109221019091210198609093B2
:10393000210190912101916090932101282F30E085
:10394000F901E551FD4FE491F0E0EE0FFF1FE9545E
:10395000FD4F45915491F901EF5CFC4FE491E093E8
:10396000E20B15E01ECF14BC15BC94B5926094BD5B
:1039700095B5916095BD282F30E0F901E551FD4FD7
:10398000E491F0E0EE0FFF1FE954FD4F4591549193
:10399000F901EF5CFC4FE491E093E60B02CF10924B
:1039A0008000109281009091810098609093810036
:1039B00090918100916090938100282F30E0F9016F
:1039C000E551FD4FE491F0E0EE0FFF1FE954FD4F8C
:1039D00045915491F901EF5CFC4FE491E093E50BC4
:1039E00011E0DFCE1092B0001092B1009091B000C3
:1039F00092609093B0009091B10091609093B1006B
:103A0000282F30E0F901E551FD4FE491F0E0EE0F91
:103A1000FF1FE954FD4F459154915093260C40935C
:103A2000250CF901EF5CFC4FE491E093270CB9CE33
:103A30001092900010929100909191009860909354
:103A4000910090919100916090939100282F30E027
:103A5000F901E551FD4FE491F0E0EE0FFF1FE9544D
:103A6000FD4F45915491F901EF5CFC4FE491E093D7
:103A7000E40B13E096CE1092A0001092A10090915A
:103A8000A10098609093A1009091A1009160909303
:103A9000A100282F30E0F901E551FD4FE491F0E05D
:103AA000EE0FFF1FE954FD4F45915491F901EF5C72
:103AB000FC4FE491E093E30B74CEEFEFCE16D1040C
:103AC000E104F10409F00CF443C068E478EE81E00D
:103AD00090E0A50194010E941A2A69017A01F1E09F
:103AE000CF1AD108E108F10884E01111C8CE93E0A3
:103AF000EFEFCE16D104E104F10469F164F162E163
:103B00007AE780E090E0A50194010E941A2A6901F9
:103B10007A0191E0C91AD108E108F10894E0EFEFC9
:103B2000CE16D104E104F104B1F0ACF0C98CDA8C0A
:103B3000EB8CFC8C9AE0F594E794D794C7949A9513
:103B4000D1F721E0C21AD108E108F10895E003C0DD
:103B500011112FC092E085B5887F892B85BDD401D6
:103B6000AA0FBB1FA30192010E94D82928EE33E0BF
:103B700040E050E00E94B629123009F47CC00CF0FD
:103B8000C9C0112309F468C0113009F0F9CDD092F1
:103B90008900C09288002093F30B3093F40B40937C
:103BA000F50B5093F60B80916F00826080936F004D
:103BB000E7CD82E09091B100987F892B8093B1008E
:103BC000CECF60E072E18AE790E0A50194010E9407
:103BD0001A2A69017A01F1E0CF1AD108E108F10847
:103BE00091E0C114D10421E0E206F10484F068E41C
:103BF00078EE81E090E0A50194010E941A2A690103
:103C00007A0181E0C81AD108E108F10893E0113087
:103C100039F480918100887F892B809381009FCF28
:103C2000133039F480919100887F892B8093910023
:103C300096CF143039F48091A100887F892B80932E
:103C4000A1008DCF153009F08ACF80912101887FA6
:103C5000892B8093210183CFC7BC2093F70B30932E
:103C6000F80B4093F90B5093FA0B80916E00826031
:103C700080936E0085CDC092B3002093280C3093C2
:103C8000290C40932A0C50932B0C80917000826079
:103C90008093700075CDD0929900C09298002093C7
:103CA000EF0B3093F00B4093F10B5093F20B80919C
:103CB000710082608093710063CDD092A900C092A0
:103CC000A8002093EB0B3093EC0B4093ED0B50933B
:103CD000EE0B8091720082608093720051CD6BE890
:103CE00078E0C5010E947B2B4FE356E0892B09F059
:103CF000FDCCF10182810E94A50360E0F101828187
:103D00000E94BB02F1011382148215821682BFCC7D
:103D100080E0BECC143089F20CF4BDCF153009F030
:103D20002FCDD0922901C09228012093E70B309328
:103D3000E80B4093E90B5093EA0B8091730082608B
:103D4000809373001DCDFF920F931F93CF93DF934A
:103D5000EC01F62E08811981C8010E949029F816FD
:103D600021F06F2DC8010E949829CE01DF91CF91DB
:103D70001F910F91FF900895CF92DF92EF92FF92E3
:103D80000F931F93CF93DF931F921F92CDB7DEB790
:103D90006B017C0110E000E0F70161917F011A8363
:103DA0000983CE0101960E94A31E0F5F1F4F0C33A3
:103DB000110591F71A8309836C2DCE0101960E949B
:103DC000A31E8DE390E09A8389836D2DCE01019629
:103DD0000E94A31E0F900F90DF91CF911F910F9122
:103DE000FF90EF90DF90CF9008953F924F925F92B7
:103DF0006F927F928F929F92AF92BF92CF92DF92FB
:103E0000EF92FF920F931F93CF93DF93CDB7DEB75F
:103E1000C354D1090FB6F894DEBF0FBECDBFDA018F
:103E2000DC90DD2009F420C21196ED90FC90E114A5
:103E3000F10409F419C229018A016BEE74E0C7018B
:103E40000E947B2B892B09F0C3C0B2E0BD1570F432
:103E5000F801058116810115110541F065E978E049
:103E6000C8010E947B2B892B09F080C08091620CD5
:103E7000813009F078C086E69AE01F922BE12F93FB
:103E80009F938F9389E998E09F938F931F9280E48B
:103E90008F93CE0101967C019F938F930E94A82B54
:103EA000B701C2010E94C50E22E0A22E23E0B22E6D
:103EB0003CE2832E3CE0932E47E4C42E4CE0D42E0B
:103EC0000FB6F894DEBF0FBECDBF10E000E054EB9C
:103ED000652E58E0752E60E4362EF50181919191A2
:103EE0005F01D4013D914D01F60121916F010097D1
:103EF00011F483E998E01F923F931F922F939F93B1
:103F00008F931F930F937F926F921F923F92FF9216
:103F1000EF920E94A82BB701C2010E94C50E0F5F4D
:103F20001F4F0FB6F894DEBF0FBECDBF0B3111058A
:103F3000A1F681E0CD5BDF4F0FB6F894DEBF0FBE78
:103F4000CDBFDF91CF911F910F91FF90EF90DF9048
:103F5000CF90BF90AF909F908F907F906F905F9029
:103F60004F903F90089584E79AE087CF6CEC78E01B
:103F7000C8010E947B2B892B19F58091620C81303E
:103F8000E1F486E69AE09F938F9383ED98E09F9308
:103F90008F931F9288E28F938E010F5F1F4F1F93A5
:103FA0000F930E94A82BB801C2010E94C50E0FB644
:103FB000F894DEBF0FBECDBFBCCF84E79AE0E3CF5D
:103FC00041EE58E066E574E0C2010E94E10CB1CF19
:103FD0006BEC74E0C7010E947B2B892B09F044C174
:103FE000B2E0BD1530F4F801E580F680E114F1048B
:103FF00019F449EA55E0E6CF6DEE78E0C7010E947A
:104000007B2B892B09F071C0F3E0DF1681F0D8011A
:104010001796ED90FC90B4E0DB1649F0F8010185AD
:104020001285E114F10419F00115110519F441EF9D
:1040300058E0C8CFBE016D5B7F4FC7010E94060AE2
:10404000811103C040E159E0BDCF4AE050E0BE011C
:104050006F5B7F4FC8010E94E6264B015C012396EF
:10406000EEADFFAD2397808141E259E08111AACFE7
:1040700044E359E0FFEF8F169104A104B10411F05D
:1040800008F0A0CF2496DFAC24978AE18D1508F4C0
:10409000AAC08EEF880D843408F0A5C08E010F5F92
:1040A0001F4FC8010E944722ED2DF0E03396EE0F1E
:1040B000FF1FE00FF11F8082C8010E941302BC01A4
:1040C000C8010E94BC1EBF92AF929F928F92FF9236
:1040D000EF9285E499E09F938F931F9280E48F93F2
:1040E0001F930F930E94A82B5ECF6AE779E0C70168
:1040F0000E947B2B892B09F079C0B3E0DB1681F09D
:10410000F801E780F084F4E0DF1651F0D801199649
:104110000D911C91E114F10419F00115110519F428
:104120004FE759E04FCFBE016D5B7F4FC7010E9443
:10413000060A882309F486CFF8018081803309F0CC
:104140004BC081818F7D40E150E0883529F0823479
:1041500009F042C042E050E0BE016F5B7F4FC801F2
:1041600002960E94E6264B015C012396EEADFFAD60
:104170002397808143EA59E0811124CF43EB59E032
:10418000FFEF8F169104A104B10411F008F01ACFCB
:104190002496DFAC24978AE18D1528F18E010F5FFC
:1041A0001F4FC8010E944722ED2DF0E03396EE0F1D
:1041B000FF1FE00FF11F8182C8010E941302BC01A2
:1041C000C8010E94BC1EBF92AF929F928F92FF9235
:1041D000EF9288EC99E07FCF4AE050E0BE016F5B40
:1041E0007F4FC801BECF4DE659E0ECCE65EF79E0D8
:1041F000C7010E947B2B892BA1F410E000E01A83F9
:1042000009836FEFCE0101960E94A31E0F5F1F4F1F
:104210000E331105A1F764E07AE0C2010E94C50ED9
:1042200088CE64E37AE0C7010E947B2B4BE35AE01F
:10423000892B09F0C7CE60E37AE0C2010E94C50E67
:10424000D201ED91FC910680F781E02DC201199514
:10425000F89488E198E00FB6F894A89580936000F0
:104260000FBE90936000FFCF80E064CE1F920F924C
:104270000FB60F9211242F933F938F939F93AF9379
:10428000BF938091640C9091650CA091660CB091E5
:10429000670C3091630C23E0230F2D3758F50196FE
:1042A000A11DB11D2093630C8093640C9093650C49
:1042B000A093660CB093670C8091680C9091690C88
:1042C000A0916A0CB0916B0C0196A11DB11D809359
:1042D000680C9093690CA0936A0CB0936B0CBF911F
:1042E000AF919F918F913F912F910F900FBE0F90A3
:1042F0001F90189526E8230F0296A11DB11DD2CF5D
:104300001F920F920FB60F9211240BB60F922F939C
:104310003F934F935F936F937F938F939F93AF934D
:10432000BF93EF93FF938091280C9091290CA0915B
:104330002A0CB0912B0C892B8A2B8B2BE1F19091BD
:10434000270CE091250CF091260C80818927808331
:104350008091280C9091290CA0912A0CB0912B0CE3
:10436000181619061A061B069CF48091280C9091C9
:10437000290CA0912A0CB0912B0C0197A109B1092D
:104380008093280C9093290CA0932A0CB0932B0CAB
:10439000FF91EF91BF91AF919F918F917F916F911D
:1043A0005F914F913F912F910F900BBE0F900FBED9
:1043B0000F901F90189580916D020E94A503E8CF81
:1043C0001F920F920FB60F9211240BB60F922F93DC
:1043D0003F934F935F936F937F938F939F93AF938D
:1043E000BF93EF93FF938CE69CE00E946504FF91DE
:1043F000EF91BF91AF919F918F917F916F915F915D
:104400004F913F912F910F900BBE0F900FBE0F90C9
:104410001F9018951F920F920FB60F9211240BB692
:104420000F922F938F939F93EF93FF93E0917C0CC8
:10443000F0917D0C8081E091820CF091830C82FDE3
:104440001DC090818091850C8F5F8F732091860CA9
:10445000821741F0E091850CF0E0E459F34F958F1D
:104460008093850CFF91EF919F918F912F910F90E9
:104470000BBE0F900FBE0F901F9018958081F2CF4A
:10448000FC01258D268F678F65E00C9473070F93D1
:104490001F93CF93DF938C01D0E0C0E0CE010E9448
:1044A0009029F80181938F012196CC33D105B1F782
:1044B000DF91CF911F910F910895CF93DF93ACE6D9
:1044C000BCE013961C921E92129748EE53E060E0F7
:1044D00070E014964D935D936D937C93179783EFE3
:1044E00093E011969C938E9385EC90E01D969C939F
:1044F0008E931C9784EC90E01F969C938E931E974E
:1045000080EC90E051969C938E93509781EC90E0D4
:1045100053969C938E93529782EC90E055969C9381
:104520008E93549786EC90E057969C938E93569773
:1045300059961C9259975A961C925A975B961C92C0
:104540005B975C961C925C97E3E0FEE087E194E069
:10455000918380838FEF82838383148215821682F6
:10456000E9EAFDE085E094E0918380831382128282
:10457000158214822FEA3DE08CE0E90119928A95B8
:10458000E9F7128A138A2DEB3DE088E0E9011992E0
:104590008A95E9F7148E158E168E178E10A211A229
:1045A00012A213A214A215A216A217A210A611A657
:1045B00012A613A614A615A616A617A610AA12AA26
:1045C00011AAEEE8FDE089E294E0918380831382F2
:1045D000128280E4828FB0930A0DA093090D10928D
:1045E0008C0D10928B0D10928D0DDF91CF9108954F
:1045F000CF93DF93CDB7DEB7C159D1090FB6F89489
:10460000DEBF0FBECDBF789484B5826084BD84B513
:10461000816084BD85B5826085BD85B5816085BDBD
:1046200080916E00816080936E0010928100809175
:1046300081008260809381008091810081608093FD
:104640008100809180008160809380008091B10022
:1046500084608093B1008091B00081608093B0004D
:10466000809191008260809391008091910081609F
:104670008093910080919000816080939000809160
:10468000A10082608093A1008091A100816080934D
:10469000A1008091A00081608093A0008091210101
:1046A00082608093210180912101816080932101AA
:1046B0008091200181608093200180917A00846044
:1046C00080937A0080917A00826080937A00809152
:1046D0007A00816080937A0080917A00806880936C
:1046E0007A001092C10014B714BE0FB6F894A895C2
:1046F00080916000886180936000109260000FBE1E
:10470000E0917C0CF0917D0C82E08083E091780C4C
:10471000F091790C1082E0917A0CF0917B0C80E1A1
:1047200080831092840CE091800CF091810C86E0E3
:104730008083E0917E0CF0917F0C8081806180838A
:10474000E0917E0CF0917F0C808188608083E09105
:104750007E0CF0917F0C808180688083E0917E0CDC
:10476000F0917F0C80818F7D808364E670E080E033
:1047700090E00E94670347E45AE013FD02C046E55B
:104780005AE066E37AE08CE69CE00E94440A8E01DF
:104790000F5F1F4F6801F12CE12CC7010E94902987
:1047A000D6018D936D01BFEFEB1AFB0AECE3EE1619
:1047B000F10499F78CE390E00E949029E82E8DE3B4
:1047C00090E00E949029F82E89819A81AB81BC816A
:1047D00083349245A544BA4589F58D81823071F5BF
:1047E0008E818B3159F5C8010E941302E816F90633
:1047F00029F598012A5C3F4FF80186818250843464
:10480000E8F432962E173F07C1F787E49CE04CE2AC
:104810005CE0D80116962C91DC012D93CD01D801D6
:1048200017962C91DA012D93AD010E5F1F4F0E17D5
:104830001F0779F781E08093620C3AC08BE1E0ECCE
:10484000F3E0A7E4BCE001900D928A95E1F78BE1DB
:10485000E5EAF3E0ACE2BCE001900D928A95E1F765
:1048600083E4898382E58A8385E48B838AE58C836C
:1048700082E08D838BE18E8360EC73E0F80185EA42
:1048800093E02BED33E0DB014D91BD014683DC016C
:104890004D91CD014783329626173707A1F7C801FE
:1048A0000E941302BC01C8010E94BC1E1092620C3F
:1048B0008091620C4FE55AE0813011F04DE65AE0EC
:1048C00066E574E08CE69CE00E94440A0FEE13E07B
:1048D0006BED662E63E0762EF301819191913F019D
:1048E000DC01ED91FC910084F185E02D6CE67CE02B
:1048F00019950615170581F78DE79AE09F938F9319
:1049000089E89AE09F938F9383E99AE09F938F932E
:104910001F9280E48F93E1E0F0E0EC0FFD1FFF9326
:10492000EF930E94A82BAE014F5F5F4F66E37AE0E2
:104930008CE69CE00E94440A88E19DE00FB6F89462
:10494000A895809360000FBE909360000FB6F89416
:10495000DEBF0FBECDBF8E010F571F4F50E8252E73
:10496000312CA89581E1D8011D928A95E9F78091B3
:10497000090D90910A0DDC01ED91FC910084F18507
:10498000E02D1995181619060CF0A5C08091090D97
:1049900090910A0DDC01ED91FC910284F385E02DEC
:1049A000199597FD98C08A30910509F0CFC0909174
:1049B0008D0D992389F04FE95AE06DEA7AE08091F4
:1049C000090D90910A0D0E94E10C10928C0D10922D
:1049D0008B0D10928D0DCBCFE0918B0DF0918C0D46
:1049E000E75FF24F1282F80110822BE03DE0F901FF
:1049F00080812F5F3F4F8032D1F38930C1F388230C
:104A0000C1F08332B1F080E0A82FB0E0AA0FBB1F45
:104A10001196AD01400F511F9081992309F493C065
:104A2000883008F475C0D8018C9391E0811101C0E1
:104A300090E010928C0D10928B0D10928D0D992399
:104A400009F495CFF801F080FF2009F429C1F8019D
:104A500081819281009709F420C16BEE74E00E947D
:104A60007B2B892B09F019C1F1E0FF1508F018C163
:104A7000D8011396ED90FC90E114F10409F418C1EB
:104A800066EB7AE0C7010E947B2B892B09F07EC080
:104A9000EDE7FAE0FF93EF9389E89AE09F938F9315
:104AA0008EEB9AE09F938F931F9280E48F93E1E0C7
:104AB000F0E0EC0FFD1FFF93EF930E94A82BBE01C7
:104AC0006F5F7F4F8CE69CE00E94C50E0FB6F89496
:104AD000DEBF0FBECDBF0E9499034B015C018BED81
:104AE000E82E83E0F82ED7018D919D917D01DC01A8
:104AF000ED91FC910284F385E02D2CE63CE0B501BC
:104B0000A40119956E147F0471F70E94F40429CF53
:104B10008F5FDA01ED93FD93AD019F01F901D9019A
:104B20009D919D01992309F477CF903211F099302E
:104B3000A9F71082F901D9019D919D019032D1F31D
:104B40009930C1F361CFF80180836FCF8D3091052B
:104B500009F40DCF20918D0D211109CF20918B0DDE
:104B600030918C0DA9014F5F5F4F4038510520F007
:104B7000F1E0F0938D0DFBCE50938C0D40938B0D97
:104B8000275F324FD90112968C93F1CE6CEC7AE00C
:104B9000C7010E947B2B892B09F08AC06CEC7AE05C
:104BA000CE0101960E94842B2BED822E23E0922EC3
:104BB00034E0E32EF12CD401CD90DD904D01D601EF
:104BC000ED91FC910480F581E02DC6011995582ED8
:104BD000492ED601ED91FC910680F781E02DC601AA
:104BE0001995823070F18150C82ED12CB12CA12C96
:104BF000BF92AF924F925F92E1EDFAE0FF93EF9395
:104C0000C1018E199F099F938F9381E090E08C0FD3
:104C10009D1F8E0D9F1D9F938F930E94A82BE80EC2
:104C2000F91E0FB6F894DEBF0FBECDBFCA14DB0469
:104C300021F19FEFA91AB90AA0E8EA16F104C4F21B
:104C400024C04F925F92EDEDF8E0FF93EF93C10126
:104C50008E199F099F938F9381E090E08C0F9D1F89
:104C60008E0D9F1D9F938F930E94A82BE80EF91E17
:104C70000FB6F894DEBF0FBECDBF8614970429F09F
:104C800090E8E916F1040CF496CFBE016F5F7F4FF8
:104C90008CE69CE00E94C50E1ECF91E09F1540F06F
:104CA000D8018C91823008F083C063E978E087C036
:104CB000F801A380B480A114B10491F39BED892E77
:104CC00093E0992ED401CD90DD904D01D601ED9168
:104CD000FC910480F581E02DC6011995BC01FC0111
:104CE00001900020E9F731977F01E81AF90AA7013E
:104CF000C5010E948B2B892B09F053C0F501EE0DE5
:104D0000FF1D8081882309F451C08E3209F049C00B
:104D1000C70101968A0D9B1DFC01208121111FC036
:104D200060E0D12CC12CC114D10409F4B9CFD60153
:104D3000ED91FC910484F585E02D2CE63CE0A80182
:104D4000C60119958111C7CEF801808170E060E03D
:104D5000823010F06381748147EE5AE032C04AE03D
:104D600050E0BE016F5F7F4F0E94E6264B015C0161
:104D7000E981FA8180818111D3CFB7FCD1CFD601EF
:104D8000ED91FC910680F781E02DC601199590E028
:104D9000B0E0A0E0682D88169906AA06BB061CF2B2
:104DA000BFCF6814790409F08DCF7ACF60E0BBCF14
:104DB000F801638174816115710509F476CF48EDBE
:104DC0005AE08CE69CE00E94E10C85CE3F924F9227
:104DD0005F926F927F928F929F92AF92BF92CF928B
:104DE000DF92EF92FF920F931F93CF93DF935C01BB
:104DF0006B017A016115710519F0FB0191838083C4
:104E0000E114F10451F0C7010297839730F040E0BC
:104E100030E020E090E06BC05E01E5012196F501F5
:104E20001081812F90E00E945C29892BA9F71D3207
:104E300001F52196F501118101E0E114F10409F475
:104E4000E6C0F0E1EF16F10409F088C0103359F420
:104E500088818F7D883509F07CC019812296026097
:104E6000F0E1EF2EF12C812C912CA12C88E0B82EB2
:104E700092C01B3221F4E5012296F501118100E078
:104E8000DCCFEAE0EE16F10409F4C7C0F0E1EF165A
:104E9000F10409F073C0E7CF78E0E72EF12C812C04
:104EA000912CA12C60E1B62E76C021E0ADC0302F50
:104EB0003170C114D10431F0222371F12197F60130
:104EC000D183C08327FF2EC060E070E080E090E8CF
:104ED000311104C06FEF7FEF8FEF9FE722E230E0E8
:104EE00030930B0E20930A0E462F372F282F642F56
:104EF000732F822FDF91CF911F910F91FF90EF9031
:104F0000DF90CF90BF90AF909F908F907F906F90E9
:104F10005F904F903F90089501FF04C02297F601E3
:104F2000D183C083332341F090958095709561952E
:104F30007F4F8F4F9F4FD8CF97FFD6CF82E290E021
:104F400090930B0E80930A0E6FEF7FEF8FEF9FE72A
:104F5000CBCF10E3E114F10409F49ECF28E0E21670
:104F6000F10409F49CCF0CF08CCF812C912CA12C56
:104F7000E0E4BE2E82E0E816F10469F060E070E043
:104F800080E090E897010F2C000C440B550B0E9419
:104F9000B62949015A0120E060E070E0CB01270109
:104FA0000F2C000C66087708FE0150ED352E310EEF
:104FB00039E0331570F43FEB310F49EC342E3A31C0
:104FC00038F03FE9310F3A3108F071CF39EA332E2A
:104FD000310E3E141F040CF06ACF27FD15C0861653
:104FE0009706A806B90678F0A30192010E94A629A7
:104FF000630D711D811D911D61307105810520E8D2
:10500000920708F452CF2FEF21961081CDCF1033A5
:1050100009F41ECF2AE0E22EF12C9CEC892E982C6C
:10502000A82C9CE0B92EB7CF3F924F925F926F921F
:105030007F928F929F92AF92BF92CF92DF92EF9228
:10504000FF920F931F93CF93DF935C016B017A0163
:105050006115710519F0FB0191838083E114F1045E
:1050600049F0C7010297839728F060E070E0CB0118
:105070009BC05E01E5012196F5011081812F90E032
:105080000E945C29892BA9F71D3209F05CC021968A
:10509000F501118101E0E114F10409F4BBC0F0E174
:1050A000EF16F10409F09BC0103341F488818F7D25
:1050B000883509F08FC0198122960260E0E1EE2E5A
:1050C000F12C88248A94982CA82CFFE0BF2E20E095
:1050D00060E070E0CB0127010F2C000C6608770818
:1050E000FE0150ED352E310E39E0331568F43FEBFB
:1050F000310F49EC342E3A3130F03FE9310F3A317B
:10510000B0F539EA332E310E3E141F0484F52F3FDB
:10511000B9F086169706A806B90638F1A3019201E0
:105120000E94A629232D30E050E040E0620F731F5B
:10513000841F951F6217730784079507B0F021E05D
:1051400021961081CDCF1B3221F4E5012296F50185
:10515000118100E0A0CF78E0E72EF12C88248A941A
:10516000982CA82C6FE1B62EB2CF2FEFE9CFC11447
:10517000D10431F0222351F12197F601D183C0836C
:1051800000FF07C090958095709561957F4F8F4F78
:105190009F4F2F3F49F482E290E090930B0E809353
:1051A0000A0E6FEF7FEFCB01DF91CF911F910F912F
:1051B000FF90EF90DF90CF90BF90AF909F908F9037
:1051C0007F906F905F904F903F90089501FFD8CFF0
:1051D0002297D3CF10E3E114F10409F4BCCF3AE0F5
:1051E000E316F104E9F080E1E816F10409F466CF72
:1051F000E8E0EE16F10409F4B1CF6FEF7FEFCB01D9
:1052000097010F2C000C440B550B0E94B629490145
:105210005A015DCF103309F449CF9AE0E92EF12C01
:1052200089E9882E982CA82C89E1B82E50CFFC0152
:1052300088279927E89421912032E9F3293010F04A
:105240002E30C8F32B3241F02D3239F4689404C06B
:105250000E948529820F911D219120532A30C0F38D
:105260001EF4909581959F4F08951F93FC019927F7
:105270008827BC01E89411911032E9F3193010F03D
:105280001E30C8F31B3251F01D3249F4689406C039
:105290000E947029610F711D811D911D1191105384
:1052A0001A30B0F33EF490958095709561957F4FDC
:1052B0008F4F9F4F1F91089591110C948D2980322B
:1052C00019F089508550C8F70895FC01615070406D
:1052D00001900110D8F7809590958E0F9F1F08952B
:1052E000592F482F372F262F660F771F881F991F9A
:1052F000660F771F881F991F620F731F841F951FEA
:10530000660F771F881F991F08957AE0979F902D49
:10531000879F802D910D112408959927882708953E
:10532000F999FECF92BD81BDF89A992780B508956D
:10533000262FF999FECF1FBA92BD81BD20BD0FB6B1
:10534000F894FA9AF99A0FBE01960895DB018F93AB
:105350009F930E94D829BF91AF91A29F800D911D6C
:10536000A39F900DB29F900D11240895A1E21A2ED3
:10537000AA1BBB1BFD010DC0AA1FBB1FEE1FFF1FF9
:10538000A217B307E407F50720F0A21BB30BE40B49
:10539000F50B661F771F881F991F1A9469F7609590
:1053A0007095809590959B01AC01BD01CF0108954A
:1053B0000E94E329A59F900DB49F900DA49F800D9E
:1053C000911D11240895A29FB001B39FC001A39F16
:1053D000700D811D1124911DB29F700D811D11242E
:1053E000911D0895AA1BBB1B51E107C0AA1FBB1F3B
:1053F000A617B70710F0A61BB70B881F991F5A9561
:10540000A9F780959095BC01CD01089597FB072ED3
:1054100016F4009407D077FD09D00E94F22907FC0A
:1054200005D03EF4909581959F4F089570956195B4
:105430007F4F0895052E97FB1EF400940E94312A99
:1054400057FD07D00E94B62907FC03D04EF40C94F8
:10545000312A50954095309521953F4F4F4F5F4FE2
:10546000089590958095709561957F4F8F4F9F4FD0
:105470000895EE0FFF1F881F8BBF0790F691E02D58
:1054800019940F931F93CF93DF938230910510F4FB
:1054900082E090E0E0910E0EF0910F0E30E020E0FF
:1054A000B0E0A0E0309799F42115310509F44AC025
:1054B000281B390B24303105D8F58A819B81611571
:1054C000710589F1FB0193838283FE0111C0408144
:1054D00051810281138148175907E0F04817590795
:1054E00099F4109761F012960C93129713961C93EF
:1054F0003296CF01DF91CF911F910F9108950093C4
:105500000E0E10930F0EF4CF2115310551F04217F6
:10551000530738F0A901DB019A01BD01DF01F80151
:10552000C1CFEF01F9CF90930F0E80930E0ECDCF28
:10553000FE01E20FF31F81939193225031093983C9
:105540002883D7CF20910C0E30910D0E232B41F4E0
:10555000209170023091710230930D0E20930C0E49
:1055600020916E0230916F022115310541F42DB763
:105570003EB74091720250917302241B350BE091AB
:105580000C0EF0910D0EE217F307A0F42E1B3F0B4B
:105590002817390778F0AC014E5F5F4F24173507A5
:1055A00048F04E0F5F1F50930D0E40930C0E8193E9
:1055B00091939FCFF0E0E0E09CCFCF93DF930097F3
:1055C000E9F0FC01329713821282A0910E0EB09185
:1055D0000F0EED0130E020E01097A1F42081318121
:1055E000820F931F20910C0E30910D0E2817390752
:1055F00009F061C0F0930D0EE0930C0EDF91CF9196
:105600000895EA01CE17DF07E8F54A815B819E0124
:1056100041155105B1F7E901FB83EA83499159919D
:10562000C40FD51FEC17FD0761F4808191810296AC
:10563000840F951FE90199838883828193819B83DD
:105640008A83F0E0E0E012968D919C911397009789
:10565000B9F52D913C911197CD010296820F931FC0
:1056600020910C0E30910D0E2817390739F630971E
:1056700051F510920F0E10920E0EB0930D0EA093D6
:105680000C0EBCCFD383C28340815181840F951F00
:10569000C817D90761F44E5F5F4F88819981480F21
:1056A000591F518340838A819B8193838283211573
:1056B000310509F0B0CFF0930F0EE0930E0E9ECFA0
:1056C000FD01DC01C0CF13821282D7CF81E090E0D0
:1056D000F8940C94802EFB01DC0102C001900D9225
:1056E00041505040D8F70895DC0101C06D934150FE
:1056F0005040E0F70895FB01DC018D910190801985
:105700000110D9F3990B0895FB01DC0101900D9272
:105710000020E1F70895FB01DC014150504030F0DA
:105720008D910190801919F40020B9F7881B990B0D
:105730000895FB01DC014150504048F001900D926A
:105740000020C9F701C01D9241505040E0F7089574
:105750000F931F93CF93DF93CDB7DEB72E970FB67E
:10576000F894DEBF0FBECDBF0E891F89888D998D3D
:1057700026E02C831A83098397FF02C080E090E81B
:1057800001979E838D83AE01445E5F4F6A8D7B8D52
:10579000CE0101960E94E52B4D815E8157FD0AC026
:1057A0002F813885421753070CF49A01020F131FFB
:1057B000F80110822E960FB6F894DEBF0FBECDBF53
:1057C000DF91CF911F910F9108952F923F924F92A9
:1057D0005F926F927F928F929F92AF92BF92CF9281
:1057E000DF92EF92FF920F931F93CF93DF9300D03E
:1057F00000D000D01F921F92CDB7DEB77C013B01D5
:105800008A01FC0117821682838181FFDDC1CE01EE
:1058100001965C01F7019381F30193FD859193FF5C
:1058200081913F01882309F453C1853239F493FDF6
:10583000859193FF81913F01853229F4B70190E072
:105840000E94F22DE7CF912C212C312CFFE1F31592
:1058500038F08B3211F190F4803209F1833229F162
:1058600037FC3CC020ED280F2A3050F536FE20C012
:105870008AE0989E200D1124922E06C08D3291F060
:10588000803371F7689430F8F30193FD859193FFAD
:1058900081913F018111DACF21C0689431F8689479
:1058A00032F8F2CF689433F8EFCF689434F8ECCF45
:1058B000EAE02E9E200D1124222E689435F8E4CFC4
:1058C0008E3229F436FC04C1689436F8DDCF8C366C
:1058D00019F4689437F8D8CF8836B1F2982F9F7DA5
:1058E00095549330E0F08336A1F18337C1F18335CD
:1058F00009F063C02801F2E04F0E511CF801C0808E
:10590000D180692D70E036FC02C06FEF7FEFC601D9
:105910000E94E72D4C01689437F882010AC00C5FA1
:105920001F4FFFE3F98388248394912C6501E89449
:1059300037F833FE2DC0522C8114910471F5552097
:1059400009F468CFB70180E290E00E94F22D5A94EA
:10595000F6CFF801808189830E5F1F4FE4CF2801C5
:10596000F2E04F0E511CF801C080D180692D70E02B
:1059700036FC02C06FEF7FEFC6010E9465294C0123
:105980008201D5CFB70180E290E00E94F22D2A94E7
:105990002814190409F0B0F7CECFF60137FC859131
:1059A00037FE81916F01B70190E00E94F22D5110F6
:1059B0005A94F1E08F1A9108BFCF843619F08936D6
:1059C00009F077C0F80137FE6BC060817181828178
:1059D00093810C5F1F4FF32DFF763F2E97FF09C079
:1059E00090958095709561957F4F8F4F9F4F6894EC
:1059F00037F82AE030E0A5010E94222EC82ECA18EE
:105A00008C2C432C36FE0CC0E89440F8C91440F4AA
:105A100034FE05C032FC03C0F32DFE7E4F2E892CD0
:105A200044FEAAC0FE01EC0DF11D8081803309F017
:105A30009CC0242D297E422E842D8870582E43FC34
:105A4000AAC040FEA4C09C2C821418F42C0C922CEA
:105A5000981844FEA6C0B70180E390E00E94F22DA2
:105A600042FE09C088E790E041FE02C088E590E070
:105A7000B7010E94F22DC91408F49FC0CA94D12C1A
:105A80009FEFC91AD90ACA0CDB1CF60182916F017B
:105A9000B70190E00E94F22DAC14BD04B1F74FCFD6
:105AA00060817181072E000C880B990B0E5F1F4FD0
:105AB00092CFD32CE894D4F82AE030E08537E1F196
:105AC000232D297FD22E8F36A9F1F0F4883551F19C
:105AD000F701868197812B960FB6F894DEBF0FBE33
