:100000000C94BB010C94EC010C94EC010C94EC01ED
:100010000C94EC010C94EC010C94EC010C94EC01AC
:100020000C94EC010C94EC010C94EC010C94EC019C
:100030000C94EC010C94EC010C94EC010C94EC018C
:100040000C94EC010C94EC010C94EC010C94EC017C
:100050000C94EC010C94EC010C94EC010C94021A3D
:100060000C94EC010C94761A0C944C1A0C94EC0140
:100070000C94EC010C94EC010C94EC010C94EC014C
:100080000C94EC010C94EC010C94EC010C94EC013C
:100090000C94EC010C94EC010C94EC010C94EC012C
:1000A0000C94EC010C94EC010C94EC010C94EC011C
:1000B0000C94EC010C94EC010C94EC010C94EC010C
:1000C0000C94EC010C94EC010C94EC010C94EC01FC
:1000D0000C94EC010C94EC010C94EC010C94EC01EC
:1000E0000C94EC010C94FD110C94FF110C9421075D
:1000F0000C9469020C943C090C9409120C94560956
:100100000C943F020C9465020C9491060C944D02E1
:100110000C94A6030C9400040C94C0090C941109CF
:100120000C9422080C943A090C94320D0C9432026F
:100130000C9407120C9449020C9464020C945F0214
:100140000C94A00A0C9446090C943B090C944809A1
:100150000C944A070C946D110C949E0E0C94BA03E7
:100160000C9497030C94DF080C945B020C949B1482
:100170000C945A090C9410090C9457020C943809E9
:100180000C94C1170C94E9060C9439090C943D09A0
:100190000C9424020C9454090C9403120C944D04F6
:1001A0000C9436020C9451090C940B120C942E02F0
:1001B0000C9443020C944B090C946A030C94E30DC9
:1001C0000C94770C0C94C4100C94EF090C94380F19
:1001D0000C94C91A0C94E3060C9451020C94390245
:1001E0000C9443090C94C8030C9401120C9440091C
:1001F0000C9405120C9452080C94E6060C94FF0E15
:100200000C944E090C9459090C9465100C942A0214
:100210000C943E0910101010101010001818181827
:10022000181818001C1C1C1C1C1C1C001E1E1E1E4A
:100230001E1E1E001F1F1F1F1F1F1F0000000E1F5E
:100240001F0E00000000000E0E000000000102144E
:100250000800000000002100240027002A002D00D3
:100260003000330001010000040107010A01000011
:100270002200250028002B002E003100340002014E
:100280000000050108010B010000200023002600EA
:1002900029002C002F00320000010000030106019C
:1002A00009010505050507050808080802020202FC
:1002B0000A0A080804040404010101010101010102
:1002C0000303030303030303040707070C0C0C0CCD
:1002D0000C0C0C0C020202020606060606060606B6
:1002E0000B0B0B0B0B0B0B0B010210202008081043
:1002F0002040102040800201020108040201010296
:10030000040810204080804020100804020180046E
:1003100002018040201008040201080402010102C9
:1003200004081020408001020408102040800000D2
:100330000A0B02090C0D0E0807030401000000005F
:1003400000000000000000000000000000000000AD
:10035000000000000000000000001211100000006A
:10036000000000000000000000000000000000008D
:1003700000000000C91A11241FBECFEFD1E2DEBF7A
:10038000CDBF00E00CBF2CE0ACE2BAE001C01D9292
:10039000A033B207E1F71AE0A0E0B2E0E4E6FDE442
:1003A00000E00BBF02C007900D92AC32B107D9F745
:1003B00011E0CBEBD1E000E006C021970109802FCE
:1003C000FE010E946922CA3BD10780E00807A9F715
:1003D0000E94641B0C94B0260C940000FC01AC013C
:1003E0004E5C5F4F8FEF9FEF2191922728E0BC0179
:1003F000880F991F77FF04C031E2832730E19327EC
:100400002150A9F7E417F50779F708958150823153
:1004100008F05AC0E82FF0E08827EE5EFD4F8F4FBE
:100420000C9469223202360224022A022E0264024D
:1004300039023F02430249024D02510257025B0258
:1004400064025F0265026902809180008F77809369
:1004500080000895809180008F7DF9CF8091800089
:10046000877FF5CF84B58F7784BD089584B58F7D60
:10047000FBCF8091B0008F778093B000089580917A
:10048000B0008F7DF9CF809190008F77809390009E
:100490000895809190008F7DF9CF80919000877FA3
:1004A000F5CF8091A0008F778093A0000895809170
:1004B000A0008F7DF9CF8091A000877FF5CF80913C
:1004C00020018F77809320010895809120018F7DF6
:1004D000F9CF80912001877FF5CFCF93DF93282F2D
:1004E00030E0F901E25DFC4F8491F901E851FD4FE4
:1004F000D491F901EE55FD4FC491CC23A1F08111A7
:100500000E940602EC2FF0E0EE0FFF1FE857FD4FB0
:10051000A591B491EC91ED2381E090E009F480E0A5
:10052000DF91CF91089580E090E0FACF1F93CF93B1
:10053000DF93282F30E0F901E25DFC4F8491F9014F
:10054000E851FD4FD491F901EE55FD4FC491CC23F4
:10055000A9F0162F81110E940602EC2FF0E0EE0F99
:10056000FF1FE259FD4FA591B4918FB7F894EC911C
:10057000111108C0D095DE23DC938FBFDF91CF919E
:100580001F910895DE2BF8CFCF93DF9390E0FC010D
:10059000E851FD4F24918E559D4FFC018491882395
:1005A000C9F090E0880F991FFC01EC5AFD4FA5910E
:1005B000B491FC01E259FD4FC591D49161110DC078
:1005C0009FB7F8948C91209582238C93888128235F
:1005D00028839FBFDF91CF910895623051F49FB778
:1005E000F8943C91822F809583238C93E8812E2B65
:1005F000EFCF8FB7F894EC912E2B2C938FBFEACFCF
:100600003FB7F8948091880A9091890AA0918A0A4C
:10061000B0918B0A26B5A89B05C02F3F19F0019613
:10062000A11DB11D3FBFBA2FA92F982F8827BC014C
:10063000CD01620F711D811D911D42E0660F771F74
:10064000881F991F4A95D1F708958F929F92AF9274
:10065000BF92CF92DF92EF92FF924B015C010E941A
:1006600000036B017C010E9400036C197D098E0957
:100670009F09683E734081059105A8F321E0821A25
:100680009108A108B10888EEC80E83E0D81EE11CCD
:10069000F11C81149104A104B10429F7FF90EF909B
:1006A000DF90CF90BF90AF909F908F9008952FB71D
:1006B000F8946091840A7091850A8091860A9091DD
:1006C000870A2FBF0895DC01ED91FC910190F08124
:1006D000E02D1994AF92BF92CF92DF92EF92FF92EA
:1006E0000F931F93CF93DF936C017B018B01040F5A
:1006F000151FEB015E01AE18BF08C017D10759F0F6
:100700006991D601ED91FC910190F081E02DC60137
:100710001995892B79F7C501DF91CF911F910F9121
:10072000FF90EF90DF90CF90BF90AF900895FC01C5
:10073000538D448D252F30E0842F90E0821B930B46
:10074000541710F0CF96089501970895FC01918DEC
:10075000828D981761F0A28DAE0FBF2FB11D5D96EF
:100760008C91928D9F5F9F73928F90E008958FEF91
:100770009FEF0895FC01918D828D981731F0828D45
:10078000E80FF11D858D90E008958FEF9FEF08959C
:10079000FC01918D228D892F90E0805C9F4F821B00
:1007A00091098F73992708958CE89AE00E94C803F5
:1007B00021E0892B09F420E0822F0895FC01A48D0B
:1007C000A80FB92FB11DA35ABF4F2C91848D90E073
:1007D00001968F739927848FA689B7892C93A08956
:1007E000B1898C91837080648C93938D848D9813E0
:1007F00006C00288F389E02D80818F7D8083089573
:10080000EF92FF920F931F93CF93DF93EC0181E060
:10081000888F9B8D8C8D98131AC0E889F989808107
:1008200085FF15C09FB7F894EE89FF896083E8893A
:10083000F98980818370806480839FBF81E090E02C
:10084000DF91CF911F910F91FF90EF900895F62EB9
:100850000B8D10E00F5F1F4F0F731127E02E8C8D53
:100860008E110CC00FB607FCFACFE889F989808198
:1008700085FFF5CFCE010E94DE03F1CFEB8DEC0FAB
:10088000FD2FF11DE35AFF4FF0829FB7F8940B8FB5
:10089000EA89FB8980818062CFCFCF93DF93EC011F
:1008A000888D8823B9F0AA89BB89E889F9898C9158
:1008B00085FD03C0808186FD0DC00FB607FCF7CF14
:1008C0008C9185FFF2CF808185FFEDCFCE010E9414
:1008D000DE03E9CFDF91CF91089580E090E0892B8E
:1008E00029F00E94D40381110E94000080E090E072
:1008F000892B49F080E090E0892B29F00E940000CC
:1009000081110E94000080E090E0892B49F080E096
:1009100090E0892B29F00E94000081110E940000C4
:1009200080E090E0892B49F080E090E0892B29F06D
:100930000E94000081110C9400000895FF920F9313
:100940001F93CF93DF93EC01FF24F394F60E2885D9
:100950002F1581F109851A85215041F16F3FE1F48E
:1009600030E050E040E06FEF7FEF80E090E00E94E9
:100970004A22B901F8014C815D81CF01801B910BA6
:1009800084179507B0F44081469FC001479F900DA2
:10099000112490833196EFCF8F2D90E0982F8827E8
:1009A0000197622F70E00E942222E4CF70E060E0A5
:1009B000E1CFF886DF91CF911F910F91FF900895BD
:1009C0000F931F93DC0112968D919C9113976817DA
:1009D0007907C0F518968C911897882361F0489F85
:1009E000A0011124452F829F90011124232F809F65
:1009F00080011124012F1E968C911E971996ED915E
:100A0000FC911A971B969C911B9789131EC0CB01D2
:100A1000880F991F680F791F6E0F7F1F1B96EC912F
:100A20001B97E60FF72FF11D40831C96EC911C9746
:100A3000E60FF72FF11D20831D968C91680F711D15
:100A4000FB0100831F910F910895660F771F660FBA
:100A5000771F6E0F7F1FFB01E80FF11D1082DECFA5
:100A6000CF92DF92EF92FF920F931F93CF93DF937A
:100A700000D000D000D0CDB7DEB78C01DC011996D4
:100A80008D919C91892B09F473C00E940003F80199
:100A9000C784D088E188F2886C157D058E059F0596
:100AA00020F46787708B818B928BF801C784D08884
:100AB000E188F2886C197D098E099F096C327140BA
:100AC0008105910510F3F894D80114968D919C91AD
:100AD00015979A8389831996ED91FC917F01BFEF59
:100AE000EB1AFB0A80818987F80190810388F489D9
:100AF000E02DD80155968C91992309F448C0908136
:100B0000982B98879081809589238F838F818C8300
:100B100088E08B8358856F8149853B812C81898151
:100B20009A81D701508347FD252F3A952083262FA0
:100B300039F0441F00C000006083000000C0F2CF05
:100B400038E04D9160830000019761F7D801549619
:100B5000FC93EE93539749873B832C839A83898335
:100B600078940E940003F8016787708B818B928BC9
:100B700029960FB6F894DEBF0FBECDBFDF91CF919F
:100B80001F910F91FF90EF90DF90CF90089590818B
:100B9000982B98879081809589238F838F818E836E
:100BA00088E08D8358856F8149853D812E818981BB
:100BB0009A81D701508347FD252F00C000C02083B4
:100BC00000C000C000C000C000C060830000262F2D
:100BD0003A9541F0441F000000C000C000C000C0B2
:100BE00000C0E8CF38E04D9100C0608300C001979D
:100BF00009F7D8015496FC93EE93539749873D83A8
:100C00002E83ACCFCF92DF92EF92FF920F931F9380
:100C1000CF93DF93EC01462FE881F9810484F585B9
:100C2000E02D61E070E019958C01CC88DD88EE88BC
:100C3000FF880E940003688F798F8A8F9B8FCC8EEC
:100C4000DD8EEE8EFF8E81E090E0012B11F090E0C2
:100C500080E0DF91CF911F910F91FF90EF90DF9097
:100C6000CF9008958F929F92AF92BF92EF92FF9292
:100C70001F93CF93DF93EC01162FE881F981048451
:100C8000F585E02D462F70E060E019957C0111504C
:100C90001230D8F419861A8688889988AA88BB8861
:100CA0000E940003688F798F8A8F9B8F8C8E9D8E18
:100CB000AE8EBF8EC701DF91CF911F91FF90EF9055
:100CC000BF90AF909F908F9008958C889D88AE883C
:100CD000BF88E6CFDC0118968C911897481710F062
:100CE0004FEF480F1B969C911B97992389F01796FD
:100CF0009C911797691730F0691B4F5F4817D0F325
:100D000040E0F8CF19966C9319971A964C931A975E
:100D1000FD01E40FF11D8485680F6068CD010C941E
:100D200032060F931F93CF93DF93EC010E940206CC
:100D30008C018B85882399F089858F5F89879F81B6
:100D4000891768F019868A858F5F8A879885891741
:100D500008F01A864A8560E0CE010E946A06C80142
:100D6000DF91CF911F910F91089561E00C943206AD
:100D7000CF92DF92EF92FF920F931F93CF93DF9367
:100D8000EC01462FE881F9810484F585E02D62E0CD
:100D900070E019958C01CC88DD88EE88FF880E9470
:100DA0000003688F798F8A8F9B8FCC8EDD8EEE8EBD
:100DB000FF8EC801DF91CF911F910F91FF90EF90AF
:100DC000DF90CF9008958DEF9FEF08958DEF9FEF07
:100DD000089590E080E00895CF93DF93FC01258D86
:100DE000261741F0EC01658F0E94570368A379A391
:100DF0008AA39BA3DF91CF9108950F931F93CF9365
:100E00008C01C62FFC0183A161E0C0FF60E00E945D
:100E10009602F80184A161E0C1FF60E00E949602A1
:100E2000F80185A161E0C2FF60E00E949602F8012E
:100E300086A161E0C3FF60E0CF911F910F910C94F8
:100E400096021F93CF93DF93EC01162F6623E9F0F0
:100E50006C8160620E943206129516951695137089
:100E600063E070E0611B7109CE010E9402066D8192
:100E7000862F84608D836C60CE010E94320690E0E4
:100E800080E0DF91CF911F9108956D816B7F6D831D
:100E90006860F2CFCF93DF93EC0161E088A10E94FC
:100EA000C40289A18F3F39F061E00E94C40260E072
:100EB00089A10E94960261E08AA10E94C40260E0BA
:100EC0008AA10E94960261E08BA10E94C40261E0A7
:100ED0008CA10E94C40261E08DA10E94C40261E065
:100EE0008EA10E94C40290E080E0DF91CF9108952E
:100EF000DC01ED91FC910190F081E02D1994EF92CD
:100F0000FF920F931F93CF93DF937C01D42FC52FB4
:100F1000462F60E0FC0181A992A90E946A060D2F6C
:100F20001C2FC0E0F80161918F01662391F0062E1D
:100F3000000C770BF70181A992A90E947807CF5F77
:100F4000C43181F7DF91CF911F910F91FF90EF9006
:100F5000089560E270E0F70181A992A90E947807E4
:100F6000CF5FC431B1F7EECFCF93DF93EC0189A906
:100F70009AA90E94B50649E053E060E0CE010E94C4
:100F80007F0743EF52E061E0CE01DF91CF910C94F7
:100F90007F070F931F93CF93DF93EC012A813B814F
:100FA0001B821A824C815D81DB010E941322DC01CD
:100FB000CB01840F951FA11DB11D452B59F0009742
:100FC000A105B10521F481E090E0A0E0B0E0019737
:100FD000A109B10985369105A105B10520F084E686
:100FE00090E0A0E0B0E09D838C8341E060E089A9BF
:100FF0009AA90E946A0610E000E06C817D8189A9AF
:101000009AA90617170770F060E270E00E9478074F
:101010000B5F1F4F0436110581F7DF91CF911F91B0
:101020000F910895601B710BDC01ED91FC91019013
:10103000F081E02D6530710518F064E01995E8CF76
:101040006150FCCFCF92DF92EF92FF920F931F93EC
:10105000CF93DF932EE7C22E2AE0D22EEC0108E6D2
:101060001AE07C0184E0E80EF11CF60181916F0129
:101070008A83F80161918F0161706E830E949602EC
:1010800061E08A810E94C4021A862196CE15DF058E
:1010900061F7DF91CF911F910F91FF90EF90DF905B
:1010A000CF900895CF92DF92EF92FF920F931F930C
:1010B000CF93DF93EC016A017B016E816230B1F165
:1010C00068F4662301F1613071F1DF91CF911F91D6
:1010D0000F91FF90EF90DF90CF900895633009F467
:1010E00066C0643091F76C818A810E949602C701C4
:1010F000B60126E930E040E050E00E94E6216D8133
:1011000020FD06C059C06C818A810E9496026D81C3
:101110008B81DF91CF911F910F91FF90EF90DF9026
:10112000CF900C9496028C816827EECFC701BA014C
:1011300020ED37E040E050E00E94E6219B01AC0149
:10114000283E63E0360730F5AFEFB0E00E9408229A
:1011500028EE33E040E050E00E94E621122F0C819F
:10116000C701B60124E130E040E050E00E94E621F2
:101170002FEF269FA001279F500D1124CA0164E183
:1011800070E00E9422221617170679F070F061E0D5
:101190006027BACF80ED97E0BC01621B730B9B0107
:1011A000AFEFB0E00E941322D3CF602FADCF6C81A0
:1011B0008A810E9496026D8181E06827A9CFCF9233
:1011C000DF92EF92FF920F931F93CF93DF9329E764
:1011D000C22E2AE0D22EEC0103E61AE07C0184E064
:1011E000E80EF11CF60181916F018A83F80191915B
:1011F0008F0191709E8361E00E94C4026E818A819A
:101200000E9496021A862196CE15DF0559F7DF91C6
:10121000CF911F910F91FF90EF90DF90CF900895A5
:1012200008950F931F93CF93DF9304E71AE0EC0127
:10123000F80181918F018A8362E00E94C4028A8151
:101240000E946D0221E0019709F020E02B832C839E
:101250000E9457036D837E838F8398872796FAE0D9
:1012600009371F0729F7DF91CF911F910F9108953B
:1012700008950895089508950895089581E00895C2
:101280008CEA93E008958FEA93E0089584E008954E
:1012900089EE98E0089583EB93E008958CED97E054
:1012A000089581EC93E0089585E0089585EC93E03E
:1012B000089508950895CF92DF92EF92FF920F93D1
:1012C0001F93CF930097F1F07B018C0181E9C82E29
:1012D00082E0D82EC0E0F601619171916F01C801E2
:1012E0000E94AB23892B59F4F701C08381E0CF9191
:1012F0001F910F91FF90EF90DF90CF900895CF5FF7
:10130000C63149F780E0F3CF6115710579F0FB0133
:1013100001900020E9F73197AF01461B570BDC0124
:10132000ED91FC910280F381E02D199490E080E032
:101330000895EF92FF920F931F93CF93DF93EC01E9
:101340007B018A016CEC73E00E948409B701CE0135
:101350000E948409F8018081882341F060E2CE0177
:101360000E946303B801CE010E9484096AE0CE01A5
:10137000DF91CF911F910F91FF90EF900C94630339
:101380000F931F93CF93DF93EC018B01ECE6FAE010
:1013900080818A8391819B83E6E5FAE09081917058
:1013A0009C83918191709D8361E00E94C40261E001
:1013B0008B810E94C4026C818A810E9496026D8199
:1013C0008B810E9496021E8243ED53E063EB73E033
:1013D000C801DF91CF911F910F910C9499093F9211
:1013E0004F925F926F927F928F929F92AF92BF9235
:1013F000CF92DF92EF92FF920F931F93CF93DF93E1
:10140000CDB7DEB72C970FB6F894DEBF0FBECDBFB9
:101410002A013B0149018C01F12CE12C81EEC82EFF
:1014200083E0D82E9CE0392ECE0101965C01D801D4
:1014300012968C910E946D0221E0019709F020E044
:10144000F8018381821729F02383458256826782BF
:101450007086F80123819481291769F145815681AD
:1014600067817085D301C201841B950BA60BB70B56
:10147000AC01BD014431510561057105E0F02483E3
:10148000FF92EF92DF92CF921F923F92BF92AF9264
:101490000E94D8230FB6F894DEBF0FBECDBFF8016F
:1014A00084814CED53E0882311F049ED53E0B50100
:1014B000C4010E949909FFEFEF1AFF0A095F1F4F4D
:1014C00085E0E816F10409F0B2CF2C960FB6F89437
:1014D000DEBF0FBECDBFDF91CF911F910F91FF9067
:1014E000EF90DF90CF90BF90AF909F908F907F90C4
:1014F0006F905F904F903F900895EF92FF920F93FF
:101500001F93CF93DF93EC017B018A016BEE73E0B5
:101510000E948409B701CE010E94840960E2CE01D5
:101520000E946303B801CE010E9484096AE0CE01E3
:10153000DF91CF911F910F91FF90EF900C94630377
:101540002F923F924F925F926F927F928F929F92D3
:10155000AF92BF92CF92DF92EF92FF920F931F93C1
:10156000CF93DF93CDB7DEB7A8970FB6F894DEBF61
:101570000FBECDBF8C014B017C0183E3E80EF11C53
:10158000E114F10409F462C060906E0A70906F0A71
:10159000A090700AB090710AC090720AD090730A3D
:1015A000D801D6961C921E92D5978BEC92E0D496D9
:1015B0009C938E93D39784E1DA968C93DA9782E0AA
:1015C000DB968C93DB97DF961C92F801E05CFF4F73
:1015D00010823196108231961082F80116AE80ED9D
:1015E00097E0A0E0B0E0ED5BFF4F80839183A283A2
:1015F000B38386E290E0A0E0B0E0349680839183EC
:10160000A283B3830E940003F801E55BFF4F608370
:1016100071838283938334961082118212821382A3
:1016200081EE92E0D801D4969C938E93D397349612
:1016300060828FEF31968083319670823196A082DE
:101640003196B0823196C0823196D082F801F2AAEA
:10165000E1AA87AD81110DC0E05CFF4F808181114F
:1016600008C031968081811104C031968081882321
:1016700039F0D801DA968C91882371F0843161F0C9
:10168000F80117AE80E4E05CFF4F808384E131967F
:10169000808384E53196808382E0D801DB968C9349
:1016A000DB9784E1DA968C9364E670E080E090E06A
:1016B0000E942503F80117AA03A8F4A9E02D0084CD
:1016C000F185E02DC70119955C01CE0101966C01F1
:1016D000A114B10409F059C0D801DB968C91DB97B5
:1016E000823030F0D7968C91D7978860D7968C93BC
:1016F00060E3C7010E94B80665E070E080E090E01A
:101700000E94250360E3C7010E94B80661E070E013
:1017100080E090E00E94250360E3C7010E94B806C4
:1017200061E070E080E090E00E942503F80187A965
:1017300084FD04C060E2C7010E94B806D801D796B4
:101740006C916062C7010E94320684E0F80180AFAC
:101750006CE0C7010E943206C7010E94B50682E014
:10176000D801D9968C9366E0C7010E9432065C01CD
:10177000D801D396ED91FC910684F785E02D6FEFAB
:10178000C7011995A114B10489F1BF92AF928EEEF1
:1017900093E09F938F931F9288E28F93DF92CF9273
:1017A0000E94D823A60160E074E0C4010E947D0A73
:1017B0000FB6F894DEBF0FBECDBFA8960FB6F89453
:1017C000DEBF0FBECDBFDF91CF911F910F91FF9074
:1017D000EF90DF90CF90BF90AF909F908F907F90D1
:1017E0006F905F904F903F902F900895F12CE12CD7
:1017F0001601F8E02F0E311C3601D60190E080E092
:1018000097012C5E3D4FF901E80FF91FE491ED932C
:10181000019688309105B9F7D801D196AD90BC906A
:10182000D501ED91FC910284F385E02D70E060E03C
:10183000C50119952C01E89447F8552497FD412CD2
:101840006E2D6064C5010E943206892B81F4F3017C
:1018500061913F01C5010E940206019741F42614DF
:101860003704A9F740E0642DC5010E946A06F8E03C
:10187000EF0EF11C80E4E816F10409F0BDCF6BE235
:10188000D801D1968D919C910E943206C8010E9488
:10189000B4070E945703F80160A371A382A393A326
:1018A00064A375A386A397A360A771A782A793A734
:1018B000158E43ED53E060E074E0C4010E94990985
:1018C0007CCF0F931F93CF93DF93EC018B0166E0E6
:1018D00074E00E948409B801CE010E9484096AE084
:1018E000CE01DF91CF911F910F910C9463038F92E2
:1018F0009F92AF92BF92CF92DF92EF92FF920F939F
:101900001F93CF93DF93CDB7DEB768970FB6F894E8
:10191000DEBF0FBECDBF643008F0A2C0FA01008167
:10192000002309F49DC0818092808114910409F400
:1019300097C069015A01162F7C016DE074E0C40163
:101940000E94AB23892B09F05DC0033030F0F50114
:10195000A580B680A114B104D9F441E154E069EE48
:1019600078E0C6010E947D0A81E068960FB6F8947F
:10197000DEBF0FBECDBFDF91CF911F910F91FF90C2
:10198000EF90DF90CF90BF90AF909F908F90089591
:1019900062EC78E0C5010E94AB23892B39F16AEE35
:1019A00079E0C5010E94AB23892B01F169E074E065
:1019B000C5010E94AB23892B51F064E074E0C5019E
:1019C0000E94AB23892B19F04FE154E0C8CFF701F7
:1019D000E10FF11D1286F701E10FF11D6681F7019C
:1019E000E10FF11D82810E949602BECF81E0F701D6
:1019F000E10FF11D8287F701E10FF11D668181E0A2
:101A00006827EDCF6DE274E0C4010E94AB23892BFF
:101A100039F5F701E10FF11D828581111EC089E0C2
:101A200094E09F938F931F921F9381E394E09F9381
:101A30008F931F9288E18F938E010F5F1F4F1F932B
:101A40000F930E94D823B801C6010E94610C0FB603
:101A5000F894DEBF0FBECDBF87CF82EC98E0E1CF18
:101A600080E083CF9F92AF92BF92CF92DF92EF92AE
:101A7000FF920F931F93CF93DF93CDB7DEB7A89755
:101A80000FB6F894DEBF0FBECDBFDA019C9099204F
:101A900009F497C01196AD90BC90A114B10409F45B
:101AA00090C089017A016C016DE074E0C5010E946B
:101AB000AB23892B09F056C0B2E0B91530F4F70119
:101AC000E580F680E114F104D1F441E154E063EBE8
:101AD00073E0C8010E947D0A81E0A8960FB6F894D1
:101AE000DEBF0FBECDBFDF91CF911F910F91FF9051
:101AF000EF90DF90CF90BF90AF909F90089569E0F6
:101B000074E0C7010E94AB23892BF9F065E474E00F
:101B1000C7010E94AB23892BE9F061E574E0C7019E
:101B20000E94AB23892BC1F06DE574E0C7010E94D0
:101B3000AB23892B99F067E674E0C7010E94AB23C1
:101B4000892B71F04FE154E0C2CF90E0D601169698
:101B50009C93C2CF91E0FACF92E0F8CF93E0F6CF1A
:101B600094E0F4CF6DE274E0C5010E94AB23892BB1
:101B700041F5D6011696EC918DE394E0E53038F40A
:101B8000F0E0EE0FFF1FE354FD4F808191819F93A2
:101B90008F9381E794E09F938F931F9288E28F93B6
:101BA000FE0131967F01FF93EF930E94D823B70186
:101BB000C8010E94610C0FB6F894DEBF0FBECDBF06
:101BC0008BCF80E08ACF8F929F92AF92BF92CF92BD
:101BD000DF92EF92FF920F931F93CF93DF93CDB7D6
:101BE000DEB764970FB6F894DEBF0FBECDBF64308A
:101BF00008F0A2C0FA010081002309F49DC0818091
:101C000092808114910409F497C069015A01162F3A
:101C10007C016DE074E0C4010E94AB23892B09F0C4
:101C20005DC0033030F0F501A580B680A114B10489
:101C3000D9F441E154E06CED77E0C6010E947D0AE1
:101C400081E064960FB6F894DEBF0FBECDBFDF9182
:101C5000CF911F910F91FF90EF90DF90CF90BF90A9
:101C6000AF909F908F90089562EC78E0C5010E943C
:101C7000AB23892B39F16AEE79E0C5010E94AB23D1
:101C8000892B01F169E074E0C5010E94AB23892B27
:101C900051F064E074E0C5010E94AB23892B19F078
:101CA0004FE154E0C8CFF701E10FF11D1286F701B3
:101CB000E10FF11D6681F701E10FF11D82810E94A4
:101CC0009602BECF81E0F701E10FF11D8287F70197
:101CD000E10FF11D668181E06827EDCF6DE274E0D0
:101CE000C4010E94AB23892B39F5F701E10FF11DE7
:101CF000828581111EC089E094E09F938F931F928B
:101D00001F9382E894E09F938F931F9284E18F93B7
:101D10008E010F5F1F4F1F930F930E94D823B801AE
:101D2000C6010E94610C0FB6F894DEBF0FBECDBF96
:101D300087CF82EC98E0E1CF80E083CFCF92DF9233
:101D4000EF92FF920F931F93CF93DF93CDB7DEB740
:101D500068970FB6F894DEBF0FBECDBF7C0165302B
:101D600008F04BC0FA018081882309F446C08181C4
:101D70009281009709F441C06901162F6DE274E069
:101D80000E94AB23892BC9F5F70187E0189FE00D6E
:101D9000F11D1124848181112DC085E994E09F9368
:101DA0008F931F921F938DE994E09F938F931F92BF
:101DB00088E18F938E010F5F1F4F1F930F930E9437
:101DC000D823B801C6010E94610C0FB6F894DEBF9B
:101DD0000FBECDBF81E068960FB6F894DEBF0FBE90
:101DE000CDBFDF91CF911F910F91FF90EF90DF90CA
:101DF000CF9008958CE894E0D2CF80E0ECCF0E94A1
:101E00009623EF92FF920F931F93CF93DF93E901F5
:101E1000009761F1FC0101900020E9F73797E8177E
:101E2000F90721F5FC01DC011696319120ED230F15
:101E30002A3020F03F7D31543630C0F4EA17FB07DA
:101E4000A1F78A017B0140E150E070E060E00E9470
:101E50008020F7018083F8017083688381E0DF913F
:101E6000CF911F910F91FF90EF90089580E0F7CFF1
:101E70007F928F929F92AF92BF92CF92DF92EF921A
:101E8000FF920F931F93CF93DF93CDB7DEB7AA973F
:101E90000FB6F894DEBF0FBECDBF611114C189012A
:101EA0006A017C01FC01828093804AEA54E081143B
:101EB000910409F458C0F6017080772009F403C139
:101EC000A180B280A114B10409F4FDC06DE274E0F8
:101ED000C5010E94AB23892B99F5F701828D1F92D2
:101EE0008F931F9280E18F938FEB94E09F938F935A
:101EF0001F9288E28F93CE0101967C019F938F936E
:101F00000E94D823B701C8010E94610C0FB6F89453
:101F1000DEBF0FBECDBF81E0AA960FB6F894DEBF3C
:101F20000FBECDBFDF91CF911F910F91FF90EF902A
:101F3000DF90CF90BF90AF909F908F907F9008954B
:101F40006DE074E0C5010E94AB23892B09F0BBC092
:101F5000F2E0F71530F4F601A580B680A114B104C3
:101F600041F44BED54E06AEB74E0C8010E947D0A35
:101F7000D2CF69EE74E0C5010E94AB23892BD9F55D
:101F8000F3E07F1671F0F60187819085F4E07F160B
:101F900041F0F601A184B284009719F0A114B104B4
:101FA00019F44FEE54E0DFCF0E9483216C0141E130
:101FB00055E04097C0F69E012F5F3F4FAE01475D51
:101FC0005F4FBE01665D7F4FC5010E94010F811109
:101FD00003C044E255E0C7CF098129A54AA5B6014F
:101FE000F701828193810E94E004F701828193814D
:101FF0000E94300590CF6DEB73E0C5010E94AB23CA
:10200000892B59F5F3E07F1629F0F6018781908539
:10201000009719F442E355E0A6CF9E012F5F3F4F92
:10202000AE01475D5F4FBE01665D7F4F0E94010FAD
:10203000D12CC12C882369F2098129A54AA5B601B2
:10204000F701828193810E94E004FFEFCF1ADF0A3B
:1020500020E1C216D10481F7C8CF68E475E0C5015C
:102060000E94AB23892BD9F4F3E07F1629F0F60107
:1020700087819085009719F440E455E074CF0E9461
:10208000832143E555E08F3F910511F008F06BCFB8
:10209000F701828F682FC4010E949E04A6CF6BE6D1
:1020A00075E0C5010E94AB2341E755E0892B09F09B
:1020B0005ACFF4014481558170E060E081859285BA
:1020C0000E94A42392CF80E027CF4F925F926F921D
:1020D0007F928F929F92AF92BF92EF92FF921F9347
:1020E000CF93DF93EC017B01142F88A161E091E095
:1020F000E916F10409F060E00E949602612F70E099
:1021000084E0759567958A95E1F7CE010E94FD06FA
:102110008C8C9D8CAE8CBF8C488C598C6A8C7B8C43
:102120000E940003641975098609970968157905E5
:102130008A059B05A8F361E08AA10E94960260E0EF
:102140008AA10E94960282E0E816F10469F0612FEC
:102150006F70CE010E94FD0661E08AA10E94960286
:1021600060E08AA10E94960290E080E0DF91CF912A
:102170001F91FF90EF90BF90AF909F908F907F90B6
:102180006F905F904F9008958F929F92AF92BF9201
:10219000CF92DF92EF92FF920F931F93CF93DF9333
:1021A000FC0121A12F3F09F495C08B01EC01C48CE7
:1021B000D58CE68CF78C808C918CA28CB38C0E9491
:1021C0000003681979098A099B096C157D058E053C
:1021D0009F05A8F360E08BA10E94C40260E08CA17F
:1021E0000E94C40260E08DA10E94C40260E08EA142
:1021F0000E94C40261E00130110509F060E088A18D
:102200000E94960261E089A10E94960261E08AA183
:102210000E9496028BA10E946D0210E1019709F0C5
:1022200010E08CA10E946D02019709F410628DA14B
:102230000E946D02019709F410648EA10E946D0244
:10224000019709F4106860E08AA10E94960261E09B
:102250008AA10E9496028BA10E946D02019709F447
:1022600011608CA10E946D02019709F412608DA18A
:102270000E946D02019709F414608EA10E946D0204
:10228000019709F4186060E08AA10E94960261E05B
:102290008BA10E94C40261E08CA10E94C40261E093
:1022A0008DA10E94C40261E08EA10E94C40260E080
:1022B00089A10E949602812F90E0DF91CF911F911A
:1022C0000F91FF90EF90DF90CF90BF90AF909F90D5
:1022D0008F9008958DEF9FEFF0CFBF92CF92DF9256
:1022E000EF92FF920F931F93CF93DF93EC016B015B
:1022F0007C0184E0E80EF11CE114F10409F444C00F
:10230000B0907D0A1D821C861B8A1C8A1D8A1E8A2B
:1023100081E08A8B8F87188A92E0998B8C8380E387
:1023200090E0998788870E9471229E878D87009709
:1023300009F45CC020E3FC0111922A95E9F780E1E1
:1023400090E09F838E830B2D10E01B870A878D8181
:10235000882341F061E08B2D0E94C40260E08B2D48
:102360000E949602F801EE55FD4FE491F0E0EE0F69
:10237000FF1FE259FD4F85919491988F8F8BF80143
:10238000E851FD4FE491E98FFB82EA828A859B85C3
:1023900097FD31C061E00E94C40260E08A850E941E
:1023A000960281E08D836A8D8A819B810E949E04C2
:1023B000EA81FB814481558170E060E081859285EE
:1023C0000E94A4238A819B810E94300543ED53E043
:1023D0006AEB74E0C601DF91CF911F910F91FF90DE
:1023E000EF90DF90CF90BF900C94990919861886D2
:1023F0001F821E82A8CF1D82D6CF0C940D230C9471
:102400000D230C940D230C940D230C940D230C948C
:102410000D230C940D239F92AF92BF92CF92DF9227
:10242000EF92FF920F931F93CF93DF93CDB7DEB759
:10243000C055D1090FB6F894DEBF0FBECDBF6111F4
:1024400078C269017A018C01DC01D1968D919C9151
:102450004AEA54E0892BF9F0F7019080992009F4B9
:1024600068C2A180B280A114B10409F462C26DE017
:1024700074E0C5010E94AB23892B09F0FFC1F2E093
:10248000F91538F4D7011596AD90BC90A114B1049C
:1024900041F44BED54E060E074E0C6010E947D0A17
:1024A00075C00E945703F80164A375A386A397A380
:1024B0006AEA75E0C5010E94AB23892B09F043C08D
:1024C000D7018C91843030F01796ED90FC90E11498
:1024D000F10419F441E855E0DECF6EE875E0C7017C
:1024E0000E94AB23892B41F4C8010E94B40760E02D
:1024F000C8010E94EC064AC065E975E0C7010E9468
:10250000AB23892B39F4F80181A992A90E94B50661
:1025100061E0EECF6AE975E0C7010E94AB23892B29
:1025200011F462E0E5CF6BE576E0C7010E94AB23D2
:10253000892B31F481E0D8015C968C9363E0D8CF8D
:1025400042EA55E0A8CF68E475E0C5010E94AB23DC
:10255000892BF1F4F7018081843020F08781908508
:10256000009719F44FEA55E096CF0E9483214DEB76
:1025700055E08430910508F08ECF63E0681B6862F7
:10258000D801D1968D919C910E94320681E007C1BD
:102590006BE675E0C5010E94AB23892B31F4F8018D
:1025A00081A992A90E94B506BCCF6BEC75E0C5016C
:1025B0000E94AB23892B09F05FC0D701BC90B3E028
:1025C000BB1528F4F70187819085009719F440ED39
:1025D00055E061CF0E94832182309105B0F5D7018B
:1025E000199664E070E030E020E0CB2CD12C90E232
:1025F000E92E6C157D0578F5AD90BD90A114B10460
:1026000051F1A901415051094331510550F441E0C4
:1026100050E04C0F5D1F420F531FFA01E0822F5F05
:102620003F4F41E050E04C0F5D1F420F531FF5013B
:10263000F1905F01FF2061F02431310548F42F5FF4
:102640003F4FFA01F192AF01F2CF4CED55E023CFAD
:102650006F5F7F4FCECF41E050E04C0F5D1F240FE6
:10266000351FD9011C92AE014F5F5F4F682FC80123
:102670000E947F0764E03CCF68EE75E0C5010E94D0
:10268000AB23892B31F5F70180818430F8F0878105
:1026900090850097D9F00E94832118161906B4F48A
:1026A000D80112962D913C911397820F931F139688
:1026B0009C938E9312975D968C91823008F066CF32
:1026C000F801848D882309F42CCF38CF81E090E085
:1026D000E7CF64E576E0C5010E94AB23892B09F5BD
:1026E000D7018C91843028F01796ED91FC913097AA
:1026F00019F44DEE55E0CFCED8015C962C91908127
:1027000081E0913309F080E0F801848F281709F403
:102710003DCF62E0913309F461E0C8010E94AC1A38
:1027200035CF67E076E0C5010E94AB23892BB9F471
:10273000D7018C91843030F017966D917C916115A2
:10274000710519F44FEF55E0A6CE4BE050E0C801FB
:1027500006960E94C923F801118A63E0DECF66E184
:1027600076E0C5010E94AB23892B61F5D7018C91DE
:10277000843028F017968D919C91009719F44EE0C3
:1027800056E089CE0E9483218536910514F084E6B7
:1027900090E097FD80E0F801828B81E0838BC05B45
:1027A000DF4F0FB6F894DEBF0FBECDBFDF91CF91E4
:1027B0001F910F91FF90EF90DF90CF90BF90AF905F
:1027C0009F90089561E276E0C5010E94AB23892BBA
:1027D000B1F4D7018C91843030F017966D917C91D3
:1027E0006115710519F449E156E055CE47E050E016
:1027F000C80144960E94C923F801138EC7CE62E532
:1028000076E0C5010E94AB23892B59F5D7018C9145
:10281000843030F01796ED90FC90E114F10419F437
:1028200046E256E038CE63E376E0C7010E94AB2370
:1028300064E0892B09F471CF68E376E0C7010E9458
:10284000AB2365E0892B09F468CF61E476E0C7012A
:102850000E94AB23892B11F466E05FCF4AE456E077
:102860001ACE68E576E0C5010E94AB2341E755E04A
:10287000892B09F010CEF801148E53CE6DE274E06E
:10288000C5010E94AB23009709F053C0D8015496AC
:102890002C91B8016C5E7F4F211102C06FE775E08B
:1028A000F80123894FE755E0222321F0828990E047
:1028B00048EF56E0D80116962C912223A1F19801F9
:1028C0002A5F3F4FF801F48CE58DE63078F5F0E0B3
:1028D000EE0FFF1FE25EFC4F0190F081E02D7F9331
:1028E0006F939F938F935F934F933F932F931F9279
:1028F000FF92FF93EF9381E696E09F938F931F9251
:1029000080E58F938E010F5F1F4F1F930F930E94DF
:10291000D823B801C6010E94610C0FB6F894DEBF3F
:102920000FBECDBF33CE2FE735E0CCCFEDE3F4E0E3
:10293000D6CF80E034CF2F923F924F925F926F922A
:102940007F928F929F92AF92BF92CF92DF92EF923F
:10295000FF920F931F93CF93DF93CDB7DEB7AB9763
:102960000FB6F894DEBF0FBECDBFFC0121A932A97E
:10297000232B09F448C000A511A522A533A56A019F
:102980007B01C01AD10AE20AF30A970186010132DB
:10299000110521053105B8F16A017B018C01C0A642
:1029A000D1A6E2A6F3A684A595A5A6A5B7A50196EE
:1029B000A11DB11D84A795A7A6A7B7A7858D825095
:1029C0008230A8F484A195A1A6A1B7A1AB0196017C
:1029D000281B390B4A0B5B0BDA01C9018137974180
:1029E000A105B10520F061E0CF010E94EC06F801DD
:1029F000858D823009F4ADC0F8F4882309F449C00C
:102A0000813009F460C0AB960FB6F894DEBF0FBEFC
:102A1000CDBFDF91CF911F910F91FF90EF90DF908D
:102A2000CF90BF90AF909F908F907F906F905F906E
:102A30004F903F902F900895843009F442C108F4DC
:102A4000D2C0853001F780A191A1A2A1B3A1260136
:102A50003701481A590A6A0A7B0A878D833009F4BC
:102A6000D9C108F04DC1813009F46FC1823009F439
:102A7000ACC130E2431633E053066104710418F22E
:102A8000F801868D858FC0A2D1A2E2A2F3A2178E93
:102A9000BACF80A191A1A2A1B3A1C81AD90AEA0A0A
:102AA000FB0AF0E7CF16F7E1DF06E104F10408F4D2
:102AB000AACFF80181A992A90E94B50661E0C801D8
:102AC0000E94EC06A0CF44E150E060E270E08CE2AE
:102AD0009AE00E94A4231092400A44E150E060E290
:102AE00070E081E49AE00E94A4231092550AF80154
:102AF00020A9822F90E068E270E00E9436228431A3
:102B000008F5845D954F36E0FC013083F80184A51B
:102B100095A5A6A5B7A587709927AA27BB27892BB6
:102B20008A2B8B2B11F42F5F20AB4CE25AE060E034
:102B3000C8010E947F0741E45AE061E0C8010E9499
:102B40007F0761CFE3E5FAE0E81BF90B86E0858BB0
:102B5000DDCF86819E012F5F3F4F7901882399F158
:102B6000C80106962389222301F122891F922F93FF
:102B70009F938F9382E996E09F938F931F9285E1B5
:102B80008F93FF92EF920E94D8230FB6F894DEBF86
:102B90000FBECDBFA70160E0C8010E947F0766E0BD
:102BA00070E0C8010E94C9072ECF9F938F938FE9D1
:102BB00096E09F938F931F9285E18F93FF92EF9200
:102BC0000E94D823E2CF8489882339F0C801449633
:102BD0009F938F9385EA96E0ECCF65EB76E0C90191
:102BE0000E94B423D7CF64A575A586A597A529E033
:102BF00030E040E050E00E94E62149015A01F1E056
:102C00008F229924AA24BB24F80186819E012F5F7C
:102C10003F4F7901882309F440C0C80106966389B3
:102C2000662329F162892AE289288A288B2809F4F7
:102C300020E21F926F939F938F931F922F9389ECA3
:102C400096E09F938F931F9285E18F93FF92EF926F
:102C50000E94D8230FB6F894DEBF0FBECDBFA701E8
:102C600060E0C8010E947F0768E070E09ACF2AE226
:102C700089288A288B2809F420E29F938F931F923A
:102C80002F9389ED96E09F938F931F9285E18F9309
:102C9000FF92EF920E94D823DDCF8AE289288A280A
:102CA0008B2809F480E21F928F9382EE96E09F9327
:102CB0008F931F9285E18F93FF92EF920E94D8230A
:102CC000C9CF80A191A1A2A1B3A1A7019601281B00
:102CD000390B4A0B5B0BDA01C901803D9740A10516
:102CE000B10508F490CE848D882341F083E0F8018B
:102CF000858FC0A2D1A2E2A2F3A285CE82E0F7CF57
:102D0000873008F0B6CE28EC30E040E050E0843068
:102D100051F028E730E040E050E0853021F020E538
:102D200030E040E050E0C301B2010E94E62144E1FE
:102D300050E064E070E020FF02C060E270E0CE018D
:102D400001960E94A4231D8A38C0A4E1B0E0A3012B
:102D500092010E94082220E233E040E050E00E940D
:102D6000E621B22EA22E44E150E060E270E0CE01F6
:102D700001960E94A4231D8A2B2DF3E1FB1508F474
:102D800023E130E0E1E0F0E0EC0FFD1FE20FF31F84
:102D900084E08083AA2089F083E0FE01E20FF31F24
:102DA000808341E0A41649F08FEF9FEF8C0F9D1FA9
:102DB000280F391F81E0F9018083AE014F5F5F4F1B
:102DC00060E0C8010E947F077FC0A4E1B0E0A301DA
:102DD00092010E94082220E233E040E050E00E948D
:102DE000E621B22E44E150E060E270E0CE010196AF
:102DF0000E94A4231D8A2B2D243108F023E1E3E156
:102E0000E21B21E030E02C0F3D1F2E0F311DF90198
:102E100082E0D2CF480136E0830E911C6CE070E076
:102E2000C4010E94AA21813108F080E1A82EB12CB2
:102E300080E1282E312C2A183B083594279444E150
:102E400050E060E270E0CE0146960E94A4231AA6EC
:102E5000C301B20124E630E040E050E00E94E621E8
:102E600020FF3AC047E04BA7E6E1F0E0EC0FFD1F82
:102E7000E20DF31D8BA5808392E0290E311CA50184
:102E8000B40186E190E08C0F9D1F820D931D0E947E
:102E90009B23E1E0F0E0EC0FFD1FAE0EBF1E2A0CFD
:102EA0003B1C2BA5F101268BAE014A5E5F4F60E013
:102EB000C8010E947F0744E150E060E270E0CE016B
:102EC00001960E94A4231D8AAE014F5F5F4F61E00F
:102ED000C8010E947F07CDCD50E25BA7C5CFFF920E
:102EE0000F931F93CF93DF93EC01F62E0881198186
:102EF000C8010E94C021F81621F06F2DC8010E9460
:102F0000C821CE01DF91CF911F910F91FF900895BD
:102F1000CF92DF92EF92FF920F931F93CF93DF93A5
:102F20001F921F92CDB7DEB76B017C0110E000E06D
:102F3000F70161917F011A830983CE0101960E94F6
:102F40006F170F5F1F4F0233110591F71A83098323
:102F50006C2DCE0101960E946F1783E390E09A8357
:102F600089836D2DCE0101960E946F170F900F90EF
:102F7000DF91CF911F910F91FF90EF90DF90CF9055
:102F800008953F924F925F926F927F928F929F929D
:102F9000AF92BF92CF92DF92EF92FF920F931F9367
:102FA000CF93DF93CDB7DEB7C354D1090FB6F894F2
:102FB000DEBF0FBECDBFDA01DC90DD2009F420C2F8
:102FC0001196ED90FC90E114F10409F419C2290165
:102FD0008A016DE274E0C7010E94AB23892B09F0DE
:102FE000C3C0B2E0BD1570F4F8010581168101156A
:102FF000110541F06BEF76E0C8010E94AB23892BED
:1030000009F080C08091820A813009F078C08CEC90
:1030100098E01F9226E12F939F938F938FEF96E076
:103020009F938F931F9280E48F93CE0101967C0132
:103030009F938F930E94D823B701C2010E94610C15
:1030400021E9A22E22E0B22E36E5832E3AE0932E1D
:103050004CE6C42E4AE0D42E0FB6F894DEBF0FBE65
:10306000CDBF10E000E05AE1652E57E0752E60E418
:10307000362EF501819191915F01D4013D914D0171
:10308000F60121916F01009711F489EF96E01F92EC
:103090003F931F922F939F938F931F930F937F9232
:1030A0006F921F923F92FF92EF920E94D823B70136
:1030B000C2010E94610C0F5F1F4F0FB6F894DEBF74
:1030C0000FBECDBF06311105A1F681E0CD5BDF4F0C
:1030D0000FB6F894DEBF0FBECDBFDF91CF911F9129
:1030E0000F91FF90EF90DF90CF90BF90AF909F90A7
:1030F0008F907F906F905F904F903F9008958AEDF2
:1031000098E087CF62E377E0C8010E94AB23892B68
:1031100019F58091820A8130E1F48CEC98E09F935C
:103120008F9389E397E09F938F931F9288E28F9309
:103130008E010F5F1F4F1F930F930E94D823B8017A
:10314000C2010E94610C0FB6F894DEBF0FBECDBF66
:10315000BCCF8AED98E0E3CF47E457E061EC73E041
:10316000C2010E947D0AB1CF6DE074E0C7010E94E8
:10317000AB23892B09F044C1B2E0BD1530F4F8014E
:10318000E580F680E114F10419F44BED54E0E6CF4C
:1031900063E577E0C7010E94AB23892B09F071C07A
:1031A000F3E0DF1681F0D8011796ED90FC90B4E0C3
:1031B000DB1649F0F80101851285E114F10419F0DC
:1031C0000115110519F447E557E0C8CFBE016D5B45
:1031D0007F4FC7010E945B09811103C046E757E09A
:1031E000BDCF4AE050E0BE016F5B7F4FC8010E9437
:1031F000521F4B015C012396EEADFFAD23978081FA
:1032000047E857E08111AACF4AE957E0FFEF8F1650
:103210009104A104B10411F008F0A0CF2496DFAC12
:10322000249785E18D1508F4AAC08EEF880D8434AB
:1032300008F0A5C08E010F5F1F4FC8010E94B31A8E
:10324000ED2DF0E03396EE0FFF1FE00FF11F8082AF
:10325000C8010E94EE01BC01C8010E948817BF92FC
:10326000AF929F928F92FF92EF928BEA97E09F939B
:103270008F931F9280E48F931F930F930E94D82304
:103280005ECF60EE77E0C7010E94AB23892B09F087
:1032900079C0B3E0DB1681F0F801E780F084F4E058
:1032A000DF1651F0D80119960D911C91E114F1042B
:1032B00019F00115110519F445EE57E04FCFBE0185
:1032C0006D5B7F4FC7010E945B09882309F486CF9D
:1032D000F8018081803309F04BC081818F7D40E10E
:1032E00050E0883529F0823409F042C042E050E0D5
:1032F000BE016F5B7F4FC80102960E94521F4B01B7
:103300005C012396EEADFFAD2397808149E058E044
:10331000811124CF49E158E0FFEF8F169104A104F9
:10332000B10411F008F01ACF2496DFAC249785E1A0
:103330008D1528F18E010F5F1F4FC8010E94B31A2F
:10334000ED2DF0E03396EE0FFF1FE00FF11F8182AD
:10335000C8010E94EE01BC01C8010E948817BF92FB
:10336000AF929F928F92FF92EF928EE298E07FCF82
:103370004AE050E0BE016F5B7F4FC801BECF43ED16
:1033800057E0ECCE6BE578E0C7010E94AB23892BB8
:10339000A1F410E000E01A8309836FEFCE010196DB
:1033A0000E946F170F5F1F4F04331105A1F76AE6E4
:1033B00078E0C2010E94610C88CE6AE978E0C7011A
:1033C0000E94AB2341EA58E0892B09F0C7CE66E999
:1033D00078E0C2010E94610CD201ED91FC9106805F
:1033E000F781E02DC2011995F89488E198E00FB6B5
:1033F000F894A895809360000FBE90936000FFCF73
:1034000080E064CE1F920F920FB60F9211242F937B
:103410003F938F939F93AF93BF938091840A909132
:10342000850AA091860AB091870A3091830A23E029
:10343000230F2D3758F50196A11DB11D2093830A46
:103440008093840A9093850AA093860AB093870A92
:103450008091880A9091890AA0918A0AB0918B0A7A
:103460000196A11DB11D8093880A9093890AA093AB
:103470008A0AB0938B0ABF91AF919F918F913F9130
:103480002F910F900FBE0F901F90189526E8230FD5
:103490000296A11DB11DD2CF1F920F920FB60F92AF
:1034A00011240BB60F922F933F934F935F936F931B
:1034B0007F938F939F93AF93BF93EF93FF938CE88A
:1034C0009AE00E94DE03FF91EF91BF91AF919F912F
:1034D0008F917F916F915F914F913F912F910F90BD
:1034E0000BBE0F900FBE0F901F9018951F920F925A
:1034F0000FB60F9211240BB60F922F938F939F93B9
:10350000EF93FF93E0919C0AF0919D0A8081E091F6
:10351000A20AF091A30A82FD1DC090818091A50AA4
:103520008F5F8F732091A60A821741F0E091A50A60
:10353000F0E0E457F54F958F8093A50AFF91EF9146
:103540009F918F912F910F900BBE0F900FBE0F90F8
:103550001F9018958081F2CFFC01258D268F678FF3
:1035600065E00C94EC060F931F93CF93DF938C01CF
:10357000D0E0C0E0CE010E94C021F80181938F010C
:103580002196C233D105B1F7DF91CF911F910F91F1
:103590000895CF93DF93ACE8BAE013961C921E9285
:1035A000129748EE53E060E070E014964D935D93FF
:1035B0006D937C93179788E693E011969C938E9376
:1035C00085EC90E01D969C938E931C9784EC90E084
:1035D0001F969C938E931E9780EC90E051969C933F
:1035E0008E93509781EC90E053969C938E935297D4
:1035F00082EC90E055969C938E93549786EC90E0E5
:1036000057969C938E93569759961C9259975A9613
:103610001C925A975B961C925B975C961C925C97E7
:10362000E3E2FCE08CE893E0918380838FEF828378
:103630008383148215821682E9ECFBE08AE793E02B
:103640009183808313821282158214822FEC3BE0D7
:103650008CE0E90119928A95E9F7128A138A2DED17
:103660003BE088E0E90119928A95E9F7148E158EFE
:10367000168E178E10A211A212A213A214A215A2C6
:1036800016A217A210A611A612A613A614A615A676
:1036900016A617A610AA12AA11AAEEEAFBE08EE956
:1036A00093E0918380831382128280E4828FB093AF
:1036B0002A0BA093290B1092AC0B1092AB0B10921B
:1036C000AD0BDF91CF910895CF93DF93CDB7DEB7E8
:1036D000C159D1090FB6F894DEBF0FBECDBF7894A3
:1036E00084B5826084BD84B5816084BD85B5826007
:1036F00085BD85B5816085BD80916E0081608093B8
:103700006E00109281008091810082608093810020
:103710008091810081608093810080918000816030
:10372000809380008091B10084608093B10080918B
:10373000B00081608093B00080919100826080939E
:103740009100809191008160809391008091900020
:103750008160809390008091A10082608093A1009D
:103760008091A10081608093A1008091A000816080
:103770008093A0008091210182608093210180913B
:1037800021018160809321018091200181608093DB
:10379000200180917A00846080937A0080917A0081
:1037A000826080937A0080917A00816080937A00B1
:1037B00080917A00806880937A001092C10014B7DB
:1037C00014BE0FB6F894A89580916000886180932C
:1037D0006000109260000FBEE0919C0AF0919D0A7B
:1037E00082E08083E091980AF091990A1082E0913A
:1037F0009A0AF0919B0A80E180831092A40AE091DA
:10380000A00AF091A10A86E08083E0919E0AF091DF
:103810009F0A808180618083E0919E0AF0919F0AD7
:10382000808188608083E0919E0AF0919F0A808168
:1038300080688083E0919E0AF0919F0A80818F7D4D
:10384000808364E670E080E090E00E9425034DEA0A
:1038500058E013FD02C04CEB58E06CE978E08CE8CE
:103860009AE00E9499098E010F5F1F4F6801F12CA9
:10387000E12CC7010E94C021D6018D936D01BFEFDD
:10388000EB1AFB0AE2E3EE16F10499F782E390E00B
:103890000E94C021E82E83E390E00E94C021F82E10
:1038A00089819A81AB81BC8183349245A544BA4514
:1038B00089F58D81823071F58E81863159F5C80187
:1038C0000E94EE01E816F90629F59801245D3F4FA4
:1038D000F801868182508434E8F432962E173F072F
:1038E000C1F78CE69AE046E55AE0D80116962C918D
:1038F000DC012D93CD01D80117962C91DA012D937F
:10390000AD010E5F1F4F0E171F0779F781E08093FF
:10391000820A3AC086E1E0E4F3E0ACE6BAE0019066
:103920000D928A95E1F786E1EAE2F3E0A6E5BAE0D6
:1039300001900D928A95E1F783E4898382E58A8379
:1039400085E48B838AE58C8382E08D8386E18E8398
:1039500060E473E0F8018AE293E026E533E0DB01FE
:103960004D91BD014683DC014D91CD0147833296D7
:1039700026173707A1F7C8010E94EE01BC01C80154
:103980000E9488171092820A8091820A45EC58E0C2
:10399000813011F043ED58E061EC73E08CE89AE07F
:1039A0000E94990904E613E066E5662E63E0762E30
:1039B000F301819191913F01DC01ED91FC91008433
:1039C000F185E02D6CE87AE019950615170581F769
:1039D00083EE98E09F938F938FEE98E09F938F9361
:1039E00089EF98E09F938F931F9280E48F93E1E09B
:1039F000F0E0EC0FFD1FFF93EF930E94D823AE0180
:103A00004F5F5F4F6CE978E08CE89AE00E9499097B
:103A100088E19DE00FB6F894A895809360000FBEF2
:103A2000909360000FB6F894DEBF0FBECDBF8E013D
:103A30000F571F4F50E8252E312CA89581E1D80152
:103A40001D928A95E9F78091290B90912A0BDC0150
:103A5000ED91FC910084F185E02D19951816190659
:103A60000CF0A5C08091290B90912A0BDC01ED91FF
:103A7000FC910284F385E02D199597FD98C08A305A
:103A8000910509F0CFC09091AD0B992389F045E0E5
:103A900059E063E179E08091290B90912A0B0E9413
:103AA0007D0A1092AC0B1092AB0B1092AD0BCBCFEA
:103AB000E091AB0BF091AC0BE75DF44F1282F80193
:103AC00010822BE23BE0F90180812F5F3F4F803273
:103AD000D1F38930C1F38823C1F08332B1F080E0A3
:103AE000A82FB0E0AA0FBB1F1196AD01400F511FC8
:103AF0009081992309F493C0883008F475C0D801E7
:103B00008C9391E0811101C090E01092AC0B109267
:103B1000AB0B1092AD0B992309F495CFF801F0800F
:103B2000FF2009F429C1F80181819281009709F4ED
:103B300020C16DE274E00E94AB23892B09F019C10A
:103B4000F1E0FF1508F018C1D8011396ED90FC9034
:103B5000E114F10409F418C16CE179E0C7010E9495
:103B6000AB23892B09F07EC0E3EEF8E0FF93EF93DF
:103B70008FEE98E09F938F9384E299E09F938F93C9
:103B80001F9280E48F93E1E0F0E0EC0FFD1FFF93C4
:103B9000EF930E94D823BE016F5F7F4F8CE89AE0BD
:103BA0000E94610C0FB6F894DEBF0FBECDBF0E941D
:103BB00057034B015C0186E5E82E83E0F82ED70120
:103BC0008D919D917D01DC01ED91FC910284F38545
:103BD000E02D2CE83AE0B501A40119956E147F049C
:103BE00071F70E946D0429CF8F5FDA01ED93FD9389
:103BF000AD019F01F901D9019D919D01992309F41E
:103C000077CF903211F09930A9F71082F901D901DC
:103C10009D919D019032D1F39930C1F361CFF801AC
:103C200080836FCF8D30910509F40DCF2091AD0BBE
:103C3000211109CF2091AB0B3091AC0BA9014F5F43
:103C40005F4F4038510520F0F1E0F093AD0BFBCE13
:103C50005093AC0B4093AB0B275D344FD9011296B8
:103C60008C93F1CE62E379E0C7010E94AB23892BEC
:103C700009F08AC062E379E0CE0101960E94B42384
:103C800026E5822E23E0922E34E0E32EF12CD4019F
:103C9000CD90DD904D01D601ED91FC910480F58130
:103CA000E02DC6011995582E492ED601ED91FC91B3
:103CB0000680F781E02DC6011995823070F18150A0
:103CC000C82ED12CB12CA12CBF92AF924F925F92F3
:103CD000E7E3F9E0FF93EF93C1018E199F099F93EA
:103CE0008F9381E090E08C0F9D1F8E0D9F1D9F9301
:103CF0008F930E94D823E80EF91E0FB6F894DEBF0A
:103D00000FBECDBFCA14DB0421F19FEFA91AB90A77
:103D1000A0E8EA16F104C4F224C04F925F92E3E4F3
:103D2000F7E0FF93EF93C1018E199F099F938F9343
:103D300081E090E08C0F9D1F8E0D9F1D9F938F93B0
:103D40000E94D823E80EF91E0FB6F894DEBF0FBE0E
:103D5000CDBF8614970429F090E8E916F1040CF41D
:103D600096CFBE016F5F7F4F8CE89AE00E94610C96
:103D70001ECF91E09F1540F0D8018C91823008F061
:103D800083C069EF76E087C0F801A380B480A114F6
:103D9000B10491F396E5892E93E0992ED401CD904C
:103DA000DD904D01D601ED91FC910480F581E02D6F
:103DB000C6011995BC01FC0101900020E9F731977B
:103DC0007F01E81AF90AA701C5010E94BB23892BCC
:103DD00009F053C0F501EE0DFF1D8081882309F421
:103DE00051C08E3209F049C0C70101968A0D9B1D52
:103DF000FC01208121111FC060E0D12CC12CC11415
:103E0000D10409F4B9CFD601ED91FC910484F58574
:103E1000E02D2CE83AE0A801C60119958111C7CE22
:103E2000F801808170E060E0823010F0638174817D
:103E30004DE459E032C04AE050E0BE016F5F7F4F71
:103E40000E94521F4B015C01E981FA81808181113E
:103E5000D3CFB7FCD1CFD601ED91FC910680F7818D
:103E6000E02DC601199590E0B0E0A0E0682D88161D
:103E70009906AA06BB061CF2BFCF6814790409F0A4
:103E80008DCF7ACF60E0BBCFF8016381748161157B
:103E9000710509F476CF4EE359E08CE89AE00E9470
:103EA0007D0A85CE3F924F925F926F927F928F9262
:103EB0009F92AF92BF92CF92DF92EF92FF920F93B9
:103EC0001F93CF93DF935C016B017A01611571053C
:103ED00019F0FB0191838083E114F10451F0C701D3
:103EE0000297839730F040E030E020E090E06BC034
:103EF0005E01E5012196F5011081812F90E00E947D
:103F0000A121892BA9F71D3201F52196F501118117
:103F100001E0E114F10409F4E6C0F0E1EF16F10468
:103F200009F088C0103359F488818F7D883509F0F5
:103F30007CC0198122960260F0E1EF2EF12C812CD9
:103F4000912CA12C88E0B82E92C01B3221F4E501FF
:103F50002296F501118100E0DCCFEAE0EE16F104D3
:103F600009F4C7C0F0E1EF16F10409F073C0E7CF20
:103F700078E0E72EF12C812C912CA12C60E1B62E5B
:103F800076C021E0ADC0302F3170C114D10431F0C2
:103F9000222371F12197F601D183C08327FF2EC020
:103FA00060E070E080E090E8311104C06FEF7FEFD7
:103FB0008FEF9FE722E230E030932B0C20932A0C06
:103FC000462F372F282F642F732F822FDF91CF9109
:103FD0001F910F91FF90EF90DF90CF90BF90AF9027
:103FE0009F908F907F906F905F904F903F9008953B
:103FF00001FF04C02297F601D183C083332341F02F
:1040000090958095709561957F4F8F4F9F4FD8CF3A
:1040100097FFD6CF82E290E090932B0C80932A0CEE
:104020006FEF7FEF8FEF9FE7CBCF10E3E114F10449
:1040300009F49ECF28E0E216F10409F49CCF0CF0BD
:104040008CCF812C912CA12CE0E4BE2E82E0E816CE
:10405000F10469F060E070E080E090E897010F2CD7
:10406000000C440B550B0E94E62149015A0120E047
:1040700060E070E0CB0127010F2C000C6608770888
:10408000FE0150ED352E310E39E0331570F43FEB63
:10409000310F49EC342E3A3138F03FE9310F3A31E3
:1040A00008F071CF39EA332E310E3E141F040CF0A4
:1040B0006ACF27FD15C086169706A806B90678F0C0
:1040C000A30192010E94D621630D711D811D911DD6
:1040D00061307105810520E8920708F452CF2FEF77
:1040E00021961081CDCF103309F41ECF2AE0E22EA5
:1040F000F12C9CEC892E982CA82C9CE0B92EB7CFE3
:104100003F924F925F926F927F928F929F92AF9267
:10411000BF92CF92DF92EF92FF920F931F93CF93B4
:10412000DF935C016B017A016115710519F0FB01E8
:1041300091838083E114F10449F0C70102978397CA
:1041400028F060E070E0CB019BC05E01E5012196A4
:10415000F5011081812F90E00E94A121892BA9F700
:104160001D3209F05CC02196F501118101E0E114D6
:10417000F10409F4BBC0F0E1EF16F10409F09BC0B3
:10418000103341F488818F7D883509F08FC0198103
:1041900022960260E0E1EE2EF12C88248A94982C7D
:1041A000A82CFFE0BF2E20E060E070E0CB012701EB
:1041B0000F2C000C66087708FE0150ED352E310EED
:1041C00039E0331568F43FEB310F49EC342E3A31C6
:1041D00030F03FE9310F3A31B0F539EA332E310E84
:1041E0003E141F0484F52F3FB9F086169706A806E3
:1041F000B90638F1A30192010E94D621232D30E0A7
:1042000050E040E0620F731F841F951F6217730711
:1042100084079507B0F021E021961081CDCF1B32A5
:1042200021F4E5012296F501118100E0A0CF78E0AC
:10423000E72EF12C88248A94982CA82C6FE1B62EB6
:10424000B2CF2FEFE9CFC114D10431F0222351F1C5
:104250002197F601D183C08300FF07C09095809518
:10426000709561957F4F8F4F9F4F2F3F49F482E2AA
:1042700090E090932B0C80932A0C6FEF7FEFCB0193
:10428000DF91CF911F910F91FF90EF90DF90CF9032
:10429000BF90AF909F908F907F906F905F904F9066
:1042A0003F90089501FFD8CF2297D3CF10E3E114B8
:1042B000F10409F4BCCF3AE0E316F104E9F080E13F
:1042C000E816F10409F466CFE8E0EE16F10409F40B
:1042D000B1CF6FEF7FEFCB0197010F2C000C440B98
:1042E000550B0E94E62149015A015DCF103309F4B4
:1042F00049CF9AE0E92EF12C89E9882E982CA82C38
:1043000089E1B82E50CFFC0188279927E8942191A4
:104310002032E9F3293010F02E30C8F32B3241F06F
:104320002D3239F4689404C00E94B521820F911D8A
:10433000219120532A30C0F31EF4909581959F4F10
:10434000089591110C94BD21803219F08950855047
:10435000C8F70895FC016150704001900110D8F732
:10436000809590958E0F9F1F08957AE0979F902DCE
:10437000879F802D910D11240895992788270895EE
:10438000F999FECF92BD81BDF89A992780B508951D
:10439000262FF999FECF1FBA92BD81BD20BD0FB661
:1043A000F894FA9AF99A0FBE01960895DB018F935B
:1043B0009F930E940822BF91AF91A29F800D911DF3
:1043C000A39F900DB29F900D11240895A1E21A2E83
:1043D000AA1BBB1BFD010DC0AA1FBB1FEE1FFF1FA9
:1043E000A217B307E407F50720F0A21BB30BE40BF9
:1043F000F50B661F771F881F991F1A9469F7609540
:104400007095809590959B01AC01BD01CF010895F9
:104410000E941322A59F900DB49F900DA49F800D24
:10442000911D11240895A29FB001B39FC001A39FC5
:10443000700D811D1124911DB29F700D811D1124DD
:10444000911D0895AA1BBB1B51E107C0AA1FBB1FEA
:10445000A617B70710F0A61BB70B881F991F5A9510
:10446000A9F780959095BC01CD01089597FB072E83
:1044700016F4009407D077FD09D00E94222207FC91
:1044800005D03EF4909581959F4F08957095619564
:104490007F4F0895052E97FB1EF400940E94612221
:1044A00057FD07D00E94E62107FC03D04EF40C9480
:1044B000612250954095309521953F4F4F4F5F4F6A
:1044C000089590958095709561957F4F8F4F9F4F80
:1044D0000895EE0FFF1F881F8BBF0790F691E02D08
:1044E00019940F931F93CF93DF938230910510F4AB
:1044F00082E090E0E0912E0CF0912F0C30E020E073
:10450000B0E0A0E0309799F42115310509F44AC0D4
:10451000281B390B24303105D8F58A819B81611520
:10452000710589F1FB0193838283FE0111C04081F3
:1045300051810281138148175907E0F04817590744
:1045400099F4109761F012960C93129713961C939E
:104550003296CF01DF91CF911F910F910895009373
:104560002E0C10932F0CF4CF2115310551F042176A
:10457000530738F0A901DB019A01BD01DF01F80101
:10458000C1CFEF01F9CF90932F0C80932E0CCDCF9C
:10459000FE01E20FF31F8193919322503109398379
:1045A0002883D7CF20912C0C30912D0C232B41F454
:1045B000209145023091460230932D0C20932C0C13
:1045C00020914302309144022115310541F42DB769
:1045D0003EB74091470250914802241B350BE091B1
:1045E0002C0CF0912D0CE217F307A0F42E1B3F0BBF
:1045F0002817390778F0AC014E5F5F4F2417350755
:1046000048F04E0F5F1F50932D0C40932C0C81935C
:1046100091939FCFF0E0E0E09CCFCF93DF930097A2
:10462000E9F0FC01329713821282A0912E0CB09116
:104630002F0CED0130E020E01097A1F420813181B2
:10464000820F931F20912C0C30912D0C28173907C5
:1046500009F061C0F0932D0CE0932C0CDF91CF9109
:104660000895EA01CE17DF07E8F54A815B819E01D4
:1046700041155105B1F7E901FB83EA83499159914D
:10468000C40FD51FEC17FD0761F48081918102965C
:10469000840F951FE90199838883828193819B838D
:1046A0008A83F0E0E0E012968D919C911397009739
:1046B000B9F52D913C911197CD010296820F931F70
:1046C00020912C0C30912D0C2817390739F6309792
:1046D00051F510922F0C10922E0CB0932D0CA0932C
:1046E0002C0CBCCFD383C28340815181840F951F92
:1046F000C817D90761F44E5F5F4F88819981480FD1
:10470000591F518340838A819B8193838283211522
:10471000310509F0B0CFF0932F0CE0932E0C9ECF13
:10472000FD01DC01C0CF13821282D7CF81E090E07F
:10473000F8940C94B026FB01DC0102C001900D92AC
:1047400041505040D8F70895DC0101C06D934150AD
:104750005040E0F70895FB01DC018D910190801934
:104760000110D9F3990B0895FB01DC0101900D9222
:104770000020E1F70895FB01DC014150504030F08A
:104780008D910190801919F40020B9F7881B990BBD
:104790000895FB01DC014150504048F001900D921A
:1047A0000020C9F701C01D9241505040E0F7089524
:1047B0000F931F93CF93DF93CDB7DEB72E970FB62E
:1047C000F894DEBF0FBECDBF0E891F89888D998DED
:1047D00026E02C831A83098397FF02C080E090E8CB
:1047E00001979E838D83AE01445E5F4F6A8D7B8D02
:1047F000CE0101960E9415244D815E8157FD0AC0AD
:104800002F813885421753070CF49A01020F131FAA
:10481000F80110822E960FB6F894DEBF0FBECDBF02
:10482000DF91CF911F910F9108952F923F924F9258
:104830005F926F927F928F929F92AF92BF92CF9230
:10484000DF92EF92FF920F931F93CF93DF9300D0ED
:1048500000D000D01F921F92CDB7DEB77C013B0184
:104860008A01FC0117821682838181FFDDC1CE019E
:1048700001965C01F7019381F30193FD859193FF0C
:1048800081913F01882309F453C1853239F493FDA6
:10489000859193FF81913F01853229F4B70190E022
:1048A0000E942226E7CF912C212C312CFFE1F31519
:1048B00038F08B3211F190F4803209F1833229F112
:1048C00037FC3CC020ED280F2A3050F536FE20C0C2
:1048D0008AE0989E200D1124922E06C08D3291F010
:1048E000803371F7689430F8F30193FD859193FF5D
:1048F00081913F018111DACF21C0689431F8689429
:1049000032F8F2CF689433F8EFCF689434F8ECCFF4
:10491000EAE02E9E200D1124222E689435F8E4CF73
:104920008E3229F436FC04C1689436F8DDCF8C361B
:1049300019F4689437F8D8CF8836B1F2982F9F7D54
:1049400095549330E0F08336A1F18337C1F183357C
:1049500009F063C02801F2E04F0E511CF801C0803D
:10496000D180692D70E036FC02C06FEF7FEFC60189
:104970000E9417264C01689437F882010AC00C5F28
:104980001F4FFFE3F98388248394912C6501E894F9
:1049900037F833FE2DC0522C8114910471F5552047
:1049A00009F468CFB70180E290E00E9422265A9471
:1049B000F6CFF801808189830E5F1F4FE4CF280175
:1049C000F2E04F0E511CF801C080D180692D70E0DB
:1049D00036FC02C06FEF7FEFC6010E94AA214C0196
:1049E0008201D5CFB70180E290E00E9422262A946E
:1049F0002814190409F0B0F7CECFF60137FC8591E1
:104A000037FE81916F01B70190E00E94222651107C
:104A10005A94F1E08F1A9108BFCF843619F0893685
:104A200009F077C0F80137FE6BC060817181828127
:104A300093810C5F1F4FF32DFF763F2E97FF09C028
:104A400090958095709561957F4F8F4F9F4F68949B
:104A500037F82AE030E0A5010E945226C82ECA1875
:104A60008C2C432C36FE0CC0E89440F8C91440F45A
:104A700034FE05C032FC03C0F32DFE7E4F2E892C80
:104A800044FEAAC0FE01EC0DF11D8081803309F0C7
:104A90009CC0242D297E422E842D8870582E43FCE4
:104AA000AAC040FEA4C09C2C821418F42C0C922C9A
:104AB000981844FEA6C0B70180E390E00E94222629
:104AC00042FE09C088E790E041FE02C088E590E020
:104AD000B7010E942226C91408F49FC0CA94D12CA1
:104AE0009FEFC91AD90ACA0CDB1CF60182916F012B
:104AF000B70190E00E942226AC14BD04B1F74FCF5D
:104B000060817181072E000C880B990B0E5F1F4F7F
:104B100092CFD32CE894D4F82AE030E08537E1F145
:104B2000232D297FD22E8F36A9F1F0F4883551F14B
:104B3000F701868197812B960FB6F894DEBF0FBEE2
:104B4000CDBFDF91CF911F910F91FF90EF90DF903C
:104B5000CF90BF90AF909F908F907F906F905F901D
:104B60004F903F902F900895803749F0883701F794
:104B7000D4FE02C06894D2F820E130E00DC0689401
:104B8000D4F8F6CF34FE03C0822F8660D82E20E101
:104B900032E002C028E030E0F801D7FE0FC06081AB
:104BA0007181828193810C5F1F4FA5010E94522663
:104BB000C82ECA183D2CE89437F852CF6081718115
:104BC00090E080E00E5F1F4FF0CF42FC02C0839464
:104BD00063CF8394839460CF842D867809F45CCF6F
:104BE000F6CFB70180E290E00E94222683948214DF
:104BF000C0F3512C5ECF522C5818821408F459CFB0
:104C0000F8CF842D867809F466CF8BE241FE80E2EE
:104C100047FC8DE2B70190E05CCFB70180E390E004
:104C20000E9422269A9457CF8FEF9FEF84CFFC01EA
:104C30000590615070400110D8F7809590958E0FC7
:104C40009F1F08950F931F93CF93DF93182F092F62
:104C5000EB018B8181FD09C01FEF0FEF812F902F9A
:104C6000DF91CF911F910F91089582FF14C02E8183
:104C70003F818C819D81281739073CF4E881F981B7
:104C8000CF0101969983888310838E819F8101963D
:104C90009F838E83E3CFE885F985812F1995892B32
:104CA000A1F3DACFFA01AA27283051F1203181F19E
:104CB000E8946F936E7F6E5F7F4F8F4F9F4FAF4F24
:104CC000B1E03ED0B4E03CD0670F781F891F9A1F37
:104CD000A11D680F791F8A1F911DA11D6A0F711DEB
:104CE000811D911DA11D20D009F468943F912AE0F7
:104CF000269F11243019305D3193DEF6CF010895DF
:104D0000462F4770405D4193B3E00FD0C9F7F6CF0F
:104D1000462F4F70405D4A3318F0495D31FD4052D7
:104D2000419302D0A9F7EACFB4E0A695979587956D
:104D300077956795BA95C9F700976105710508954C
:104D40009B01AC010A2E06945795479537952795F8
:104D5000BA95C9F7620F731F841F951FA01D089590
:044D6000F894FFCFF5
:104D64004D02FFFFFFFF00000000000000005F0293
:104D7400FFFFFFFF00000000000000007102FF01C0
:104D84000100000000FF010100000000FF0101001C
:104D9400000000FF010100000000FF01010000000D
:104DA4000083020000300C8000000000003809FF7E
:104DB400114809460922085909770C0000000038F7
:104DC4000901124E094609DF085909E30D000000E4
:104DD4000039090312560954091109EF099E0E00FE
:104DE4000000003A09051251093E095A095909C13E
:104DF400175D09710983098B0993099B09A309AB01
:104E040009B309BC09C509CE09D709E009E609ECCB
:104E140009F209F809000A080A100A180A090445DF
:104E24000451045D0467040000000091066A03E96C
:104E3400061009E906E606FF0EE306E30600000095
:104E44000091066A03E90610094A07C41065102197
:104E540007E306667720302E322E302D68616C20F1
:104E64006177616974696E67005A45524F545820DE
:104E740056464420202020202020202020008E057B
:104E840095059A055B06200A250A0000000000002B
:104E9400000000000000000000000000000000000E
:104EA40008091E1F20212223262728292A2C2D2EDB
:104EB4002F31161718194102230CC90B1C020E02BC
:104EC4000002AE0B0000000000046A0397034D04C7
:104ED400C803A603BA03000000003C0909124309F1
:104EE4003E09A00A9B140B12000000003B090712A4
:104EF4004B093E09C0095208320D000000003D096B
:104F0400FD1140093E096D115909380F7773007678
:104F14006664006C65642E747261636B62616C6CB0
:104F24000068616C00627574746F6E004556454E7E
:104F3400542000726561647900757000646F776E47
:104F440000627574746F6E2E257500212000696EE1
:104F540069742D6661696C65642072633D25640023
:104F64007666642E30003E20006F6666005345541A
:104F7400006D697373696E672D737461746500697C
:104F84006E76616C69642D73746174650047455471
:104F94000072656C61792E257520257300756E6B22
:104FA4006E6F776E00677265656E2D736F6C6964E2
:104FB40000677265656E2D70756C7365007265644B
:104FC4002D736F6C6964007265642D626C696E6B1D
:104FD400006C65642E747261636B62616C6C202575
:104FE40073006C65642E25752025730072656C65ED
:104FF40061736564007072657373656400627574CF
:10500400746F6E2E2575202573006E6F742D696E76
:10501400697469616C697A65640077732E3000770E
:10502400732E3020636F756E743D2575206272692E
:105034006768746E6573733D2575006D6973736974
:105044006E672D706172616D00706978656C0075B2
:10505400736167653A7365742077732E30207069C5
:1050640078656C203C693E203C7272676762623EE0
:1050740000696E6465782D6F75742D6F662D72618D
:105084006E676500696E76616C69642D636F6C6F21
:1050940072006D697373696E672D636F6C6F720054
:1050A4006D697373696E672D6272696768746E6582
:1050B4007373006272696768746E6573732D6F75BC
:1050C400742D6F662D72616E676500636C65617225
:1050D40000756E6B6E6F776E2D706172616D002D51
:1050E400006D697373696E672D6D6F64650062612D
:1050F4006E6E65720069646C6500616D6269656EEF
:105104007400696E76616C69642D6D6F6465006D01
:10511400697373696E672D6C6576656C00696E766C
:10512400616C69642D6C6576656C006C696E6500F4
:105134006D697373696E672D726F7700696E76613E
:105144006C69642D726F77007469636B006D6973A9
:1051540073696E672D61726D2D7374617465006D72
:10516400697373696E672D666D6D6F6465006D6933
:105174007373696E672D6C71006D697373696E6703
:105184002D62617474006D697373696E672D6B6948
:105194006E64007761726E00637269746963616C36
:1051A400006661696C7361666500696E76616C693D
:1051B400642D616C61726D0064697361726D656404
:1051C400007666642E30206D6F64653D2573206122
:1051D400726D65643D256420666D6D6F64653D2563
:1051E40073206C713D2573257520626174743D25AF
:1051F4007300252D313273204C513A253375002527
:105204002D323073005A45524F545820202020200C
:10521400252D3773005A45524F5458202020202002
:10522400202020202020202000256320252D31301F
:1052340073204C513A25337500256320252D3138D0
:10524400730025632041524D454420202020202016
:105254002020202020202020003F006D6170006865
:10526400616C206D617020736F757263653D257389
:1052740020636F756E743D25750068616C207069DC
:105284006E20257520257320257520307825303231
:105294007800736F757263650068616C20736F7555
:1052A40072636520257300756E6B6E6F776E2D6764
:1052B40065740070696E0075736167653A7365742F
:1052C4002068616C2070696E203C6E616D653E20C3
:1052D4003C6E756D3E00756E6B6E6F776E2D7069EA
:1052E4006E2D6E616D6500696E76616C69642D70FA
:1052F400696E2D6E756D6265720070696E2D6F75C5
:10530400742D6F662D72616E67650068616C207321
:1053140074616765642070696E20257320256C6450
:1053240020287265626F6F7420746F206170706CD6
:1053340079290073746167652D6661696C65640021
:10534400666C61670075736167653A73657420689C
:10535400616C20666C6167203C6E616D653E203C2B
:105364006269746D61736B3E00696E76616C696429
:105374002D6269746D61736B006269746D61736B26
:105384002D6F75742D6F662D72616E67650068618F
:105394006C2073746167656420666C616720257393
:1053A4002030782530326C7820287265626F6F74F3
:1053B40020746F206170706C792900726573657454
:1053C4002D64656661756C74730068616C20726528
:1053D4007365742D64656661756C74732073746190
:1053E40067656420287265626F6F7420746F206132
:1053F40070706C79290068616C207265626F6F74DB
:1054040000756E6B6E6F776E2D73657400776174C3
:105414006368646F672D726573657400706F776578
:10542400722D6F6E006C6F616465642D65657072BA
:105434006F6D006C6F616465642D64656661756C85
:10544400747300302E352E302D72656C6179007ABC
:1054540065726F74782D696F0072656164792025B7
:1054640073202573006C696E652D746F6F2D6C6FDE
:105474006E670070726F746F636F6C007665727321
:10548400696F6E0076657273696F6E2025732025CF
:10549400730063617073002025732E257500756E8B
:1054A4006B6E6F776E2D74617267657400756E6BC9
:1054B4006E6F776E2D636F6D6D616E64006C6564E5
:1054C4005F747261636B62616C6C5F677265656E59
:1054D400006C65645F747261636B62616C6C5F72B3
:1054E400656400766664305F727300766664305F6C
:1054F400656E00766664305F643400766664305F9F
:10550400643500766664305F643600766664305FC6
:10551400643700627574746F6E5F30006275747402
:105524006F6E5F3100627574746F6E5F3200627506
:1055340074746F6E5F3300627574746F6E5F3400E1
:105544006C65645F30006C65645F31006C65645F3A
:1055540032006C65645F330077735F64617461006B
:1055640072656C61795F300072656C61795F3100DE
:1055740072656C61795F320072656C61795F3300CA
:0C55840074657874006576656E74000034
:00000001FF
