:100000000C9436010C9467010C9467010C94670101
:100010000C9467010C9467010C9467010C946701C0
:100020000C9467010C9467010C9467010C946701B0
:100030000C9467010C9467010C9467010C946701A0
:100040000C9467010C9467010C9467010C94670190
:100050000C9467010C9467010C9467010C944F0594
:100060000C9467010C94C3050C9499050C946701DA
:100070000C9467010C9467010C9467010C94670160
:100080000C9467010C9467010C9467010C94670150
:100090000C9467010C9467010C9467010C94670140
:1000A0000C9467010C9467010C9467010C94670130
:1000B0000C9467010C9467010C9467010C94670120
:1000C0000C9467010C9467010C9467010C94670110
:1000D0000C9467010C9467010C9467010C94670100
:1000E0000C9467010C94D6020C94DE010C949002DF
:1000F0000C9440020C9400020C949C040C94EE01AD
:100100000C940A020C944D050C9405040C94D70130
:100110000C9402040C949E020C94FC010C947C023E
:100120000C94E4010C946D020C940E020C944304A4
:100130000C9401040C94D3010C94BD010C94F201B5
:100140000C94F6010C94DB010C94FF030C94E80171
:100150000C94F9050C94B8010C94CF010C94230372
:100160000C94040200000A0B02090C0D0E08070390
:10017000040100000000000000000000000000007A
:10018000000000000000000000000000000000006F
:10019000121110000000000000000000000000002C
:1001A0000000000000000000000000002200250008
:1001B00028002B002E003100340002010000050150
:1001C00008010B0100002100240027002A002D0057
:1001D0003000330001010000040107010A01050598
:1001E0000505070508080808020202020A0A0808AD
:1001F00004040404010101010101010103030303DB
:1002000003030303040707070C0C0C0C0C0C0C0C69
:100210000202020206060606060606060B0B0B0B7A
:100220000B0B0B0B0102102020080810204010209F
:1002300040800201020108040201010204081020AA
:1002400040808040201008040201800402018040A8
:100250002010080402010804020101020408102011
:1002600040800102040810204080F90511241FBEBF
:10027000CFEFD1E2DEBFCDBF00E00CBF24E0AEE4A3
:10028000B3E001C01D92A438B207E1F713E0A0E08B
:10029000B2E0E6E6FDE100E00BBF02C007900D9280
:1002A000AE34B107D9F711E0C6E3D1E000E006C0F3
:1002B00021970109802FFE010E94830AC533D107CF
:1002C00080E00807A9F70E9441060C94B10E0C9437
:1002D000000090E0FC01EC5DFD4F249182529E4FA6
:1002E000FC018491882399F090E0880F991FFC010C
:1002F000EC53FE4FA591B491FC01E655FE4F85915C
:1003000094918FB7F894EC91E22BEC938FBF089502
:10031000282F30E0F901EC59FE4F9491F901EC5D82
:10032000FD4F449122523E4FF9012491222309F4BA
:1003300035C0992311F191509231F8F4E92FF0E092
:100340008827EA55FE4F8F4F0C94830AD701DB01B3
:10035000B801CF01D301BD01DE01E401E801EE01E6
:10036000F201F601FC010002BD0104020A020E02C4
:10037000809180008F7780938000E22FF0E0EE0F75
:10038000FF1FE655FE4FA591B4918FB7F894EC91FD
:10039000611148C040954E234C938FBF08958091C2
:1003A00080008F7DE8CF80918000877FE4CF84B587
:1003B0008F7784BDE2CF84B58F7DFBCF8091B00075
:1003C0008F778093B000D9CF8091B0008F7DF9CF27
:1003D000809190008F7780939000CFCF8091900094
:1003E0008F7DF9CF80919000877FF5CF8091A0001D
:1003F0008F778093A000C1CF8091A0008F7DF9CF2F
:100400008091A000877FF5CF809120018F77809326
:100410002001B3CF809120018F7DF9CF8091200101
:10042000877FF5CF4E2BB8CF3FB7F8948091530319
:1004300090915403A0915503B091560326B5A89B03
:1004400005C02F3F19F00196A11DB11D3FBFBA2F66
:10045000A92F982F8827BC01CD01620F711D811D26
:10046000911D42E0660F771F881F991F4A95D1F7AB
:100470000895DC01ED91FC910190F081E02D19943B
:10048000AF92BF92CF92DF92EF92FF920F931F93A2
:10049000CF93DF936C017B018B01040F151FEB01E0
:1004A0005E01AE18BF08C017D10759F06991D60197
:1004B000ED91FC910190F081E02DC6011995892BF9
:1004C00079F7C501DF91CF911F910F91FF90EF90C8
:1004D000DF90CF90BF90AF900895FC01538D448D75
:1004E000252F30E0842F90E0821B930B541710F0DF
:1004F000CF96089501970895FC01918D828D9817EC
:1005000061F0A28DAE0FBF2FB11D5D968C91928DC3
:100510009F5F9F73928F90E008958FEF9FEF0895F4
:10052000FC01918D828D981731F0828DE80FF11DBD
:10053000858D90E008958FEF9FEF0895FC01918DD8
:10054000228D892F90E0805C9F4F821B91098F73D1
:100550009927089587E593E00E949E0221E0892B68
:1005600009F420E0822F0895FC01A48DA80FB92F73
:10057000B11DA35ABF4F2C91848D90E001968F73CB
:100580009927848FA689B7892C93A089B1898C91EA
:10059000837080648C93938D848D981306C0028839
:1005A000F389E02D80818F7D80830895EF92FF9203
:1005B0000F931F93CF93DF93EC0181E0888F9B8D86
:1005C0008C8D98131AC0E889F989808185FF15C040
:1005D0009FB7F894EE89FF896083E889F989808163
:1005E0008370806480839FBF81E090E0DF91CF9132
:1005F0001F910F91FF90EF900895F62E0B8D10E054
:100600000F5F1F4F0F731127E02E8C8D8E110CC0C2
:100610000FB607FCFACFE889F989808185FFF5CF0D
:10062000CE010E94B402F1CFEB8DEC0FFD2FF11D36
:10063000E35AFF4FF0829FB7F8940B8FEA89FB894A
:1006400080818062CFCFCF93DF93EC01888D8823A8
:10065000B9F0AA89BB89E889F9898C9185FD03C025
:10066000808186FD0DC00FB607FCF7CF8C9185FF0A
:10067000F2CF808185FFEDCFCE010E94B402E9CF99
:10068000DF91CF91089580E090E0892B29F00E94BE
:10069000AA0281110E94000080E090E0892B49F0BD
:1006A00080E090E0892B29F00E94000081110E94D7
:1006B000000080E090E0892B49F080E090E0892BF9
:1006C00029F00E94000081110E94000080E090E06B
:1006D000892B49F080E090E0892B29F00E940000EE
:1006E00081110C9400000895CF92DF92EF92FF9257
:1006F0001F93CF93DF93EC016A017B018C818230E1
:10070000C9F168F4882339F161E0813029F1DF9182
:10071000CF911F91FF90EF90DF90CF90089583309D
:1007200009F467C0843099F760E08A810E948801EB
:10073000C701B60126E930E040E050E00E94330AEC
:10074000CA01B90160957095809590956170772781
:100750008827992705C060E08A810E94880160E0AF
:100760008B81DF91CF911F91FF90EF90DF90CF9021
:100770000C948801CB01BA0120ED37E040E050E055
:100780000E94330A9B01AC01283E63E0360730F536
:10079000AFEFB0E00E94550A28EE33E040E050E0B1
:1007A0000E94330A122FC701B60124E130E040E075
:1007B00050E00E94330A2FEF269FA001279F500D83
:1007C0001124CA0164E170E00E946F0A81E01617EB
:1007D000170609F008F480E0682FBECF80ED97E09F
:1007E000BC01621B730B9B01AFEFB0E00E94600A7B
:1007F000D3CF60E08A810E94880161E0B1CF0C9480
:100800007403089584E392E0089581E008956115EA
:10081000710579F0FB0101900020E9F73197AF01F4
:10082000461B570BDC01ED91FC910280F381E02D1A
:10083000199490E080E00895EF92FF920F931F9338
:10084000CF93DF93EC017B018A0162E472E00E94A6
:100850000704B701CE010E940704F80180818823B4
:1008600041F060E2CE010E943902B801CE010E943F
:1008700007046AE0CE01DF91CF911F910F91FF90A5
:10088000EF900C9439020F931F93CF93DF93EC01F9
:100890008B018A810E9469018B810E94690160E05D
:1008A0008A810E94880160E08B810E9488011C82FD
:1008B00049E452E064E372E0C801DF91CF911F91F7
:1008C0000F910C941C04EF92FF920F931F93CF9300
:1008D000DF93EC017B018A016FE472E00E94070460
:1008E000B701CE010E94070460E2CE010E943902E6
:1008F000B801CE010E9407046AE0CE01DF91CF91DA
:100900001F910F91FF90EF900C9439020F931F935A
:10091000CF93DF93EC018B0162E572E00E94070444
:10092000B801CE010E9407046AE0CE01DF91CF91A9
:100930001F910F910C9439029F92AF92BF92CF9268
:10094000DF92EF92FF920F931F93CF93DF93CDB778
:10095000DEB7A8970FB6F894DEBF0FBECDBFDA01A1
:100960009C90992009F497C01196AD90BC90A11469
:10097000B10409F490C089017A016C016DE572E05F
:10098000C5010E94B00B892B09F056C0B2E0B91521
:1009900030F4F701E580F680E114F104D1F441E68A
:1009A00052E064E372E0C8010E94630481E0A8960B
:1009B0000FB6F894DEBF0FBECDBFDF91CF911F9170
:1009C0000F91FF90EF90DF90CF90BF90AF909F90EE
:1009D00008956FE672E0C7010E94B00B892BF9F011
:1009E00063E772E0C7010E94B00B892BE9F06FE763
:1009F00072E0C7010E94B00B892BC1F06BE872E076
:100A0000C7010E94B00B892B99F065E972E0C7011C
:100A10000E94B00B892B71F04FE952E0C2CF90E0F9
:100A2000D60114969C93C2CF91E0FACF92E0F8CF12
:100A300093E0F6CF94E0F4CF6DEA72E0C5010E9436
:100A4000B00B892B41F5D6011496EC9185E592E027
:100A5000E53038F4F0E0EE0FFF1FEA5FFD4F8081D4
:100A600091819F938F9381EB92E09F938F931F923D
:100A700088E28F93FE0131967F01FF93EF930E94EE
:100A8000CE0BB701C8010E9486040FB6F894DEBFF2
:100A90000FBECDBF8BCF80E08ACF0C94270B1F9267
:100AA0000F920FB60F9211242F933F938F939F9322
:100AB000AF93BF9380914F0390915003A091510346
:100AC000B091520330914E0323E0230F2D3758F598
:100AD0000196A11DB11D20934E0380934F03909367
:100AE0005003A0935103B09352038091530390910C
:100AF0005403A0915503B09156030196A11DB11D59
:100B00008093530390935403A0935503B0935603DB
:100B1000BF91AF919F918F913F912F910F900FBEF9
:100B20000F901F90189526E8230F0296A11DB11D66
:100B3000D2CF1F920F920FB60F9211240BB60F92C5
:100B40002F933F934F935F936F937F938F939F93D5
:100B5000AF93BF93EF93FF9387E593E00E94B402B6
:100B6000FF91EF91BF91AF919F918F917F916F9185
:100B70005F914F913F912F910F900BBE0F900FBE41
:100B80000F901F9018951F920F920FB60F9211247D
:100B90000BB60F922F938F939F93EF93FF93E09158
:100BA0006703F09168038081E0916D03F0916E031B
:100BB00082FD1DC09081809170038F5F8F732091A3
:100BC0007103821741F0E0917003F0E0E95AFC4FA5
:100BD000958F80937003FF91EF919F918F912F914B
:100BE0000F900BBE0F900FBE0F901F901895808135
:100BF000F2CFE7E5F3E01382128288EE93E0A0E003
:100C0000B0E084839583A683B78384E192E09183E7
:100C1000808385EC90E09587848784EC90E09787CB
:100C2000868780EC90E0918B808B81EC90E0938BB9
:100C3000828B82EC90E0958B848B86EC90E0978B96
:100C4000868B118E128E138E148EA9E7B4E086E285
:100C500092E011969C938E9388E012968C93129753
:100C600089E013968C93139714961C92F093F503D6
:100C7000E093F403109277041092760410927804B3
:100C80000895CF93DF93CDB7DEB7C159D1090FB621
:100C9000F894DEBF0FBECDBF789484B5826084BD6A
:100CA00084B5816084BD85B5826085BD85B5816070
:100CB00085BD80916E00816080936E0010928100EE
:100CC00080918100826080938100809181008160A9
:100CD000809381008091800081608093800080916A
:100CE000B10084608093B1008091B00081608093F6
:100CF000B00080919100826080939100809191007A
:100D00008160809391008091900081608093900039
:100D10008091A10082608093A1008091A1008160F8
:100D20008093A1008091A00081608093A0008091B9
:100D30002101826080932101809121018160809353
:100D400021018091200181608093200180917A00AF
:100D5000846080937A0080917A00826080937A0028
:100D600080917A00816080937A0080917A00806817
:100D700080937A001092C10014B714BE0FB6F89495
:100D8000A895809160008861809360001092600057
:100D90000FBEE0916703F091680382E08083E091E9
:100DA0006303F09164031082E0916503F0916603A0
:100DB00080E1808310926F03E0916B03F0916C03EC
:100DC00086E08083E0916903F0916A03808180610D
:100DD0008083E0916903F0916A0380818860808359
:100DE000E0916903F0916A03808180688083E091DB
:100DF0006903F0916A0380818F7D80830E941402D1
:100E00004B015C0164E6C62ED12CE12CF12C0E9432
:100E10001402681979098A099B09683E73408105A3
:100E20009105A8F321E0C21AD108E108F10888EE83
:100E3000880E83E0981EA11CB11CC114D104E104EA
:100E4000F10429F742EC52E013FD02C041ED52E0FB
:100E50006CED72E087E593E00E941C0467E573E0A7
:100E600089E794E00E94430481EE92E09F938F9380
:100E700087EE92E09F938F9381EF92E09F938F9301
:100E80001F9280E48F93FE0131967F01FF93EF93D1
:100E90000E94CE0BA7016CED72E087E593E00E9403
:100EA0001C0488E19DE00FB6F894A895809360003B
:100EB0000FBE909360000FB6F894DEBF0FBECDBF9B
:100EC0008E010F571F4F2EEB222E22E0322E2E01C5
:100ED00095E0490E511C31EE632E32E0732E47EE41
:100EE000A42E42E0B42E5CE1852E53E0952EA89509
:100EF000D801E1E11D92EA95E9F78091F403909120
:100F0000F503DC01ED91FC910084F185E02D19954C
:100F1000181619060CF099C08091F4039091F5030E
:100F2000DC01ED91FC910284F385E02D199597FD8C
:100F30008CC08A30910509F0B8C09091780499234B
:100F400089F04DEF52E06BE073E08091F4039091F3
:100F5000F5030E94630410927704109276041092B5
:100F60007804CBCFE0917604F0917704EC50FC4FFD
:100F70001282F801108226EF33E0F90180812F5FA1
:100F80003F4F8032D1F38930C1F38823C1F08332DF
:100F9000B1F080E0A82FB0E0AA0FBB1F1196AD0101
:100FA000400F511F9081992309F47CC0883008F4C8
:100FB0005EC0D8018C9391E0811101C090E0109245
:100FC00077041092760410927804992309F495CF4F
:100FD000D801DC90DD2009F4CEC0F8018181928136
:100FE000009709F49CC06DEA72E00E94B00B892B57
:100FF00009F095C0F1E0FD1508F0BDC0D8011396C9
:10100000CD90DC90C114D10409F48CC064E173E08C
:10101000C6010E94B00B892B09F067C07F926F92C6
:10102000BF92AF929F928F921F92B0E4BF93FF92B4
:10103000EF920E94CE0BB70187E593E00E948604F1
:101040000FB6F894DEBF0FBECDBF8FB7F8944091B6
:101050004F035091500360915103709152038FBF21
:1010600089E794E00E9474030E94430340CF8F5F9E
:10107000DA01ED93FD93AD019F01F901D9019D9135
:101080009D01992309F48ECF903211F09930A9F780
:101090001082F901D9019D919D019032D1F39930CF
:1010A000C1F378CFF801808386CF8D30910509F4A4
:1010B00024CF20917804211120CF20917604309103
:1010C0007704A9014F5F5F4F4038510520F0F1E0F0
:1010D000F093780412CF50937704409376042C5009
:1010E0003C4FD90112968C9308CF6AE273E0C60197
:1010F0000E94B00B892BB1F46AE273E0C7010E9431
:10110000B90B84E392E09F938F933F922F921F92AB
:10111000FCE7FF935F924F920E94CE0B8CCF91E041
:101120009D1548F5D8011396CD90DC90C114D104DB
:1011300011F14DE050E064E372E0C6010E94C00B83
:10114000892BC9F4F6018585882341F18E3299F403
:101150008685882381F04AE050E0B701C6010E96EB
:101160000E94E908E981FA812081211104C0672BDE
:10117000682B692B99F0D8018C91823030F013964E
:101180006D917C916115710511F46AED72E04FE289
:1011900053E087E593E00E94630457CFE091790420
:1011A000F0917A040484F585E02D27E533E0A80169
:1011B00060E089E794E01995811147CFF8018081BB
:1011C00070E060E0823010F0638174814EE353E0A0
:1011D000E0CF3F924F925F926F927F928F929F9259
:1011E000AF92BF92CF92DF92EF92FF920F931F9335
:1011F000CF93DF935C016B017A016115710519F0E2
:10120000FB0191838083E114F10451F0C70102973F
:10121000839730F040E030E020E090E06BC05E016A
:10122000E5012196F5011081812F90E00E94170AB7
:10123000892BA9F71D3201F52196F501118101E0F5
:10124000E114F10409F4E6C0F0E1EF16F10409F04D
:1012500088C0103359F488818F7D883509F07CC0AF
:10126000198122960260F0E1EF2EF12C812C912C55
:10127000A12C88E0B82E92C01B3221F4E501229601
:10128000F501118100E0DCCFEAE0EE16F10409F48B
:10129000C7C0F0E1EF16F10409F073C0E7CF78E0C2
:1012A000E72EF12C812C912CA12C60E1B62E76C07A
:1012B00021E0ADC0302F3170C114D10431F02223B0
:1012C00071F12197F601D183C08327FF2EC060E022
:1012D00070E080E090E8311104C06FEF7FEF8FEF96
:1012E0009FE722E230E030937F0420937E04462F74
:1012F000372F282F642F732F822FDF91CF911F91CB
:101300000F91FF90EF90DF90CF90BF90AF909F90A4
:101310008F907F906F905F904F903F90089501FF66
:1013200004C02297F601D183C083332341F0909506
:101330008095709561957F4F8F4F9F4FD8CF97FFC6
:10134000D6CF82E290E090937F0480937E046FEF8B
:101350007FEF8FEF9FE7CBCF10E3E114F10409F4A7
:101360009ECF28E0E216F10409F49CCF0CF08CCF5C
:10137000812C912CA12CE0E4BE2E82E0E816F10431
:1013800069F060E070E080E090E897010F2C000CBD
:10139000440B550B0E94330A49015A0120E060E0DA
:1013A00070E0CB0127010F2C000C66087708FE01C6
:1013B00050ED352E310E39E0331570F43FEB310F1F
:1013C00049EC342E3A3138F03FE9310F3A3108F028
:1013D00071CF39EA332E310E3E141F040CF06ACF60
:1013E00027FD15C086169706A806B90678F0A30152
:1013F00092010E94230A630D711D811D911D6130B0
:101400007105810520E8920708F452CF2FEF21964D
:101410001081CDCF103309F41ECF2AE0E22EF12C3B
:101420009CEC892E982CA82C9CE0B92EB7CF91115A
:101430000C94200A803219F089508550C8F708951D
:10144000992788270895DB018F939F930E94550A5F
:10145000BF91AF91A29F800D911DA39F900DB29F50
:10146000900D11240895A1E21A2EAA1BBB1BFD01A9
:101470000DC0AA1FBB1FEE1FFF1FA217B307E40773
:10148000F50720F0A21BB30BE40BF50B661F771FCB
:10149000881F991F1A9469F76095709580959095AB
:1014A0009B01AC01BD01CF0108950E94600AA59F78
:1014B000900DB49F900DA49F800D911D112408954F
:1014C000A29FB001B39FC001A39F700D811D112485
:1014D000911DB29F700D811D1124911D0895AA1BAD
:1014E000BB1B51E107C0AA1FBB1FA617B70710F00F
:1014F000A61BB70B881F991F5A95A9F78095909541
:10150000BC01CD010895EE0FFF1F881F8BBF079010
:10151000F691E02D19940F931F93CF93DF938230B0
:10152000910510F482E090E0E0918204F091830450
:1015300030E020E0B0E0A0E0309799F421153105CB
:1015400009F44AC0281B390B24303105D8F58A81AB
:101550009B816115710589F1FB0193838283FE01F3
:1015600011C0408151810281138148175907E0F071
:101570004817590799F4109761F012960C93129737
:1015800013961C933296CF01DF91CF911F910F914B
:1015900008950093820410938304F4CF211531053C
:1015A00051F04217530738F0A901DB019A01BD0140
:1015B000DF01F801C1CFEF01F9CF9093830480934D
:1015C0008204CDCFFE01E20FF31F8193919322504D
:1015D000310939832883D7CF209180043091810449
:1015E000232B41F4209102023091030230938104B5
:1015F00020938004209100023091010221153105D1
:1016000041F42DB73EB74091040250910502241BCE
:10161000350BE0918004F0918104E217F307A0F408
:101620002E1B3F0B2817390778F0AC014E5F5F4F38
:101630002417350748F04E0F5F1F509381044093E5
:101640008004819391939FCFF0E0E0E09CCFCF9313
:10165000DF930097E9F0FC01329713821282A09188
:101660008204B0918304ED0130E020E01097A1F4F2
:1016700020813181820F931F209180043091810459
:101680002817390709F061C0F0938104E0938004C2
:10169000DF91CF910895EA01CE17DF07E8F54A817F
:1016A0005B819E0141155105B1F7E901FB83EA8396
:1016B00049915991C40FD51FEC17FD0761F4808142
:1016C00091810296840F951FE90199838883828115
:1016D00093819B838A83F0E0E0E012968D919C9148
:1016E00013970097B9F52D913C911197CD01029672
:1016F000820F931F209180043091810428173907AD
:1017000039F6309751F51092830410928204B09309
:101710008104A0938004BCCFD383C28340815181D4
:10172000840F951FC817D90761F44E5F5F4F8881FA
:101730009981480F591F518340838A819B819383EC
:1017400082832115310509F0B0CFF0938304E09333
:1017500082049ECFFD01DC01C0CF13821282D7CF5D
:10176000FB01DC018D91019080190110D9F3990BD7
:101770000895FB01DC0101900D920020E1F708952E
:10178000FB01DC014150504030F08D9101908019F7
:1017900019F40020B9F7881B990B08950F931F9334
:1017A000CF93DF93CDB7DEB72E970FB6F894DEBF99
:1017B0000FBECDBF0E891F89888D998D26E02C83A1
:1017C0001A83098397FF02C080E090E801979E8307
:1017D0008D83AE01445E5F4F6A8D7B8DCE01019695
:1017E0000E940B0C4D815E8157FD0AC02F81388508
:1017F000421753070CF49A01020F131FF8011082CD
:101800002E960FB6F894DEBF0FBECDBFDF91CF91FD
:101810001F910F9108952F923F924F925F926F9276
:101820007F928F929F92AF92BF92CF92DF92EF9270
:10183000FF920F931F93CF93DF9300D000D000D07F
:101840001F921F92CDB7DEB77C013B018A01FC01DC
:1018500017821682838181FFDDC1CE0101965C0172
:10186000F7019381F30193FD859193FF81913F01EE
:10187000882309F453C1853239F493FD859193FF90
:1018800081913F01853229F4B70190E00E94230E37
:10189000E7CF912C212C312CFFE1F31538F08B325E
:1018A00011F190F4803209F1833229F137FC3CC008
:1018B00020ED280F2A3050F536FE20C08AE0989E91
:1018C000200D1124922E06C08D3291F0803371F7D5
:1018D000689430F8F30193FD859193FF81913F0166
:1018E0008111DACF21C0689431F8689432F8F2CFD0
:1018F000689433F8EFCF689434F8ECCFEAE02E9E8A
:10190000200D1124222E689435F8E4CF8E3229F46C
:1019100036FC04C1689436F8DDCF8C3619F468942F
:1019200037F8D8CF8836B1F2982F9F7D95549330F1
:10193000E0F08336A1F18337C1F1833509F063C04C
:101940002801F2E04F0E511CF801C080D180692DB2
:1019500070E036FC02C06FEF7FEFC6010E940D0EF3
:101960004C01689437F882010AC00C5F1F4FFFE3F7
:10197000F98388248394912C6501E89437F833FE29
:101980002DC0522C8114910471F5552009F468CFB3
:10199000B70180E290E00E94230E5A94F6CFF8013E
:1019A000808189830E5F1F4FE4CF2801F2E04F0E44
:1019B000511CF801C080D180692D70E036FC02C056
:1019C0006FEF7FEFC6010E94180E4C018201D5CF48
:1019D000B70180E290E00E94230E2A942814190493
:1019E00009F0B0F7CECFF60137FC859137FE819133
:1019F0006F01B70190E00E94230E51105A94F1E05C
:101A00008F1A9108BFCF843619F0893609F077C054
:101A1000F80137FE6BC060817181828193810C5F18
:101A20001F4FF32DFF763F2E97FF09C090958095AD
:101A3000709561957F4F8F4F9F4F689437F82AE0DC
:101A400030E0A5010E94530EC82ECA188C2C432CDE
:101A500036FE0CC0E89440F8C91440F434FE05C0CA
:101A600032FC03C0F32DFE7E4F2E892C44FEAAC00B
:101A7000FE01EC0DF11D8081803309F09CC0242D06
:101A8000297E422E842D8870582E43FCAAC040FE29
:101A9000A4C09C2C821418F42C0C922C981844FE90
:101AA000A6C0B70180E390E00E94230E42FE09C069
:101AB00088E790E041FE02C088E590E0B7010E940F
:101AC000230EC91408F49FC0CA94D12C9FEFC91AE1
:101AD000D90ACA0CDB1CF60182916F01B70190E0B4
:101AE0000E94230EAC14BD04B1F74FCF6081718109
:101AF000072E000C880B990B0E5F1F4F92CFD32C33
:101B0000E894D4F82AE030E08537E1F1232D297FED
:101B1000D22E8F36A9F1F0F4883551F1F701868184
:101B200097812B960FB6F894DEBF0FBECDBFDF9125
:101B3000CF911F910F91FF90EF90DF90CF90BF90CA
:101B4000AF909F908F907F906F905F904F903F905D
:101B50002F900895803749F0883701F7D4FE02C0EE
:101B60006894D2F820E130E00DC06894D4F8F6CF44
:101B700034FE03C0822F8660D82E20E132E002C0FE
:101B800028E030E0F801D7FE0FC0608171818281CA
:101B900093810C5F1F4FA5010E94530EC82ECA18D7
:101BA0003D2CE89437F852CF6081718190E080E05D
:101BB0000E5F1F4FF0CF42FC02C0839463CF83942B
:101BC000839460CF842D867809F45CCFF6CFB7017B
:101BD00080E290E00E94230E83948214C0F3512C83
:101BE0005ECF522C5818821408F459CFF8CF842DA8
:101BF000867809F466CF8BE241FE80E247FC8DE2F5
:101C0000B70190E05CCFB70180E390E00E94230E23
:101C10009A9457CF8FEF9FEF84CFFC0105906150CE
:101C200070400110D8F7809590958E0F9F1F0895F2
:101C3000FC016150704001900110D8F7809590959B
:101C40008E0F9F1F08950F931F93CF93DF93182F2D
:101C5000092FEB018B8181FD09C01FEF0FEF812F51
:101C6000902FDF91CF911F910F91089582FF14C0A3
:101C70002E813F818C819D81281739073CF4E881B2
:101C8000F981CF0101969983888310838E819F818A
:101C900001969F838E83E3CFE885F985812F19957F
:101CA000892BA1F3DACFFA01AA27283051F120318C
:101CB00081F1E8946F936E7F6E5F7F4F8F4F9F4FE0
:101CC000AF4FB1E03ED0B4E03CD0670F781F891F22
:101CD0009A1FA11D680F791F8A1F911DA11D6A0FF0
:101CE000711D811D911DA11D20D009F468943F91A3
:101CF0002AE0269F11243019305D3193DEF6CF01A2
:101D00000895462F4770405D4193B3E00FD0C9F767
:101D1000F6CF462F4F70405D4A3318F0495D31FDD4
:101D20004052419302D0A9F7EACFB4E0A695979527
:101D3000879577956795BA95C9F7009761057105FD
:101D400008959B01AC010A2E069457954795379547
:101D50002795BA95C9F7620F731F841F951FA01DA1
:061D60000895F894FFCF86
:101D66000000840480006F0273027F028B029502DA
:101D760000000000D60240026D0223039E027C0290
:101D860090020000000001044D050204050443040E
:101D9600FF039C046C65642E747261636B62616CF4
:101DA6006C004556454E54200072656164790021E9
:101DB60020003E2000756E6B6E6F776E00534554A3
:101DC600006D697373696E672D7374617465006F56
:101DD600666600677265656E2D736F6C6964006771
:101DE6007265656E2D70756C7365007265642D7312
:101DF6006F6C6964007265642D626C696E6B006954
:101E06006E76616C69642D73746174650047455420
:101E1600006C65642E747261636B62616C6C202564
:101E260073007761746368646F672D726573657498
:101E360000706F7765722D6F6E003F00626F6F7472
:101E460000302E312E30007A65726F74782D696FEE
:101E5600007265616479202573202573006C696EB4
:101E6600652D746F6F2D6C6F6E670070726F746F77
:101E7600636F6C0076657273696F6E007665727358
:101E8600696F6E202573202573006361707300757A
:101E96006E6B6E6F776E2D74617267657400756E0A
:0E1EA6006B6E6F776E2D636F6D6D616E6400F5
:00000001FF
