:100000000C948F010C94C0010C94C0010C94C0019D
:100010000C94C0010C94C0010C94C0010C94C0015C
:100020000C94C0010C94C0010C94C0010C94C0014C
:100030000C94C0010C94C0010C94C0010C94C0013C
:100040000C94C0010C94C0010C94C0010C94C0012C
:100050000C94C0010C94C0010C94C0010C94CE12FD
:100060000C94C0010C9442130C9418130C94C0010E
:100070000C94C0010C94C0010C94C0010C94C001FC
:100080000C94C0010C94C0010C94C0010C94C001EC
:100090000C94C0010C94C0010C94C0010C94C001DC
:1000A0000C94C0010C94C0010C94C0010C94C001CC
:1000B0000C94C0010C94C0010C94C0010C94C001BC
:1000C0000C94C0010C94C0010C94C0010C94C001AC
:1000D0000C94C0010C94C0010C94C0010C94C0019C
:1000E0000C94C0010C94390A0C94EA040C94CF10BF
:1000F0000C94B4100C942F020C9486060C94FE0100
:100100000C9414070C9438020C943F050C941207BD
:100110000C9488090C9442050C9425020C948505D6
:100120000C94BD030C9421070C943B0A0C940A0216
:100130000C9421020C9415070C941D020C945E077C
:100140000C94AE050C941A070C94A8070C940A049E
:100150000C940D020C94F8010C94B2100C947813CA
:100160000C9411070C9463030C9407100C94770300
:100170000C94A80F0C9427030C9439020C942B02B6
:100180000C9417070C94D40C0C9417020C94540381
:100190000C941D070C94B0100C9406020C9485036B
:1001A0000C9413020C943D020C9402020C943C0536
:1001B0000C9433020C9413070C94200710101010A9
:1001C0001010100018181818181818001C1C1C1CE7
:1001D0001C1C1C001E1E1E1E1E1E1E001F1F1F1F7D
:1001E0001F1F1F0000000E1F1F0E00000000000E4A
:1001F0000E000000000102140800000000002100B1
:10020000240027002A002D003000330001010000E7
:10021000040107010A0100002200250028002B002C
:100220002E003100340002010000050108010B011D
:10023000000020002300260029002C002F0032009F
:100240000001000003010601090105050505070578
:1002500008080808020202020A0A08080404040442
:10026000010101010101010103030303030303036E
:10027000040707070C0C0C0C0C0C0C0C02020202FD
:1002800006060606060606060B0B0B0B0B0B0B0BE6
:100290000102102020080810204010204080020198
:1002A000020108040201010204081020408080407D
:1002B000201008040201800402018040201008047C
:1002C000020108040201010204081020408001021A
:1002D00004081020408000000A0B02090C0D0E08D3
:1002E00007030401000000000000000000000000FF
:1002F00000000000000000000000000000000000FE
:1003000000001211100000000000000000000000BA
:10031000000000000000000000000000781311241D
:100320001FBECFEFD1E2DEBFCDBF00E00CBF29E0A2
:10033000AAE7B7E001C01D92AD33B207E1F717E0BD
:10034000A0E0B2E0E2EEFCE300E00BBF02C00790E9
:100350000D92AA37B107D9F711E0CFE8D1E000E05C
:1003600006C021970109802FFE010E94281ACE386D
:10037000D10780E00807A9F70E9407140C946F1EAC
:100380000C940000FC01AC01425F5F4F8FEF9FEFC8
:100390002191922728E0BC01880F991F77FF04C0A4
:1003A00031E2832730E193272150A9F7E417F507BD
:1003B00079F708958150823108F05AC0E82FF0E0B3
:1003C0008827EA51FE4F8F4F0C94281A06020A0222
:1003D000F801FE01020238020D02130217021D028B
:1003E000210225022B022F023802330239023D027C
:1003F000809180008F7780938000089580918000A5
:100400008F7DF9CF80918000877FF5CF84B58F777E
:1004100084BD089584B58F7DFBCF8091B0008F7728
:100420008093B00008958091B0008F7DF9CF8091C6
:1004300090008F77809390000895809190008F7D39
:10044000F9CF80919000877FF5CF8091A0008F77C2
:100450008093A00008958091A0008F7DF9CF8091B6
:10046000A000877FF5CF809120018F7780932001B6
:100470000895809120018F7DF9CF80912001877FA1
:10048000F5CFCF93DF93282F30E0F901EA52FD4FEB
:100490008491F901E057FD4FD491F901E65BFD4FDE
:1004A000C491CC23A1F081110E94DA01EC2FF0E07D
:1004B000EE0FFF1FE05DFD4FA591B491EC91ED2390
:1004C00081E090E009F480E0DF91CF91089580E031
:1004D00090E0FACF1F93CF93DF93282F30E0F901FC
:1004E000EA52FD4F8491F901E057FD4FD491F90193
:1004F000E65BFD4FC491CC23A9F0162F81110E9419
:10050000DA01EC2FF0E0EE0FFF1FEA5EFD4FA59140
:10051000B4918FB7F894EC91111108C0D095DE23F7
:10052000DC938FBFDF91CF911F910895DE2BF8CF21
:10053000CF93DF9390E0FC01E057FD4F2491865B61
:100540009D4FFC0184918823D1F090E0880F991F82
:10055000FC01E450FE4FA591B491FC01EA5EFD4F11
:10056000C591D49161110EC09FB7F8948C91E22F80
:10057000E0958E238C932881E223E8839FBFDF914F
:10058000CF9108958FB7F894EC91E22BEC938FBF45
:10059000F6CF3FB7F8948091B2079091B307A0913E
:1005A000B407B091B50726B5A89B05C02F3F19F039
:1005B0000196A11DB11D3FBFBA2FA92F982F8827E3
:1005C000BC01CD01620F711D811D911D42E0660FBE
:1005D000771F881F991F4A95D1F708958F929F9290
:1005E000AF92BF92CF92DF92EF92FF924B015C01EC
:1005F0000E94C9026B017C010E94C9026C197D092D
:100600008E099F09683E734081059105A8F321E09A
:10061000821A9108A108B10888EEC80E83E0D81E9E
:10062000E11CF11C81149104A104B10429F7FF908D
:10063000EF90DF90CF90BF90AF909F908F900895F4
:10064000DC01ED91FC910190F081E02D1994AF92C5
:10065000BF92CF92DF92EF92FF920F931F93CF93AF
:10066000DF936C017B018B01040F151FEB015E0111
:10067000AE18BF08C017D10759F06991D601ED91A6
:10068000FC910190F081E02DC6011995892B79F735
:10069000C501DF91CF911F910F91FF90EF90DF90F7
:1006A000CF90BF90AF900895FC01538D448D252FBE
:1006B00030E0842F90E0821B930B541710F0CF96FC
:1006C000089501970895FC01918D828D981761F02E
:1006D000A28DAE0FBF2FB11D5D968C91928D9F5F45
:1006E0009F73928F90E008958FEF9FEF0895FC0124
:1006F000918D828D981731F0828DE80FF11D858DD7
:1007000090E008958FEF9FEF0895FC01918D228D69
:10071000892F90E0805C9F4F821B91098F739927EE
:10072000089586EB97E00E94850321E0892B09F468
:1007300020E0822F0895FC01A48DA80FB92FB11DD0
:10074000A35ABF4F2C91848D90E001968F73992707
:10075000848FA689B7892C93A089B1898C918370E5
:1007600080648C93938D848D981306C00288F389DE
:10077000E02D80818F7D80830895EF92FF920F930B
:100780001F93CF93DF93EC0181E0888F9B8D8C8D3D
:1007900098131AC0E889F989808185FF15C09FB731
:1007A000F894EE89FF896083E889F98980818370F4
:1007B000806480839FBF81E090E0DF91CF911F91A3
:1007C0000F91FF90EF900895F62E0B8D10E00F5FC4
:1007D0001F4F0F731127E02E8C8D8E110CC00FB69A
:1007E00007FCFACFE889F989808185FFF5CFCE0132
:1007F0000E949B03F1CFEB8DEC0FFD2FF11DE35A0F
:10080000FF4FF0829FB7F8940B8FEA89FB898081B4
:100810008062CFCFCF93DF93EC01888D8823B9F02E
:10082000AA89BB89E889F9898C9185FD03C08081FB
:1008300086FD0DC00FB607FCF7CF8C9185FFF2CF78
:10084000808185FFEDCFCE010E949B03E9CFDF9130
:10085000CF91089580E090E0892B29F00E949103C8
:1008600081110E94000080E090E0892B49F080E037
:1008700090E0892B29F00E94000081110E94000065
:1008800080E090E0892B49F080E090E0892B29F00E
:100890000E94000081110E94000080E090E0892BFE
:1008A00049F080E090E0892B29F00E94000081113E
:1008B0000C9400000895CF92DF92EF92FF920F9375
:1008C0001F93CF93DF93EC01462FE881F9810484D5
:1008D000F585E02D61E070E019958C01CC88DD880C
:1008E000EE88FF880E94C902688F798F8A8F9B8F5C
:1008F000CC8EDD8EEE8EFF8E81E090E0012B11F02C
:1009000090E080E0DF91CF911F910F91FF90EF90E9
:10091000DF90CF9008958F929F92AF92BF92EF9207
:10092000FF921F93CF93DF93EC01162FE881F9819B
:100930000484F585E02D462F70E060E019957C0178
:1009400011501230D8F419861A8688889988AA8896
:10095000BB880E94C902688F798F8A8F9B8F8C8E8B
:100960009D8EAE8EBF8EC701DF91CF911F91FF90FC
:10097000EF90BF90AF909F908F9008958C889D8846
:10098000AE88BF88E6CFDC0118968C91189748177F
:1009900010F04FEF480F1B969C911B97992389F0FD
:1009A00017969C911797691730F0691B4F5F48178E
:1009B000D0F340E0F8CF19966C9319971A964C93A0
:1009C0001A97FD01E40FF11D8485680F6068CD0161
:1009D0000C948B040F931F93CF93DF93EC010E9431
:1009E0005B048C018B85882399F089858F5F8987CB
:1009F0009F81891768F019868A858F5F8A87988515
:100A0000891708F01A864A8560E0CE010E94C30467
:100A1000C801DF91CF911F910F91089561E00C946F
:100A20008B04CF92DF92EF92FF920F931F93CF939D
:100A3000DF93EC01462FE881F9810484F585E02DF0
:100A400062E070E019958C01CC88DD88EE88FF8823
:100A50000E94C902688F798F8A8F9B8FCC8EDD8E22
:100A6000EE8EFF8EC801DF91CF911F910F91FF9005
:100A7000EF90DF90CF9008958DEF9FEF08958DEF69
:100A80009FEF089590E080E00895FC01858D861722
:100A900081F0658F2FB7F8948091AE079091AF07E2
:100AA000A091B007B091B1072FBF80A391A3A2A3DB
:100AB000B3A30895FC01258D268F678F65E00C9404
:100AC00045050F931F93CF938C01C62FFC0183A183
:100AD00061E0C0FF60E00E946A02F80184A161E069
:100AE000C1FF60E00E946A02F80185A161E0C2FFD7
:100AF00060E00E946A02F80186A161E0C3FF60E045
:100B0000CF911F910F910C946A021F93CF93DF93A3
:100B1000EC01162F6623E9F06C8160620E948B0461
:100B2000129516951695137063E070E0611B7109BC
:100B3000CE010E945B046D81862F84608D836C6082
:100B4000CE010E948B0490E080E0DF91CF911F9155
:100B500008956D816B7F6D836860F2CFCF93DF93D3
:100B6000EC0161E088A10E94980289A18F3F39F0D1
:100B700061E00E94980260E089A10E946A0261E03F
:100B80008AA10E94980260E08AA10E946A0261E044
:100B90008BA10E94980261E08CA10E94980261E002
:100BA0008DA10E94980261E08EA10E94980290E0BF
:100BB00080E0DF91CF910895DC01ED91FC910190EF
:100BC000F081E02D1994EF92FF920F931F93CF9332
:100BD000DF937C01D42FC52F462F60E0FC0181A953
:100BE00092A90E94C3040D2F1C2FC0E0F80161914F
:100BF0008F01662391F0062E000C770BF70181A977
:100C000092A90E94DC05CF5FC43181F7DF91CF91BB
:100C10001F910F91FF90EF90089560E270E0F7014F
:100C200081A992A90E94DC05CF5FC431B1F7EECF54
:100C3000CF93DF93EC0189A99AA90E940E0546E79C
:100C400052E060E0CE010E94E30540E652E061E040
:100C5000CE01DF91CF910C94E3050F931F93CF93B7
:100C6000DF93EC012A813B811B821A824C815D81DA
:100C7000DB010E94F119DC01CB01840F951FA11D3E
:100C8000B11D452B59F00097A105B10521F481E074
:100C900090E0A0E0B0E00197A109B1098536910587
:100CA000A105B10520F084E690E0A0E0B0E09D83CE
:100CB0008C8341E060E089A99AA90E94C30410E0F6
:100CC00000E06C817D8189A99AA90617170770F049
:100CD00060E270E00E94DC050B5F1F4F04361105D7
:100CE00081F7DF91CF911F910F910895601B710BD8
:100CF000DC01ED91FC910190F081E02D65307105F2
:100D000018F064E01995E8CF6150FCCFCF92DF92E4
:100D1000EF92FF921F93CF93DF93EC016A017B0167
:100D20008C818230C9F168F4882339F161E0813027
:100D300029F1DF91CF911F91FF90EF90DF90CF903D
:100D40000895833009F467C0843099F760E08A81A0
:100D50000E946A02C701B60126E930E040E050E097
:100D60000E94C419CA01B90160957095809590954B
:100D7000617077278827992705C060E08A810E94E3
:100D80006A0260E08B81DF91CF911F91FF90EF901D
:100D9000DF90CF900C946A02CB01BA0120ED37E0CE
:100DA00040E050E00E94C4199B01AC01283E63E082
:100DB000360730F5AFEFB0E00E94E61928EE33E0D9
:100DC00040E050E00E94C419122FC701B60124E18F
:100DD00030E040E050E00E94C4192FEF269FA001B0
:100DE000279F500D1124CA0164E170E00E94001A8F
:100DF00081E01617170609F008F480E0682FBECFCF
:100E000080ED97E0BC01621B730B9B01AFEFB0E07C
:100E10000E94F119D3CF60E08A810E946A0261E0EA
:100E2000B1CF089508950895089581E0089586EA60
:100E300096E008958BED92E0089589EE92E0089592
:100E4000089508956115710579F0FB010190002066
:100E5000E9F73197AF01461B570BDC01ED91FC918F
:100E60000280F381E02D199490E080E00895EF92E4
:100E7000FF920F931F93CF93DF93EC017B018A01C5
:100E80006DEE72E00E942207B701CE010E94220798
:100E9000F8018081882341F060E2CE010E942003A6
:100EA000B801CE010E9422076AE0CE01DF91CF9106
:100EB0001F910F91FF90EF900C9420030F931F93BD
:100EC000CF93DF93EC018B01E4EAF7E080818A8322
:100ED00091819B8361E00E94980261E08B810E9476
:100EE000980260E08A810E946A0260E08B810E9421
:100EF0006A021C8244EF52E06BED72E0C801DF91A0
:100F0000CF911F910F910C943707EF92FF920F939F
:100F10001F93CF93DF93EC017B018A016AEF72E0AC
:100F20000E942207B701CE010E94220760E2CE0193
:100F30000E942003B801CE010E9422076AE0CE0180
:100F4000DF91CF911F910F91FF90EF900C942003B0
:100F50002F923F924F925F926F927F928F929F92C9
:100F6000AF92BF92CF92DF92EF92FF920F931F93B7
:100F7000CF93DF93CDB7DEB7A8970FB6F894DEBF57
:100F80000FBECDBF8C014B017C0183E3E80EF11C49
:100F9000E114F10409F462C06090A6077090A707FD
:100FA000A090A807B090A907C090AA07D090AB075F
:100FB000D801D6961C921E92D59788E392E0D496DB
:100FC0009C938E93D39784E1DA968C93DA9782E0A0
:100FD000DB968C93DB97DF961C92F801E05CFF4F69
:100FE00010823196108231961082F80116AE80ED93
:100FF00097E0A0E0B0E0ED5BFF4F80839183A28398
:10100000B38386E290E0A0E0B0E0349680839183E1
:10101000A283B3830E94C902F801E55BFF4F60839E
:101020007183828393833496108211821282138299
:101030008EE492E0D801D4969C938E93D397349605
:1010400060828FEF31968083319670823196A082D4
:101050003196B0823196C0823196D082F801F2AAE0
:10106000E1AA87AD81110DC0E05CFF4F8081811145
:1010700008C031968081811104C031968081882317
:1010800039F0D801DA968C91882371F0843161F0BF
:10109000F80117AE80E4E05CFF4F808384E1319675
:1010A000808384E53196808382E0D801DB968C933F
:1010B000DB9784E1DA968C9364E670E080E090E060
:1010C0000E94EE02F80117AA03A8F4A9E02D0084FB
:1010D000F185E02DC70119955C01CE0101966C01E7
:1010E000A114B10409F059C0D801DB968C91DB97AB
:1010F000823030F0D7968C91D7978860D7968C93B2
:1011000060E3C7010E94110565E070E080E090E0B7
:101110000E94EE0260E3C7010E94110561E070E0E9
:1011200080E090E00E94EE0260E3C7010E9411059A
:1011300061E070E080E090E00E94EE02F80187A993
:1011400084FD04C060E2C7010E941105D801D79652
:101150006C916062C7010E948B0484E0F80180AF4B
:101160006CE0C7010E948B04C7010E940E0582E05B
:10117000D801D9968C9366E0C7010E948B045C016C
:10118000D801D396ED91FC910684F785E02D6FEFA1
:10119000C7011995A114B10489F1BF92AF928DEFE7
:1011A00092E09F938F931F9288E28F93DF92CF926A
:1011B0000E94971BA6016FE073E0C4010E9485079F
:1011C0000FB6F894DEBF0FBECDBFA8960FB6F89449
:1011D000DEBF0FBECDBFDF91CF911F910F91FF906A
:1011E000EF90DF90CF90BF90AF909F908F907F90C7
:1011F0006F905F904F903F902F900895F12CE12CCD
:101200001601F8E02F0E311C3601D60190E080E087
:10121000970124543E4FF901E80FF91FE491ED9333
:10122000019688309105B9F7D801D196AD90BC9060
:10123000D501ED91FC910284F385E02D70E060E032
:10124000C50119952C01E89447F8552497FD412CC8
:101250006E2D6064C5010E948B04892B81F4F3011B
:1012600061913F01C5010E945B04019741F426147E
:101270003704A9F740E0642DC5010E94C304F8E0DB
:10128000EF0EF11C80E4E816F10409F0BDCF6BE22B
:10129000D801D1968D919C910E948B04C8010E9427
:1012A00018062FB7F8948091AE079091AF07A091E0
:1012B000B007B091B1072FBFF80180A391A3A2A3FB
:1012C000B3A384A395A3A6A3B7A380A791A7A2A71E
:1012D000B3A7158E44EF52E06FE073E0C4010E94A3
:1012E000370773CF0F931F93CF93DF93EC018B01DD
:1012F00065E173E00E942207B801CE010E94220737
:101300006AE0CE01DF91CF911F910F910C942003E1
:101310009F92AF92BF92CF92DF92EF92FF920F9384
:101320001F93CF93DF93CDB7DEB7A8970FB6F8948E
:10133000DEBF0FBECDBFDA019C90992009F497C0A3
:101340001196AD90BC90A114B10409F490C089012C
:101350007A016C0160E273E0C5010E946A1B892B6F
:1013600009F056C0B2E0B91530F4F701E580F68017
:10137000E114F104D1F444E253E06BED72E0C801F2
:101380000E94850781E0A8960FB6F894DEBF0FBED5
:10139000CDBFDF91CF911F910F91FF90EF90DF9024
:1013A000CF90BF90AF909F90089562E373E0C70124
:1013B0000E946A1B892BF9F066E373E0C7010E9463
:1013C0006A1B892BE9F062E473E0C7010E946A1B83
:1013D000892BC1F06EE473E0C7010E946A1B892B60
:1013E00099F068E573E0C7010E946A1B892B71F0D0
:1013F00042E653E0C2CF90E0D60114969C93C2CF50
:1014000091E0FACF92E0F8CF93E0F6CF94E0F4CFFA
:1014100060E773E0C5010E946A1B892B41F5D60184
:101420001496EC9188E193E0E53038F4F0E0EE0FAB
:10143000FF1FE65DFD4F808191819F938F9384E72D
:1014400093E09F938F931F9288E28F93FE013196D2
:101450007F01FF93EF930E94971BB701C8010E9481
:1014600072090FB6F894DEBF0FBECDBF8BCF80E000
:101470008ACF0E94551B9F92AF92BF92CF92DF926C
:10148000EF92FF920F931F93CF93DF93CDB7DEB709
:10149000C055D1090FB6F894DEBF0FBECDBF6111A4
:1014A00081C269017A018C01DC01D1968D919C91F8
:1014B00047E853E0892BF9F0F7019080992009F46F
:1014C00071C2A180B280A114B10409F46BC260E2C0
:1014D00073E0C5010E946A1B892B09F008C2F2E083
:1014E000F91538F4D7011596AD90BC90A114B1044C
:1014F00041F447E953E06FE073E0C6010E948507BD
:101500007EC02FB7F8948091AE079091AF07A0915D
:10151000B007B091B1072FBFF80184A395A3A6A38C
:10152000B7A36EEC73E0C5010E946A1B892B09F01A
:1015300043C0D7018C91843030F01796ED90FC9029
:10154000E114F10419F445EA53E0D5CF62EB73E0FE
:10155000C7010E946A1B892B41F4C8010E9418062A
:1015600060E0C8010E9445054AC069EB73E0C7010D
:101570000E946A1B892B39F4F80181A992A90E9463
:101580000E0561E0EECF6EEB73E0C7010E946A1BAF
:10159000892B11F462E0E5CF60E974E0C7010E9495
:1015A0006A1B892B31F481E0D8015C968C9363E04F
:1015B000D8CF46EC53E09FCF63ED73E0C5010E94A6
:1015C0006A1B892BF1F4F7018081843020F0878138
:1015D0009085009719F44EED53E08DCF0E9461196C
:1015E0004CEE53E08430910508F085CF63E0681B32
:1015F0006862D801D1968D919C910E948B0481E004
:1016000007C16AEF73E0C5010E946A1B892B31F4A0
:10161000F80181A992A90E940E05BCCF60E074E098
:10162000C5010E946A1B892B09F05FC0D701BC90DD
:10163000B3E0BB1528F4F70187819085009719F472
:1016400045E054E058CF0E94611982309105B0F511
:10165000D701199664E070E030E020E0CB2CD12C6B
:1016600090E2E92E6C157D0578F5AD90BD90A11442
:10167000B10451F1A901415051094331510550F4D0
:1016800041E050E04C0F5D1F420F531FFA01E08212
:101690002F5F3F4F41E050E04C0F5D1F420F531F43
:1016A000F501F1905F01FF2061F02431310548F42C
:1016B0002F5F3F4FFA01F192AF01F2CF41E154E0C9
:1016C0001ACF6F5F7F4FCECF41E050E04C0F5D1FD0
:1016D000240F351FD9011C92AE014F5F5F4F682F59
:1016E000C8010E94E30564E03CCF6DE174E0C501F0
:1016F0000E946A1B892B31F5F70180818430F8F054
:10170000878190850097D9F00E94611918161906F3
:10171000B4F4D80112962D913C911397820F931F28
:1017200013969C938E9312975D968C91823008F05D
:1017300066CFF801848D882309F42CCF38CF81E05F
:1017400090E0E7CF69E874E0C5010E946A1B892B2D
:1017500009F5D7018C91843028F01796ED91FC9112
:10176000309719F442E254E0C6CED8015C962C9131
:10177000908181E0913309F080E0F801848F28178F
:1017800009F43DCF62E0913309F461E0C8010E94A1
:101790005A0535CF6CE374E0C5010E946A1B892BA2
:1017A000B9F4D7018C91843030F017966D917C910B
:1017B0006115710519F444E354E09DCE4BE050E00F
:1017C000C80106960E94881BF801118A63E0DECFEB
:1017D0006BE474E0C5010E946A1B892B61F5D70197
:1017E0008C91843028F017968D919C91009719F474
:1017F00043E454E080CE0E9461198536910514F0CF
:1018000084E690E097FD80E0F801828B81E0838B95
:10181000C05BDF4F0FB6F894DEBF0FBECDBFDF91C8
:10182000CF911F910F91FF90EF90DF90CF90BF90DD
:10183000AF909F90089566E574E0C5010E946A1B11
:10184000892BB1F4D7018C91843030F017966D91CB
:101850007C916115710519F44EE454E04CCE47E0DB
:1018600050E0C80144960E94881BF801138EC7CE31
:1018700067E874E0C5010E946A1B892B59F5D701FE
:101880008C91843030F01796ED90FC90E114F104C7
:1018900019F44BE554E02FCE68E674E0C7010E94CE
:1018A0006A1B64E0892B09F471CF6DE674E0C7010F
:1018B0000E946A1B65E0892B09F468CF66E774E033
:1018C000C7010E946A1B892B11F466E05FCF4FE7C6
:1018D00054E011CE6DE874E0C5010E946A1B46E930
:1018E00054E0892B09F007CEF801148E53CE60E73F
:1018F00073E0C5010E946A1B009709F053C0D8012C
:1019000054962C91B8016C5E7F4F211102C065E89E
:1019100073E0F801238945E853E0222321F082890E
:1019200090E04BE355E0D80116962C912223A1F1CB
:1019300098012A5F3F4FF801F48CE58DE63078F589
:10194000F0E0EE0FFF1FE557FD4F0190F081E02D15
:101950007F936F939F938F935F934F933F932F93B7
:101960001F92FF92FF93EF9384EA94E09F938F93EB
:101970001F9280E58F938E010F5F1F4F1F930F9370
:101980000E94971BB801C6010E9472090FB6F89415
:10199000DEBF0FBECDBF33CE25E833E0CCCFE8E1CC
:1019A000F3E0D6CF80E034CF2F923F924F925F92F8
:1019B0006F927F928F929F92AF92BF92CF92DF925F
:1019C000EF92FF920F931F93CF93DF93CDB7DEB7C4
:1019D000AB970FB6F894DEBF0FBECDBFFC0121A9B7
:1019E00032A9232B09F448C000A511A522A533A5CF
:1019F0006A017B01C01AD10AE20AF30A9701860143
:101A00000132110521053105B8F16A017B018C0114
:101A1000C0A6D1A6E2A6F3A684A595A5A6A5B7A5BE
:101A20000196A11DB11D84A795A7A6A7B7A7858D6F
:101A300082508230A8F484A195A1A6A1B7A1AB01E0
:101A40009601281B390B4A0B5B0BDA01C901813760
:101A50009741A105B10520F061E0CF010E94450545
:101A6000F801858D823009F4ADC0F8F4882309F4BB
:101A700049C0813009F460C0AB960FB6F894DEBF60
:101A80000FBECDBFDF91CF911F910F91FF90EF90CF
:101A9000DF90CF90BF90AF909F908F907F906F908E
:101AA0005F904F903F902F900895843009F442C189
:101AB00008F4D2C0853001F780A191A1A2A1B3A101
:101AC00026013701481A590A6A0A7B0A878D833032
:101AD00009F4D9C108F04DC1813009F46FC18230D9
:101AE00009F4ACC130E2431633E0530661047104DB
:101AF00018F2F801868D858FC0A2D1A2E2A2F3A2CE
:101B0000178EBACF80A191A1A2A1B3A1C81AD90AF8
:101B1000EA0AFB0AF0E7CF16F7E1DF06E104F10479
:101B200008F4AACFF80181A992A90E940E0561E0EC
:101B3000C8010E944505A0CF44E150E060E270E09A
:101B40008AE797E00E94631B10928E0744E150E001
:101B500060E270E08FE897E00E94631B1092A30799
:101B6000F80120A9822F90E068E270E00E94141A28
:101B7000843108F58658984F36E0FC013083F8012F
:101B800084A595A5A6A5B7A587709927AA27BB27E1
:101B9000892B8A2B8B2B11F42F5F20AB4AE757E060
:101BA00060E0C8010E94E3054FE857E061E0C8012A
:101BB0000E94E30561CFE1EAF7E0E81BF90B86E05C
:101BC000858BDDCF86819E012F5F3F4F7901882372
:101BD00099F1C80106962389222301F122891F92D7
:101BE0002F939F938F9385ED94E09F938F931F92F4
:101BF00085E18F93FF92EF920E94971B0FB6F894A6
:101C0000DEBF0FBECDBFA70160E0C8010E94E305A3
:101C100066E070E0C8010E942D062ECF9F938F933F
:101C200082EE94E09F938F931F9285E18F93FF92B2
:101C3000EF920E94971BE2CF8489882339F0C80174
:101C400044969F938F9388EE94E0ECCF68EF74E016
:101C5000C9010E94731BD7CF64A575A586A597A55A
:101C600029E030E040E050E00E94C41949015A01E7
:101C7000F1E08F229924AA24BB24F80186819E01D9
:101C80002F5F3F4F7901882309F440C0C8010696B1
:101C90006389662329F162892AE289288A288B28A8
:101CA00009F420E21F926F939F938F931F922F93BB
:101CB0008CE095E09F938F931F9285E18F93FF9225
:101CC000EF920E94971B0FB6F894DEBF0FBECDBFF8
:101CD000A70160E0C8010E94E30568E070E09ACFC8
:101CE0002AE289288A288B2809F420E29F938F937F
:101CF0001F922F938CE195E09F938F931F9285E124
:101D00008F93FF92EF920E94971BDDCF8AE2892882
:101D10008A288B2809F480E21F928F9385E295E050
:101D20009F938F931F9285E18F93FF92EF920E9472
:101D3000971BC9CF80A191A1A2A1B3A1A701960130
:101D4000281B390B4A0B5B0BDA01C901803D974018
:101D5000A105B10508F490CE848D882341F083E07D
:101D6000F801858FC0A2D1A2E2A2F3A285CE82E0C3
:101D7000F7CF873008F0B6CE28EC30E040E050E0F6
:101D8000843051F028E730E040E050E0853021F029
:101D900020E530E040E050E0C301B2010E94C419E8
:101DA00044E150E064E070E020FF02C060E270E0D7
:101DB000CE0101960E94631B1D8A38C0A4E1B0E0E9
:101DC000A30192010E94E61920E233E040E050E0D6
:101DD0000E94C419B22EA22E44E150E060E270E0ED
:101DE000CE0101960E94631B1D8A2B2DF3E1FB158A
:101DF00008F423E130E0E1E0F0E0EC0FFD1FE20F3A
:101E0000F31F84E08083AA2089F083E0FE01E20FC3
:101E1000F31F808341E0A41649F08FEF9FEF8C0FF2
:101E20009D1F280F391F81E0F9018083AE014F5FAC
:101E30005F4F60E0C8010E94E3057FC0A4E1B0E00D
:101E4000A30192010E94E61920E233E040E050E055
:101E50000E94C419B22E44E150E060E270E0CE016D
:101E600001960E94631B1D8A2B2D243108F023E16B
:101E7000E3E1E21B21E030E02C0F3D1F2E0F311D6E
:101E8000F90182E0D2CF480136E0830E911C6CE06C
:101E900070E0C4010E948819813108F080E1A82E09
:101EA000B12C80E1282E312C2A183B083594279438
:101EB00044E150E060E270E0CE0146960E94631B70
:101EC0001AA6C301B20124E630E040E050E00E94CF
:101ED000C41920FF3AC047E04BA7E6E1F0E0EC0F61
:101EE000FD1FE20DF31D8BA5808392E0290E311CAE
:101EF000A501B40186E190E08C0F9D1F820D931D1A
:101F00000E945A1BE1E0F0E0EC0FFD1FAE0EBF1E79
:101F10002A0C3B1C2BA5F101268BAE014A5E5F4FBC
:101F200060E0C8010E94E30544E150E060E270E037
:101F3000CE0101960E94631B1D8AAE014F5F5F4F69
:101F400061E0C8010E94E305CDCD50E25BA7C5CF9B
:101F50004F925F926F927F928F929F92AF92BF92B9
:101F6000EF92FF921F93CF93DF93EC017B01142F2D
:101F700088A161E091E0E916F10409F060E00E94B7
:101F80006A02612F70E084E0759567958A95E1F7A4
:101F9000CE010E9461058C8C9D8CAE8CBF8C488CD0
:101FA000598C6A8C7B8C0E94C90264197509860958
:101FB0009709681579058A059B05A8F361E08AA150
:101FC0000E946A0260E08AA10E946A0282E0E8162A
:101FD000F10469F0612F6F70CE010E94610561E02C
:101FE0008AA10E946A0260E08AA10E946A0290E0CF
:101FF00080E0DF91CF911F91FF90EF90BF90AF9065
:102000009F908F907F906F905F904F9008958F92E8
:102010009F92AF92BF92CF92DF92EF92FF920F9377
:102020001F93CF93DF93FC0121A12F3F09F495C0AB
:102030008B01EC01C48CD58CE68CF78C808C918C58
:10204000A28CB38C0E94C902681979098A099B097C
:102050006C157D058E059F05A8F360E08BA10E949D
:10206000980260E08CA10E94980260E08DA10E941D
:10207000980260E08EA10E94980261E00130110593
:1020800009F060E088A10E946A0261E089A10E94D3
:102090006A0261E08AA10E946A028BA10E94410249
:1020A00010E1019709F010E08CA10E944102019714
:1020B00009F410628DA10E944102019709F4106495
:1020C0008EA10E944102019709F4106860E08AA184
:1020D0000E946A0261E08AA10E946A028BA10E94AA
:1020E0004102019709F411608CA10E9441020197FD
:1020F00009F412608DA10E944102019709F4146055
:102100008EA10E944102019709F4186060E08AA143
:102110000E946A0261E08BA10E94980261E08CA19A
:102120000E94980261E08DA10E94980261E08EA158
:102130000E94980260E089A10E946A02812F90E0CB
:10214000DF91CF911F910F91FF90EF90DF90CF9093
:10215000BF90AF909F908F9008958DEF9FEFF0CF3D
:102160000C94CC1A0C94CC1A0C94CC1AFF920F93AA
:102170001F93CF93DF93EC01F62E08811981C801DC
:102180000E949E19F81621F06F2DC8010E94A61911
:10219000CE01DF91CF911F910F91FF9008952F9263
:1021A0003F924F925F926F927F928F929F92AF92E7
:1021B000BF92CF92DF92EF92FF920F931F93CF9334
:1021C000DF93CDB7DEB7C454D1090FB6F894DEBFA4
:1021D0000FBECDBFDA01FC90FF2009F4C8C11196F3
:1021E000CD90DC90C114D10409F4C1C139018A0138
:1021F00060E773E0C6010E946A1B892B09F0BBC02F
:10220000B2E0BF1570F4F8010581168101151105C2
:1022100041F06EE375E0C8010E946A1B892B09F04A
:1022200078C08091AC07813009F470C087E996E0EE
:102230001F9228E02F939F938F9382E495E09F93C2
:102240008F931F9280E48F93CE0101967C019F9320
:102250008F930E94971BB701C3010E9472099AE1F4
:10226000A92E92E0B92E24EA822E27E0922E0FB6F4
:10227000F894DEBF0FBECDBF10E000E03DE5C32EF9
:1022800035E0D32E40E4542EF501819191915F0108
:10229000D4012D914D01009711F48CE395E01F922C
:1022A0002F939F938F931F930F93DF92CF921F9241
:1022B0005F92FF92EF920E94971BB701C3010E94A9
:1022C00072090F5F1F4F0FB6F894DEBF0FBECDBF70
:1022D00008301105C9F681E0CC5BDF4F0FB6F894EA
:1022E000DEBF0FBECDBFDF91CF911F910F91FF9049
:1022F000EF90DF90CF90BF90AF909F908F907F90A6
:102300006F905F904F903F902F90089589E896E0EE
:102310008FCF6EE675E0C8010E946A1B892B19F504
:102320008091AC078130E1F087E996E09F938F932D
:1023300085E795E09F938F931F9288E28F938E019C
:102340000F5F1F4F1F930F930E94971BB801C3018C
:102350000E9472090FB6F894DEBF0FBECDBFBBCF8F
:1023600089E896E0E3CF43E855E069EE72E0C30107
:102370000E948507B0CF60E273E0C6010E946A1B2D
:10238000892B09F0F4C092E09F1538F4D801159616
:10239000CD90DC90C114D10419F447E953E0E5CFA6
:1023A0006FE875E0C6010E946A1B892B09F0A1C085
:1023B000B3E0FB16B1F0F80127803084F4E0FF169B
:1023C00081F0D80119960D911C912114310449F026
:1023D0008AE1E82E82E0F82E512C412C01151105DE
:1023E00019F443E955E0C1CFF701619171917F0183
:1023F000C1010E946A1B892B09F4BBC0FFEF4F1A71
:102400005F0A88E04816510479F749E556E0ADCFF8
:1024100045EC55E09FEF89169104A104B10411F039
:1024200008F0A3CF8EEF880D843408F05FC08E01D2
:102430000F5F1F4F6801F12CE12CC7010E949E190C
:10244000D6018D936D01BFEFEB1AFB0AEEE0EE169D
:10245000F10499F7FE01E40DF51D8782C8010E9481
:10246000C2016C01F12CE12CD8016D918D012396F4
:10247000FFAEEEAE2397CE018F5B9F4F0E94B6104A
:10248000BFEFEB1AFB0AEEE0EE16F10469F72396B4
:10249000FFAEEEAE23976C2DCE018F5B9F4F0E9457
:1024A000B6108FE090E023969FAF8EAF23976D2DEF
:1024B000CE018F5B9F4F0E94B610BF92AF929F924A
:1024C0008F923F922F9286ED95E09F938F931F926C
:1024D00080E48F9381E090E08C0F9D1F9F938F93FA
:1024E0000E94971BBE016F5F7F4F31CF4AEF55E0CF
:1024F0003CCF67E076E0C6010E946A1B892BA1F4FD
:1025000010E000E01A8309836FEFCE0101960E946C
:10251000B6100F5F1F4F00311105A1F766E176E09D
:10252000C3010E947209D7CE66E476E0C6010E941C
:102530006A1B4DE456E0892B09F017CF62E476E080
:10254000C3010E947209D301ED91FC910680F781CD
:10255000E02DC3011995F89488E198E00FB6F8943E
:10256000A895809360000FBE90936000FFCF80E03D
:10257000B3CE4AE050E0BE016D5B7F4FC8010E94C0
:1025800033184B015C012596EEADFFAD2597808198
:10259000882309F43DCF42EB55E0E7CE1F920F921E
:1025A0000FB60F9211242F933F938F939F93AF9366
:1025B000BF938091AE079091AF07A091B007B09103
:1025C000B1073091AD0723E0230F2D3758F5019661
:1025D000A11DB11D2093AD078093AE079093AF0767
:1025E000A093B007B093B1078091B2079091B30761
:1025F000A091B407B091B5070196A11DB11D8093BC
:10260000B2079093B307A093B407B093B507BF91F7
:10261000AF919F918F913F912F910F900FBE0F908F
:102620001F90189526E8230F0296A11DB11DD2CF49
:102630001F920F920FB60F9211240BB60F922F9389
:102640003F934F935F936F937F938F939F93AF933A
:10265000BF93EF93FF9386EB97E00E949B03FF915C
:10266000EF91BF91AF919F918F917F916F915F910A
:102670004F913F912F910F900BBE0F900FBE0F9077
:102680001F9018951F920F920FB60F9211240BB640
:102690000F922F938F939F93EF93FF93E091C60731
:1026A000F091C7078081E091CC07F091CD0782FDC2
:1026B0001DC090818091CF078F5F8F732091D007CD
:1026C000821741F0E091CF07F0E0EA54F84F958F80
:1026D0008093CF07FF91EF919F918F912F910F9052
:1026E0000BBE0F900FBE0F901F9018958081F2CFF8
:1026F000CF93DF93A6EBB7E013961C921E9212972E
:1027000048EE53E060E070E014964D935D936D9356
:102710007C93179789EA92E011969C938E9385ECAF
:1027200090E01D969C938E931C9784EC90E01F96EE
:102730009C938E931E9780EC90E051969C938E9381
:10274000509781EC90E053969C938E93529782EC35
:1027500090E055969C938E93549786EC90E0579614
:102760009C938E93569759961C9259975A961C9201
:102770005A975B961C925B975C961C925C97E2E37F
:10278000F9E08DEC92E0918380838FEF82838383E5
:102790001482E8EDF8E08BEB92E091838083138262
:1027A0001282158214822EED38E08CE0E901199234
:1027B0008A95E9F7128A138A2CEE38E088E0E9015D
:1027C00019928A95E9F7148E158E168E178E10A21F
:1027D00011A212A213A214A215A216A217A210A649
:1027E00011A612A613A614A615A616A617A610AA19
:1027F00012AA11AAB0935408A09353081092D608B5
:102800001092D5081092D708DF91CF910895CF93F9
:10281000DF93CDB7DEB7C759D1090FB6F894DEBF45
:102820000FBECDBF789484B5826084BD84B58160CD
:1028300084BD85B5826085BD85B5816085BD80918B
:102840006E00816080936E00109281008091810003
:1028500082608093810080918100816080938100FB
:10286000809180008160809380008091B1008460BD
:102870008093B1008091B00081608093B00080911E
:10288000910082608093910080919100816080939B
:102890009100809190008160809390008091A100D0
:1028A00082608093A1008091A10081608093A1004B
:1028B0008091A00081608093A000809121018260BE
:1028C0008093210180912101816080932101809179
:1028D000200181608093200180917A008460809340
:1028E0007A0080917A00826080937A0080917A00E9
:1028F000816080937A0080917A00806880937A006A
:102900001092C10014B714BE0FB6F894A895809128
:102910006000886180936000109260000FBEE091BB
:10292000C607F091C70782E08083E091C207F0916B
:10293000C3071082E091C407F091C50780E180834E
:102940001092CE07E091CA07F091CB0786E0808312
:10295000E091C807F091C907808180618083E09190
:10296000C807F091C907808188608083E091C8071B
:10297000F091C907808180688083E091C807F09159
:10298000C90780818F7D808364E670E080E090E0FD
:102990000E94EE024AE656E013FD02C049E756E007
:1029A00068E476E086EB97E00E9437076E0122E943
:1029B000C20ED11C10E000E07601C8010E949E19F1
:1029C000D6018D936D010F5F1F4F06301105A9F7DA
:1029D000F70180819181A281B3818E010F571F4F32
:1029E00083349245A544BA4509F451C088E0E7E92B
:1029F000F2E0A4EAB7E001900D928A95E1F783E452
:102A0000898382E58A8385E48B838AE58C8381E0F0
:102A10008D8388E08E838F8389E088878EE1898724
:102A20008FE18A8780E28B8781E28C8782E28D87C3
:102A300083E28E87CE0101960E94C2015C01CE0125
:102A400001966C01F12CE12CF60161916F01D80126
:102A5000ED92FC92C8010E94B610BFEFEB1AFB0A80
:102A6000EEE0EE16F10481F7D801ED92FC926A2DAA
:102A7000C8010E94B6108FE090E0F8019183808336
:102A80006B2DC8010E94B6101092AC0758C0D70138
:102A900014968C911497813009F0A8CF15968C91DB
:102AA000883009F0A3CF58014801E6E0CE2ED12CA2
:102AB000C6010E949E19F40181934F01FFEFCF1AC6
:102AC000DF0A2EE0C216D10499F78EE090E00E9452
:102AD0009E19C82E8FE090E00E949E19D82E86E0A5
:102AE000F701DE01119601900D928A95E1F788E0D9
:102AF000F801DE01179601900D928A95E1F7CE015B
:102B000001960E94C201C816D90609F06FCF98013C
:102B1000285F3F4FD5018D915D018250843408F0CC
:102B200065CF2A173B07B1F788E0F801A4EAB7E0C0
:102B300001900D928A95E1F781E08093AC07809136
:102B4000AC0742E856E0813011F040E956E069EE0A
:102B500072E086EB97E00E94370765EAE62E62E0B6
:102B6000F62E7FE9672E72E0772ED3018D919D912D
:102B70003D01DC01ED91FC910084F185E02D66EBD7
:102B800077E01995E614F70481F780EA96E09F93C1
:102B90008F938AEA96E09F938F9384EB96E09F93BE
:102BA0008F931F9280E48F93E1E0F0E0EC0FFD1F24
:102BB000FF93EF930E94971BAE014F5F5F4F68E456
:102BC00076E086EB97E00E94370788E19DE00FB63C
:102BD000F894A895809360000FBE909360000FB6A4
:102BE000F894DEBF0FBECDBF50E8252E312CA8953E
:102BF000D801E1E11D92EA95E9F78091530890919F
:102C00005408DC01ED91FC910084F185E02D1995CB
:102C1000181619060CF0A5C080915308909154081D
:102C2000DC01ED91FC910284F385E02D199597FD6F
:102C300098C08A30910509F0D6C09091D7089923A1
:102C400089F040EC56E06EEC76E08091530890916C
:102C500054080E9485071092D6081092D508109249
:102C6000D708CBCFE091D508F091D608ED5AF74FB1
:102C70001282F801108225E538E0F90180812F5F8A
:102C80003F4F8032D1F38930C1F38823C1F08332C2
:102C9000B1F080E0A82FB0E0AA0FBB1F1196AD01E4
:102CA000400F511F9081992309F49AC0883008F48D
:102CB0007CC0D8018C9391E0811101C090E010920A
:102CC000D6081092D5081092D708992309F495CF09
:102CD000F801F080FF2009F430C1F8018181928170
:102CE000009709F427C160E773E00E946A1B892BF3
:102CF00009F020C1F1E0FF1508F01FC1D8011396BB
:102D0000ED90FC90E114F10409F41FC167ED76E049
:102D1000C7010E946A1B892B09F085C0E0EAF6E032
:102D2000FF93EF938AEA96E09F938F93EFEDF6E09F
:102D3000FF93EF931F9280E48F9381E090E08C0FDC
:102D40009D1F9F938F930E94971BBE016F5F7F4FC4
:102D500086EB97E00E9472090FB6F894DEBF0FBEB3
:102D6000CDBF8FB7F8948090AE079090AF07A0903A
:102D7000B007B090B1078FBF8FE9E82E82E0F82E40
:102D8000D7018D919D917D01DC01ED91FC91028433
:102D9000F385E02D26EB37E0B501A40119956E14FB
:102DA0007F0471F70E942A0422CF8F5FDA01ED932E
:102DB000FD93AD019F01F901D9019D919D019923D9
:102DC00009F470CF903211F09930A9F71082F9010F
:102DD000D9019D919D019032D1F39930C1F35ACF21
:102DE000F801808368CF8D30910509F406CF2091DA
:102DF000D708211102CF2091D5083091D608A9011A
:102E00004F5F5F4F4038510520F0F1E0F093D70855
:102E1000F4CE5093D6084093D5082D5A374FD90198
:102E200012968C93EACE6DEE76E0C7010E946A1B83
:102E3000892B09F08AC06DEE76E0CE0101960E94E2
:102E4000731B2FE9822E22E0922E34E0E32EF12C28
:102E5000F401C190D1904F01D601ED91FC91048015
:102E6000F581E02DC6011995582E492ED601ED9118
:102E7000FC910680F781E02DC6011995823070F132
:102E80008150C82ED12CB12CA12CBF92AF924F9261
:102E90005F92E2EFF6E0FF93EF93C1018E199F0975
:102EA0009F938F9381E090E08C0F9D1F8E0D9F1D4F
:102EB0009F938F930E94971BE80EF91E0FB6F8940C
:102EC000DEBF0FBECDBFCA14DB0421F19FEFA91AEC
:102ED000B90AA0E8EA16F104C4F224C04F925F9246
:102EE000EFE7F5E0FF93EF93C1018E199F099F93E0
:102EF0008F9381E090E08C0F9D1F8E0D9F1D9F93FF
:102F00008F930E94971BE80EF91E0FB6F894DEBF50
:102F10000FBECDBF8614970429F0B0E8EB16F1047C
:102F20000CF496CFBE016F5F7F4F86EB97E00E9457
:102F3000720917CF91E09F1540F0D8018C91823033
:102F400008F083C06CE375E087C0F801A380B4800B
:102F5000A114B10491F39FE9892E92E0992ED40136
:102F6000CD90DD904D01D601ED91FC910480F5816D
:102F7000E02DC6011995BC01FC0101900020E9F784
:102F800031977F01E81AF90AA701C5010E947A1B4F
:102F9000892B09F053C0F501EE0DFF1D80818823B8
:102FA00009F451C08E3209F049C0C70101968A0D5B
:102FB0009B1DFC01208121111FC060E0D12CC12C80
:102FC000C114D10409F4B9CFD601ED91FC91048468
:102FD000F585E02D26EB37E0A801C6011995811192
:102FE000C0CEF801808170E060E0823010F0638133
:102FF000748148E057E032C04AE050E0BE016F5FA4
:103000007F4F0E9433184B015C01E981FA81808176
:103010008111D3CFB7FCD1CFD601ED91FC910680C1
:10302000F781E02DC601199590E0B0E0A0E0682D91
:1030300088169906AA06BB061CF2BFCF681479044D
:1030400009F08DCF7ACF60E0BBCFF8016381748146
:103050006115710509F476CF49EF56E086EB97E0EC
:103060000E9485077ECE3F924F925F926F927F9231
:103070008F929F92AF92BF92CF92DF92EF92FF9288
:103080000F931F93CF93DF935C016B017A0161155E
:10309000710519F0FB0191838083E114F10451F073
:1030A000C7010297839730F040E030E020E090E0E5
:1030B0006BC05E01E5012196F5011081812F90E042
:1030C0000E947F19892BA9F71D3201F52196F50180
:1030D000118101E0E114F10409F4E6C0F0E1EF161A
:1030E000F10409F088C0103359F488818F7D883548
:1030F00009F07CC0198122960260F0E1EF2EF12CDC
:10310000812C912CA12C88E0B82E92C01B3221F486
:10311000E5012296F501118100E0DCCFEAE0EE1630
:10312000F10409F4C7C0F0E1EF16F10409F073C02F
:10313000E7CF78E0E72EF12C812C912CA12C60E1D7
:10314000B62E76C021E0ADC0302F3170C114D1044D
:1031500031F0222371F12197F601D183C08327FF3B
:103160002EC060E070E080E090E8311104C06FEFA5
:103170007FEF8FEF9FE722E230E030933809209312
:103180003709462F372F282F642F732F822FDF9177
:10319000CF911F910F91FF90EF90DF90CF90BF9054
:1031A000AF909F908F907F906F905F904F903F90E7
:1031B000089501FF04C02297F601D183C083332311
:1031C00041F090958095709561957F4F8F4F9F4FFF
:1031D000D8CF97FFD6CF82E290E0909338098093C2
:1031E00037096FEF7FEF8FEF9FE7CBCF10E3E1144D
:1031F000F10409F49ECF28E0E216F10409F49CCF13
:103200000CF08CCF812C912CA12CE0E4BE2E82E01E
:10321000E816F10469F060E070E080E090E8970162
:103220000F2C000C440B550B0E94C41949015A0184
:1032300020E060E070E0CB0127010F2C000C660855
:103240007708FE0150ED352E310E39E0331570F45C
:103250003FEB310F49EC342E3A3138F03FE9310F72
:103260003A3108F071CF39EA332E310E3E141F0483
:103270000CF06ACF27FD15C086169706A806B9067A
:1032800078F0A30192010E94B419630D711D811D94
:10329000911D61307105810520E8920708F452CF35
:1032A0002FEF21961081CDCF103309F41ECF2AE0E5
:1032B000E22EF12C9CEC892E982CA82C9CE0B92EA7
:1032C000B7CFFC0188279927E89421912032E9F3B0
:1032D000293010F02E30C8F32B3241F02D3239F462
:1032E000689404C00E949319820F911D219120536C
:1032F0002A30C0F31EF4909581959F4F0895911147
:103300000C949B19803219F089508550C8F70895A4
:10331000FC016150704001900110D8F780959095A4
:103320008E0F9F1F08957AE0979F902D879F802D85
:10333000910D11240895992788270895F999FECFB2
:1033400092BD81BDF89A992780B50895262FF999E5
:10335000FECF1FBA92BD81BD20BD0FB6F894FA9A78
:10336000F99A0FBE01960895DB018F939F930E94F7
:10337000E619BF91AF91A29F800D911DA39F900D63
:10338000B29F900D11240895A1E21A2EAA1BBB1B17
:10339000FD010DC0AA1FBB1FEE1FFF1FA217B30721
:1033A000E407F50720F0A21BB30BE40BF50B661F37
:1033B000771F881F991F1A9469F7609570958095FB
:1033C00090959B01AC01BD01CF0108950E94F119B8
:1033D000A59F900DB49F900DA49F800D911D112469
:1033E0000895A29FB001B39FC001A39F700D811DDE
:1033F0001124911DB29F700D811D1124911D0895FE
:10340000AA1BBB1B51E107C0AA1FBB1FA617B7070A
:1034100010F0A61BB70B881F991F5A95A9F7809526
:103420009095BC01CD01089597FB072E16F40094EA
:1034300007D077FD09D00E94001A07FC05D03EF4A2
:10344000909581959F4F0895709561957F4F089550
:10345000EE0FFF1F881F8BBF0790F691E02D199488
:103460000F931F93CF93DF938230910510F482E086
:1034700090E0E0913B09F0913C0930E020E0B0E0C1
:10348000A0E0309799F42115310509F44AC0281BB2
:10349000390B24303105D8F58A819B81611571057E
:1034A00089F1FB0193838283FE0111C04081518128
:1034B0000281138148175907E0F04817590799F41A
:1034C000109761F012960C93129713961C933296F4
:1034D000CF01DF91CF911F910F91089500933B0988
:1034E00010933C09F4CF2115310551F042175307D1
:1034F00038F0A901DB019A01BD01DF01F801C1CF5C
:10350000EF01F9CF90933C0980933B09CDCFFE01A9
:10351000E20FF31F8193919322503109398328835D
:10352000D7CF2091390930913A09232B41F42091CA
:1035300004023091050230933A0920933909209111
:103540000202309103022115310541F42DB73EB737
:103550004091060250910702241B350BE091390976
:10356000F0913A09E217F307A0F42E1B3F0B28173E
:10357000390778F0AC014E5F5F4F2417350748F0EC
:103580004E0F5F1F50933A094093390981939193ED
:103590009FCFF0E0E0E09CCFCF93DF930097E9F07E
:1035A000FC01329713821282A0913B09B0913C0931
:1035B000ED0130E020E01097A1F420813181820FED
:1035C000931F2091390930913A092817390709F0DA
:1035D00061C0F0933A09E0933909DF91CF910895E2
:1035E000EA01CE17DF07E8F54A815B819E014115AC
:1035F0005105B1F7E901FB83EA8349915991C40F61
:10360000D51FEC17FD0761F4808191810296840F2C
:10361000951FE90199838883828193819B838A83A3
:10362000F0E0E0E012968D919C9113970097B9F528
:103630002D913C911197CD010296820F931F2091FD
:10364000390930913A092817390739F6309751F579
:1036500010923C0910923B09B0933A09A0933909A2
:10366000BCCFD383C28340815181840F951FC8177B
:10367000D90761F44E5F5F4F88819981480F591FC8
:10368000518340838A819B819383828321153105F5
:1036900009F0B0CFF0933C09E0933B099ECFFD01C8
:1036A000DC01C0CF13821282D7CF81E090E0F89482
:1036B0000C946F1EFB01DC0102C001900D92415081
:1036C0005040D8F70895DC0101C06D93415050403F
:1036D000E0F70895FB01DC018D9101908019011044
:1036E000D9F3990B0895FB01DC0101900D920020A4
:1036F000E1F70895FB01DC014150504030F08D911D
:103700000190801919F40020B9F7881B990B0895CE
:10371000FB01DC014150504048F001900D92002027
:10372000C9F701C01D9241505040E0F708950F9332
:103730001F93CF93DF93CDB7DEB72E970FB6F894D4
:10374000DEBF0FBECDBF0E891F89888D998D26E003
:103750002C831A83098397FF02C080E090E80197C9
:103760009E838D83AE01445E5F4F6A8D7B8DCE015B
:1037700001960E94D41B4D815E8157FD0AC02F81A6
:103780003885421753070CF49A01020F131FF801F2
:1037900010822E960FB6F894DEBF0FBECDBFDF911C
:1037A000CF911F910F9108952F923F924F925F9268
:1037B0006F927F928F929F92AF92BF92CF92DF9241
:1037C000EF92FF920F931F93CF93DF9300D000D01F
:1037D00000D01F921F92CDB7DEB77C013B018A015A
:1037E000FC0117821682838181FFDDC1CE01019623
:1037F0005C01F7019381F30193FD859193FF819122
:103800003F01882309F453C1853239F493FD859132
:1038100093FF81913F01853229F4B70190E00E9426
:10382000E11DE7CF912C212C312CFFE1F31538F06D
:103830008B3211F190F4803209F1833229F137FC97
:103840003CC020ED280F2A3050F536FE20C08AE01B
:10385000989E200D1124922E06C08D3291F0803357
:1038600071F7689430F8F30193FD859193FF81918E
:103870003F018111DACF21C0689431F8689432F8A1
:10388000F2CF689433F8EFCF689434F8ECCFEAE0E5
:103890002E9E200D1124222E689435F8E4CF8E320E
:1038A00029F436FC04C1689436F8DDCF8C3619F45F
:1038B000689437F8D8CF8836B1F2982F9F7D955409
:1038C0009330E0F08336A1F18337C1F1833509F0FD
:1038D00063C02801F2E04F0E511CF801C080D18076
:1038E000692D70E036FC02C06FEF7FEFC6010E94C9
:1038F000D61D4C01689437F882010AC00C5F1F4F37
:10390000FFE3F98388248394912C6501E89437F8C8
:1039100033FE2DC0522C8114910471F5552009F409
:1039200068CFB70180E290E00E94E11D5A94F6CF83
:10393000F801808189830E5F1F4FE4CF2801F2E0F8
:103940004F0E511CF801C080D180692D70E036FC0B
:1039500002C06FEF7FEFC6010E9488194C018201FF
:10396000D5CFB70180E290E00E94E11D2A9428148F
:10397000190409F0B0F7CECFF60137FC859137FE78
:1039800081916F01B70190E00E94E11D51105A949E
:10399000F1E08F1A9108BFCF843619F0893609F00B
:1039A00077C0F80137FE6BC060817181828193819D
:1039B0000C5F1F4FF32DFF763F2E97FF09C09095A8
:1039C0008095709561957F4F8F4F9F4F689437F822
:1039D0002AE030E0A5010E94111EC82ECA188C2CC6
:1039E000432C36FE0CC0E89440F8C91440F434FE71
:1039F00005C032FC03C0F32DFE7E4F2E892C44FE01
:103A0000AAC0FE01EC0DF11D8081803309F09CC03D
:103A1000242D297E422E842D8870582E43FCAAC066
:103A200040FEA4C09C2C821418F42C0C922C9818E4
:103A300044FEA6C0B70180E390E00E94E11D42FE73
:103A400009C088E790E041FE02C088E590E0B70138
:103A50000E94E11DC91408F49FC0CA94D12C9FEFA5
:103A6000C91AD90ACA0CDB1CF60182916F01B70191
:103A700090E00E94E11DAC14BD04B1F74FCF60810E
:103A80007181072E000C880B990B0E5F1F4F92CF90
:103A9000D32CE894D4F82AE030E08537E1F1232DE7
:103AA000297FD22E8F36A9F1F0F4883551F1F70134
:103AB000868197812B960FB6F894DEBF0FBECDBFDF
:103AC000DF91CF911F910F91FF90EF90DF90CF90FA
:103AD000BF90AF909F908F907F906F905F904F902E
:103AE0003F902F900895803749F0883701F7D4FE32
:103AF00002C06894D2F820E130E00DC06894D4F898
:103B0000F6CF34FE03C0822F8660D82E20E132E04B
:103B100002C028E030E0F801D7FE0FC0608171815B
:103B2000828193810C5F1F4FA5010E94111EC82E38
:103B3000CA183D2CE89437F852CF6081718190E02B
:103B400080E00E5F1F4FF0CF42FC02C0839463CF32
:103B50008394839460CF842D867809F45CCFF6CF6C
:103B6000B70180E290E00E94E11D83948214C0F3CB
:103B7000512C5ECF522C5818821408F459CFF8CF2C
:103B8000842D867809F466CF8BE241FE80E247FC03
:103B90008DE2B70190E05CCFB70180E390E00E9436
:103BA000E11D9A9457CF8FEF9FEF84CFFC010590D2
:103BB000615070400110D8F7809590958E0F9F1F2F
:103BC00008950F931F93CF93DF93182F092FEB01C5
:103BD0008B8181FD09C01FEF0FEF812F902FDF91A7
:103BE000CF911F910F91089582FF14C02E813F81C4
:103BF0008C819D81281739073CF4E881F981CF0138
:103C000001969983888310838E819F8101969F837B
:103C10008E83E3CFE885F985812F1995892BA1F350
:103C2000DACFFA01AA27283051F1203181F1E89446
:103C30006F936E7F6E5F7F4F8F4F9F4FAF4FB1E09F
:103C40003ED0B4E03CD0670F781F891F9A1FA11D9A
:103C5000680F791F8A1F911DA11D6A0F711D811D9B
:103C6000911DA11D20D009F468943F912AE0269F60
:103C700011243019305D3193DEF6CF010895462FBF
:103C80004770405D4193B3E00FD0C9F7F6CF462FA0
:103C90004F70405D4A3318F0495D31FD4052419309
:103CA00002D0A9F7EACFB4E0A695979587957795C6
:103CB0006795BA95C9F700976105710508959B014D
:103CC000AC010A2E06945795479537952795BA95D6
:103CD000C9F7620F731F841F951FA01D0895F894E4
:023CE000FFCF14
:103CE2000C0200003D098000000000001207B01025
:103CF2001D07150721072007CF1018072C073E07BD
:103D020046074E0756075E0766073203360342032D
:103D12004E03580300000000EA042703420511077E
:103D220042053F05390A3C053C0500000000EA0453
:103D3200270342051107AE050710A80F85053C05AC
:103D4200667720302E322E302D68616C20617761CB
:103D52006974696E67005A45524F5458205646445A
:103D62002020202020202020202000B203B903BEE2
:103D72000390046E07730708091E1F2021222300E7
:103D8200023209D80800000000BD03270354030AC9
:103D920004850363037703000000001407B41017BF
:103DA200071507A807D40C3B0A000000001307B24E
:103DB200101A0715075E07860688096C65642E745B
:103DC2007261636B62616C6C0068616C00455645A0
:103DD2004E542000726561647900212000696E6989
:103DE200742D6661696C65642072633D256400769A
:103DF20066642E30003E2000756E6B6E6F776E002B
:103E0200534554006D697373696E672D73746174E1
:103E120065006F666600677265656E2D736F6C690B
:103E22006400677265656E2D70756C7365007265EE
:103E3200642D736F6C6964007265642D626C696EC7
:103E42006B00696E76616C69642D737461746500D0
:103E5200474554006C65642E747261636B62616CD9
:103E62006C202573002D006E6F742D696E69746964
:103E7200616C697A6564006D697373696E672D7030
:103E82006172616D006D697373696E672D6D6F6428
:103E9200650062616E6E65720069646C6500616DD9
:103EA2006269656E7400696E76616C69642D6D6F0E
:103EB2006465006272696768746E657373006D6928
:103EC2007373696E672D6C6576656C00696E7661D9
:103ED2006C69642D6C6576656C00636C656172005B
:103EE2006C696E65006D697373696E672D726F77A9
:103EF20000696E76616C69642D726F770074696314
:103F02006B006D697373696E672D61726D2D7374C9
:103F1200617465006D697373696E672D666D6D6F8F
:103F22006465006D697373696E672D6C71006D69EC
:103F32007373696E672D62617474006D697373695E
:103F42006E672D6B696E64007761726E00637269D1
:103F5200746963616C006661696C736166650069AE
:103F62006E76616C69642D616C61726D0064697357
:103F720061726D656400756E6B6E6F776E2D706128
:103F820072616D007666642E30206D6F64653D252A
:103F9200732061726D65643D256420666D6D6F648A
:103FA200653D2573206C713D257325752062617412
:103FB200743D257300252D313273204C513A25333F
:103FC2007500252D323073005A45524F5458202027
:103FD200202020252D3773005A45524F5458202057
:103FE20020202020202020202020200025632025A2
:103FF2002D313073204C513A25337500256320252D
:104002002D3138730025632041524D454420202034
:104012002020202020202020202020003F006D6131
:10402200700068616C206D617020736F75726365DA
:104032003D257320636F756E743D25750068616C54
:104042002070696E20257520257320257500736FF9
:10405200757263650068616C20736F7572636520A9
:10406200257300756E6B6E6F776E2D6765740070C9
:10407200696E0075736167653A7365742068616C77
:104082002070696E203C6E616D653E203C6E756DE0
:104092003E00696E76616C69642D70696E2D6E7575
:1040A2006D6265720070696E2D6F75742D6F662D6D
:1040B20072616E67650068616C2073746167656424
:1040C20020257320256C6420287265626F6F74202E
:1040D200746F206170706C79290073746167652D4B
:1040E2006661696C65640072657365742D646566EA
:1040F20061756C74730068616C2072657365742DF0
:1041020064656661756C747320737461676564209D
:10411200287265626F6F7420746F206170706C79A1
:10412200290068616C207265626F6F7400756E6B36
:104132006E6F776E2D73657400756E6B6E6F776E32
:104142002D70696E2D6E616D6500776174636864B0
:104152006F672D726573657400706F7765722D6F6E
:104162006E006C6F616465642D656570726F6D00C1
:104172006C6F616465642D64656661756C7473004F
:10418200302E332E302D766664007A65726F747825
:104192002D696F0072656164792025732025730093
:1041A2006C696E652D746F6F2D6C6F6E6700707227
:1041B2006F746F636F6C0076657273696F6E0076F1
:1041C200657273696F6E20257320257300636170B9
:1041D20073002025732E257500756E6B6E6F776EDA
:1041E2002D74617267657400756E6B6E6F776E2DDC
:1041F200636F6D6D616E64006C65645F74726163A0
:104202006B62616C6C5F677265656E006C65645FA2
:10421200747261636B62616C6C5F72656400766676
:1042220064305F727300766664305F656E00766636
:1042320064305F643400766664305F6435007666AD
:1042420064305F643600766664305F64370074659C
:0A4252007874006576656E74000054
:00000001FF
