:100000000C9442010C9473010C9473010C947301D1
:100010000C9473010C9473010C9473010C94730190
:100020000C9473010C9473010C9473010C94730180
:100030000C9473010C9473010C9473010C94730170
:100040000C9473010C9473010C9473010C94730160
:100050000C9473010C9473010C9473010C948B0732
:100060000C9473010C94FF070C94D5070C94730146
:100070000C9473010C9473010C9473010C94730130
:100080000C9473010C9473010C9473010C94730120
:100090000C9473010C9473010C9473010C94730110
:1000A0000C9473010C9473010C9473010C94730100
:1000B0000C9473010C9473010C9473010C947301F0
:1000C0000C9473010C9473010C9473010C947301E0
:1000D0000C9473010C9473010C9473010C947301D0
:1000E0000C9473010C9412020C94C2020C949705A8
:1000F0000C94C9040C9423040C942D040C949803C0
:100100000C946B040C9491020C9416020C94F30161
:100110000C9420020C947C050C94B4020C946402A0
:100120000C94A0020C9428040C9408020C94F7017F
:100130000C947A050C942B040C941A020C940C0267
:100140000C9435080C94E1010C9424040C94FB01EC
:100150000C942E020C94FF010C9432020C94280291
:100160000C9424020C9447030C94FA020C942C0473
:100170000C94DC010C9425040C94020200000A0B80
:1001800002090C0D0E080703040100000000000026
:10019000000000000000000000000000000000005F
:1001A000000000000000000012111000000000001C
:1001B000000000000000000000000000000000003F
:1001C000000000002200250028002B002E00310036
:1001D000340002010000050108010B0100002100AC
:1001E000240027002A002D00300033000101000008
:1001F000040107010A0105050505070508080808A7
:10020000020202020A0A08080404040401010101AE
:1002100001010101030303030303030304070707A9
:100220000C0C0C0C0C0C0C0C02020202060606064E
:10023000060606060B0B0B0B0B0B0B0B010210201B
:10024000200808102040102040800201020108040C
:1002500002010102040810204080804020100804A0
:1002600002018004020180402010080402010804F9
:10027000020101020408102040800102040810203D
:100280004080350811241FBECFEFD1E2DEBFCDBFC5
:1002900000E00CBF26E0ACEEB4E001C01D92A53238
:1002A000B207E1F714E0A0E0B2E0EAE1F5E200E035
:1002B0000BBF02C007900D92AC3EB107D9F711E019
:1002C000C2E4D1E000E006C021970109802FFE01C1
:1002D0000E945D0EC134D10780E00807A9F70E9493
:1002E0007C080C948B120C940000FC01AC01485F5C
:1002F0005F4F8FEF9FEF2191922728E0BC01880F7D
:10030000991F77FF04C031E2832730E19327215002
:10031000A9F7E417F50779F7089590E0FC01E45C8C
:10032000FD4F24918A509E4FFC018491882399F0BF
:1003300090E0880F991FFC01E452FE4FA591B49103
:10034000FC01EE53FE4F859194918FB7F894EC9198
:10035000E22BEC938FBF0895282F30E0F901E45889
:10036000FE4F9491F901E45CFD4F44912A503E4FB9
:10037000F9012491222309F435C0992311F19150F8
:100380009231F8F4E92FF0E08827E653FE4F8F4FC3
:100390000C945D0EFB01FF01DC01F301F701E101AB
:1003A000020208020C02120216021A0220022402A1
:1003B000E10128022E023202809180008F77809323
:1003C0008000E22FF0E0EE0FFF1FEE53FE4FA591ED
:1003D000B4918FB7F894EC91611148C040954E23C9
:1003E0004C938FBF0895809180008F7DE8CF8091DE
:1003F0008000877FE4CF84B58F7784BDE2CF84B55A
:100400008F7DFBCF8091B0008F778093B000D9CFE4
:100410008091B0008F7DF9CF809190008F7780938D
:100420009000CFCF809190008F7DF9CF8091900088
:10043000877FF5CF8091A0008F778093A000C1CFF8
:100440008091A0008F7DF9CF8091A000877FF5CFAC
:10045000809120018F7780932001B3CF809120017C
:100460008F7DF9CF80912001877FF5CF4E2BB8CFBC
:100470003FB7F8948091F4049091F504A091F604AC
:10048000B091F70426B5A89B05C02F3F19F001963F
:10049000A11DB11D3FBFBA2FA92F982F8827BC01DE
:1004A000CD01620F711D811D911D42E0660F771F06
:1004B000881F991F4A95D1F70895DC01ED91FC91B1
:1004C0000190F081E02D1994AF92BF92CF92DF920C
:1004D000EF92FF920F931F93CF93DF936C017B01F9
:1004E0008B01040F151FEB015E01AE18BF08C0178A
:1004F000D10759F06991D601ED91FC910190F081FD
:10050000E02DC6011995892B79F7C501DF91CF91AF
:100510001F910F91FF90EF90DF90CF90BF90AF9021
:100520000895FC01538D448D252F30E0842F90E0F9
:10053000821B930B541710F0CF96089501970895DE
:10054000FC01918D828D981761F0A28DAE0FBF2FA7
:10055000B11D5D968C91928D9F5F9F73928F90E0FD
:1005600008958FEF9FEF0895FC01918D828D98176C
:1005700031F0828DE80FF11D858D90E008958FEFA9
:100580009FEF0895FC01918D228D892F90E0805C72
:100590009F4F821B91098F739927089588EF94E0EC
:1005A0000E94C20221E0892B09F420E0822F0895E5
:1005B000FC01A48DA80FB92FB11DA35ABF4F2C91D8
:1005C000848D90E001968F739927848FA689B789CF
:1005D0002C93A089B1898C91837080648C93938DC6
:1005E000848D981306C00288F389E02D80818F7D69
:1005F00080830895EF92FF920F931F93CF93DF9321
:10060000EC0181E0888F9B8D8C8D98131AC0E8894E
:10061000F989808185FF15C09FB7F894EE89FF891D
:100620006083E889F98980818370806480839FBFBB
:1006300081E090E0DF91CF911F910F91FF90EF90BB
:100640000895F62E0B8D10E00F5F1F4F0F731127CB
:10065000E02E8C8D8E110CC00FB607FCFACFE88906
:10066000F989808185FFF5CFCE010E94D802F1CFB4
:10067000EB8DEC0FFD2FF11DE35AFF4FF0829FB77A
:10068000F8940B8FEA89FB8980818062CFCFCF936A
:10069000DF93EC01888D8823B9F0AA89BB89E889AA
:1006A000F9898C9185FD03C0808186FD0DC00FB650
:1006B00007FCF7CF8C9185FFF2CF808185FFEDCFCE
:1006C000CE010E94D802E9CFDF91CF91089580E05A
:1006D00090E0892B29F00E94CE0281110E94000037
:1006E00080E090E0892B49F080E090E0892B29F0B0
:1006F0000E94000081110E94000080E090E0892BA0
:1007000049F080E090E0892B29F00E9400008111DF
:100710000E94000080E090E0892B49F080E090E0AA
:10072000892B29F00E94000081110C94000008958B
:10073000CF92DF92EF92FF921F93CF93DF93EC0162
:100740006A017B018C818230C9F168F4882339F118
:1007500061E0813029F1DF91CF911F91FF90EF90FF
:10076000DF90CF900895833009F467C0843099F703
:1007700060E08A810E94AC01C701B60126E930E041
:1007800040E050E00E940D0ECA01B90160957095DD
:1007900080959095617077278827992705C060E03C
:1007A0008A810E94AC0160E08B81DF91CF911F9123
:1007B000FF90EF90DF90CF900C94AC01CB01BA0189
:1007C00020ED37E040E050E00E940D0E9B01AC01AF
:1007D000283E63E0360730F5AFEFB0E00E942F0E01
:1007E00028EE33E040E050E00E940D0E122FC701CA
:1007F000B60124E130E040E050E00E940D0E2FEF02
:10080000269FA001279F500D1124CA0164E170E0CA
:100810000E94490E81E01617170609F008F480E0DF
:10082000682FBECF80ED97E0BC01621B730B9B016C
:10083000AFEFB0E00E943A0ED3CF60E08A810E9411
:10084000AC0161E0B1CF089508958EE492E008957F
:100850008AE794E008950895089581E00895611568
:10086000710579F0FB0101900020E9F73197AF01A4
:10087000461B570BDC01ED91FC910280F381E02DCA
:10088000199490E080E00895EF92FF920F931F93E8
:10089000CF93DF93EC017B018A016CE572E00E944B
:1008A0002F04B701CE010E942F04F8018081882314
:1008B00041F060E2CE010E945D02B801CE010E94CB
:1008C0002F046AE0CE01DF91CF911F910F91FF902D
:1008D000EF900C945D020F931F93CF93DF93EC0185
:1008E0008B01ECEEF4E080818A8391819B830E94EE
:1008F0008D018B810E948D0160E08A810E94AC0194
:1009000060E08B810E94AC011C8243E652E06EE401
:1009100072E0C801DF91CF911F910F910C944404B4
:10092000EF92FF920F931F93CF93DF93EC017B0124
:100930008A0169E672E00E942F04B701CE010E948D
:100940002F0460E2CE010E945D02B801CE010E9438
:100950002F046AE0CE01DF91CF911F910F91FF909C
:10096000EF900C945D020F931F93CF93DF93EC01F4
:100970008B016CE672E00E942F04B801CE010E9448
:100980002F046AE0CE01DF91CF911F910F910C945B
:100990005D029F92AF92BF92CF92DF92EF92FF9251
:1009A0000F931F93CF93DF93CDB7DEB7A8970FB602
:1009B000F894DEBF0FBECDBFDA019C90992009F4F8
:1009C00097C01196AD90BC90A114B10409F490C0E9
:1009D00089017A016C0167E772E0C5010E948A0F04
:1009E000892B09F056C0B2E0B91530F4F701E58063
:1009F000F680E114F104D1F44BE752E06EE472E0CA
:100A0000C8010E94900481E0A8960FB6F894DEBF5A
:100A10000FBECDBFDF91CF911F910F91FF90EF904F
:100A2000DF90CF90BF90AF909F90089569E872E0FB
:100A3000C7010E948A0F892BF9F06DE872E0C701A7
:100A40000E948A0F892BE9F069E972E0C7010E94D0
:100A50008A0F892BC1F065EA72E0C7010E948A0FF4
:100A6000892B99F06FEA72E0C7010E948A0F892BE7
:100A700071F049EB52E0C2CF90E0D60114969C93FE
:100A8000C2CF91E0FACF92E0F8CF93E0F6CF94E0B6
:100A9000F4CF67EC72E0C5010E948A0F892B41F503
:100AA000D6011496EC918FE692E0E53038F4F0E050
:100AB000EE0FFF1FE65EFD4F808191819F938F9324
:100AC0008BEC92E09F938F931F9288E28F93FE01AD
:100AD00031967F01FF93EF930E94A80FB701C801E1
:100AE0000E94B3040FB6F894DEBF0FBECDBF8BCF0C
:100AF00080E08ACF0C94010F0C94010FFF920F93AA
:100B00001F93CF93DF93EC01F62E08811981C80162
:100B10000E94E70DF81621F06F2DC8010E94EF0D1D
:100B2000CE01DF91CF911F910F91FF9008952F92E9
:100B30003F924F925F926F927F928F929F92AF926D
:100B4000BF92CF92DF92EF92FF920F931F93CF93BA
:100B5000DF93CDB7DEB7C554D1090FB6F894DEBF29
:100B60000FBECDBFDA01DC90DD2009F4D2C11196B1
:100B7000AD90BC90A114B10409F4CBC189017A01F4
:100B800067EC72E0C5010E948A0F892B09F0B6C09C
:100B9000B2E0BD1570F4F701E580F680E114F104D0
:100BA00041F06CED72E0C7010E948A0F892B09F0B9
:100BB00059C08091EE04813009F451C089E694E077
:100BC0001F9222E02F939F938F9380EE92E09F934A
:100BD0008F931F9280E4B82EBF92CE0101967C01C4
:100BE0009F938F930E94A80FB701C8010E94B3047E
:100BF0008091EC041F928F938BEF92E09F938F93E1
:100C00001F921F929FE0C92E93E0D92EDF92CF92C0
:100C10001F92BF92FF92EF920E94A80FB701C801E6
:100C20000E94B3048091ED041F928F9380E293E0C1
:100C30009F938F931F9281E08F93DF92CF921F92A9
:100C4000BF92FF92EF920E94A80F0FB6F894DEBFFA
:100C50000FBECDBFB701C8010E94B30429C08BE508
:100C600094E0AECF62E373E0C7010E948A0F892B44
:100C7000E9F58091EE048130B1F189E694E09F932B
:100C80008F9389E393E09F938F931F9288E28F93D2
:100C9000FE0131967F01FF93EF930E94A80FB701E9
:100CA000C8010E94B3040FB6F894DEBF0FBECDBFDB
:100CB00081E0CB5BDF4F0FB6F894DEBF0FBECDBF38
:100CC000DF91CF911F910F91FF90EF90DF90CF9028
:100CD000BF90AF909F908F907F906F905F904F905C
:100CE0003F902F9008958BE594E0C9CF47E453E0FF
:100CF0006AE774E0C8010E949004DACF67E772E007
:100D0000C5010E948A0F892B09F003C192E09D154D
:100D100038F4D7011596AD90BC90A114B10419F424
:100D200043E553E0E5CF61E673E0C5010E948A0F19
:100D3000892B09F0B1C0B3E0DB1681F0F7018780A1
:100D40009084F4E0DF1651F0D7011996ED90FC90F5
:100D50008114910419F0E114F10419F445E653E00B
:100D6000C7CF6BEF72E0C4010E948A0F892B79F024
:100D700060E273E0C4010E948A0F44E853E0892BCB
:100D800009F0B6CFB1E02696BFAF269703C02696EE
:100D90001FAE26974AE050E0BE016D5B7F4FC70152
:100DA0000E94AD0C2B013C012596EEADFFAD2597C1
:100DB000808145E953E081119BCF48EA53E0EFEF92
:100DC0004E1651046104710411F008F091CF8EEFBA
:100DD000840D843408F05DC0CE0101967C015C0175
:100DE000D12CC12C1C01C6010E94E70DD5018D93A9
:100DF0005D01BFEFCB1ADB0AE8E0CE16D10499F70C
:100E0000FE0126968FAD2697E80FF11D4782C70198
:100E10000E9475015C01D12CC12CD7016D917D011F
:100E20002396DFAECEAE2397CE018F5B9F4F0E94FD
:100E30007E05BFEFCB1ADB0AE8E0CE16D10469F7D6
:100E40002396DFAECEAE23976A2DCE018F5B9F4FE8
:100E50000E947E0589E090E023969FAF8EAF239796
:100E60006B2DCE018F5B9F4F0E947E057F926F920C
:100E70005F924F929F928F9289EB93E09F938F9313
:100E80001F9280E48F933F922F920E94A80FB1018E
:100E900007CF4DED53E02CCF6AEE73E0C5010E9401
:100EA0008A0F892B99F4F12CE12CFA82E9826FEFF9
:100EB000CE0101960E947E059FEFE91AF90AAAE089
:100EC000EA16F10491F769EF73E0C5CE69E274E0C8
:100ED000C5010E948A0F40E354E0892B09F008CF36
:100EE00065E274E0C8010E94B304D801ED91FC9161
:100EF0000680F781E02DC8011995F89488E198E003
:100F00000FB6F894A895809360000FBE9093600090
:100F1000FFCF80E0CECE1F920F920FB60F9211241A
:100F20002F933F938F939F93AF93BF938091F00440
:100F30009091F104A091F204B091F3043091EF0488
:100F400023E0230F2D3758F50196A11DB11D2093E5
:100F5000EF048093F0049093F104A093F204B09313
:100F6000F3048091F4049091F504A091F604B091FB
:100F7000F7040196A11DB11D8093F4049093F5042C
:100F8000A093F604B093F704BF91AF919F918F9116
:100F90003F912F910F900FBE0F901F90189526E84C
:100FA000230F0296A11DB11DD2CF1F920F920FB633
:100FB0000F9211240BB60F922F933F934F935F9391
:100FC0006F937F938F939F93AF93BF93EF93FF9311
:100FD00088EF94E00E94D802FF91EF91BF91AF910A
:100FE0009F918F917F916F915F914F913F912F9141
:100FF0000F900BBE0F900FBE0F901F9018951F9271
:101000000F920FB60F9211240BB60F922F938F935E
:101010009F93EF93FF93E0910805F091090580817C
:10102000E0910E05F0910F0582FD1DC09081809129
:1010300011058F5F8F7320911205821741F0E091A7
:101040001105F0E0E850FB4F958F80931105FF915B
:10105000EF919F918F912F910F900BBE0F900FBE2C
:101060000F901F9018958081F2CFE8EFF4E0138283
:10107000128288EE93E0A0E0B0E084839583A6839B
:10108000B7838EE292E09183808385EC90E0958730
:10109000848784EC90E09787868780EC90E0918B42
:1010A000808B81EC90E0938B828B82EC90E0958B2F
:1010B000848B86EC90E0978B868B118E128E138E2C
:1010C000148EAAE1B6E080E492E011969C938E9390
:1010D0008FEF12968C93129713968C931397149606
:1010E0001C92F0939605E0939505109218061092C5
:1010F0001706109219060895CF93DF93CDB7DEB788
:10110000C159D1090FB6F894DEBF0FBECDBF789498
:1011100084B5826084BD84B5816084BD85B58260FC
:1011200085BD85B5816085BD80916E0081608093AD
:101130006E00109281008091810082608093810016
:101140008091810081608093810080918000816026
:10115000809380008091B10084608093B100809181
:10116000B00081608093B000809191008260809394
:101170009100809191008160809391008091900016
:101180008160809390008091A10082608093A10093
:101190008091A10081608093A1008091A000816076
:1011A0008093A00080912101826080932101809131
:1011B00021018160809321018091200181608093D1
:1011C000200180917A00846080937A0080917A0077
:1011D000826080937A0080917A00816080937A00A7
:1011E00080917A00806880937A001092C10014B7D1
:1011F00014BE0FB6F894A895809160008861809322
:101200006000109260000FBEE0910805F0910905A2
:1012100082E08083E0910405F09105051082E09161
:101220000605F091070580E1808310921005E0919A
:101230000C05F0910D0586E08083E0910A05F091A0
:101240000B05808180618083E0910A05F0910B0598
:10125000808188608083E0910A05F0910B05808190
:1012600080688083E0910A05F0910B0580818F7D75
:1012700080830E9438024B015C0154E6C52ED12CBC
:10128000E12CF12C0E943802681979098A099B091E
:10129000683E734081059105A8F321E0C21AD10888
:1012A000E108F10888EE880E83E0981EA11CB11CAD
:1012B000C114D104E104F10429F74CE354E013FD17
:1012C00002C04BE454E06BE274E088EF94E00E94CB
:1012D00044046E01B1E8CB0ED11CF12CE12C860147
:1012E000C7010E94E70DF60181936F01FFEFEF1A2E
:1012F000FF0A26E0E216F10499F7F8018081918156
:10130000A281B38183349245A544BA4509F445C00E
:1013100080912402909125029093ED048093EC0437
:1013200083E4898382E58A8385E48B838AE58C83E1
:1013300081E08D8382E08E8388E08F8389E08887D7
:10134000CE0101960E9475015C01CE0101966C01EF
:10135000F12CE12CD6016D916D01F801F182E08252
:10136000C8010E947E05FFEFEF1AFF0A28E0E2168F
:10137000F10481F7D801ED92FC926A2DC8010E9418
:101380007E0589E090E0F801918380836B2DC80190
:101390000E947E051092EE0441C0D8011496BC90C4
:1013A000B1E0BB12B5CFF8018581823009F0B0CF32
:1013B00086E090E00E94E70DE82E87E090E00E9432
:1013C000E70DF82E88E090E00E94E70DC82E89E036
:1013D00090E00E94E70DD82E86E0F801DE0111961C
:1013E00001900D928A95E1F7EF82F886CE01019681
:1013F0000E947501C816D90609F08ACF8EEF8E0DAE
:10140000843408F085CF8EEF8F0D843408F080CFC0
:10141000E092EC04F092ED04B092EE048091EE04C0
:1014200044E554E0813011F042E654E06AE774E0AC
:1014300088EF94E00E944404E0910002F0910102E0
:101440000084F185E02D68EF74E080E092E019956A
:10145000E0911A06F0911B060084F185E02D68EFFB
:1014600074E08AE196E0199584E794E09F938F9366
:101470008EE794E09F938F9388E894E09F938F93F7
:101480001F9280E48F9381E090E08C0F9D1F9F93CB
:101490008F930E94A80FAE014F5F5F4F6BE274E025
:1014A00088EF94E00E94440488E19DE00FB6F89430
:1014B000A895809360000FBE909360000FB6F894DB
:1014C000DEBF0FBECDBF7724739440E8242E312CAD
:1014D000A89581E1F80111928A95E9F78091950527
:1014E00090919605DC01ED91FC910084F185E02D51
:1014F0001995181619060CF0A5C0809195059091C4
:101500009605DC01ED91FC910284F385E02D19959F
:1015100097FD98C08A30910509F0DCC090911906BA
:10152000992389F044E954E062EA74E080919505DA
:10153000909196050E94900410921806109217063A
:1015400010921906CBCFE0911706F0911806EB56D2
:10155000FA4F1282F801108227E935E0F901808103
:101560002F5F3F4F8032D1F38930C1F38823C1F020
:101570008332B1F080E0A82FB0E0AA0FBB1F119614
:10158000AD01400F511F9081992309F4A0C088300C
:1015900008F482C0D8018C9391E0811101C090E0E1
:1015A000109218061092170610921906992309F442
:1015B00095CFD801FC90FF2009F437C1F801818153
:1015C0009281009709F42EC167EC72E00E948A0FA5
:1015D000892B09F027C1F1E0FF1508F026C1D801D9
:1015E0001396ED90FC90E114F10409F426C16BEA26
:1015F00074E0C7010E948A0F892B09F08AC0E4E7D2
:10160000F4E0FF93EF938EE794E09F938F93E3EBE7
:10161000F4E0FF93EF931F9280E48F9381E090E0DA
:101620008C0F9D1F9F938F930E94A80FBE016F5F29
:101630007F4F88EF94E00E94B3040FB6F894DEBFAA
:101640000FBECDBF8FB7F894C090F004D090F104D6
:10165000E090F204F090F3048FBFE0910002F0916B
:1016600001020284F385E02D28EF34E0B701A601E2
:1016700080E092E01995E0911A06F0911B06028431
:10168000F385E02D28EF34E0B701A6018AE196E06A
:1016900019950E9467031CCF8F5FDA01ED93FD93CC
:1016A000AD019F01F901D9019D919D01992309F493
:1016B0006ACF903211F09930A9F71082F901D9015F
:1016C0009D919D019032D1F39930C1F354CFF8012F
:1016D000808362CF8D30910509F400CF20911906E7
:1016E0002111FCCE2091170630911806A9014F5FF9
:1016F0005F4F4038510518F070921906EFCE5093A5
:101700001806409317062B563A4FD90112968C9320
:10171000E5CE61EC74E0C7010E948A0F892B09F0C5
:101720008CC061EC74E0CE0101960E94930F96E2AA
:10173000892E92E0992E24E0E22EF12CF401C19042
:10174000D1904F01D601ED91FC910480F581E02DFF
:10175000C6011995682E592ED601ED91FC9106808F
:10176000F781E02DC6011995823070F18150C82EA5
:10177000D12CB12CA12CBF92AF925F926F92E6EC6C
:10178000F4E0FF93EF93C1018E199F099F938F930C
:1017900081E090E08C0F9D1F8E0D9F1D9F938F9376
:1017A0000E94A80FE80EF91E0FB6F894DEBF0FBE18
:1017B000CDBFCA14DB0421F19FEFA91AB90AA0E832
:1017C000EA16F104C4F226C05F926F92E3E4F3E0FC
:1017D000FF93EF93C1018E199F099F938F9381E02F
:1017E00090E08C0F9D1F8E0D9F1D9F938F930E94E5
:1017F000A80FE80EF91E0FB6F894DEBF0FBECDBFDE
:101800009AE2891692E0990629F0B0E8EB16F10405
:101810000CF494CFBE016F5F7F4F88EF94E00E947D
:10182000B30410CFA1E0AF1540F0F8018081823001
:1018300008F086C062E774E089C0D8011396AD90C5
:10184000BC90A114B10489F386E2882E82E0982E20
:10185000F401C190D1904F01D601ED91FC9104802B
:10186000F581E02DC6011995BC01FC010190002015
:10187000E9F731977F01E81AF90AA701C5010E942B
:101880009A0F892B09F053C0F501EE0DFF1D8081E1
:10189000882309F453C08E3209F049C0C70101966C
:1018A0008A0D9B1DFC01208121111FC060E0D12CFD
:1018B000C12CC114D10409F4B8CFD601ED91FC912B
:1018C0000484F585E02D28EF34E0A801C6011995C0
:1018D0008111B8CEF801808170E060E0823010F0B4
:1018E000638174814CED54E033C04AE050E0BE01A6
:1018F0006F5F7F4F0E94AD0C4B015C01E981FA8163
:1019000080818111D3CFB7FCD1CFD601ED91FC916D
:101910000680F781E02DC601199590E0B0E0A0E0C7
:10192000682D88169906AA06BB061CF2BFCFEAE20C
:10193000F2E0E815F90509F08BCF77CF60E0B9CF79
:10194000638174816115710509F474CF4DEC54E025
:1019500088EF94E00E94900475CE3F924F925F9280
:101960006F927F928F929F92AF92BF92CF92DF92AF
:10197000EF92FF920F931F93CF93DF935C016B0164
:101980007A016115710519F0FB0191838083E114DF
:10199000F10451F0C7010297839730F040E030E046
:1019A00020E090E06BC05E01E5012196F501108119
:1019B000812F90E00E94DB0D892BA9F71D3201F5E4
:1019C0002196F501118101E0E114F10409F4E6C06A
:1019D000F0E1EF16F10409F088C0103359F4888162
:1019E0008F7D883509F07CC0198122960260F0E174
:1019F000EF2EF12C812C912CA12C88E0B82E92C0D6
:101A00001B3221F4E5012296F501118100E0DCCFC3
:101A1000EAE0EE16F10409F4C7C0F0E1EF16F104B4
:101A200009F073C0E7CF78E0E72EF12C812C912CE0
:101A3000A12C60E1B62E76C021E0ADC0302F317010
:101A4000C114D10431F0222371F12197F601D18321
:101A5000C08327FF2EC060E070E080E090E8311185
:101A600004C06FEF7FEF8FEF9FE722E230E030930B
:101A7000200620931F06462F372F282F642F732F01
:101A8000822FDF91CF911F910F91FF90EF90DF9008
:101A9000CF90BF90AF909F908F907F906F905F900E
:101AA0004F903F90089501FF04C02297F601D18323
:101AB000C083332341F090958095709561957F4F59
:101AC0008F4F9F4FD8CF97FFD6CF82E290E0909371
:101AD000200680931F066FEF7FEF8FEF9FE7CBCF3E
:101AE00010E3E114F10409F49ECF28E0E216F104BA
:101AF00009F49CCF0CF08CCF812C912CA12CE0E42C
:101B0000BE2E82E0E816F10469F060E070E080E04B
:101B100090E897010F2C000C440B550B0E940D0E02
:101B200049015A0120E060E070E0CB0127010F2C51
:101B3000000C66087708FE0150ED352E310E39E0B5
:101B4000331570F43FEB310F49EC342E3A3138F055
:101B50003FE9310F3A3108F071CF39EA332E310EB7
:101B60003E141F040CF06ACF27FD15C08616970699
:101B7000A806B90678F0A30192010E94FD0D630D3D
:101B8000711D811D911D61307105810520E892074D
:101B900008F452CF2FEF21961081CDCF103309F4E6
:101BA0001ECF2AE0E22EF12C9CEC892E982CA82C3A
:101BB0009CE0B92EB7CF91110C94E40D803219F04E
:101BC00089508550C8F70895992788270895F9996D
:101BD000FECF92BD81BDF89A992780B50895262F32
:101BE000F999FECF1FBA92BD81BD20BD0FB6F89402
:101BF000FA9AF99A0FBE01960895DB018F939F938D
:101C00000E942F0EBF91AF91A29F800D911DA39FA7
:101C1000900DB29F900D11240895A1E21A2EAA1BD7
:101C2000BB1BFD010DC0AA1FBB1FEE1FFF1FA2178C
:101C3000B307E407F50720F0A21BB30BE40BF50B89
:101C4000661F771F881F991F1A9469F76095709512
:101C5000809590959B01AC01BD01CF0108950E9434
:101C60003A0EA59F900DB49F900DA49F800D911DDD
:101C700011240895A29FB001B39FC001A39F700DCE
:101C8000811D1124911DB29F700D811D1124911D84
:101C90000895AA1BBB1B51E107C0AA1FBB1FA617B3
:101CA000B70710F0A61BB70B881F991F5A95A9F705
:101CB00080959095BC01CD010895EE0FFF1F881F00
:101CC0008BBF0790F691E02D19940F931F93CF933C
:101CD000DF938230910510F482E090E0E0912306DA
:101CE000F091240630E020E0B0E0A0E0309799F4D5
:101CF0002115310509F44AC0281B390B2430310560
:101D0000D8F58A819B816115710589F1FB01938367
:101D10008283FE0111C040815181028113814817E5
:101D20005907E0F04817590799F4109761F0129697
:101D30000C93129713961C933296CF01DF91CF919B
:101D40001F910F9108950093230610932406F4CF5A
:101D50002115310551F04217530738F0A901DB0175
:101D60009A01BD01DF01F801C1CFEF01F9CF9093D6
:101D7000240680932306CDCFFE01E20FF31F81934B
:101D800091932250310939832883D7CF209121069E
:101D900030912206232B41F4209104023091050258
:101DA00030932206209321062091020230910302F3
:101DB0002115310541F42DB73EB7409106025091EF
:101DC0000702241B350BE0912106F0912206E21751
:101DD000F307A0F42E1B3F0B2817390778F0AC014E
:101DE0004E5F5F4F2417350748F04E0F5F1F50932B
:101DF000220640932106819391939FCFF0E0E0E08B
:101E00009CCFCF93DF930097E9F0FC0132971382C8
:101E10001282A0912306B0912406ED0130E020E06B
:101E20001097A1F420813181820F931F2091210608
:101E3000309122062817390709F061C0F093220675
:101E4000E0932106DF91CF910895EA01CE17DF07D5
:101E5000E8F54A815B819E0141155105B1F7E90121
:101E6000FB83EA8349915991C40FD51FEC17FD07F5
:101E700061F4808191810296840F951FE901998315
:101E80008883828193819B838A83F0E0E0E01296CD
:101E90008D919C9113970097B9F52D913C911197D5
:101EA000CD010296820F931F2091210630912206C8
:101EB0002817390739F6309751F5109224061092F9
:101EC0002306B0932206A0932106BCCFD383C283FE
:101ED00040815181840F951FC817D90761F44E5F67
:101EE0005F4F88819981480F591F518340838A81B0
:101EF0009B81938382832115310509F0B0CFF09344
:101F00002406E09323069ECFFD01DC01C0CF13829F
:101F10001282D7CFFB01DC018D9101908019011055
:101F2000D9F3990B0895FB01DC0101900D9200207B
:101F3000E1F70895FB01DC014150504030F08D91F4
:101F40000190801919F40020B9F7881B990B0895A6
:101F50000F931F93CF93DF93CDB7DEB72E970FB6B6
:101F6000F894DEBF0FBECDBF0E891F89888D998D75
:101F700026E02C831A83098397FF02C080E090E853
:101F800001979E838D83AE01445E5F4F6A8D7B8D8A
:101F9000CE0101960E94E50F4D815E8157FD0AC07A
:101FA0002F813885421753070CF49A01020F131F33
:101FB000F80110822E960FB6F894DEBF0FBECDBF8B
:101FC000DF91CF911F910F9108952F923F924F92E1
:101FD0005F926F927F928F929F92AF92BF92CF92B9
:101FE000DF92EF92FF920F931F93CF93DF9300D076
:101FF00000D000D01F921F92CDB7DEB77C013B010D
:102000008A01FC0117821682838181FFDDC1CE0126
:1020100001965C01F7019381F30193FD859193FF94
:1020200081913F01882309F453C1853239F493FD2E
:10203000859193FF81913F01853229F4B70190E0AA
:102040000E94FD11E7CF912C212C312CFFE1F315DB
:1020500038F08B3211F190F4803209F1833229F19A
:1020600037FC3CC020ED280F2A3050F536FE20C04A
:102070008AE0989E200D1124922E06C08D3291F098
:10208000803371F7689430F8F30193FD859193FFE5
:1020900081913F018111DACF21C0689431F86894B1
:1020A00032F8F2CF689433F8EFCF689434F8ECCF7D
:1020B000EAE02E9E200D1124222E689435F8E4CFFC
:1020C0008E3229F436FC04C1689436F8DDCF8C36A4
:1020D00019F4689437F8D8CF8836B1F2982F9F7DDD
:1020E00095549330E0F08336A1F18337C1F1833505
:1020F00009F063C02801F2E04F0E511CF801C080C6
:10210000D180692D70E036FC02C06FEF7FEFC60111
:102110000E94E7114C01689437F882010AC00C5FF5
:102120001F4FFFE3F98388248394912C6501E89481
:1021300037F833FE2DC0522C8114910471F55520CF
:1021400009F468CFB70180E290E00E94FD115A9433
:10215000F6CFF801808189830E5F1F4FE4CF2801FD
:10216000F2E04F0E511CF801C080D180692D70E063
:1021700036FC02C06FEF7FEFC6010E94F2114C01E6
:102180008201D5CFB70180E290E00E94FD112A9430
:102190002814190409F0B0F7CECFF60137FC859169
:1021A00037FE81916F01B70190E00E94FD1151103F
:1021B0005A94F1E08F1A9108BFCF843619F089360E
:1021C00009F077C0F80137FE6BC0608171818281B0
:1021D00093810C5F1F4FF32DFF763F2E97FF09C0B1
:1021E00090958095709561957F4F8F4F9F4F689424
:1021F00037F82AE030E0A5010E942D12C82ECA1837
:102200008C2C432C36FE0CC0E89440F8C91440F4E2
:1022100034FE05C032FC03C0F32DFE7E4F2E892C08
:1022200044FEAAC0FE01EC0DF11D8081803309F04F
:102230009CC0242D297E422E842D8870582E43FC6C
:10224000AAC040FEA4C09C2C821418F42C0C922C22
:10225000981844FEA6C0B70180E390E00E94FD11EB
:1022600042FE09C088E790E041FE02C088E590E0A8
:10227000B7010E94FD11C91408F49FC0CA94D12C63
:102280009FEFC91AD90ACA0CDB1CF60182916F01B3
:10229000B70190E00E94FD11AC14BD04B1F74FCF1F
:1022A00060817181072E000C880B990B0E5F1F4F08
:1022B00092CFD32CE894D4F82AE030E08537E1F1CE
:1022C000232D297FD22E8F36A9F1F0F4883551F1D4
:1022D000F701868197812B960FB6F894DEBF0FBE6B
:1022E000CDBFDF91CF911F910F91FF90EF90DF90C5
:1022F000CF90BF90AF909F908F907F906F905F90A6
:102300004F903F902F900895803749F0883701F71C
:10231000D4FE02C06894D2F820E130E00DC0689489
:10232000D4F8F6CF34FE03C0822F8660D82E20E189
:1023300032E002C028E030E0F801D7FE0FC0608133
:102340007181828193810C5F1F4FA5010E942D1224
:10235000C82ECA183D2CE89437F852CF608171819D
:1023600090E080E00E5F1F4FF0CF42FC02C08394EC
:1023700063CF8394839460CF842D867809F45CCFF7
:10238000F6CFB70180E290E00E94FD1183948214A1
:10239000C0F3512C5ECF522C5818821408F459CF38
:1023A000F8CF842D867809F466CF8BE241FE80E277
:1023B00047FC8DE2B70190E05CCFB70180E390E08D
:1023C0000E94FD119A9457CF8FEF9FEF84CFFC01AD
:1023D0000590615070400110D8F7809590958E0F50
:1023E0009F1F0895FC016150704001900110D8F7C3
:1023F000809590958E0F9F1F08950F931F93CF93F5
:10240000DF93182F092FEB018B8181FD09C01FEF8E
:102410000FEF812F902FDF91CF911F910F91089592
:1024200082FF14C02E813F818C819D81281739073E
:102430003CF4E881F981CF01019699838883108368
:102440008E819F8101969F838E83E3CFE885F985F6
:10245000812F1995892BA1F3DACFFA01AA27283009
:1024600051F1203181F1E8946F936E7F6E5F7F4F61
:102470008F4F9F4FAF4FB1E03ED0B4E03CD0670FDD
:10248000781F891F9A1FA11D680F791F8A1F911D30
:10249000A11D6A0F711D811D911DA11D20D009F480
:1024A00068943F912AE0269F11243019305D3193C2
:1024B000DEF6CF010895462F4770405D4193B3E0AB
:1024C0000FD0C9F7F6CF462F4F70405D4A3318F052
:1024D000495D31FD4052419302D0A9F7EACFB4E003
:1024E000A6959795879577956795BA95C9F70097BB
:1024F0006105710508959B01AC010A2E069457955C
:10250000479537952795BA95C9F7620F731F841FB2
:0A251000951FA01D0895F894FFCF59
:10251A000C020000250680000000000023047A0552
:10252A0028042D042C042B04970589028D02990294
:10253A00A502AF02080900021A0600000000FA020A
:10254A00640291024703C202A002B4020000000022
:10255A0024047C0525042D046B049803C9046C65C6
:10256A00642E747261636B62616C6C004556454EF1
:10257A005420007265616479002120003E200075B4
:10258A006E6B6E6F776E00534554006D6973736995
:10259A006E672D7374617465006F66660067726595
:1025AA00656E2D736F6C696400677265656E2D7058
:1025BA00756C7365007265642D736F6C6964007263
:1025CA0065642D626C696E6B00696E76616C696414
:1025DA002D737461746500474554006C65642E74EC
:1025EA007261636B62616C6C202573006D617000AF
:1025FA0068616C206D617020736F757263653D252B
:10260A007320636F756E743D2575006C65645F7425
:10261A007261636B62616C6C5F677265656E00689C
:10262A00616C2070696E2025752025732025750040
:10263A006C65645F747261636B62616C6C5F726516
:10264A006400736F757263650068616C20736F75DF
:10265A0072636520257300756E6B6E6F776E2D67DA
:10266A006574006D697373696E672D706172616D4F
:10267A000070696E0075736167653A7365742068E6
:10268A00616C2070696E203C6E616D653E203C6E07
:10269A00756D3E00756E6B6E6F776E2D70696E2D5F
:1026AA006E616D6500696E76616C69642D70696E24
:1026BA002D6E756D6265720070696E2D6F75742D61
:1026CA006F662D72616E67650068616C2073746154
:1026DA0067656420257320256C6420287265626F03
:1026EA006F7420746F206170706C79290073746143
:1026FA0067652D6661696C65640072657365742D22
:10270A0064656661756C74730068616C20726573C8
:10271A0065742D64656661756C7473207374616782
:10272A00656420287265626F6F7420746F2061700F
:10273A00706C79290068616C207265626F6F740031
:10274A00756E6B6E6F776E2D736574007761746347
:10275A0068646F672D726573657400706F77657250
:10276A002D6F6E006C6F616465642D656570726FA4
:10277A006D006C6F616465642D64656661756C7467
:10278A0073003F00302E322E302D68616C007A655E
:10279A00726F74782D696F00726561647920257390
:1027AA00202573006C696E652D746F6F2D6C6F6ECA
:1027BA00670070726F746F636F6C0076657273690D
:1027CA006F6E0076657273696F6E202573202573AC
:1027DA000063617073002025732E257500756E6B7A
:1027EA006E6F776E2D74617267657400756E6B6EAD
:0C27FA006F776E2D636F6D6D616E640073
:00000001FF
