:100000000C94B3010C94E4010C94E4010C94E4010D
:100010000C94E4010C94E4010C94E4010C94E401CC
:100020000C94E4010C94E4010C94E4010C94E401BC
:100030000C94E4010C94E4010C94E4010C94E401AC
:100040000C94E4010C94E4010C94E4010C94E4019C
:100050000C94E4010C94E4010C94E4010C94471812
:100060000C94E4010C94BB180C9491180C94E401CA
:100070000C94E4010C94E4010C94E4010C94E4016C
:100080000C94E4010C94E4010C94E4010C94E4015C
:100090000C94E4010C94E4010C94E4010C94E4014C
:1000A0000C94E4010C94E4010C94E4010C94E4013C
:1000B0000C94E4010C94E4010C94E4010C94E4012C
:1000C0000C94E4010C94E4010C94E4010C94E4011C
:1000D0000C94E4010C94E4010C94E4010C94E4010C
:1000E0000C94E4010C944F020C948F030C94620363
:1000F0000C9461020C94600D0C94C10D0C941009C9
:100100000C94BF100C9445020C94A5080C94C908DB
:100110000C942A020C94DE060C941C020C948906A2
:100120000C94FC0B0C9426020C9453020C94FA0DC4
:100130000C942E020C94F8180C94F8030C94E1061D
:100140000C9431020C9402090C9419070C94860F3C
:100150000C942F100C94F4080C94C5100C94270FD9
:100160000C943B020C94DB060C9442070C94250A79
:100170000C94F7080C940F090C9449020C94220279
:100180000C94C9100C941A080C94F9080C94FF08EC
:100190000C94C0030C9437020C9457020C940A0977
:1001A0000C94C1100C949E030C9448160C945C02A1
:1001B0000C94C3100C94C7100C94F2080C9474099E
:1001C0000C94AD0C0C9404090C94F6080C94FC08E7
:1001D0000C94B2030C94F3080C945B130C94450438
:1001E0000C945D020C944D090C94F5080C940709CD
:1001F0000C9441020C94CA080C940C090C94F1085C
:100200000C94CB10101010101010100018181818A3
:10021000181818001C1C1C1C1C1C1C001E1E1E1E5A
:100220001E1E1E001F1F1F1F1F1F1F0000000E1F6E
:100230001F0E00000000000E0E000000000102145E
:100240000800000000002100240027002A002D00E3
:100250003000330001010000040107010A01000021
:100260002200250028002B002E003100340002015E
:100270000000050108010B010000200023002600FA
:1002800029002C002F0032000001000003010601AC
:10029000090105050505070508080808020202020C
:1002A0000A0A080804040404010101010101010112
:1002B0000303030303030303040707070C0C0C0CDD
:1002C0000C0C0C0C020202020606060606060606C6
:1002D0000B0B0B0B0B0B0B0B010210202008081053
:1002E00020401020408002010201080402010102A6
:1002F000040810204080804020100804020180047F
:1003000002018040201008040201080402010102D9
:1003100004081020408001020408102040800000E2
:100320000A0B02090C0D0E0807030401000000006F
:1003300000000000000000000000000000000000BD
:10034000000000000000000000001211100000007A
:10035000000000000000000000000000000000009D
:1003600000000000F81811241FBECFEFD1E2DEBF5D
:10037000CDBF00E00CBF2BE0A0E3B9E001C01D92AF
:10038000A831B207E1F719E0A0E0B2E0E4E4FAE452
:1003900000E00BBF02C007900D92A033B107D9F760
:1003A00011E0C3EBD1E000E006C021970109802FE6
:1003B000FE010E94D920C23BD10780E00807A9F7BF
:1003C0000E9491190C9420250C940000FC01AC01B2
:1003D000485E5F4F8FEF9FEF2191922728E0BC018D
:1003E000880F991F77FF04C031E2832730E19327FC
:1003F0002150A9F7E417F50779F708958150823164
:1004000008F05AC0E82FF0E08827E65FFD4F8F4FD5
:100410000C94D9202A022E021C02220226025C021F
:10042000310237023B024102450249024F025302A8
:100430005C0257025D026102809180008F77809399
:1004400080000895809180008F7DF9CF8091800099
:10045000877FF5CF84B58F7784BD089584B58F7D70
:10046000FBCF8091B0008F778093B000089580918A
:10047000B0008F7DF9CF809190008F7780939000AE
:100480000895809190008F7DF9CF80919000877FB3
:10049000F5CF8091A0008F778093A0000895809180
:1004A000A0008F7DF9CF8091A000877FF5CF80914C
:1004B00020018F77809320010895809120018F7D06
:1004C000F9CF80912001877FF5CFCF93DF93282F3D
:1004D00030E0F901E25EFC4F8491F901E852FD4FF2
:1004E000D491F901EE56FD4FC491CC23A1F08111B6
:1004F0000E94FE01EC2FF0E0EE0FFF1FE858FD4FC9
:10050000A591B491EC91ED2381E090E009F480E0B5
:10051000DF91CF91089580E090E0FACF1F93CF93C1
:10052000DF93282F30E0F901E25EFC4F8491F9015E
:10053000E852FD4FD491F901EE56FD4FC491CC2302
:10054000A9F0162F81110E94FE01EC2FF0E0EE0FB2
:10055000FF1FE25AFD4FA591B4918FB7F894EC912B
:10056000111108C0D095DE23DC938FBFDF91CF91AE
:100570001F910895DE2BF8CFCF93DF9390E0FC011D
:10058000E852FD4F24918E569D4FFC0184918823A3
:10059000C9F090E0880F991FFC01EC5BFD4FA5911D
:1005A000B491FC01E25AFD4FC591D49161110DC087
:1005B0009FB7F8948C91209582238C93888128236F
:1005C00028839FBFDF91CF910895623051F49FB788
:1005D000F8943C91822F809583238C93E8812E2B75
:1005E000EFCF8FB7F894EC912E2B2C938FBFEACFDF
:1005F0003FB7F8948091720990917309A0917409A2
:10060000B091750926B5A89B05C02F3F19F001963A
:10061000A11DB11D3FBFBA2FA92F982F8827BC015C
:10062000CD01620F711D811D911D42E0660F771F84
:10063000881F991F4A95D1F708958F929F92AF9284
:10064000BF92CF92DF92EF92FF924B015C010E942A
:10065000F8026B017C010E94F8026C197D098E0979
:100660009F09683E734081059105A8F321E0821A35
:100670009108A108B10888EEC80E83E0D81EE11CDD
:10068000F11C81149104A104B10429F7FF90EF90AB
:10069000DF90CF90BF90AF909F908F9008952FB72D
:1006A000F89460916E0970916F0980917009909132
:1006B00071092FBF0895DC01ED91FC910190F0814B
:1006C000E02D1994AF92BF92CF92DF92EF92FF92FA
:1006D0000F931F93CF93DF936C017B018B01040F6A
:1006E000151FEB015E01AE18BF08C017D10759F006
:1006F0006991D601ED91FC910190F081E02DC60148
:100700001995892B79F7C501DF91CF911F910F9131
:10071000FF90EF90DF90CF90BF90AF900895FC01D5
:10072000538D448D252F30E0842F90E0821B930B56
:10073000541710F0CF96089501970895FC01918DFC
:10074000828D981761F0A28DAE0FBF2FB11D5D96FF
:100750008C91928D9F5F9F73928F90E008958FEFA1
:100760009FEF0895FC01918D828D981731F0828D55
:10077000E80FF11D858D90E008958FEF9FEF0895AC
:10078000FC01918D228D892F90E0805C9F4F821B10
:1007900091098F739927089586E799E00E94C00315
:1007A00021E0892B09F420E0822F0895FC01A48D1B
:1007B000A80FB92FB11DA35ABF4F2C91848D90E083
:1007C00001968F739927848FA689B7892C93A08966
:1007D000B1898C91837080648C93938D848D9813F0
:1007E00006C00288F389E02D80818F7D8083089583
:1007F000EF92FF920F931F93CF93DF93EC0181E071
:10080000888F9B8D8C8D98131AC0E889F989808117
:1008100085FF15C09FB7F894EE89FF896083E8894A
:10082000F98980818370806480839FBF81E090E03C
:10083000DF91CF911F910F91FF90EF900895F62EC9
:100840000B8D10E00F5F1F4F0F731127E02E8C8D63
:100850008E110CC00FB607FCFACFE889F9898081A8
:1008600085FFF5CFCE010E94D603F1CFEB8DEC0FC3
:10087000FD2FF11DE35AFF4FF0829FB7F8940B8FC5
:10088000EA89FB8980818062CFCFCF93DF93EC012F
:10089000888D8823B9F0AA89BB89E889F9898C9168
:1008A00085FD03C0808186FD0DC00FB607FCF7CF24
:1008B0008C9185FFF2CF808185FFEDCFCE010E9424
:1008C000D603E9CFDF91CF91089580E090E0892BA6
:1008D00029F00E94CC0381110E94000080E090E08A
:1008E000892B49F080E090E0892B29F00E940000DC
:1008F00081110E94000080E090E0892B49F080E0A7
:1009000090E0892B29F00E94000081110E940000D4
:1009100080E090E0892B49F080E090E0892B29F07D
:100920000E94000081110C9400000895FF920F9323
:100930001F93CF93DF93EC01FF24F394F60E2885E9
:100940002F1581F109851A85215041F16F3FE1F49E
:1009500030E050E040E06FEF7FEF80E090E00E94F9
:10096000BA20B901F8014C815D81CF01801B910B48
:1009700084179507B0F44081469FC001479F900DB2
:10098000112490833196EFCF8F2D90E0982F8827F8
:100990000197622F70E00E949220E4CF70E060E047
:1009A000E1CFF886DF91CF911F910F91FF900895CD
:1009B0000F931F93DC0112968D919C9113976817EA
:1009C0007907C0F518968C911897882361F0489F95
:1009D000A0011124452F829F90011124232F809F75
:1009E00080011124012F1E968C911E971996ED916E
:1009F000FC911A971B969C911B9789131EC0CB01E3
:100A0000880F991F680F791F6E0F7F1F1B96EC913F
:100A10001B97E60FF72FF11D40831C96EC911C9756
:100A2000E60FF72FF11D20831D968C91680F711D25
:100A3000FB0100831F910F910895660F771F660FCA
:100A4000771F6E0F7F1FFB01E80FF11D1082DECFB5
:100A5000CF92DF92EF92FF920F931F93CF93DF938A
:100A600000D000D000D0CDB7DEB78C01DC011996E4
:100A70008D919C91892B09F473C00E94F802F801B2
:100A8000C784D088E188F2886C157D058E059F05A6
:100A900020F46787708B818B928BF801C784D08894
:100AA000E188F2886C197D098E099F096C327140CA
:100AB0008105910510F3F894D80114968D919C91BD
:100AC00015979A8389831996ED91FC917F01BFEF69
:100AD000EB1AFB0A80818987F80190810388F489E9
:100AE000E02DD80155968C91992309F448C0908146
:100AF000982B98879081809589238F838F818C8311
:100B000088E08B8358856F8149853B812C81898161
:100B10009A81D701508347FD252F3A952083262FB0
:100B200039F0441F00C000006083000000C0F2CF15
:100B300038E04D9160830000019761F7D801549629
:100B4000FC93EE93539749873B832C839A83898345
:100B500078940E94F802F8016787708B818B928BE2
:100B600029960FB6F894DEBF0FBECDBFDF91CF91AF
:100B70001F910F91FF90EF90DF90CF90089590819B
:100B8000982B98879081809589238F838F818E837E
:100B900088E08D8358856F8149853D812E818981CB
:100BA0009A81D701508347FD252F00C000C02083C4
:100BB00000C000C000C000C000C060830000262F3D
:100BC0003A9541F0441F000000C000C000C000C0C2
:100BD00000C0E8CF38E04D9100C0608300C00197AD
:100BE00009F7D8015496FC93EE93539749873D83B8
:100BF0002E83ACCFCF92DF92EF92FF920F931F9391
:100C0000CF93DF93EC01462FE881F9810484F585C9
:100C1000E02D61E070E019958C01CC88DD88EE88CC
:100C2000FF880E94F802688F798F8A8F9B8FCC8E05
:100C3000DD8EEE8EFF8E81E090E0012B11F090E0D2
:100C400080E0DF91CF911F910F91FF90EF90DF90A7
:100C5000CF9008958F929F92AF92BF92EF92FF92A2
:100C60001F93CF93DF93EC01162FE881F981048461
:100C7000F585E02D462F70E060E019957C0111505C
:100C80001230D8F419861A8688889988AA88BB8871
:100C90000E94F802688F798F8A8F9B8F8C8E9D8E31
:100CA000AE8EBF8EC701DF91CF911F91FF90EF9065
:100CB000BF90AF909F908F9008958C889D88AE884C
:100CC000BF88E6CFDC0118968C911897481710F072
:100CD0004FEF480F1B969C911B97992389F017960D
:100CE0009C911797691730F0691B4F5F4817D0F335
:100CF00040E0F8CF19966C9319971A964C931A976F
:100D0000FD01E40FF11D8485680F6068CD010C942E
:100D10002A060F931F93CF93DF93EC010E94FA05ED
:100D20008C018B85882399F089858F5F89879F81C6
:100D3000891768F019868A858F5F8A879885891751
:100D400008F01A864A8560E0CE010E946206C8015A
:100D5000DF91CF911F910F91089561E00C942A06C5
:100D6000CF92DF92EF92FF920F931F93CF93DF9377
:100D7000EC01462FE881F9810484F585E02D62E0DD
:100D800070E019958C01CC88DD88EE88FF880E9480
:100D9000F802688F798F8A8F9B8FCC8EDD8EEE8ED6
:100DA000FF8EC801DF91CF911F910F91FF90EF90BF
:100DB000DF90CF9008958DEF9FEF08958DEF9FEF17
:100DC000089590E080E00895CF93DF93FC01258D96
:100DD000261741F0EC01658F0E944F0368A379A3A9
:100DE0008AA39BA3DF91CF9108950F931F93CF9375
:100DF0008C01C62FFC0183A161E0C0FF60E00E946E
:100E00008E02F80184A161E0C1FF60E00E948E02C1
:100E1000F80185A161E0C2FF60E00E948E02F80146
:100E200086A161E0C3FF60E0CF911F910F910C9408
:100E30008E021F93CF93DF93EC01162F6623E9F008
:100E40006C8160620E942A061295169516951370A1
:100E500063E070E0611B7109CE010E94FA056D81AB
:100E6000862F84608D836C60CE010E942A0690E0FC
:100E700080E0DF91CF911F9108956D816B7F6D832D
:100E80006860F2CFCF93DF93EC0161E088A10E940C
:100E9000BC0289A18F3F39F061E00E94BC0260E092
:100EA00089A10E948E0261E08AA10E94BC0260E0DA
:100EB0008AA10E948E0261E08BA10E94BC0261E0C7
:100EC0008CA10E94BC0261E08DA10E94BC0261E085
:100ED0008EA10E94BC0290E080E0DF91CF91089546
:100EE000DC01ED91FC910190F081E02D1994EF92DD
:100EF000FF920F931F93CF93DF937C01D42FC52FC5
:100F0000462F60E0FC0181A992A90E9462060D2F84
:100F10001C2FC0E0F80161918F01662391F0062E2D
:100F2000000C770BF70181A992A90E947007CF5F8F
:100F3000C43181F7DF91CF911F910F91FF90EF9016
:100F4000089560E270E0F70181A992A90E947007FC
:100F5000CF5FC431B1F7EECFCF93DF93EC0189A916
:100F60009AA90E94AD064DED52E060E0CE010E94CC
:100F7000770747EC52E061E0CE01DF91CF910C940E
:100F800077070F931F93CF93DF93EC012A813B8167
:100F90001B821A824C815D81DB010E948320DC016F
:100FA000CB01840F951FA11DB11D452B59F0009752
:100FB000A105B10521F481E090E0A0E0B0E0019747
:100FC000A109B10985369105A105B10520F084E696
:100FD00090E0A0E0B0E09D838C8341E060E089A9CF
:100FE0009AA90E94620610E000E06C817D8189A9C7
:100FF0009AA90617170770F060E270E00E94700768
:101000000B5F1F4F0436110581F7DF91CF911F91C0
:101010000F910895601B710BDC01ED91FC91019023
:10102000F081E02D6530710518F064E01995E8CF86
:101030006150FCCFCF92DF92EF92FF921F93CF933C
:10104000DF93EC016A017B018C818230C9F168F485
:10105000882339F161E0813029F1DF91CF911F912F
:10106000FF90EF90DF90CF900895833009F467C030
:10107000843099F760E08A810E948E02C701B60130
:1010800026E930E040E050E00E945620CA01B90154
:10109000609570958095909561707727882799273E
:1010A00005C060E08A810E948E0260E08B81DF9142
:1010B000CF911F91FF90EF90DF90CF900C948E0214
:1010C000CB01BA0120ED37E040E050E00E9456200D
:1010D0009B01AC01283E63E0360730F5AFEFB0E08E
:1010E0000E94782028EE33E040E050E00E94562035
:1010F000122FC701B60124E130E040E050E00E9429
:1011000056202FEF269FA001279F500D1124CA01C2
:1011100064E170E00E94922081E01617170609F042
:1011200008F480E0682FBECF80ED97E0BC01621B21
:10113000730B9B01AFEFB0E00E948320D3CF60E040
:101140008A810E948E0261E0B1CFEF92FF920F93ED
:101150001F93CF93DF9307E619E0EC017C0184E055
:10116000E80EF11CF80181918F018A8361E00E94F1
:10117000BC0260E08A810E948E021E822196CE15FA
:10118000DF0581F7DF91CF911F910F91FF90EF90D5
:10119000089508950F931F93CF93DF9302E619E00C
:1011A000EC01F80181918F018A8362E00E94BC0208
:1011B0008A810E94650221E0019709F020E02B83DB
:1011C0002C830E944F036D837E838F83988727969D
:1011D000F9E007361F0729F7DF91CF911F910F9193
:1011E000089508950895089508950895089581E053
:1011F000089584E693E0089587E693E008958BE6EA
:1012000093E0089584E008958CE697E0089589E7D7
:1012100093E0089585E008958DE793E0089508959B
:1012200008956115710579F0FB0101900020E9F73F
:101230003197AF01461B570BDC01ED91FC91028009
:10124000F381E02D199490E080E00895EF92FF92F1
:101250000F931F93CF93DF93EC017B018A0164E826
:1012600073E00E941109B701CE010E941109F80133
:101270008081882341F060E2CE010E945B03B801C7
:10128000CE010E9411096AE0CE01DF91CF911F913A
:101290000F91FF90EF900C945B030F931F93CF93EC
:1012A000DF93EC018B01EAE5F9E080818A8391818B
:1012B0009B8361E00E94BC0261E08B810E94BC02C2
:1012C00060E08A810E948E0260E08B810E948E0223
:1012D0001C824BE853E06BE673E0C801DF91CF91CD
:1012E0001F910F910C9426093F924F925F926F923B
:1012F0007F928F929F92AF92BF92CF92DF92EF92A6
:10130000FF920F931F93CF93DF93CDB7DEB72C9748
:101310000FB6F894DEBF0FBECDBF2A013B014901D5
:101320008C01F12CE12C89E9C82E83E0D82E9CE0B9
:10133000392ECE0101965C01D80112968C910E9443
:10134000650221E0019709F020E0F801838182170E
:1013500029F023834582568267827086F8012381B3
:101360009481291769F14581568167817085D30180
:10137000C201841B950BA60BB70BAC01BD01443118
:10138000510561057105E0F02483FF92EF92DF9231
:10139000CF921F923F92BF92AF920E9448220FB607
:1013A000F894DEBF0FBECDBFF801848144E953E05D
:1013B000882311F041E953E0B501C4010E942609D8
:1013C000FFEFEF1AFF0A095F1F4F85E0E816F104EF
:1013D00009F0B2CF2C960FB6F894DEBF0FBECDBF8A
:1013E000DF91CF911F910F91FF90EF90DF90CF9001
:1013F000BF90AF909F908F907F906F905F904F9035
:101400003F900895EF92FF920F931F93CF93DF9336
:10141000EC017B018A0163EA73E00E941109B701C4
:10142000CE010E94110960E2CE010E945B03B80167
:10143000CE010E9411096AE0CE01DF91CF911F9188
:101440000F91FF90EF900C945B032F923F924F927D
:101450005F926F927F928F929F92AF92BF92CF9244
:10146000DF92EF92FF920F931F93CF93DF93CDB74D
:10147000DEB7A8970FB6F894DEBF0FBECDBF8C01C4
:101480004B017C0183E3E80EF11CE114F10409F443
:1014900062C060905C0970905D09A0905E09B09098
:1014A0005F09C0906009D0906109D801D6961C925E
:1014B0001E92D5978FE992E0D4969C938E93D39702
:1014C00084E1DA968C93DA9782E0DB968C93DB9753
:1014D000DF961C92F801E05CFF4F1082319610827B
:1014E00031961082F80116AE80ED97E0A0E0B0E0F2
:1014F000ED5BFF4F80839183A283B38386E290E00C
:10150000A0E0B0E0349680839183A283B3830E94ED
:10151000F802F801E55BFF4F608371838283938358
:101520003496108211821282138285EB92E0D801E8
:10153000D4969C938E93D397349660828FEF319696
:101540008083319670823196A0823196B082319636
:10155000C0823196D082F801F2AAE1AA87AD81114A
:101560000DC0E05CFF4F8081811108C03196808101
:10157000811104C031968081882339F0D801DA9630
:101580008C91882371F0843161F0F80117AE80E40A
:10159000E05CFF4F808384E13196808384E531965F
:1015A000808382E0D801DB968C93DB9784E1DA9626
:1015B0008C9364E670E080E090E00E941D03F801E7
:1015C00017AA03A8F4A9E02D0084F185E02DC70136
:1015D00019955C01CE0101966C01A114B10409F0CA
:1015E00059C0D801DB968C91DB97823030F0D796CA
:1015F0008C91D7978860D7968C9360E3C7010E943F
:10160000B00665E070E080E090E00E941D0360E3BA
:10161000C7010E94B00661E070E080E090E00E94A7
:101620001D0360E3C7010E94B00661E070E080E046
:1016300090E00E941D03F80187A984FD04C060E2C8
:10164000C7010E94B006D801D7966C916062C701AD
:101650000E942A0684E0F80180AF6CE0C7010E9476
:101660002A06C7010E94AD0682E0D801D9968C9364
:1016700066E0C7010E942A065C01D801D396ED916D
:10168000FC910684F785E02D6FEFC7011995A11431
:10169000B10489F1BF92AF9286EA93E09F938F9352
:1016A0001F9288E28F93DF92CF920E944822A60178
:1016B00068EB73E0C4010E94020A0FB6F894DEBF23
:1016C0000FBECDBFA8960FB6F894DEBF0FBECDBF3C
:1016D000DF91CF911F910F91FF90EF90DF90CF900E
:1016E000BF90AF909F908F907F906F905F904F9042
:1016F0003F902F900895F12CE12C1601F8E02F0E69
:10170000311C3601D60190E080E097012C5F3D4FFF
:10171000F901E80FF91FE491ED93019688309105E6
:10172000B9F7D801D196AD90BC90D501ED91FC915F
:101730000284F385E02D70E060E0C50119952C016D
:10174000E89447F8552497FD412C6E2D6064C5013F
:101750000E942A06892B81F4F30161913F01C501A2
:101760000E94FA05019741F426143704A9F740E0D6
:10177000642DC5010E946206F8E0EF0EF11C80E4C2
:10178000E816F10409F0BDCF6BE2D801D1968D9136
:101790009C910E942A06C8010E94AC070E944F0338
:1017A000F80160A371A382A393A364A375A386A386
:1017B00097A360A771A782A793A7158E4BE853E064
:1017C00068EB73E0C4010E9426097CCF0F931F933E
:1017D000CF93DF93EC018B016EEB73E00E94110954
:1017E000B801CE010E9411096AE0CE01DF91CF91CC
:1017F0001F910F910C945B039F92AF92BF92CF9277
:10180000DF92EF92FF920F931F93CF93DF93CDB7A9
:10181000DEB7A8970FB6F894DEBF0FBECDBFDA01D2
:101820009C90992009F497C01196AD90BC90A1149A
:10183000B10409F490C089017A016C0169EC73E08C
:10184000C5010E941B22892B09F056C0B2E0B915D0
:1018500030F4F701E580F680E114F104D1F44DECA9
:1018600053E06BE673E0C8010E94020A81E0A8968B
:101870000FB6F894DEBF0FBECDBFDF91CF911F91A1
:101880000F91FF90EF90DF90CF90BF90AF909F901F
:1018900008956BED73E0C7010E941B22892BF9F0BC
:1018A0006FED73E0C7010E941B22892BE9F06BEEFC
:1018B00073E0C7010E941B22892BC1F067EF73E020
:1018C000C7010E941B22892B99F061E074E0C701D7
:1018D0000E941B22892B71F04BE054E0C2CF90E0B4
:1018E000D60114969C93C2CF91E0FACF92E0F8CF44
:1018F00093E0F6CF94E0F4CF69E174E0C5010E9473
:101900001B22892B41F5D6011496EC9181EC93E0D2
:10191000E53038F4F0E0EE0FFF1FEF56FD4F808109
:1019200091819F938F938DE194E09F938F931F926A
:1019300088E28F93FE0131967F01FF93EF930E941F
:101940004822B701C8010E94E60B0FB6F894DEBF2B
:101950000FBECDBF8BCF80E08ACF8F929F92AF9288
:10196000BF92CF92DF92EF92FF920F931F93CF938C
:10197000DF93CDB7DEB764970FB6F894DEBF0FBE26
:10198000CDBF643008F09AC0FA010081002309F449
:1019900095C0818092808114910409F48FC06901FF
:1019A0005A01162F7C0169EC73E0C4010E941B22CE
:1019B000892B09F055C0033030F0F501A580B680C1
:1019C000A114B104D9F44DEC53E06CE677E0C60104
:1019D0000E94020A81E064960FB6F894DEBF0FBE43
:1019E000CDBFDF91CF911F910F91FF90EF90DF90CE
:1019F000CF90BF90AF909F908F90089568EE77E062
:101A0000C5010E941B22892B21F16EE079E0C501FE
:101A10000E941B22892BE9F06BED73E0C5010E9447
:101A20001B22892B51F06CEB73E0C5010E941B2235
:101A3000892B19F04BE054E0C8CFF701E10FF11DFD
:101A4000168260E0F701E10FF11D82810E948E0293
:101A5000C1CF81E0F701E10FF11D868361E0F2CF94
:101A600069E174E0C4010E941B22892B39F5F7015A
:101A7000E10FF11D868181111EC08BED93E09F93D4
:101A80008F931F921F938EE294E09F938F931F92E8
:101A900084E18F938E010F5F1F4F1F930F930E945E
:101AA0004822B801C6010E94E60B0FB6F894DEBFCB
:101AB0000FBECDBF8FCF88EE97E0E1CF80E08BCF18
:101AC000CF92DF92EF92FF920F931F93CF93DF930A
:101AD000CDB7DEB768970FB6F894DEBF0FBECDBFA7
:101AE0007C01653008F04BC0FA018081882309F43D
:101AF00046C081819281009709F441C06901162F87
:101B000069E174E00E941B22892BC9F5F70187E087
:101B1000189FE00DF11D1124848181112DC081E4F5
:101B200094E09F938F931F921F9389E494E09F9377
:101B30008F931F9288E18F938E010F5F1F4F1F932A
:101B40000F930E944822B801C6010E94E60B0FB60F
:101B5000F894DEBF0FBECDBF81E068960FB6F89453
:101B6000DEBF0FBECDBFDF91CF911F910F91FF90D0
:101B7000EF90DF90CF90089588E394E0D2CF80E09B
:101B8000ECCF0E940622EF92FF920F931F93CF9308
:101B9000DF93E901009761F1FC0101900020E9F772
:101BA0003797E817F90721F5FC01DC01169631910A
:101BB00020ED230F2A3020F03F7D31543630C0F421
:101BC000EA17FB07A1F78A017B0140E150E070E0D2
:101BD00060E00E94F01EF7018083F8017083688343
:101BE00081E0DF91CF911F910F91FF90EF900895C9
:101BF00080E0F7CF7F928F929F92AF92BF92CF9269
:101C0000DF92EF92FF920F931F93CF93DF93CDB7A5
:101C1000DEB7AA970FB6F894DEBF0FBECDBF611135
:101C200014C189016A017C01FC018280938046E530
:101C300054E08114910409F458C0F60170807720B3
:101C400009F403C1A180B280A114B10409F4FDC05C
:101C500069E174E0C5010E941B22892B99F5F70107
:101C6000828D1F928F931F9280E18F938BE694E079
:101C70009F938F931F9288E28F93CE0101967C01F0
:101C80009F938F930E944822B701C8010E94E60BE0
:101C90000FB6F894DEBF0FBECDBF81E0AA960FB697
:101CA000F894DEBF0FBECDBFDF91CF911F910F9192
:101CB000FF90EF90DF90CF90BF90AF909F908F906C
:101CC0007F90089569EC73E0C5010E941B22892B67
:101CD00009F0BBC0F2E0F71530F4F601A580B6803C
:101CE000A114B10441F447E854E066E674E0C80189
:101CF0000E94020AD2CF65E974E0C5010E941B224E
:101D0000892BD9F5F3E07F1671F0F6018781908574
:101D1000F4E07F1641F0F601A184B284009719F037
:101D2000A114B10419F44BE954E0DFCF0E94F31F72
:101D30006C014DEB54E04097C0F69E012F5F3F4F82
:101D4000AE01475D5F4FBE01665D7F4FC5010E94DA
:101D5000C30D811103C040ED54E0C7CF098129A50F
:101D60004AA5B601F701828193810E94D804F70148
:101D7000828193810E94280590CF65E773E0C501B9
:101D80000E941B22892B59F5F3E07F1629F0F601FA
:101D900087819085009719F44EED54E0A6CF9E01FF
:101DA0002F5F3F4FAE01475D5F4FBE01665D7F4FC6
:101DB0000E94C30DD12CC12C882369F2098129A569
:101DC0004AA5B601F701828193810E94D804FFEFF2
:101DD000CF1ADF0A20E1C216D10481F7C8CF64EF21
:101DE00074E0C5010E941B22892BD9F4F3E07F1611
:101DF00029F0F60187819085009719F44CEE54E0A4
:101E000074CF0E94F31F4FEF54E08F3F910511F004
:101E100008F06BCFF701828F682FC4010E949604EF
:101E2000A6CF67E175E0C5010E941B224DE155E098
:101E3000892B09F05ACFF4014481558170E060E0AC
:101E4000818592850E94142292CF80E027CF4F9205
:101E50005F926F927F928F929F92AF92BF92EF921A
:101E6000FF921F93CF93DF93EC017B01142F88A186
:101E700061E091E0E916F10409F060E00E948E0251
:101E8000612F70E084E0759567958A95E1F7CE0142
:101E90000E94F5068C8C9D8CAE8CBF8C488C598C26
:101EA0006A8C7B8C0E94F80264197509860997096F
:101EB000681579058A059B05A8F361E08AA10E944F
:101EC0008E0260E08AA10E948E0282E0E816F10490
:101ED00069F0612F6F70CE010E94F50661E08AA162
:101EE0000E948E0260E08AA10E948E0290E080E053
:101EF000DF91CF911F91FF90EF90BF90AF909F9097
:101F00008F907F906F905F904F9008958F929F92E7
:101F1000AF92BF92CF92DF92EF92FF920F931F93F7
:101F2000CF93DF93FC0121A12F3F09F495C08B01D2
:101F3000EC01C48CD58CE68CF78C808C918CA28CB7
:101F4000B38C0E94F802681979098A099B096C15FB
:101F50007D058E059F05A8F360E08BA10E94BC0261
:101F600060E08CA10E94BC0260E08DA10E94BC02D6
:101F700060E08EA10E94BC0261E00130110509F011
:101F800060E088A10E948E0261E089A10E948E0219
:101F900061E08AA10E948E028BA10E94650210E17D
:101FA000019709F010E08CA10E946502019709F4E5
:101FB00010628DA10E946502019709F410648EA140
:101FC0000E946502019709F4106860E08AA10E94EE
:101FD0008E0261E08AA10E948E028BA10E9465029E
:101FE000019709F411608CA10E946502019709F420
:101FF00012608DA10E946502019709F414608EA100
:102000000E946502019709F4186060E08AA10E94AD
:102010008E0261E08BA10E94BC0261E08CA10E9453
:10202000BC0261E08DA10E94BC0261E08EA10E9411
:10203000BC0260E089A10E948E02812F90E0DF91B6
:10204000CF911F910F91FF90EF90DF90CF90BF90B5
:10205000AF909F908F9008958DEF9FEFF0CFBF923C
:10206000CF92DF92EF92FF920F931F93CF93DF9364
:10207000EC016B017C0184E0E80EF11CE114F10439
:1020800009F444C0B0906B091D821C861B8A1C8A0F
:102090001D8A1E8A81E08A8B8F87188A92E0998B2D
:1020A0008C8380E390E0998788870E94E1209E8757
:1020B0008D87009709F45CC020E3FC0111922A95FA
:1020C000E9F780E190E09F838E830B2D10E01B8762
:1020D0000A878D81882341F061E08B2D0E94BC022C
:1020E00060E08B2D0E948E02F801EE56FD4FE491C8
:1020F000F0E0EE0FFF1FE25AFD4F85919491988F0B
:102100008F8BF801E852FD4FE491E98FFB82EA8260
:102110008A859B8597FD31C061E00E94BC0260E02A
:102120008A850E948E0281E08D836A8D8A819B81DF
:102130000E949604EA81FB814481558170E060E051
:10214000818592850E9414228A819B810E942805A4
:102150004BE853E066E674E0C601DF91CF911F9132
:102160000F91FF90EF90DF90CF90BF900C942609D5
:10217000198618861F821E82A8CF1D82D6CF0C9486
:102180007D210C947D210C947D210C947D210C9457
:102190007D210C947D219F92AF92BF92CF92DF92CE
:1021A000EF92FF920F931F93CF93DF93CDB7DEB7DC
:1021B000C055D1090FB6F894DEBF0FBECDBF611177
:1021C00078C269017A018C01DC01D1968D919C91D4
:1021D00046E554E0892BF9F0F7019080992009F445
:1021E00068C2A180B280A114B10409F462C269EC92
:1021F00073E0C5010E941B22892B09F0FFC1F2E0A8
:10220000F91538F4D7011596AD90BC90A114B1041E
:1022100041F447E854E068EB73E0C6010E94020A0B
:1022200075C00E944F03F80164A375A386A397A30A
:1022300066E575E0C5010E941B22892B09F043C0A9
:10224000D7018C91843030F01796ED90FC90E1141A
:10225000F10419F44DE255E0DECF6AE375E0C70101
:102260000E941B22892B41F4C8010E94AC0760E048
:10227000C8010E94E4064AC061E475E0C7010E94FB
:102280001B22892B39F4F80181A992A90E94AD067D
:1022900061E0EECF66E475E0C7010E941B22892B46
:1022A00011F462E0E5CF67E076E0C7010E941B22EF
:1022B000892B31F481E0D8015C968C9363E0D8CF10
:1022C0004EE455E0A8CF64EF74E0C5010E941B22E4
:1022D000892BF1F4F7018081843020F0878190858B
:1022E000009719F44BE555E096CF0E94F31F49E69D
:1022F00055E08430910508F08ECF63E0681B68627A
:10230000D801D1968D919C910E942A0681E007C147
:1023100067E175E0C5010E941B22892B31F4F801A9
:1023200081A992A90E94AD06BCCF67E775E0C501FF
:102330000E941B22892B09F05FC0D701BC90B3E03B
:10234000BB1528F4F70187819085009719F44CE7B5
:1023500055E061CF0E94F31F82309105B0F5D7019F
:10236000199664E070E030E020E0CB2CD12C90E2B4
:10237000E92E6C157D0578F5AD90BD90A114B104E2
:1023800051F1A901415051094331510550F441E047
:1023900050E04C0F5D1F420F531FFA01E0822F5F88
:1023A0003F4F41E050E04C0F5D1F420F531FF501BE
:1023B000F1905F01FF2061F02431310548F42F5F77
:1023C0003F4FFA01F192AF01F2CF48E855E023CF39
:1023D0006F5F7F4FCECF41E050E04C0F5D1F240F69
:1023E000351FD9011C92AE014F5F5F4F682FC801A6
:1023F0000E94770764E03CCF64E975E0C5010E9464
:102400001B22892B31F5F70180818430F8F0878118
:1024100090850097D9F00E94F31F18161906B4F49E
:10242000D80112962D913C911397820F931F13960A
:102430009C938E9312975D968C91823008F066CFB4
:10244000F801848D882309F42CCF38CF81E090E007
:10245000E7CF60E076E0C5010E941B22892B09F5D9
:10246000D7018C91843028F01796ED91FC9130972C
:1024700019F449E955E0CFCED8015C962C919081B2
:1024800081E0913309F080E0F801848F281709F486
:102490003DCF62E0913309F461E0C8010E94F11878
:1024A00035CF63EB75E0C5010E941B22892BB9F47F
:1024B000D7018C91843030F017966D917C91611525
:1024C000710519F44BEA55E0A6CE4BE050E0C80187
:1024D00006960E943922F801118A63E0DECF62EC91
:1024E00075E0C5010E941B22892B61F5D7018C91F3
:1024F000843028F017968D919C91009719F44AEB3F
:1025000055E089CE0E94F31F8536910514F084E6CC
:1025100090E097FD80E0F801828B81E0838BC05BC7
:10252000DF4F0FB6F894DEBF0FBECDBFDF91CF9166
:102530001F910F91FF90EF90DF90CF90BF90AF90E1
:102540009F9008956DEC75E0C5010E941B22892BB8
:10255000B1F4D7018C91843030F017966D917C9155
:102560006115710519F445EC55E055CE47E050E092
:10257000C80144960E943922F801138EC7CE6EEF2F
:1025800075E0C5010E941B22892B59F5D7018C915A
:10259000843030F01796ED90FC90E114F10419F4BA
:1025A00042ED55E038CE6FED75E0C7010E941B2269
:1025B00064E0892B09F471CF64EE75E0C7010E94D5
:1025C0001B2265E0892B09F468CF6DEE75E0C70129
:1025D0000E941B22892B11F466E05FCF46EF55E085
:1025E0001ACE64E076E0C5010E941B224DE155E061
:1025F000892B09F010CEF801148E53CE69E174E0F6
:10260000C5010E941B22009709F053C0D8015496BF
:102610002C91B8016C5E7F4F211102C06BE275E016
:10262000F80123894BE255E0222321F0828990E0D2
:1026300044EA56E0D80116962C912223A1F1980184
:102640002A5F3F4FF801F48CE58DE63078F5F0E035
:10265000EE0FFF1FEE50FD4F0190F081E02D7F93B4
:102660006F939F938F935F934F933F932F931F92FB
:10267000FF92FF93EF938DE096E09F938F931F92CD
:1026800080E58F938E010F5F1F4F1F930F930E9462
:102690004822B801C6010E94E60B0FB6F894DEBFCF
:1026A0000FBECDBF33CE2BE235E0CCCFE1ECF3E073
:1026B000D6CF80E034CF2F923F924F925F926F92AD
:1026C0007F928F929F92AF92BF92CF92DF92EF92C2
:1026D000FF920F931F93CF93DF93CDB7DEB7AB97E6
:1026E0000FB6F894DEBF0FBECDBFFC0121A932A901
:1026F000232B09F448C000A511A522A533A56A0122
:102700007B01C01AD10AE20AF30A9701860101325D
:10271000110521053105B8F16A017B018C01C0A6C4
:10272000D1A6E2A6F3A684A595A5A6A5B7A5019670
:10273000A11DB11D84A795A7A6A7B7A7858D825017
:102740008230A8F484A195A1A6A1B7A1AB019601FE
:10275000281B390B4A0B5B0BDA01C9018137974102
:10276000A105B10520F061E0CF010E94E406F80167
:10277000858D823009F4ADC0F8F4882309F449C08E
:10278000813009F460C0AB960FB6F894DEBF0FBE7F
:10279000CDBFDF91CF911F910F91FF90EF90DF9010
:1027A000CF90BF90AF909F908F907F906F905F90F1
:1027B0004F903F902F900895843009F442C108F45F
:1027C000D2C0853001F780A191A1A2A1B3A12601B9
:1027D0003701481A590A6A0A7B0A878D833009F43F
:1027E000D9C108F04DC1813009F46FC1823009F4BC
:1027F000ACC130E2431633E053066104710418F2B1
:10280000F801868D858FC0A2D1A2E2A2F3A2178E15
:10281000BACF80A191A1A2A1B3A1C81AD90AEA0A8C
:10282000FB0AF0E7CF16F7E1DF06E104F10408F454
:10283000AACFF80181A992A90E94AD0661E0C80162
:102840000E94E406A0CF44E150E060E270E080E343
:1028500099E00E9414221092440944E150E060E2A1
:1028600070E085E499E00E94142210925909F80161
:1028700020A9822F90E068E270E00E94A6208431B7
:1028800008F5805D964F36E0FC013083F80184A5A1
:1028900095A5A6A5B7A587709927AA27BB27892B39
:1028A0008A2B8B2B11F42F5F20AB40E359E060E0C3
:1028B000C8010E94770745E459E061E0C8010E9421
:1028C000770761CFE7E5F9E0E81BF90B86E0858B38
:1028D000DDCF86819E012F5F3F4F7901882399F1DB
:1028E000C80106962389222301F122891F922F9382
:1028F0009F938F938EE396E09F938F931F9285E132
:102900008F93FF92EF920E9448220FB6F894DEBF99
:102910000FBECDBFA70160E0C8010E94770766E047
:1029200070E0C8010E94C1072ECF9F938F938BE464
:1029300096E09F938F931F9285E18F93FF92EF9282
:102940000E944822E2CF8489882339F0C801449646
:102950009F938F9381E596E0ECCF61E676E0C90125
:102960000E942422D7CF64A575A586A597A529E046
:1029700030E040E050E00E94562049015A01F1E069
:102980008F229924AA24BB24F80186819E012F5FFF
:102990003F4F7901882309F440C0C8010696638936
:1029A000662329F162892AE289288A288B2809F47A
:1029B00020E21F926F939F938F931F922F9385E72F
:1029C00096E09F938F931F9285E18F93FF92EF92F2
:1029D0000E9448220FB6F894DEBF0FBECDBFA701FC
:1029E00060E0C8010E94770768E070E09ACF2AE2B1
:1029F00089288A288B2809F420E29F938F931F92BD
:102A00002F9385E896E09F938F931F9285E18F9394
:102A1000FF92EF920E944822DDCF8AE289288A281D
:102A20008B2809F480E21F928F938EE896E09F93A3
:102A30008F931F9285E18F93FF92EF920E9448221D
:102A4000C9CF80A191A1A2A1B3A1A7019601281B82
:102A5000390B4A0B5B0BDA01C901803D9740A10598
:102A6000B10508F490CE848D882341F083E0F8010D
:102A7000858FC0A2D1A2E2A2F3A285CE82E0F7CFD9
:102A8000873008F0B6CE28EC30E040E050E08430EB
:102A900051F028E730E040E050E0853021F020E5BB
:102AA00030E040E050E0C301B2010E94562044E112
:102AB00050E064E070E020FF02C060E270E0CE0110
:102AC00001960E9414221D8A38C0A4E1B0E0A3013F
:102AD00092010E94782020E233E040E050E00E9422
:102AE0005620B22EA22E44E150E060E270E0CE010A
:102AF00001960E9414221D8A2B2DF3E1FB1508F488
:102B000023E130E0E1E0F0E0EC0FFD1FE20FF31F06
:102B100084E08083AA2089F083E0FE01E20FF31FA6
:102B2000808341E0A41649F08FEF9FEF8C0F9D1F2B
:102B3000280F391F81E0F9018083AE014F5F5F4F9D
:102B400060E0C8010E9477077FC0A4E1B0E0A30164
:102B500092010E94782020E233E040E050E00E94A1
:102B60005620B22E44E150E060E270E0CE010196C2
:102B70000E9414221D8A2B2D243108F023E1E3E169
:102B8000E21B21E030E02C0F3D1F2E0F311DF9011B
:102B900082E0D2CF480136E0830E911C6CE070E0F9
:102BA000C4010E941A20813108F080E1A82EB12CC6
:102BB00080E1282E312C2A183B083594279444E1D3
:102BC00050E060E270E0CE0146960E9414221AA600
:102BD000C301B20124E630E040E050E00E945620FC
:102BE00020FF3AC047E04BA7E6E1F0E0EC0FFD1F05
:102BF000E20DF31D8BA5808392E0290E311CA50107
:102C0000B40186E190E08C0F9D1F820D931D0E9400
:102C10000B22E1E0F0E0EC0FFD1FAE0EBF1E2A0C10
:102C20003B1C2BA5F101268BAE014A5E5F4F60E095
:102C3000C8010E94770744E150E060E270E0CE01F5
:102C400001960E9414221D8AAE014F5F5F4F61E022
:102C5000C8010E947707CDCD50E25BA7C5CFFF9298
:102C60000F931F93CF93DF93EC01F62E0881198108
:102C7000C8010E943020F81621F06F2DC8010E9473
:102C80003820CE01DF91CF911F910F91FF900895D1
:102C90002F923F924F925F926F927F928F929F926C
:102CA000AF92BF92CF92DF92EF92FF920F931F935A
:102CB000CF93DF93CDB7DEB7C454D1090FB6F894E4
:102CC000DEBF0FBECDBFDA01FC90FF2009F4C8C102
:102CD0001196CD90DC90C114D10409F4C1C1390121
:102CE0008A0169E174E0C6010E941B22892B09F068
:102CF000BBC0B2E0BF1570F4F80105811681011563
:102D0000110541F067EA76E0C8010E941B22892B79
:102D100009F078C080916C09813009F470C080E0BE
:102D200098E01F9222E12F939F938F938BEA96E076
:102D30009F938F931F9280E48F93CE0101967C0125
:102D40009F938F930E944822B701C3010E94E60B14
:102D50009DE6A92E92E0B92E2AE5822E29E0922E38
:102D60000FB6F894DEBF0FBECDBF10E000E036EC2A
:102D7000C32E36E0D32E40E4542EF501819191917B
:102D80005F01D4012D914D01009711F485EA96E081
:102D90001F922F939F938F931F930F93DF92CF9246
:102DA0001F925F92FF92EF920E944822B701C301E7
:102DB0000E94E60B0F5F1F4F0FB6F894DEBF0FBEE9
:102DC000CDBF02311105C9F681E0CC5BDF4F0FB6F4
:102DD000F894DEBF0FBECDBFDF91CF911F910F9151
:102DE000FF90EF90DF90CF90BF90AF909F908F902B
:102DF0007F906F905F904F903F902F90089582EF5B
:102E000097E08FCF67ED76E0C8010E941B22892BE7
:102E100019F580916C098130E1F080E098E09F9392
:102E20008F938EED96E09F938F931F9288E28F93FE
:102E30008E010F5F1F4F1F930F930E944822B8010E
:102E4000C3010E94E60B0FB6F894DEBF0FBECDBFE4
:102E5000BBCF82EF97E0E3CF4CEE56E069E773E03B
:102E6000C3010E94020AB0CF69EC73E0C6010E9460
:102E70001B22892B09F0F4C092E09F1538F4D80189
:102E80001596CD90DC90C114D10419F447E854E0B4
:102E9000E5CF68EF76E0C6010E941B22892B09F07E
:102EA000A1C0B3E0FB16B1F0F80127803084F4E054
:102EB000FF1681F0D80119960D911C91211431044F
:102EC00049F08DE6E82E82E0F82E512C412C0115B8
:102ED000110519F44CEF56E0C1CFF70161917191E2
:102EE0007F01C1010E941B22892B09F4BBC0FFEFA7
:102EF0004F1A5F0A82E14816510479F742EC57E015
:102F0000ADCF4EE257E09FEF89169104A104B104C2
:102F100011F008F0A3CF8EEF880D843408F05FC065
:102F20008E010F5F1F4F6801F12CE12CC7010E9439
:102F30003020D6018D936D01BFEFEB1AFB0AE8E15B
:102F4000EE16F10499F7FE01E40DF51D8782C80124
:102F50000E94E6016C01F12CE12CD8016D918D01EC
:102F60002396FFAEEEAE2397CE018F5B9F4F0E945C
:102F70002F16BFEFEB1AFB0AE8E1EE16F10469F732
:102F80002396FFAEEEAE23976C2DCE018F5B9F4F45
:102F90000E942F1689E190E023969FAF8EAF239772
:102FA0006D2DCE018F5B9F4F0E942F16BF92AF9267
:102FB0009F928F923F922F928FE397E09F938F93F0
:102FC0001F9280E48F9381E090E08C0F9D1F9F9370
:102FD0008F930E944822BE016F5F7F4F31CF43E63F
:102FE00057E03CCF60E777E0C6010E941B22892BA7
:102FF000A1F410E000E01A8309836FEFCE0101967F
:103000000E942F160F5F1F4F0A311105A1F76FE7BE
:1030100077E0C3010E94E60BD7CE6FEA77E0C601E6
:103020000E941B2246EB57E0892B09F017CF6BEA71
:1030300077E0C3010E94E60BD301ED91FC9106807D
:10304000F781E02DC3011995F89488E198E00FB657
:10305000F894A895809360000FBE90936000FFCF16
:1030600080E0B3CE4AE050E0BE016D5B7F4FC80107
:103070000E94C21D4B015C012596EEADFFAD259768
:103080008081882309F43DCF4BE157E0E7CE1F92C2
:103090000F920FB60F9211242F933F938F939F930C
:1030A000AF93BF9380916E0990916F09A0917009C1
:1030B000B091710930916D0923E0230F2D3758F538
:1030C0000196A11DB11D20936D0980936E09909307
:1030D0006F09A0937009B093710980917209909162
:1030E0007309A0917409B09175090196A11DB11DD4
:1030F0008093720990937309A0937409B093750932
:10310000BF91AF919F918F913F912F910F900FBEE3
:103110000F901F90189526E8230F0296A11DB11D50
:10312000D2CF1F920F920FB60F9211240BB60F92AF
:103130002F933F934F935F936F937F938F939F93BF
:10314000AF93BF93EF93FF9386E799E00E94D60376
:10315000FF91EF91BF91AF919F918F917F916F916F
:103160005F914F913F912F910F900BBE0F900FBE2B
:103170000F901F9018951F920F920FB60F92112467
:103180000BB60F922F938F939F93EF93FF93E09142
:103190008609F09187098081E0918C09F0918D0971
:1031A00082FD1DC0908180918F098F5F8F73209168
:1031B0009009821741F0E0918F09F0E0EA58F64F4C
:1031C000958F80938F09FF91EF919F918F912F9110
:1031D0000F900BBE0F900FBE0F901F90189580811F
:1031E000F2CFFC01258D268F678F65E00C94E406F5
:1031F000CF93DF93A6E7B9E013961C921E92129725
:1032000048EE53E060E070E014964D935D936D934B
:103210007C93179780E293E011969C938E9385ECB4
:1032200090E01D969C938E931C9784EC90E01F96E3
:103230009C938E931E9780EC90E051969C938E9376
:10324000509781EC90E053969C938E93529782EC2A
:1032500090E055969C938E93549786EC90E0579609
:103260009C938E93569759961C9259975A961C92F6
:103270005A975B961C925B975C961C925C97EDE06C
:10328000FBE086E593E0918380838FEF82838383E5
:103290001482E3EBFAE082E393E09183808313826C
:1032A00012821582148229EB3AE08CE0E90119922E
:1032B0008A95E9F7128A138A27EC3AE088E0E90157
:1032C00019928A95E9F7148E158E168E178E10A214
:1032D00011A212A213A214A215A216A217A210A63E
:1032E00011A612A613A614A615A616A617A610AA0E
:1032F00012AA11AAE8E9FAE084E493E091838083BA
:103300001382128280E4828FB093140AA093130A6E
:103310001092960A1092950A1092970ADF91CF9117
:103320000895CF93DF93CDB7DEB7C859D1090FB653
:10333000F894DEBF0FBECDBF789484B5826084BDA3
:1033400084B5816084BD85B5826085BD85B58160A9
:1033500085BD80916E00816080936E001092810027
:1033600080918100826080938100809181008160E2
:1033700080938100809180008160809380008091A3
:10338000B10084608093B1008091B000816080932F
:10339000B0008091910082608093910080919100B3
:1033A0008160809391008091900081608093900073
:1033B0008091A10082608093A1008091A100816032
:1033C0008093A1008091A00081608093A0008091F3
:1033D000210182608093210180912101816080938D
:1033E00021018091200181608093200180917A00E9
:1033F000846080937A0080917A00826080937A0062
:1034000080917A00816080937A0080917A00806850
:1034100080937A001092C10014B714BE0FB6F894CE
:10342000A895809160008861809360001092600090
:103430000FBEE0918609F091870982E08083E091D8
:103440008209F09183091082E0918409F091850945
:1034500080E1808310928E09E0918A09F0918B09B6
:1034600086E08083E0918809F091890980818061FC
:103470008083E0918809F091890980818860808348
:10348000E0918809F0918909808180688083E091CA
:103490008809F091890980818F7D808364E670E0DE
:1034A00080E090E00E941D0343ED57E013FD02C051
:1034B00042EE57E061EB77E086E799E00E9426094B
:1034C0006E0123E9C20ED11C10E000E07601C801B4
:1034D0000E943020D6018D936D010F5F1F4F063083
:1034E0001105A9F7F70180819181A281B38183340D
:1034F0009245A544BA4509F45AC082E1EEEFF2E0E4
:10350000AAE5B9E001900D928A95E1F783E48983F9
:1035100082E58A8385E48B838AE58C8381E08D83D1
:1035200082E18E83EEEFF2E0DE01179680E193E018
:1035300021912D938E179F07D9F7CE0101960E94F6
:10354000E6016C01FE0131967F0110E000E0D70139
:103550006D917D01CF57DF4F19830883C158D0404B
:10356000CE018F579F4F0E942F160F5F1F4F0831BC
:10357000110569F7CF57DF4F19830883C158D04031
:103580006C2DCE018F579F4F0E942F1689E190E03E
:10359000CF57DF4F99838883C158D0406D2DCE011E
:1035A0008F579F4F0E942F1610926C095BC0D70156
:1035B00014968C911497813009F09FCF15968C91B9
:1035C000823109F09ACF8E010F571F4F480176E0E4
:1035D000C72ED12C5801C6010E943020F4018193DE
:1035E0004F01FFEFCF1ADF0A28E1C216D10499F785
:1035F00088E190E00E943020C82E89E190E00E948E
:103600003020D82E86E0F701DE01119601900D9250
:103610008A95E1F782E1F801DE01179601900D929B
:103620008A95E1F7CE0101960E94E601C816D906F7
:1036300009F063CF98012E5E3F4FD8018D918D0127
:103640008250843408F059CF2A173B07B1F782E142
:10365000F501AAE5B9E001900D928A95E1F781E0C4
:1036600080936C0980916C094BEE57E0813011F02A
:1036700049EF57E069E773E086E799E00E94260981
:1036800060E1662E63E0762EF301819191913F0116
:10369000DC01ED91FC910084F185E02D66E779E095
:1036A0001995BCE16B16B3E07B0671F789E098E0F1
:1036B0009F938F9383E198E09F938F938DE198E0A0
:1036C0009F938F931F9280E48F93E1E0F0E0EC0FE3
:1036D000FD1FFF93EF930E944822AE014F5F5F4FA3
:1036E00061EB77E086E799E00E94260988E19DE09A
:1036F0000FB6F894A895809360000FBE9093600079
:103700000FB6F894DEBF0FBECDBF8E010F571F4F0F
:1037100050E8252E312CA89581E1D8011D928A957B
:10372000E9F78091130A9091140ADC01ED91FC9164
:103730000084F185E02D1995181619060CF0A5C026
:103740008091130A9091140ADC01ED91FC9102849E
:10375000F385E02D199597FD98C08A30910509F001
:10376000CFC09091970A992389F049E258E067E326
:1037700078E08091130A9091140A0E94020A109234
:10378000960A1092950A1092970ACBCFE091950A6B
:10379000F091960AED5EF54F1282F801108225E154
:1037A0003AE0F90180812F5F3F4F8032D1F38930B9
:1037B000C1F38823C1F08332B1F080E0A82FB0E0DC
:1037C000AA0FBB1F1196AD01400F511F9081992385
:1037D00009F493C0883008F475C0D8018C9391E047
:1037E000811101C090E01092960A1092950A1092F1
:1037F000970A992309F495CFF801F080FF2009F486
:103800002BC1F80181819281009709F422C169E1FD
:1038100074E00E941B22892B09F01BC1F1E0FF1507
:1038200008F01AC1D8011396ED90FC90E114F10450
:1038300009F41AC160E478E0C7010E941B22892BB9
:1038400009F07EC0E9E0F8E0FF93EF9383E198E0B0
:103850009F938F9388E498E09F938F931F9280E4C7
:103860008F93E1E0F0E0EC0FFD1FFF93EF930E94D8
:103870004822BE016F5F7F4F86E799E00E94E60B0A
:103880000FB6F894DEBF0FBECDBF0E944F034B01B1
:103890005C0180E1E82E83E0F82ED7018D919D91A7
:1038A0007D01DC01ED91FC910284F385E02D26E79A
:1038B00039E0B501A40119956E147F0471F70E94D7
:1038C000650429CF8F5FDA01ED93FD93AD019F0170
:1038D000F901D9019D919D01992309F477CF903287
:1038E00011F09930A9F71082F901D9019D919D013C
:1038F0009032D1F39930C1F361CFF80180836FCF5B
:103900008D30910509F40DCF2091970A211109CF2F
:103910002091950A3091960AA9014F5F5F4F403878
:10392000510520F0F1E0F093970AFBCE5093960AF0
:103930004093950A2D5E354FD90112968C93F1CEA6
:1039400066E578E0C7010E941B22892B09F08CC034
:1039500066E578E0CE0101960E94242220E1822EC5
:1039600023E0922E34E0E32EF12CD401CD90DD90B3
:103970004D01D601ED91FC910480F581E02DC60149
:103980001995582E492ED601ED91FC910680F781AC
:10399000E02DC6011995823070F18150C82ED12CCE
:1039A000B12CA12CBF92AF924F925F92EBE5F8E061
:1039B000FF93EF93C1018E199F099F938F9381E02D
:1039C00090E08C0F9D1F8E0D9F1D9F938F930E94E3
:1039D0004822E80EF91E0FB6F894DEBF0FBECDBF29
:1039E000CA14DB0421F19FEFA91AB90AA0E8EA166C
:1039F000F104C4F226C04F925F92E8EEF6E0FF9326
:103A0000EF93C1018E199F099F938F9381E090E0FE
:103A10008C0F9D1F8E0D9F1D9F938F930E94482298
:103A2000E80EF91E0FB6F894DEBF0FBECDBF9CE1C5
:103A3000891693E0990629F090E8E916F1040CF450
:103A400094CFBE016F5F7F4F86E799E00E94E60B3F
:103A50001CCFA1E0AF1540F0F8018081823008F062
:103A600084C065EA76E087C0D8011396AD90BC901B
:103A7000A114B10489F390E1892E93E0992EF40109
:103A8000C190D1904F01D601ED91FC910480F58158
:103A9000E02DC6011995BC01FC0101900020E9F759
:103AA00031977F01E81AF90AA701C5010E942B226C
:103AB000892B09F053C0F501EE0DFF1D808188238D
:103AC00009F451C08E3209F049C0C70101968A0D30
:103AD0009B1DFC01208121111FC060E0D12CC12C55
:103AE000C114D10409F4B8CFD601ED91FC9104843E
:103AF000F585E02D26E739E0A801C6011995811169
:103B0000C4CEF801808170E060E0823010F0638103
:103B1000748141E758E031C04AE050E0BE016F5F78
:103B20007F4F0E94C21D4B015C01E981FA818081B7
:103B30008111D3CFB7FCD1CFD601ED91FC91068096
:103B4000F781E02DC601199590E0B0E0A0E0682D66
:103B500088169906AA06BB061CF2BFCF6814790422
:103B600009F08DCF79CF60E0BBCF6381748161159F
:103B7000710509F476CF42E658E086E799E00E94A5
:103B8000020A83CE3F924F925F926F927F928F9202
:103B90009F92AF92BF92CF92DF92EF92FF920F93DC
:103BA0001F93CF93DF935C016B017A01611571055F
:103BB00019F0FB0191838083E114F10451F0C701F6
:103BC0000297839730F040E030E020E090E06BC057
:103BD0005E01E5012196F5011081812F90E00E94A0
:103BE0001120892BA9F71D3201F52196F5011181CC
:103BF00001E0E114F10409F4E6C0F0E1EF16F1048C
:103C000009F088C0103359F488818F7D883509F018
:103C10007CC0198122960260F0E1EF2EF12C812CFC
:103C2000912CA12C88E0B82E92C01B3221F4E50122
:103C30002296F501118100E0DCCFEAE0EE16F104F6
:103C400009F4C7C0F0E1EF16F10409F073C0E7CF43
:103C500078E0E72EF12C812C912CA12C60E1B62E7E
:103C600076C021E0ADC0302F3170C114D10431F0E5
:103C7000222371F12197F601D183C08327FF2EC043
:103C800060E070E080E090E8311104C06FEF7FEFFA
:103C90008FEF9FE722E230E03093130B2093120B5B
:103CA000462F372F282F642F732F822FDF91CF912C
:103CB0001F910F91FF90EF90DF90CF90BF90AF904A
:103CC0009F908F907F906F905F904F903F9008955E
:103CD00001FF04C02297F601D183C083332341F052
:103CE00090958095709561957F4F8F4F9F4FD8CF5E
:103CF00097FFD6CF82E290E09093130B8093120B44
:103D00006FEF7FEF8FEF9FE7CBCF10E3E114F1046C
:103D100009F49ECF28E0E216F10409F49CCF0CF0E0
:103D20008CCF812C912CA12CE0E4BE2E82E0E816F1
:103D3000F10469F060E070E080E090E897010F2CFA
:103D4000000C440B550B0E94562049015A0120E0FB
:103D500060E070E0CB0127010F2C000C66087708AB
:103D6000FE0150ED352E310E39E0331570F43FEB86
:103D7000310F49EC342E3A3138F03FE9310F3A3106
:103D800008F071CF39EA332E310E3E141F040CF0C7
:103D90006ACF27FD15C086169706A806B90678F0E3
:103DA000A30192010E944620630D711D811D911D8A
:103DB00061307105810520E8920708F452CF2FEF9A
:103DC00021961081CDCF103309F41ECF2AE0E22EC8
:103DD000F12C9CEC892E982CA82C9CE0B92EB7CF06
:103DE0003F924F925F926F927F928F929F92AF928B
:103DF000BF92CF92DF92EF92FF920F931F93CF93D8
:103E0000DF935C016B017A016115710519F0FB010B
:103E100091838083E114F10449F0C70102978397ED
:103E200028F060E070E0CB019BC05E01E5012196C7
:103E3000F5011081812F90E00E941120892BA9F7B4
:103E40001D3209F05CC02196F501118101E0E114F9
:103E5000F10409F4BBC0F0E1EF16F10409F09BC0D6
:103E6000103341F488818F7D883509F08FC0198126
:103E700022960260E0E1EE2EF12C88248A94982CA0
:103E8000A82CFFE0BF2E20E060E070E0CB0127010E
:103E90000F2C000C66087708FE0150ED352E310E10
:103EA00039E0331568F43FEB310F49EC342E3A31E9
:103EB00030F03FE9310F3A31B0F539EA332E310EA7
:103EC0003E141F0484F52F3FB9F086169706A80606
:103ED000B90638F1A30192010E944620232D30E05B
:103EE00050E040E0620F731F841F951F6217730735
:103EF00084079507B0F021E021961081CDCF1B32C9
:103F000021F4E5012296F501118100E0A0CF78E0CF
:103F1000E72EF12C88248A94982CA82C6FE1B62ED9
:103F2000B2CF2FEFE9CFC114D10431F0222351F1E8
:103F30002197F601D183C08300FF07C0909580953B
:103F4000709561957F4F8F4F9F4F2F3F49F482E2CD
:103F500090E09093130B8093120B6FEF7FEFCB01E8
:103F6000DF91CF911F910F91FF90EF90DF90CF9055
:103F7000BF90AF909F908F907F906F905F904F9089
:103F80003F90089501FFD8CF2297D3CF10E3E114DB
:103F9000F10409F4BCCF3AE0E316F104E9F080E162
:103FA000E816F10409F466CFE8E0EE16F10409F42E
:103FB000B1CF6FEF7FEFCB0197010F2C000C440BBB
:103FC000550B0E94562049015A015DCF103309F468
:103FD00049CF9AE0E92EF12C89E9882E982CA82C5B
:103FE00089E1B82E50CFFC0188279927E8942191C8
:103FF0002032E9F3293010F02E30C8F32B3241F093
:104000002D3239F4689404C00E942520820F911D3E
:10401000219120532A30C0F31EF4909581959F4F33
:10402000089591110C942D20803219F089508550FB
:10403000C8F70895FC016150704001900110D8F755
:10404000809590958E0F9F1F08957AE0979F902DF1
:10405000879F802D910D1124089599278827089511
:10406000F999FECF92BD81BDF89A992780B5089540
:10407000262FF999FECF1FBA92BD81BD20BD0FB684
:10408000F894FA9AF99A0FBE01960895DB018F937E
:104090009F930E947820BF91AF91A29F800D911DA8
:1040A000A39F900DB29F900D11240895A1E21A2EA6
:1040B000AA1BBB1BFD010DC0AA1FBB1FEE1FFF1FCC
:1040C000A217B307E407F50720F0A21BB30BE40B1C
:1040D000F50B661F771F881F991F1A9469F7609563
:1040E0007095809590959B01AC01BD01CF0108951D
:1040F0000E948320A59F900DB49F900DA49F800DDA
:10410000911D11240895A29FB001B39FC001A39FE8
:10411000700D811D1124911DB29F700D811D112400
:10412000911D0895AA1BBB1B51E107C0AA1FBB1F0D
:10413000A617B70710F0A61BB70B881F991F5A9533
:10414000A9F780959095BC01CD01089597FB072EA6
:1041500016F4009407D077FD09D00E94922007FC46
:1041600005D03EF4909581959F4F08957095619587
:104170007F4F0895052E97FB1EF400940E94D120D6
:1041800057FD07D00E94562007FC03D04EF40C9434
:10419000D12050954095309521953F4F4F4F5F4F1F
:1041A000089590958095709561957F4F8F4F9F4FA3
:1041B0000895EE0FFF1F881F8BBF0790F691E02D2B
:1041C00019940F931F93CF93DF938230910510F4CE
:1041D00082E090E0E091160BF091170B30E020E0C8
:1041E000B0E0A0E0309799F42115310509F44AC0F8
:1041F000281B390B24303105D8F58A819B81611544
:10420000710589F1FB0193838283FE0111C0408116
:1042100051810281138148175907E0F04817590767
:1042200099F4109761F012960C93129713961C93C1
:104230003296CF01DF91CF911F910F910895009396
:10424000160B1093170BF4CF2115310551F04217BF
:10425000530738F0A901DB019A01BD01DF01F80124
:10426000C1CFEF01F9CF9093170B8093160BCDCFF1
:10427000FE01E20FF31F819391932250310939839C
:104280002883D7CF2091140B3091150B232B41F4A9
:1042900020913302309134023093150B2093140B8C
:1042A00020913102309132022115310541F42DB7B0
:1042B0003EB74091350250913602241B350BE091F8
:1042C000140BF091150BE217F307A0F42E1B3F0B14
:1042D0002817390778F0AC014E5F5F4F2417350778
:1042E00048F04E0F5F1F5093150B4093140B8193B2
:1042F00091939FCFF0E0E0E09CCFCF93DF930097C6
:10430000E9F0FC01329713821282A091160BB09152
:10431000170BED0130E020E01097A1F420813181EE
:10432000820F931F2091140B3091150B281739071A
:1043300009F061C0F093150BE093140BDF91CF915E
:104340000895EA01CE17DF07E8F54A815B819E01F7
:1043500041155105B1F7E901FB83EA834991599170
:10436000C40FD51FEC17FD0761F48081918102967F
:10437000840F951FE90199838883828193819B83B0
:104380008A83F0E0E0E012968D919C91139700975C
:10439000B9F52D913C911197CD010296820F931F93
:1043A0002091140B3091150B2817390739F63097E7
:1043B00051F51092170B1092160BB093150BA0939A
:1043C000140BBCCFD383C28340815181840F951FCE
:1043D000C817D90761F44E5F5F4F88819981480FF4
:1043E000591F518340838A819B8193838283211546
:1043F000310509F0B0CFF093170BE093160B9ECF69
:10440000FD01DC01C0CF13821282D7CF81E090E0A2
:10441000F8940C942025FB01DC0102C001900D9260
:1044200041505040D8F70895DC0101C06D934150D0
:104430005040E0F70895FB01DC018D910190801957
:104440000110D9F3990B0895FB01DC0101900D9245
:104450000020E1F70895FB01DC014150504030F0AD
:104460008D910190801919F40020B9F7881B990BE0
:104470000895FB01DC014150504048F001900D923D
:104480000020C9F701C01D9241505040E0F7089547
:104490000F931F93CF93DF93CDB7DEB72E970FB651
:1044A000F894DEBF0FBECDBF0E891F89888D998D10
:1044B00026E02C831A83098397FF02C080E090E8EE
:1044C00001979E838D83AE01445E5F4F6A8D7B8D25
:1044D000CE0101960E9485224D815E8157FD0AC062
:1044E0002F813885421753070CF49A01020F131FCE
:1044F000F80110822E960FB6F894DEBF0FBECDBF26
:10450000DF91CF911F910F9108952F923F924F927B
:104510005F926F927F928F929F92AF92BF92CF9253
:10452000DF92EF92FF920F931F93CF93DF9300D010
:1045300000D000D01F921F92CDB7DEB77C013B01A7
:104540008A01FC0117821682838181FFDDC1CE01C1
:1045500001965C01F7019381F30193FD859193FF2F
:1045600081913F01882309F453C1853239F493FDC9
:10457000859193FF81913F01853229F4B70190E045
:104580000E949224E7CF912C212C312CFFE1F315CE
:1045900038F08B3211F190F4803209F1833229F135
:1045A00037FC3CC020ED280F2A3050F536FE20C0E5
:1045B0008AE0989E200D1124922E06C08D3291F033
:1045C000803371F7689430F8F30193FD859193FF80
:1045D00081913F018111DACF21C0689431F868944C
:1045E00032F8F2CF689433F8EFCF689434F8ECCF18
:1045F000EAE02E9E200D1124222E689435F8E4CF97
:104600008E3229F436FC04C1689436F8DDCF8C363E
:1046100019F4689437F8D8CF8836B1F2982F9F7D77
:1046200095549330E0F08336A1F18337C1F183359F
:1046300009F063C02801F2E04F0E511CF801C08060
:10464000D180692D70E036FC02C06FEF7FEFC601AC
:104650000E9487244C01689437F882010AC00C5FDD
:104660001F4FFFE3F98388248394912C6501E8941C
:1046700037F833FE2DC0522C8114910471F555206A
:1046800009F468CFB70180E290E00E9492245A9426
:10469000F6CFF801808189830E5F1F4FE4CF280198
:1046A000F2E04F0E511CF801C080D180692D70E0FE
:1046B00036FC02C06FEF7FEFC6010E941A204C014A
:1046C0008201D5CFB70180E290E00E9492242A9423
:1046D0002814190409F0B0F7CECFF60137FC859104
:1046E00037FE81916F01B70190E00E949224511032
:1046F0005A94F1E08F1A9108BFCF843619F08936A9
:1047000009F077C0F80137FE6BC06081718182814A
:1047100093810C5F1F4FF32DFF763F2E97FF09C04B
:1047200090958095709561957F4F8F4F9F4F6894BE
:1047300037F82AE030E0A5010E94C224C82ECA182A
:104740008C2C432C36FE0CC0E89440F8C91440F47D
:1047500034FE05C032FC03C0F32DFE7E4F2E892CA3
:1047600044FEAAC0FE01EC0DF11D8081803309F0EA
:104770009CC0242D297E422E842D8870582E43FC07
:10478000AAC040FEA4C09C2C821418F42C0C922CBD
:10479000981844FEA6C0B70180E390E00E949224DE
:1047A00042FE09C088E790E041FE02C088E590E043
:1047B000B7010E949224C91408F49FC0CA94D12C56
:1047C0009FEFC91AD90ACA0CDB1CF60182916F014E
:1047D000B70190E00E949224AC14BD04B1F74FCF12
:1047E00060817181072E000C880B990B0E5F1F4FA3
:1047F00092CFD32CE894D4F82AE030E08537E1F169
:10480000232D297FD22E8F36A9F1F0F4883551F16E
:10481000F701868197812B960FB6F894DEBF0FBE05
:10482000CDBFDF91CF911F910F91FF90EF90DF905F
:10483000CF90BF90AF909F908F907F906F905F9040
:104840004F903F902F900895803749F0883701F7B7
:10485000D4FE02C06894D2F820E130E00DC0689424
:10486000D4F8F6CF34FE03C0822F8660D82E20E124
:1048700032E002C028E030E0F801D7FE0FC06081CE
:104880007181828193810C5F1F4FA5010E94C22418
:10489000C82ECA183D2CE89437F852CF6081718138
:1048A00090E080E00E5F1F4FF0CF42FC02C0839487
:1048B00063CF8394839460CF842D867809F45CCF92
:1048C000F6CFB70180E290E00E9492248394821494
:1048D000C0F3512C5ECF522C5818821408F459CFD3
:1048E000F8CF842D867809F466CF8BE241FE80E212
:1048F00047FC8DE2B70190E05CCFB70180E390E028
:104900000E9492249A9457CF8FEF9FEF84CFFC019F
:104910000590615070400110D8F7809590958E0FEA
:104920009F1F08950F931F93CF93DF93182F092F85
:10493000EB018B8181FD09C01FEF0FEF812F902FBD
:10494000DF91CF911F910F91089582FF14C02E81A6
:104950003F818C819D81281739073CF4E881F981DA
:10496000CF0101969983888310838E819F81019660
:104970009F838E83E3CFE885F985812F1995892B55
:10498000A1F3DACFFA01AA27283051F1203181F1C1
:10499000E8946F936E7F6E5F7F4F8F4F9F4FAF4F47
:1049A000B1E03ED0B4E03CD0670F781F891F9A1F5A
:1049B000A11D680F791F8A1F911DA11D6A0F711D0E
:1049C000811D911DA11D20D009F468943F912AE01A
:1049D000269F11243019305D3193DEF6CF01089502
:1049E000462F4770405D4193B3E00FD0C9F7F6CF33
:1049F000462F4F70405D4A3318F0495D31FD4052FB
:104A0000419302D0A9F7EACFB4E0A6959795879590
:104A100077956795BA95C9F700976105710508956F
:104A20009B01AC010A2E069457954795379527951B
:104A3000BA95C9F7620F731F841F951FA01D0895B3
:044A4000F894FFCF18
:104A44003B02FFFFFFFF000000004D02FF010100D9
:104A5400000000FF010100000000FF010100000050
:104A640000FF010100000000FF0101000000005FE1
:104A7400020000180B800000000000F108C11004BF
:104A8400090209A5080F09AD0C00000000F208C3D3
:104A9400100C090A09CA087409600D00000000F32B
:104AA40008BF100709F70810090F0948168108956F
:104AB40008A708AF08B708BF08C708CF08D708E099
:104AC40008E908F208FB0804090A09100916091C78
:104AD40009DB03DF03EB03F7030104000000008993
:104AE400066203E106C908E106DE06C10DDB06DB4A
:104AF400060000000089066203E106C90842078631
:104B04000F270F1907DB06667720302E322E302D43
:104B140068616C206177616974696E67005A4552F7
:104B24004F54582056464420202020202020202066
:104B340020003A0541054605070624092909080904
:104B44001E1F20212223262728292A2C2D2E2F31EF
:104B54002F020D0BB30A0A020002980A000000009B
:104B6400F80362038F034504C0039E03B2030000ED
:104B74000000F508C710FC08F708250A5B13CB10E2
:104B840000000000F608C910F908F7082F100F09F3
:104B9400FA0D00000000F408C510FF08F7084D09DD
:104BA4001A08FC0B777300766664006C65642E74D7
:104BB4007261636B62616C6C0068616C0062757435
:104BC400746F6E004556454E5420007265616479D9
:104BD40000757000646F776E00627574746F6E2E6A
:104BE400257500212000696E69742D6661696C6504
:104BF400642072633D2564007666642E30003E2096
:104C040000756E6B6E6F776E00534554006D69735B
:104C140073696E672D7374617465006F66660067EF
:104C24007265656E2D736F6C696400677265656E7D
:104C34002D70756C7365007265642D736F6C696497
:104C4400007265642D626C696E6B00696E76616CCE
:104C540069642D737461746500474554006C656420
:104C64002E747261636B62616C6C202573006C65D9
:104C7400642E25752025730072656C656173656407
:104C8400007072657373656400627574746F6E2E60
:104C94002575202573006E6F742D696E69746961C2
:104CA4006C697A65640077732E300077732E302038
:104CB400636F756E743D2575206272696768746EE2
:104CC4006573733D2575006D697373696E672D7027
:104CD4006172616D00706978656C007573616765F8
:104CE4003A7365742077732E3020706978656C2070
:104CF4003C693E203C7272676762623E00696E6482
:104D040065782D6F75742D6F662D72616E67650001
:104D1400696E76616C69642D636F6C6F72006D6986
:104D24007373696E672D636F6C6F72006D69737353
:104D3400696E672D6272696768746E657373006269
:104D440072696768746E6573732D6F75742D6F6601
:104D54002D72616E676500636C65617200756E6BC0
:104D64006E6F776E2D706172616D002D006D6973C9
:104D740073696E672D6D6F64650062616E6E657236
:104D84000069646C6500616D6269656E7400696ECA
:104D940076616C69642D6D6F6465006D6973736908
:104DA4006E672D6C6576656C00696E76616C6964FE
:104DB4002D6C6576656C006C696E65006D69737346
:104DC400696E672D726F7700696E76616C69642D08
:104DD400726F77007469636B006D697373696E67D2
:104DE4002D61726D2D7374617465006D69737369DF
:104DF4006E672D666D6D6F6465006D697373696EA2
:104E0400672D6C71006D697373696E672D626174CF
:104E140074006D697373696E672D6B696E640077D6
:104E240061726E00637269746963616C00666169C2
:104E34006C7361666500696E76616C69642D616C82
:104E440061726D0064697361726D65640076666495
:104E54002E30206D6F64653D25732061726D65642D
:104E64003D256420666D6D6F64653D2573206C710E
:104E74003D2573257520626174743D257300252DCD
:104E8400313273204C513A25337500252D3230735D
:104E9400005A45524F54582020202020252D377386
:104EA400005A45524F5458202020202020202020F2
:104EB4002020202000256320252D313073204C51E3
:104EC4003A25337500256320252D31387300256379
:104ED4002041524D45442020202020202020202005
:104EE40020202020003F006D61700068616C206DFF
:104EF400617020736F757263653D257320636F75F0
:104F04006E743D25750068616C2070696E2025758E
:104F140020257320257500736F75726365006861C1
:104F24006C20736F7572636520257300756E6B6EEC
:104F34006F776E2D6765740070696E0075736167B5
:104F4400653A7365742068616C2070696E203C6EEC
:104F5400616D653E203C6E756D3E00696E76616CD8
:104F640069642D70696E2D6E756D6265720070696D
:104F74006E2D6F75742D6F662D72616E6765006896
:104F8400616C2073746167656420257320256C64EB
:104F940020287265626F6F7420746F206170706C6A
:104FA40079290073746167652D6661696C656400B5
:104FB40072657365742D64656661756C74730068DD
:104FC400616C2072657365742D64656661756C74BB
:104FD400732073746167656420287265626F6F74EF
:104FE40020746F206170706C79290068616C207284
:104FF40065626F6F7400756E6B6E6F776E2D73657F
:105004007400756E6B6E6F776E2D70696E2D6E61A8
:105014006D65007761746368646F672D726573658D
:105024007400706F7765722D6F6E006C6F616465CC
:10503400642D656570726F6D006C6F616465642DBD
:1050440064656661756C747300302E342E302D697E
:105054006F78007A65726F74782D696F007265617C
:105064006479202573202573006C696E652D746F37
:105074006F2D6C6F6E670070726F746F636F6C006E
:1050840076657273696F6E0076657273696F6E20F0
:1050940025732025730063617073002025732E250A
:1050A4007500756E6B6E6F776E2D746172676574C3
:1050B40000756E6B6E6F776E2D636F6D6D616E64D0
:1050C400006C65645F747261636B62616C6C5F67D2
:1050D4007265656E006C65645F747261636B6261B6
:1050E4006C6C5F72656400766664305F7273007620
:1050F4006664305F656E00766664305F64340076A3
:105104006664305F643500766664305F64360076CA
:105114006664305F643700627574746F6E5F30006C
:10512400627574746F6E5F3100627574746F6E5F54
:105134003200627574746F6E5F3300627574746FDD
:105144006E5F34006C65645F30006C65645F3100D1
:105154006C65645F32006C65645F330077735F6411
:105164006174610074657874006576656E7400001E
:00000001FF
